{
  "contractName": "MilkFactory",
  "abi": [
    {
      "anonymous": false,
      "inputs": [
        {
          "indexed": false,
          "internalType": "string",
          "name": "message",
          "type": "string"
        }
      ],
      "name": "LogMessage",
      "type": "event"
    },
    {
      "anonymous": false,
      "inputs": [
        {
          "indexed": false,
          "internalType": "uint256",
          "name": "productId",
          "type": "uint256"
        }
      ],
      "name": "ProductAdded",
      "type": "event"
    },
    {
      "anonymous": false,
      "inputs": [
        {
          "indexed": false,
          "internalType": "uint256",
          "name": "productId",
          "type": "uint256"
        }
      ],
      "name": "SpoiledProduct",
      "type": "event"
    },
    {
      "inputs": [],
      "name": "cowCount",
      "outputs": [
        {
          "internalType": "uint256",
          "name": "",
          "type": "uint256"
        }
      ],
      "stateMutability": "view",
      "type": "function",
      "constant": true
    },
    {
      "inputs": [
        {
          "internalType": "uint256",
          "name": "",
          "type": "uint256"
        }
      ],
      "name": "cowList",
      "outputs": [
        {
          "internalType": "uint256",
          "name": "id",
          "type": "uint256"
        },
        {
          "internalType": "uint256",
          "name": "weight",
          "type": "uint256"
        },
        {
          "internalType": "string",
          "name": "breed",
          "type": "string"
        },
        {
          "internalType": "string",
          "name": "birthDate",
          "type": "string"
        },
        {
          "internalType": "string",
          "name": "residence",
          "type": "string"
        }
      ],
      "stateMutability": "view",
      "type": "function",
      "constant": true
    },
    {
      "inputs": [
        {
          "internalType": "uint256",
          "name": "",
          "type": "uint256"
        },
        {
          "internalType": "uint256",
          "name": "",
          "type": "uint256"
        }
      ],
      "name": "cowToMilkList",
      "outputs": [
        {
          "internalType": "uint256",
          "name": "id",
          "type": "uint256"
        },
        {
          "internalType": "uint256",
          "name": "cowId",
          "type": "uint256"
        },
        {
          "internalType": "string",
          "name": "dateOfProduction",
          "type": "string"
        }
      ],
      "stateMutability": "view",
      "type": "function",
      "constant": true
    },
    {
      "inputs": [
        {
          "internalType": "uint256",
          "name": "",
          "type": "uint256"
        }
      ],
      "name": "cowToOwner",
      "outputs": [
        {
          "internalType": "address",
          "name": "",
          "type": "address"
        }
      ],
      "stateMutability": "view",
      "type": "function",
      "constant": true
    },
    {
      "inputs": [],
      "name": "milkCount",
      "outputs": [
        {
          "internalType": "uint256",
          "name": "",
          "type": "uint256"
        }
      ],
      "stateMutability": "view",
      "type": "function",
      "constant": true
    },
    {
      "inputs": [
        {
          "internalType": "uint256",
          "name": "",
          "type": "uint256"
        }
      ],
      "name": "milkList",
      "outputs": [
        {
          "internalType": "uint256",
          "name": "id",
          "type": "uint256"
        },
        {
          "internalType": "uint256",
          "name": "cowId",
          "type": "uint256"
        },
        {
          "internalType": "string",
          "name": "dateOfProduction",
          "type": "string"
        }
      ],
      "stateMutability": "view",
      "type": "function",
      "constant": true
    },
    {
      "inputs": [
        {
          "internalType": "uint256",
          "name": "",
          "type": "uint256"
        }
      ],
      "name": "milkToCow",
      "outputs": [
        {
          "internalType": "uint256",
          "name": "",
          "type": "uint256"
        }
      ],
      "stateMutability": "view",
      "type": "function",
      "constant": true
    },
    {
      "inputs": [
        {
          "internalType": "uint256",
          "name": "",
          "type": "uint256"
        },
        {
          "internalType": "uint256",
          "name": "",
          "type": "uint256"
        }
      ],
      "name": "milkToProductList",
      "outputs": [
        {
          "internalType": "uint256",
          "name": "id",
          "type": "uint256"
        },
        {
          "internalType": "uint256",
          "name": "milkId",
          "type": "uint256"
        },
        {
          "internalType": "string",
          "name": "dateOfProduction",
          "type": "string"
        },
        {
          "internalType": "string",
          "name": "productType",
          "type": "string"
        },
        {
          "internalType": "string",
          "name": "expiryDate",
          "type": "string"
        }
      ],
      "stateMutability": "view",
      "type": "function",
      "constant": true
    },
    {
      "inputs": [
        {
          "internalType": "address",
          "name": "",
          "type": "address"
        }
      ],
      "name": "ownerMilkCount",
      "outputs": [
        {
          "internalType": "uint256",
          "name": "",
          "type": "uint256"
        }
      ],
      "stateMutability": "view",
      "type": "function",
      "constant": true
    },
    {
      "inputs": [
        {
          "internalType": "address",
          "name": "",
          "type": "address"
        },
        {
          "internalType": "uint256",
          "name": "",
          "type": "uint256"
        }
      ],
      "name": "ownerToCowList",
      "outputs": [
        {
          "internalType": "uint256",
          "name": "id",
          "type": "uint256"
        },
        {
          "internalType": "uint256",
          "name": "weight",
          "type": "uint256"
        },
        {
          "internalType": "string",
          "name": "breed",
          "type": "string"
        },
        {
          "internalType": "string",
          "name": "birthDate",
          "type": "string"
        },
        {
          "internalType": "string",
          "name": "residence",
          "type": "string"
        }
      ],
      "stateMutability": "view",
      "type": "function",
      "constant": true
    },
    {
      "inputs": [
        {
          "internalType": "address",
          "name": "",
          "type": "address"
        },
        {
          "internalType": "uint256",
          "name": "",
          "type": "uint256"
        }
      ],
      "name": "ownerToMilk",
      "outputs": [
        {
          "internalType": "uint256",
          "name": "id",
          "type": "uint256"
        },
        {
          "internalType": "uint256",
          "name": "cowId",
          "type": "uint256"
        },
        {
          "internalType": "string",
          "name": "dateOfProduction",
          "type": "string"
        }
      ],
      "stateMutability": "view",
      "type": "function",
      "constant": true
    },
    {
      "inputs": [],
      "name": "productCount",
      "outputs": [
        {
          "internalType": "uint256",
          "name": "",
          "type": "uint256"
        }
      ],
      "stateMutability": "view",
      "type": "function",
      "constant": true
    },
    {
      "inputs": [
        {
          "internalType": "uint256",
          "name": "",
          "type": "uint256"
        }
      ],
      "name": "productList",
      "outputs": [
        {
          "internalType": "uint256",
          "name": "id",
          "type": "uint256"
        },
        {
          "internalType": "uint256",
          "name": "milkId",
          "type": "uint256"
        },
        {
          "internalType": "string",
          "name": "dateOfProduction",
          "type": "string"
        },
        {
          "internalType": "string",
          "name": "productType",
          "type": "string"
        },
        {
          "internalType": "string",
          "name": "expiryDate",
          "type": "string"
        }
      ],
      "stateMutability": "view",
      "type": "function",
      "constant": true
    },
    {
      "inputs": [
        {
          "internalType": "uint256",
          "name": "",
          "type": "uint256"
        }
      ],
      "name": "spoiledProducts",
      "outputs": [
        {
          "internalType": "bool",
          "name": "",
          "type": "bool"
        }
      ],
      "stateMutability": "view",
      "type": "function",
      "constant": true
    },
    {
      "inputs": [
        {
          "internalType": "uint256",
          "name": "_weight",
          "type": "uint256"
        },
        {
          "internalType": "string",
          "name": "_breed",
          "type": "string"
        },
        {
          "internalType": "string",
          "name": "_birthDate",
          "type": "string"
        },
        {
          "internalType": "string",
          "name": "_residence",
          "type": "string"
        }
      ],
      "name": "addCow",
      "outputs": [],
      "stateMutability": "nonpayable",
      "type": "function"
    },
    {
      "inputs": [
        {
          "internalType": "uint256",
          "name": "_cowId",
          "type": "uint256"
        },
        {
          "internalType": "string",
          "name": "_dateOfProduction",
          "type": "string"
        }
      ],
      "name": "addMilk",
      "outputs": [],
      "stateMutability": "nonpayable",
      "type": "function"
    },
    {
      "inputs": [
        {
          "internalType": "uint256",
          "name": "_milkId",
          "type": "uint256"
        },
        {
          "internalType": "string",
          "name": "_dateOfProduction",
          "type": "string"
        },
        {
          "internalType": "string",
          "name": "_productType",
          "type": "string"
        },
        {
          "internalType": "string",
          "name": "_expiryDate",
          "type": "string"
        }
      ],
      "name": "addProduct",
      "outputs": [],
      "stateMutability": "nonpayable",
      "type": "function"
    },
    {
      "inputs": [],
      "name": "getAllCows",
      "outputs": [
        {
          "components": [
            {
              "internalType": "uint256",
              "name": "id",
              "type": "uint256"
            },
            {
              "internalType": "uint256",
              "name": "weight",
              "type": "uint256"
            },
            {
              "internalType": "string",
              "name": "breed",
              "type": "string"
            },
            {
              "internalType": "string",
              "name": "birthDate",
              "type": "string"
            },
            {
              "internalType": "string",
              "name": "residence",
              "type": "string"
            }
          ],
          "internalType": "struct MilkFactory.Cow[]",
          "name": "",
          "type": "tuple[]"
        }
      ],
      "stateMutability": "view",
      "type": "function",
      "constant": true
    },
    {
      "inputs": [],
      "name": "getCowsOfOwner",
      "outputs": [
        {
          "components": [
            {
              "internalType": "uint256",
              "name": "id",
              "type": "uint256"
            },
            {
              "internalType": "uint256",
              "name": "weight",
              "type": "uint256"
            },
            {
              "internalType": "string",
              "name": "breed",
              "type": "string"
            },
            {
              "internalType": "string",
              "name": "birthDate",
              "type": "string"
            },
            {
              "internalType": "string",
              "name": "residence",
              "type": "string"
            }
          ],
          "internalType": "struct MilkFactory.Cow[]",
          "name": "",
          "type": "tuple[]"
        }
      ],
      "stateMutability": "view",
      "type": "function",
      "constant": true
    },
    {
      "inputs": [],
      "name": "getAllMilks",
      "outputs": [
        {
          "components": [
            {
              "internalType": "uint256",
              "name": "id",
              "type": "uint256"
            },
            {
              "internalType": "uint256",
              "name": "cowId",
              "type": "uint256"
            },
            {
              "internalType": "string",
              "name": "dateOfProduction",
              "type": "string"
            }
          ],
          "internalType": "struct MilkFactory.Milk[]",
          "name": "",
          "type": "tuple[]"
        }
      ],
      "stateMutability": "view",
      "type": "function",
      "constant": true
    },
    {
      "inputs": [],
      "name": "getMilksOfOwner",
      "outputs": [
        {
          "components": [
            {
              "internalType": "uint256",
              "name": "id",
              "type": "uint256"
            },
            {
              "internalType": "uint256",
              "name": "cowId",
              "type": "uint256"
            },
            {
              "internalType": "string",
              "name": "dateOfProduction",
              "type": "string"
            }
          ],
          "internalType": "struct MilkFactory.Milk[]",
          "name": "",
          "type": "tuple[]"
        }
      ],
      "stateMutability": "view",
      "type": "function",
      "constant": true
    },
    {
      "inputs": [
        {
          "internalType": "uint256",
          "name": "_productId",
          "type": "uint256"
        }
      ],
      "name": "reportSpoiledProduct",
      "outputs": [],
      "stateMutability": "nonpayable",
      "type": "function"
    },
    {
      "inputs": [],
      "name": "getAllProducts",
      "outputs": [
        {
          "components": [
            {
              "internalType": "uint256",
              "name": "id",
              "type": "uint256"
            },
            {
              "internalType": "uint256",
              "name": "milkId",
              "type": "uint256"
            },
            {
              "internalType": "string",
              "name": "dateOfProduction",
              "type": "string"
            },
            {
              "internalType": "string",
              "name": "productType",
              "type": "string"
            },
            {
              "internalType": "string",
              "name": "expiryDate",
              "type": "string"
            }
          ],
          "internalType": "struct MilkFactory.Product[]",
          "name": "",
          "type": "tuple[]"
        }
      ],
      "stateMutability": "view",
      "type": "function",
      "constant": true
    },
    {
      "inputs": [
        {
          "internalType": "uint256",
          "name": "_productId",
          "type": "uint256"
        }
      ],
      "name": "getProduct",
      "outputs": [
        {
          "components": [
            {
              "internalType": "uint256",
              "name": "id",
              "type": "uint256"
            },
            {
              "internalType": "uint256",
              "name": "milkId",
              "type": "uint256"
            },
            {
              "internalType": "string",
              "name": "dateOfProduction",
              "type": "string"
            },
            {
              "internalType": "string",
              "name": "productType",
              "type": "string"
            },
            {
              "internalType": "string",
              "name": "expiryDate",
              "type": "string"
            }
          ],
          "internalType": "struct MilkFactory.Product",
          "name": "",
          "type": "tuple"
        }
      ],
      "stateMutability": "view",
      "type": "function",
      "constant": true
    },
    {
      "inputs": [
        {
          "internalType": "uint256",
          "name": "_productId",
          "type": "uint256"
        }
      ],
      "name": "isProductSpoiled",
      "outputs": [
        {
          "internalType": "bool",
          "name": "",
          "type": "bool"
        }
      ],
      "stateMutability": "view",
      "type": "function",
      "constant": true
    },
    {
      "inputs": [
        {
          "internalType": "uint256",
          "name": "_milkId",
          "type": "uint256"
        }
      ],
      "name": "getMilk",
      "outputs": [
        {
          "components": [
            {
              "internalType": "uint256",
              "name": "id",
              "type": "uint256"
            },
            {
              "internalType": "uint256",
              "name": "cowId",
              "type": "uint256"
            },
            {
              "internalType": "string",
              "name": "dateOfProduction",
              "type": "string"
            }
          ],
          "internalType": "struct MilkFactory.Milk",
          "name": "",
          "type": "tuple"
        }
      ],
      "stateMutability": "view",
      "type": "function",
      "constant": true
    },
    {
      "inputs": [
        {
          "internalType": "uint256",
          "name": "_cowId",
          "type": "uint256"
        }
      ],
      "name": "getCow",
      "outputs": [
        {
          "components": [
            {
              "internalType": "uint256",
              "name": "id",
              "type": "uint256"
            },
            {
              "internalType": "uint256",
              "name": "weight",
              "type": "uint256"
            },
            {
              "internalType": "string",
              "name": "breed",
              "type": "string"
            },
            {
              "internalType": "string",
              "name": "birthDate",
              "type": "string"
            },
            {
              "internalType": "string",
              "name": "residence",
              "type": "string"
            }
          ],
          "internalType": "struct MilkFactory.Cow",
          "name": "",
          "type": "tuple"
        }
      ],
      "stateMutability": "view",
      "type": "function",
      "constant": true
    }
  ],
  "bytecode": "0x6080604052600080556000600155600060025534801561001e57600080fd5b506139d08061002e6000396000f3fe608060405234801561001057600080fd5b50600436106101a95760003560e01c80637ba3372d116100f9578063beda38f511610097578063e0f6ef8711610071578063e0f6ef8714610580578063e749303a1461059e578063edb5a457146105ba578063ef2670f1146105d8576101a9565b8063beda38f5146104fc578063c1393d2714610530578063cb7cdaad1461054c576101a9565b80639341e45a116100d35780639341e45a1461044c578063b6f7ea8a1461047c578063b9db15b41461049a578063b9f9fbfe146104ca576101a9565b80637ba3372d146103dc5780638de6e5f114610410578063927fb4de1461042e576101a9565b8063329bcfa5116101665780634a71bd2a116101405780634a71bd2a1461032a578063528c87d2146103485780635515d0f61461037c5780636c46f2a0146103ac576101a9565b8063329bcfa5146102ac57806334df9b60146102ca5780633f00ee6f146102fa576101a9565b806302ee3a52146101ae57806308f0eb53146101cc5780630f926aeb146101e8578063184e9c2d146102185780631dc2c408146102485780632bd6ccc81461027a575b600080fd5b6101b66105f4565b6040516101c39190612a64565b60405180910390f35b6101e660048036038101906101e19190612bfb565b61081d565b005b61020260048036038101906101fd9190612cb5565b610ac5565b60405161020f9190612cf1565b60405180910390f35b610232600480360381019061022d9190612d0c565b610add565b60405161023f9190612d89565b60405180910390f35b610262600480360381019061025d9190612dab565b610c50565b60405161027193929190612e35565b60405180910390f35b610294600480360381019061028f9190612d0c565b610d1f565b6040516102a393929190612e35565b60405180910390f35b6102b4610de1565b6040516102c19190612f85565b60405180910390f35b6102e460048036038101906102df9190612d0c565b610ee6565b6040516102f1919061302b565b60405180910390f35b610314600480360381019061030f9190612d0c565b61117d565b6040516103219190613068565b60405180910390f35b61033261119d565b60405161033f9190612f85565b60405180910390f35b610362600480360381019061035d9190612d0c565b6112df565b604051610373959493929190613083565b60405180910390f35b61039660048036038101906103919190612d0c565b6114bd565b6040516103a391906130fa565b60405180910390f35b6103c660048036038101906103c19190612d0c565b6114f0565b6040516103d39190612cf1565b60405180910390f35b6103f660048036038101906103f19190612dab565b611508565b604051610407959493929190613083565b60405180910390f35b6104186116f3565b6040516104259190612cf1565b60405180910390f35b6104366116f9565b604051610443919061325b565b60405180910390f35b61046660048036038101906104619190612d0c565b611922565b6040516104739190613068565b60405180910390f35b61048461194c565b604051610491919061325b565b60405180910390f35b6104b460048036038101906104af9190612d0c565b611bb2565b6040516104c19190613301565b60405180910390f35b6104e460048036038101906104df9190613323565b611e49565b6040516104f393929190612e35565b60405180910390f35b61051660048036038101906105119190613323565b611f18565b604051610527959493929190613083565b60405180910390f35b61054a60048036038101906105459190613363565b612103565b005b61056660048036038101906105619190612d0c565b612385565b604051610577959493929190613083565b60405180910390f35b610588612563565b6040516105959190612cf1565b60405180910390f35b6105b860048036038101906105b39190613363565b612569565b005b6105c261274f565b6040516105cf9190612cf1565b60405180910390f35b6105f260048036038101906105ed9190612d0c565b612755565b005b60606005805480602002602001604051908101604052809291908181526020016000905b8282101561081457838290600052602060002090600502016040518060a0016040529081600082015481526020016001820154815260200160028201805461065f9061344d565b80601f016020809104026020016040519081016040528092919081815260200182805461068b9061344d565b80156106d85780601f106106ad576101008083540402835291602001916106d8565b820191906000526020600020905b8154815290600101906020018083116106bb57829003601f168201915b505050505081526020016003820180546106f19061344d565b80601f016020809104026020016040519081016040528092919081815260200182805461071d9061344d565b801561076a5780601f1061073f5761010080835404028352916020019161076a565b820191906000526020600020905b81548152906001019060200180831161074d57829003601f168201915b505050505081526020016004820180546107839061344d565b80601f01602080910402602001604051908101604052809291908181526020018280546107af9061344d565b80156107fc5780601f106107d1576101008083540402835291602001916107fc565b820191906000526020600020905b8154815290600101906020018083116107df57829003601f168201915b50505050508152505081526020019060010190610618565b50505050905090565b813373ffffffffffffffffffffffffffffffffffffffff166006600083815260200190815260200160002060009054906101000a900473ffffffffffffffffffffffffffffffffffffffff1673ffffffffffffffffffffffffffffffffffffffff16146108bf576040517f08c379a00000000000000000000000000000000000000000000000000000000081526004016108b6906134f0565b60405180910390fd5b600060405180606001604052806001548152602001858152602001848152509050600160008154809291906108f39061353f565b919050555060048190806001815401808255809150506001900390600052602060002090600302016000909190919091506000820151816000015560208201518160010155604082015181600201908161094d9190613733565b505050600a6000858152602001908152602001600020819080600181540180825580915050600190039060005260206000209060030201600090919091909150600082015181600001556020820151816001015560408201518160020190816109b69190613733565b50505083600760008360000151815260200190815260200160002081905550600860003373ffffffffffffffffffffffffffffffffffffffff1673ffffffffffffffffffffffffffffffffffffffff1681526020019081526020016000206000815480929190610a259061353f565b9190505550600c60003373ffffffffffffffffffffffffffffffffffffffff1673ffffffffffffffffffffffffffffffffffffffff16815260200190815260200160002081908060018154018082558091505060019003906000526020600020906003020160009091909190915060008201518160000155602082015181600101556040820151816002019081610abc9190613733565b50505050505050565b60086020528060005260406000206000915090505481565b610ae56127f6565b60005b600480549050811015610c0f578260048281548110610b0a57610b09613805565b5b90600052602060002090600302016000015403610bfc5760048181548110610b3557610b34613805565b5b90600052602060002090600302016040518060600160405290816000820154815260200160018201548152602001600282018054610b729061344d565b80601f0160208091040260200160405190810160405280929190818152602001828054610b9e9061344d565b8015610beb5780601f10610bc057610100808354040283529160200191610beb565b820191906000526020600020905b815481529060010190602001808311610bce57829003601f168201915b505050505081525050915050610c4b565b8080610c079061353f565b915050610ae8565b506040517f08c379a0000000000000000000000000000000000000000000000000000000008152600401610c4290613880565b60405180910390fd5b919050565b600a6020528160005260406000208181548110610c6c57600080fd5b906000526020600020906003020160009150915050806000015490806001015490806002018054610c9c9061344d565b80601f0160208091040260200160405190810160405280929190818152602001828054610cc89061344d565b8015610d155780601f10610cea57610100808354040283529160200191610d15565b820191906000526020600020905b815481529060010190602001808311610cf857829003601f168201915b5050505050905083565b60048181548110610d2f57600080fd5b9060005260206000209060030201600091509050806000015490806001015490806002018054610d5e9061344d565b80601f0160208091040260200160405190810160405280929190818152602001828054610d8a9061344d565b8015610dd75780601f10610dac57610100808354040283529160200191610dd7565b820191906000526020600020905b815481529060010190602001808311610dba57829003601f168201915b5050505050905083565b60606004805480602002602001604051908101604052809291908181526020016000905b82821015610edd57838290600052602060002090600302016040518060600160405290816000820154815260200160018201548152602001600282018054610e4c9061344d565b80601f0160208091040260200160405190810160405280929190818152602001828054610e789061344d565b8015610ec55780601f10610e9a57610100808354040283529160200191610ec5565b820191906000526020600020905b815481529060010190602001808311610ea857829003601f168201915b50505050508152505081526020019060010190610e05565b50505050905090565b610eee612817565b60005b60038054905081101561113c578260038281548110610f1357610f12613805565b5b906000526020600020906005020160000154036111295760038181548110610f3e57610f3d613805565b5b90600052602060002090600502016040518060a00160405290816000820154815260200160018201548152602001600282018054610f7b9061344d565b80601f0160208091040260200160405190810160405280929190818152602001828054610fa79061344d565b8015610ff45780601f10610fc957610100808354040283529160200191610ff4565b820191906000526020600020905b815481529060010190602001808311610fd757829003601f168201915b5050505050815260200160038201805461100d9061344d565b80601f01602080910402602001604051908101604052809291908181526020018280546110399061344d565b80156110865780601f1061105b57610100808354040283529160200191611086565b820191906000526020600020905b81548152906001019060200180831161106957829003601f168201915b5050505050815260200160048201805461109f9061344d565b80601f01602080910402602001604051908101604052809291908181526020018280546110cb9061344d565b80156111185780601f106110ed57610100808354040283529160200191611118565b820191906000526020600020905b8154815290600101906020018083116110fb57829003601f168201915b505050505081525050915050611178565b80806111349061353f565b915050610ef1565b506040517f08c379a000000000000000000000000000000000000000000000000000000000815260040161116f906138ec565b60405180910390fd5b919050565b600d6020528060005260406000206000915054906101000a900460ff1681565b6060600c60003373ffffffffffffffffffffffffffffffffffffffff1673ffffffffffffffffffffffffffffffffffffffff168152602001908152602001600020805480602002602001604051908101604052809291908181526020016000905b828210156112d6578382906000526020600020906003020160405180606001604052908160008201548152602001600182015481526020016002820180546112459061344d565b80601f01602080910402602001604051908101604052809291908181526020018280546112719061344d565b80156112be5780601f10611293576101008083540402835291602001916112be565b820191906000526020600020905b8154815290600101906020018083116112a157829003601f168201915b505050505081525050815260200190600101906111fe565b50505050905090565b600581815481106112ef57600080fd5b906000526020600020906005020160009150905080600001549080600101549080600201805461131e9061344d565b80601f016020809104026020016040519081016040528092919081815260200182805461134a9061344d565b80156113975780601f1061136c57610100808354040283529160200191611397565b820191906000526020600020905b81548152906001019060200180831161137a57829003601f168201915b5050505050908060030180546113ac9061344d565b80601f01602080910402602001604051908101604052809291908181526020018280546113d89061344d565b80156114255780601f106113fa57610100808354040283529160200191611425565b820191906000526020600020905b81548152906001019060200180831161140857829003601f168201915b50505050509080600401805461143a9061344d565b80601f01602080910402602001604051908101604052809291908181526020018280546114669061344d565b80156114b35780601f10611488576101008083540402835291602001916114b3565b820191906000526020600020905b81548152906001019060200180831161149657829003601f168201915b5050505050905085565b60066020528060005260406000206000915054906101000a900473ffffffffffffffffffffffffffffffffffffffff1681565b60076020528060005260406000206000915090505481565b600b602052816000526040600020818154811061152457600080fd5b9060005260206000209060050201600091509150508060000154908060010154908060020180546115549061344d565b80601f01602080910402602001604051908101604052809291908181526020018280546115809061344d565b80156115cd5780601f106115a2576101008083540402835291602001916115cd565b820191906000526020600020905b8154815290600101906020018083116115b057829003601f168201915b5050505050908060030180546115e29061344d565b80601f016020809104026020016040519081016040528092919081815260200182805461160e9061344d565b801561165b5780601f106116305761010080835404028352916020019161165b565b820191906000526020600020905b81548152906001019060200180831161163e57829003601f168201915b5050505050908060040180546116709061344d565b80601f016020809104026020016040519081016040528092919081815260200182805461169c9061344d565b80156116e95780601f106116be576101008083540402835291602001916116e9565b820191906000526020600020905b8154815290600101906020018083116116cc57829003601f168201915b5050505050905085565b60015481565b60606003805480602002602001604051908101604052809291908181526020016000905b8282101561191957838290600052602060002090600502016040518060a001604052908160008201548152602001600182015481526020016002820180546117649061344d565b80601f01602080910402602001604051908101604052809291908181526020018280546117909061344d565b80156117dd5780601f106117b2576101008083540402835291602001916117dd565b820191906000526020600020905b8154815290600101906020018083116117c057829003601f168201915b505050505081526020016003820180546117f69061344d565b80601f01602080910402602001604051908101604052809291908181526020018280546118229061344d565b801561186f5780601f106118445761010080835404028352916020019161186f565b820191906000526020600020905b81548152906001019060200180831161185257829003601f168201915b505050505081526020016004820180546118889061344d565b80601f01602080910402602001604051908101604052809291908181526020018280546118b49061344d565b80156119015780601f106118d657610100808354040283529160200191611901565b820191906000526020600020905b8154815290600101906020018083116118e457829003601f168201915b5050505050815250508152602001906001019061171d565b50505050905090565b6000600d600083815260200190815260200160002060009054906101000a900460ff169050919050565b6060600960003373ffffffffffffffffffffffffffffffffffffffff1673ffffffffffffffffffffffffffffffffffffffff168152602001908152602001600020805480602002602001604051908101604052809291908181526020016000905b82821015611ba957838290600052602060002090600502016040518060a001604052908160008201548152602001600182015481526020016002820180546119f49061344d565b80601f0160208091040260200160405190810160405280929190818152602001828054611a209061344d565b8015611a6d5780601f10611a4257610100808354040283529160200191611a6d565b820191906000526020600020905b815481529060010190602001808311611a5057829003601f168201915b50505050508152602001600382018054611a869061344d565b80601f0160208091040260200160405190810160405280929190818152602001828054611ab29061344d565b8015611aff5780601f10611ad457610100808354040283529160200191611aff565b820191906000526020600020905b815481529060010190602001808311611ae257829003601f168201915b50505050508152602001600482018054611b189061344d565b80601f0160208091040260200160405190810160405280929190818152602001828054611b449061344d565b8015611b915780601f10611b6657610100808354040283529160200191611b91565b820191906000526020600020905b815481529060010190602001808311611b7457829003601f168201915b505050505081525050815260200190600101906119ad565b50505050905090565b611bba612846565b60005b600580549050811015611e08578260058281548110611bdf57611bde613805565b5b90600052602060002090600502016000015403611df55760058181548110611c0a57611c09613805565b5b90600052602060002090600502016040518060a00160405290816000820154815260200160018201548152602001600282018054611c479061344d565b80601f0160208091040260200160405190810160405280929190818152602001828054611c739061344d565b8015611cc05780601f10611c9557610100808354040283529160200191611cc0565b820191906000526020600020905b815481529060010190602001808311611ca357829003601f168201915b50505050508152602001600382018054611cd99061344d565b80601f0160208091040260200160405190810160405280929190818152602001828054611d059061344d565b8015611d525780601f10611d2757610100808354040283529160200191611d52565b820191906000526020600020905b815481529060010190602001808311611d3557829003601f168201915b50505050508152602001600482018054611d6b9061344d565b80601f0160208091040260200160405190810160405280929190818152602001828054611d979061344d565b8015611de45780601f10611db957610100808354040283529160200191611de4565b820191906000526020600020905b815481529060010190602001808311611dc757829003601f168201915b505050505081525050915050611e44565b8080611e009061353f565b915050611bbd565b506040517f08c379a0000000000000000000000000000000000000000000000000000000008152600401611e3b90613958565b60405180910390fd5b919050565b600c6020528160005260406000208181548110611e6557600080fd5b906000526020600020906003020160009150915050806000015490806001015490806002018054611e959061344d565b80601f0160208091040260200160405190810160405280929190818152602001828054611ec19061344d565b8015611f0e5780601f10611ee357610100808354040283529160200191611f0e565b820191906000526020600020905b815481529060010190602001808311611ef157829003601f168201915b5050505050905083565b60096020528160005260406000208181548110611f3457600080fd5b906000526020600020906005020160009150915050806000015490806001015490806002018054611f649061344d565b80601f0160208091040260200160405190810160405280929190818152602001828054611f909061344d565b8015611fdd5780601f10611fb257610100808354040283529160200191611fdd565b820191906000526020600020905b815481529060010190602001808311611fc057829003601f168201915b505050505090806003018054611ff29061344d565b80601f016020809104026020016040519081016040528092919081815260200182805461201e9061344d565b801561206b5780601f106120405761010080835404028352916020019161206b565b820191906000526020600020905b81548152906001019060200180831161204e57829003601f168201915b5050505050908060040180546120809061344d565b80601f01602080910402602001604051908101604052809291908181526020018280546120ac9061344d565b80156120f95780601f106120ce576101008083540402835291602001916120f9565b820191906000526020600020905b8154815290600101906020018083116120dc57829003601f168201915b5050505050905085565b60076000858152602001908152602001600020543373ffffffffffffffffffffffffffffffffffffffff166006600083815260200190815260200160002060009054906101000a900473ffffffffffffffffffffffffffffffffffffffff1673ffffffffffffffffffffffffffffffffffffffff16146121b8576040517f08c379a00000000000000000000000000000000000000000000000000000000081526004016121af906134f0565b60405180910390fd5b60006040518060a00160405280600254815260200187815260200186815260200185815260200184815250905060058190806001815401808255809150506001900390600052602060002090600502016000909190919091506000820151816000015560208201518160010155604082015181600201908161223a9190613733565b5060608201518160030190816122509190613733565b5060808201518160040190816122669190613733565b505050600b6000878152602001908152602001600020819080600181540180825580915050600190039060005260206000209060050201600090919091909150600082015181600001556020820151816001015560408201518160020190816122cf9190613733565b5060608201518160030190816122e59190613733565b5060808201518160040190816122fb9190613733565b5050506000600d6000600254815260200190815260200160002060006101000a81548160ff0219169083151502179055507f4fc9d5acc453e78e01b205af5788a1c62f195c4b5cdc8eb8f1c670863b7e736a60025460405161235d9190612cf1565b60405180910390a1600260008154809291906123789061353f565b9190505550505050505050565b6003818154811061239557600080fd5b90600052602060002090600502016000915090508060000154908060010154908060020180546123c49061344d565b80601f01602080910402602001604051908101604052809291908181526020018280546123f09061344d565b801561243d5780601f106124125761010080835404028352916020019161243d565b820191906000526020600020905b81548152906001019060200180831161242057829003601f168201915b5050505050908060030180546124529061344d565b80601f016020809104026020016040519081016040528092919081815260200182805461247e9061344d565b80156124cb5780601f106124a0576101008083540402835291602001916124cb565b820191906000526020600020905b8154815290600101906020018083116124ae57829003601f168201915b5050505050908060040180546124e09061344d565b80601f016020809104026020016040519081016040528092919081815260200182805461250c9061344d565b80156125595780601f1061252e57610100808354040283529160200191612559565b820191906000526020600020905b81548152906001019060200180831161253c57829003601f168201915b5050505050905085565b60025481565b60006040518060a0016040528060005481526020018681526020018581526020018481526020018381525090506003819080600181540180825580915050600190039060005260206000209060050201600090919091909150600082015181600001556020820151816001015560408201518160020190816125eb9190613733565b5060608201518160030190816126019190613733565b5060808201518160040190816126179190613733565b50505060008081548092919061262c9061353f565b919050555033600660008360000151815260200190815260200160002060006101000a81548173ffffffffffffffffffffffffffffffffffffffff021916908373ffffffffffffffffffffffffffffffffffffffff160217905550600960003373ffffffffffffffffffffffffffffffffffffffff1673ffffffffffffffffffffffffffffffffffffffff168152602001908152602001600020819080600181540180825580915050600190039060005260206000209060050201600090919091909150600082015181600001556020820151816001015560408201518160020190816127199190613733565b50606082015181600301908161272f9190613733565b5060808201518160040190816127459190613733565b5050505050505050565b60005481565b60006040518060400160405280600d81526020017f48656c6c6f2c20776f726c64210000000000000000000000000000000000000081525090507f96561394bac381230de4649200e8831afcab1f451881bbade9ef209f6dd30480816040516127be9190613978565b60405180910390a16001600d600084815260200190815260200160002060006101000a81548160ff0219169083151502179055505050565b60405180606001604052806000815260200160008152602001606081525090565b6040518060a0016040528060008152602001600081526020016060815260200160608152602001606081525090565b6040518060a0016040528060008152602001600081526020016060815260200160608152602001606081525090565b600081519050919050565b600082825260208201905092915050565b6000819050602082019050919050565b6000819050919050565b6128b4816128a1565b82525050565b600081519050919050565b600082825260208201905092915050565b60005b838110156128f45780820151818401526020810190506128d9565b60008484015250505050565b6000601f19601f8301169050919050565b600061291c826128ba565b61292681856128c5565b93506129368185602086016128d6565b61293f81612900565b840191505092915050565b600060a08301600083015161296260008601826128ab565b50602083015161297560208601826128ab565b506040830151848203604086015261298d8282612911565b915050606083015184820360608601526129a78282612911565b915050608083015184820360808601526129c18282612911565b9150508091505092915050565b60006129da838361294a565b905092915050565b6000602082019050919050565b60006129fa82612875565b612a048185612880565b935083602082028501612a1685612891565b8060005b85811015612a525784840389528151612a3385826129ce565b9450612a3e836129e2565b925060208a01995050600181019050612a1a565b50829750879550505050505092915050565b60006020820190508181036000830152612a7e81846129ef565b905092915050565b6000604051905090565b600080fd5b600080fd5b612aa3816128a1565b8114612aae57600080fd5b50565b600081359050612ac081612a9a565b92915050565b600080fd5b600080fd5b7f4e487b7100000000000000000000000000000000000000000000000000000000600052604160045260246000fd5b612b0882612900565b810181811067ffffffffffffffff82111715612b2757612b26612ad0565b5b80604052505050565b6000612b3a612a86565b9050612b468282612aff565b919050565b600067ffffffffffffffff821115612b6657612b65612ad0565b5b612b6f82612900565b9050602081019050919050565b82818337600083830152505050565b6000612b9e612b9984612b4b565b612b30565b905082815260208101848484011115612bba57612bb9612acb565b5b612bc5848285612b7c565b509392505050565b600082601f830112612be257612be1612ac6565b5b8135612bf2848260208601612b8b565b91505092915050565b60008060408385031215612c1257612c11612a90565b5b6000612c2085828601612ab1565b925050602083013567ffffffffffffffff811115612c4157612c40612a95565b5b612c4d85828601612bcd565b9150509250929050565b600073ffffffffffffffffffffffffffffffffffffffff82169050919050565b6000612c8282612c57565b9050919050565b612c9281612c77565b8114612c9d57600080fd5b50565b600081359050612caf81612c89565b92915050565b600060208284031215612ccb57612cca612a90565b5b6000612cd984828501612ca0565b91505092915050565b612ceb816128a1565b82525050565b6000602082019050612d066000830184612ce2565b92915050565b600060208284031215612d2257612d21612a90565b5b6000612d3084828501612ab1565b91505092915050565b6000606083016000830151612d5160008601826128ab565b506020830151612d6460208601826128ab565b5060408301518482036040860152612d7c8282612911565b9150508091505092915050565b60006020820190508181036000830152612da38184612d39565b905092915050565b60008060408385031215612dc257612dc1612a90565b5b6000612dd085828601612ab1565b9250506020612de185828601612ab1565b9150509250929050565b600082825260208201905092915050565b6000612e07826128ba565b612e118185612deb565b9350612e218185602086016128d6565b612e2a81612900565b840191505092915050565b6000606082019050612e4a6000830186612ce2565b612e576020830185612ce2565b8181036040830152612e698184612dfc565b9050949350505050565b600081519050919050565b600082825260208201905092915050565b6000819050602082019050919050565b6000606083016000830151612eb760008601826128ab565b506020830151612eca60208601826128ab565b5060408301518482036040860152612ee28282612911565b9150508091505092915050565b6000612efb8383612e9f565b905092915050565b6000602082019050919050565b6000612f1b82612e73565b612f258185612e7e565b935083602082028501612f3785612e8f565b8060005b85811015612f735784840389528151612f548582612eef565b9450612f5f83612f03565b925060208a01995050600181019050612f3b565b50829750879550505050505092915050565b60006020820190508181036000830152612f9f8184612f10565b905092915050565b600060a083016000830151612fbf60008601826128ab565b506020830151612fd260208601826128ab565b5060408301518482036040860152612fea8282612911565b915050606083015184820360608601526130048282612911565b9150506080830151848203608086015261301e8282612911565b9150508091505092915050565b600060208201905081810360008301526130458184612fa7565b905092915050565b60008115159050919050565b6130628161304d565b82525050565b600060208201905061307d6000830184613059565b92915050565b600060a0820190506130986000830188612ce2565b6130a56020830187612ce2565b81810360408301526130b78186612dfc565b905081810360608301526130cb8185612dfc565b905081810360808301526130df8184612dfc565b90509695505050505050565b6130f481612c77565b82525050565b600060208201905061310f60008301846130eb565b92915050565b600081519050919050565b600082825260208201905092915050565b6000819050602082019050919050565b600060a08301600083015161315960008601826128ab565b50602083015161316c60208601826128ab565b50604083015184820360408601526131848282612911565b9150506060830151848203606086015261319e8282612911565b915050608083015184820360808601526131b88282612911565b9150508091505092915050565b60006131d18383613141565b905092915050565b6000602082019050919050565b60006131f182613115565b6131fb8185613120565b93508360208202850161320d85613131565b8060005b85811015613249578484038952815161322a85826131c5565b9450613235836131d9565b925060208a01995050600181019050613211565b50829750879550505050505092915050565b6000602082019050818103600083015261327581846131e6565b905092915050565b600060a08301600083015161329560008601826128ab565b5060208301516132a860208601826128ab565b50604083015184820360408601526132c08282612911565b915050606083015184820360608601526132da8282612911565b915050608083015184820360808601526132f48282612911565b9150508091505092915050565b6000602082019050818103600083015261331b818461327d565b905092915050565b6000806040838503121561333a57613339612a90565b5b600061334885828601612ca0565b925050602061335985828601612ab1565b9150509250929050565b6000806000806080858703121561337d5761337c612a90565b5b600061338b87828801612ab1565b945050602085013567ffffffffffffffff8111156133ac576133ab612a95565b5b6133b887828801612bcd565b935050604085013567ffffffffffffffff8111156133d9576133d8612a95565b5b6133e587828801612bcd565b925050606085013567ffffffffffffffff81111561340657613405612a95565b5b61341287828801612bcd565b91505092959194509250565b7f4e487b7100000000000000000000000000000000000000000000000000000000600052602260045260246000fd5b6000600282049050600182168061346557607f821691505b6020821081036134785761347761341e565b5b50919050565b7f596f7520617265206e6f7420746865206f776e6572206f66207468697320636f60008201527f7700000000000000000000000000000000000000000000000000000000000000602082015250565b60006134da602183612deb565b91506134e58261347e565b604082019050919050565b60006020820190508181036000830152613509816134cd565b9050919050565b7f4e487b7100000000000000000000000000000000000000000000000000000000600052601160045260246000fd5b600061354a826128a1565b91507fffffffffffffffffffffffffffffffffffffffffffffffffffffffffffffffff820361357c5761357b613510565b5b600182019050919050565b60008190508160005260206000209050919050565b60006020601f8301049050919050565b600082821b905092915050565b6000600883026135e97fffffffffffffffffffffffffffffffffffffffffffffffffffffffffffffffff826135ac565b6135f386836135ac565b95508019841693508086168417925050509392505050565b6000819050919050565b600061363061362b613626846128a1565b61360b565b6128a1565b9050919050565b6000819050919050565b61364a83613615565b61365e61365682613637565b8484546135b9565b825550505050565b600090565b613673613666565b61367e818484613641565b505050565b5b818110156136a25761369760008261366b565b600181019050613684565b5050565b601f8211156136e7576136b881613587565b6136c18461359c565b810160208510156136d0578190505b6136e46136dc8561359c565b830182613683565b50505b505050565b600082821c905092915050565b600061370a600019846008026136ec565b1980831691505092915050565b600061372383836136f9565b9150826002028217905092915050565b61373c826128ba565b67ffffffffffffffff81111561375557613754612ad0565b5b61375f825461344d565b61376a8282856136a6565b600060209050601f83116001811461379d576000841561378b578287015190505b6137958582613717565b8655506137fd565b601f1984166137ab86613587565b60005b828110156137d3578489015182556001820191506020850194506020810190506137ae565b868310156137f057848901516137ec601f8916826136f9565b8355505b6001600288020188555050505b505050505050565b7f4e487b7100000000000000000000000000000000000000000000000000000000600052603260045260246000fd5b7f4d696c6b206e6f7420666f756e64210000000000000000000000000000000000600082015250565b600061386a600f83612deb565b915061387582613834565b602082019050919050565b600060208201905081810360008301526138998161385d565b9050919050565b7f436f77206e6f7420666f756e6421000000000000000000000000000000000000600082015250565b60006138d6600e83612deb565b91506138e1826138a0565b602082019050919050565b60006020820190508181036000830152613905816138c9565b9050919050565b7f50726f64756374206e6f7420666f756e64210000000000000000000000000000600082015250565b6000613942601283612deb565b915061394d8261390c565b602082019050919050565b6000602082019050818103600083015261397181613935565b9050919050565b600060208201905081810360008301526139928184612dfc565b90509291505056fea2646970667358221220199727efbf98b35f1b623d45423166c01f53ac4041d3426f507543d929d0f85f64736f6c63430008130033",
  "immutableReferences": {},
  "source": "pragma solidity ^0.8.17;\r\n\r\ncontract MilkFactory {\r\n\r\n    struct Dairy {\r\n        address dairyAddress;\r\n        string dairyName;\r\n        string dairyPlace;\r\n    }\r\n\r\n    struct Cow {\r\n        uint256 id;\r\n        uint256 weight;\r\n        string breed;\r\n        string birthDate;\r\n        string residence;\r\n    }\r\n\r\n    struct Milk {\r\n        uint256 id;\r\n        uint256 cowId;\r\n        string dateOfProduction;\r\n    }\r\n\r\n    struct Product { //Should add more info about product \r\n        uint256 id;\r\n        uint256 milkId;\r\n        string dateOfProduction;\r\n        string productType;\r\n        string expiryDate;\r\n    }\r\n\r\n    //constructor() {\r\n    //    owner = msg.sender;\r\n    //}\r\n\r\n    modifier onlyOwnerOf(uint256 _cowId) {\r\n        require(cowToOwner[_cowId] == msg.sender, \"You are not the owner of this cow\");\r\n        _;\r\n    }\r\n    \r\n    uint256 public cowCount = 0;\r\n    uint256 public milkCount = 0;\r\n    uint256 public productCount = 0;\r\n\r\n    event ProductAdded(uint256 productId);\r\n    event SpoiledProduct(uint256 productId);\r\n    event LogMessage(string message);\r\n    \r\n    Cow[] public cowList;\r\n    Milk[] public milkList;\r\n    Product[] public productList;\r\n\r\n    mapping(uint256 => address) public cowToOwner;\r\n    mapping(uint256 => uint256) public milkToCow;\r\n    mapping(address => uint256) public ownerMilkCount;\r\n    mapping(address => Cow[]) public ownerToCowList;\r\n    mapping(uint256 => Milk[]) public cowToMilkList;\r\n    mapping(uint256 => Product[]) public milkToProductList;\r\n    mapping(address => Milk[]) public ownerToMilk;\r\n    mapping(uint256 => bool) public spoiledProducts;\r\n    //mapping(uint256 => uint256) public milkToCow;\r\n    \r\n\r\n    function addCow(uint256 _weight, string memory _breed, string memory _birthDate, string memory _residence) public {\r\n        Cow memory myCow = Cow(cowCount, _weight, _breed, _birthDate, _residence);\r\n        cowList.push(myCow);\r\n        //Increase cow count that is used as id\r\n        cowCount++;\r\n        cowToOwner[myCow.id] = msg.sender;\r\n        ownerToCowList[msg.sender].push(myCow);\r\n    }\r\n    \r\n    function addMilk(uint256 _cowId, string memory _dateOfProduction) public onlyOwnerOf(_cowId) {\r\n        //Check if cow exists\r\n        Milk memory myMilk = Milk(milkCount, _cowId, _dateOfProduction);\r\n        milkCount++;\r\n        milkList.push(myMilk);\r\n        cowToMilkList[_cowId].push(myMilk);\r\n        milkToCow[myMilk.id] = _cowId;\r\n        ownerMilkCount[msg.sender]++; \r\n        ownerToMilk[msg.sender].push(myMilk);\r\n    }\r\n    \r\n    function addProduct(uint256 _milkId, string memory _dateOfProduction, string memory _productType, string memory _expiryDate) public  onlyOwnerOf(milkToCow[_milkId]) {\r\n        //Check if milk exists\r\n        Product memory  myProduct = Product( productCount, _milkId, _dateOfProduction, _productType, _expiryDate);\r\n        productList.push(myProduct);\r\n        milkToProductList[_milkId].push(myProduct);\r\n        spoiledProducts[productCount] = false;\r\n        emit ProductAdded(productCount);\r\n        productCount++;  \r\n    }\r\n\r\n    function getAllCows() public view returns(Cow[] memory) {\r\n        return cowList;\r\n    }\r\n\r\n    function getCowsOfOwner() public view returns(Cow[] memory) {\r\n        return ownerToCowList[msg.sender];\r\n    }\r\n    \r\n    function getAllMilks() public view returns(Milk[] memory) {\r\n        return milkList;\r\n    }\r\n\r\n\r\n    //TODO: Alternative to for is to create a mapping user->milk[] ?\r\n    function getMilksOfOwner() public view returns (Milk[] memory) {\r\n        return ownerToMilk[msg.sender];    \r\n    }\r\n\r\n    function reportSpoiledProduct(uint256 _productId) public {\r\n        string memory message = \"Hello, world!\";\r\n        emit LogMessage(message);\r\n        spoiledProducts[_productId] = true;\r\n    }\r\n\r\n    function getAllProducts() public view returns(Product[] memory) {\r\n        return productList;\r\n    }\r\n\r\n    function getProduct(uint256 _productId) public view returns(Product memory) {\r\n        for(uint i=0; i < productList.length; i++) { \r\n            if(productList[i].id == _productId) {\r\n                return productList[i];\r\n            }\r\n        }\r\n        revert(\"Product not found!\"); //Undo, return value, give back gas \r\n    }\r\n\r\n    function isProductSpoiled(uint256 _productId) public view returns(bool) {\r\n        return spoiledProducts[_productId];\r\n    }\r\n\r\n    function getMilk(uint256 _milkId) public view returns(Milk memory) {\r\n        for(uint i=0; i < milkList.length; i++) { \r\n            if(milkList[i].id == _milkId) {\r\n                return milkList[i];\r\n            }\r\n        }\r\n        revert(\"Milk not found!\"); //Undo, return value, give back gas \r\n    }\r\n\r\n    function getCow(uint256 _cowId) public view returns(Cow memory) {\r\n        for(uint i=0; i < cowList.length; i++) { \r\n            if(cowList[i].id == _cowId) {\r\n                return cowList[i];\r\n            }\r\n        }\r\n        revert(\"Cow not found!\"); //Undo, return value, give back gas \r\n    }\r\n}",
  "sourcePath": "C:\\Users\\tomas\\Desktop\\Blockchain-Project\\blockchain\\contracts\\MilkFactory.sol",
  "compiler": {
    "name": "solc",
    "version": "0.8.19+commit.7dd6d404.Emscripten.clang"
  },
  "schemaVersion": "3.4.13",
  "updatedAt": "2023-07-05T09:08:54.298Z",
  "networkType": "ethereum",
  "devdoc": {
    "kind": "dev",
    "methods": {},
    "version": 1
  },
  "userdoc": {
    "kind": "user",
    "methods": {},
    "version": 1
  }
}