{
  "contractName": "MilkFactory",
  "abi": [
    {
      "inputs": [],
      "name": "cowCount",
      "outputs": [
        {
          "internalType": "uint256",
          "name": "",
          "type": "uint256"
        }
      ],
      "stateMutability": "view",
      "type": "function",
      "constant": true
    },
    {
      "inputs": [
        {
          "internalType": "uint256",
          "name": "",
          "type": "uint256"
        }
      ],
      "name": "cowList",
      "outputs": [
        {
          "internalType": "uint256",
          "name": "id",
          "type": "uint256"
        },
        {
          "internalType": "uint256",
          "name": "weight",
          "type": "uint256"
        },
        {
          "internalType": "string",
          "name": "breed",
          "type": "string"
        },
        {
          "internalType": "string",
          "name": "birthDate",
          "type": "string"
        },
        {
          "internalType": "string",
          "name": "residence",
          "type": "string"
        }
      ],
      "stateMutability": "view",
      "type": "function",
      "constant": true
    },
    {
      "inputs": [
        {
          "internalType": "uint256",
          "name": "",
          "type": "uint256"
        },
        {
          "internalType": "uint256",
          "name": "",
          "type": "uint256"
        }
      ],
      "name": "cowToMilkList",
      "outputs": [
        {
          "internalType": "uint256",
          "name": "id",
          "type": "uint256"
        },
        {
          "internalType": "uint256",
          "name": "cowId",
          "type": "uint256"
        },
        {
          "internalType": "string",
          "name": "dateOfProduction",
          "type": "string"
        }
      ],
      "stateMutability": "view",
      "type": "function",
      "constant": true
    },
    {
      "inputs": [
        {
          "internalType": "uint256",
          "name": "",
          "type": "uint256"
        }
      ],
      "name": "cowToOwner",
      "outputs": [
        {
          "internalType": "address",
          "name": "",
          "type": "address"
        }
      ],
      "stateMutability": "view",
      "type": "function",
      "constant": true
    },
    {
      "inputs": [],
      "name": "milkCount",
      "outputs": [
        {
          "internalType": "uint256",
          "name": "",
          "type": "uint256"
        }
      ],
      "stateMutability": "view",
      "type": "function",
      "constant": true
    },
    {
      "inputs": [
        {
          "internalType": "uint256",
          "name": "",
          "type": "uint256"
        }
      ],
      "name": "milkList",
      "outputs": [
        {
          "internalType": "uint256",
          "name": "id",
          "type": "uint256"
        },
        {
          "internalType": "uint256",
          "name": "cowId",
          "type": "uint256"
        },
        {
          "internalType": "string",
          "name": "dateOfProduction",
          "type": "string"
        }
      ],
      "stateMutability": "view",
      "type": "function",
      "constant": true
    },
    {
      "inputs": [
        {
          "internalType": "uint256",
          "name": "",
          "type": "uint256"
        }
      ],
      "name": "milkToCow",
      "outputs": [
        {
          "internalType": "uint256",
          "name": "",
          "type": "uint256"
        }
      ],
      "stateMutability": "view",
      "type": "function",
      "constant": true
    },
    {
      "inputs": [
        {
          "internalType": "uint256",
          "name": "",
          "type": "uint256"
        },
        {
          "internalType": "uint256",
          "name": "",
          "type": "uint256"
        }
      ],
      "name": "milkToProductList",
      "outputs": [
        {
          "internalType": "uint256",
          "name": "id",
          "type": "uint256"
        },
        {
          "internalType": "uint256",
          "name": "milkId",
          "type": "uint256"
        },
        {
          "internalType": "string",
          "name": "dateOfProduction",
          "type": "string"
        },
        {
          "internalType": "string",
          "name": "productType",
          "type": "string"
        },
        {
          "internalType": "string",
          "name": "expiryDate",
          "type": "string"
        }
      ],
      "stateMutability": "view",
      "type": "function",
      "constant": true
    },
    {
      "inputs": [
        {
          "internalType": "address",
          "name": "",
          "type": "address"
        }
      ],
      "name": "ownerMilkCount",
      "outputs": [
        {
          "internalType": "uint256",
          "name": "",
          "type": "uint256"
        }
      ],
      "stateMutability": "view",
      "type": "function",
      "constant": true
    },
    {
      "inputs": [
        {
          "internalType": "address",
          "name": "",
          "type": "address"
        },
        {
          "internalType": "uint256",
          "name": "",
          "type": "uint256"
        }
      ],
      "name": "ownerToCowList",
      "outputs": [
        {
          "internalType": "uint256",
          "name": "id",
          "type": "uint256"
        },
        {
          "internalType": "uint256",
          "name": "weight",
          "type": "uint256"
        },
        {
          "internalType": "string",
          "name": "breed",
          "type": "string"
        },
        {
          "internalType": "string",
          "name": "birthDate",
          "type": "string"
        },
        {
          "internalType": "string",
          "name": "residence",
          "type": "string"
        }
      ],
      "stateMutability": "view",
      "type": "function",
      "constant": true
    },
    {
      "inputs": [
        {
          "internalType": "address",
          "name": "",
          "type": "address"
        },
        {
          "internalType": "uint256",
          "name": "",
          "type": "uint256"
        }
      ],
      "name": "ownerToMilk",
      "outputs": [
        {
          "internalType": "uint256",
          "name": "id",
          "type": "uint256"
        },
        {
          "internalType": "uint256",
          "name": "cowId",
          "type": "uint256"
        },
        {
          "internalType": "string",
          "name": "dateOfProduction",
          "type": "string"
        }
      ],
      "stateMutability": "view",
      "type": "function",
      "constant": true
    },
    {
      "inputs": [],
      "name": "productCount",
      "outputs": [
        {
          "internalType": "uint256",
          "name": "",
          "type": "uint256"
        }
      ],
      "stateMutability": "view",
      "type": "function",
      "constant": true
    },
    {
      "inputs": [
        {
          "internalType": "uint256",
          "name": "",
          "type": "uint256"
        }
      ],
      "name": "productList",
      "outputs": [
        {
          "internalType": "uint256",
          "name": "id",
          "type": "uint256"
        },
        {
          "internalType": "uint256",
          "name": "milkId",
          "type": "uint256"
        },
        {
          "internalType": "string",
          "name": "dateOfProduction",
          "type": "string"
        },
        {
          "internalType": "string",
          "name": "productType",
          "type": "string"
        },
        {
          "internalType": "string",
          "name": "expiryDate",
          "type": "string"
        }
      ],
      "stateMutability": "view",
      "type": "function",
      "constant": true
    },
    {
      "inputs": [
        {
          "internalType": "uint256",
          "name": "_weight",
          "type": "uint256"
        },
        {
          "internalType": "string",
          "name": "_breed",
          "type": "string"
        },
        {
          "internalType": "string",
          "name": "_birthDate",
          "type": "string"
        },
        {
          "internalType": "string",
          "name": "_residence",
          "type": "string"
        }
      ],
      "name": "addCow",
      "outputs": [],
      "stateMutability": "nonpayable",
      "type": "function"
    },
    {
      "inputs": [
        {
          "internalType": "uint256",
          "name": "_cowId",
          "type": "uint256"
        },
        {
          "internalType": "string",
          "name": "_dateOfProduction",
          "type": "string"
        }
      ],
      "name": "addMilk",
      "outputs": [],
      "stateMutability": "nonpayable",
      "type": "function"
    },
    {
      "inputs": [
        {
          "internalType": "uint256",
          "name": "_milkId",
          "type": "uint256"
        },
        {
          "internalType": "string",
          "name": "_dateOfProduction",
          "type": "string"
        },
        {
          "internalType": "string",
          "name": "_productType",
          "type": "string"
        },
        {
          "internalType": "string",
          "name": "_expiryDate",
          "type": "string"
        }
      ],
      "name": "addProduct",
      "outputs": [],
      "stateMutability": "nonpayable",
      "type": "function"
    },
    {
      "inputs": [],
      "name": "getAllCows",
      "outputs": [
        {
          "components": [
            {
              "internalType": "uint256",
              "name": "id",
              "type": "uint256"
            },
            {
              "internalType": "uint256",
              "name": "weight",
              "type": "uint256"
            },
            {
              "internalType": "string",
              "name": "breed",
              "type": "string"
            },
            {
              "internalType": "string",
              "name": "birthDate",
              "type": "string"
            },
            {
              "internalType": "string",
              "name": "residence",
              "type": "string"
            }
          ],
          "internalType": "struct MilkFactory.Cow[]",
          "name": "",
          "type": "tuple[]"
        }
      ],
      "stateMutability": "view",
      "type": "function",
      "constant": true
    },
    {
      "inputs": [],
      "name": "getCowsOfOwner",
      "outputs": [
        {
          "components": [
            {
              "internalType": "uint256",
              "name": "id",
              "type": "uint256"
            },
            {
              "internalType": "uint256",
              "name": "weight",
              "type": "uint256"
            },
            {
              "internalType": "string",
              "name": "breed",
              "type": "string"
            },
            {
              "internalType": "string",
              "name": "birthDate",
              "type": "string"
            },
            {
              "internalType": "string",
              "name": "residence",
              "type": "string"
            }
          ],
          "internalType": "struct MilkFactory.Cow[]",
          "name": "",
          "type": "tuple[]"
        }
      ],
      "stateMutability": "view",
      "type": "function",
      "constant": true
    },
    {
      "inputs": [],
      "name": "getAllMilks",
      "outputs": [
        {
          "components": [
            {
              "internalType": "uint256",
              "name": "id",
              "type": "uint256"
            },
            {
              "internalType": "uint256",
              "name": "cowId",
              "type": "uint256"
            },
            {
              "internalType": "string",
              "name": "dateOfProduction",
              "type": "string"
            }
          ],
          "internalType": "struct MilkFactory.Milk[]",
          "name": "",
          "type": "tuple[]"
        }
      ],
      "stateMutability": "view",
      "type": "function",
      "constant": true
    },
    {
      "inputs": [],
      "name": "getMilksOfOwner",
      "outputs": [
        {
          "components": [
            {
              "internalType": "uint256",
              "name": "id",
              "type": "uint256"
            },
            {
              "internalType": "uint256",
              "name": "cowId",
              "type": "uint256"
            },
            {
              "internalType": "string",
              "name": "dateOfProduction",
              "type": "string"
            }
          ],
          "internalType": "struct MilkFactory.Milk[]",
          "name": "",
          "type": "tuple[]"
        }
      ],
      "stateMutability": "view",
      "type": "function",
      "constant": true
    },
    {
      "inputs": [],
      "name": "getAllProducts",
      "outputs": [
        {
          "components": [
            {
              "internalType": "uint256",
              "name": "id",
              "type": "uint256"
            },
            {
              "internalType": "uint256",
              "name": "milkId",
              "type": "uint256"
            },
            {
              "internalType": "string",
              "name": "dateOfProduction",
              "type": "string"
            },
            {
              "internalType": "string",
              "name": "productType",
              "type": "string"
            },
            {
              "internalType": "string",
              "name": "expiryDate",
              "type": "string"
            }
          ],
          "internalType": "struct MilkFactory.Product[]",
          "name": "",
          "type": "tuple[]"
        }
      ],
      "stateMutability": "view",
      "type": "function",
      "constant": true
    },
    {
      "inputs": [
        {
          "internalType": "uint256",
          "name": "_productId",
          "type": "uint256"
        }
      ],
      "name": "getProduct",
      "outputs": [
        {
          "components": [
            {
              "internalType": "uint256",
              "name": "id",
              "type": "uint256"
            },
            {
              "internalType": "uint256",
              "name": "milkId",
              "type": "uint256"
            },
            {
              "internalType": "string",
              "name": "dateOfProduction",
              "type": "string"
            },
            {
              "internalType": "string",
              "name": "productType",
              "type": "string"
            },
            {
              "internalType": "string",
              "name": "expiryDate",
              "type": "string"
            }
          ],
          "internalType": "struct MilkFactory.Product",
          "name": "",
          "type": "tuple"
        }
      ],
      "stateMutability": "view",
      "type": "function",
      "constant": true
    }
  ],
  "bytecode": "0x6080604052600080556000600155600060025534801561001e57600080fd5b506130998061002e6000396000f3fe608060405234801561001057600080fd5b50600436106101425760003560e01c80638de6e5f1116100b8578063beda38f51161007c578063beda38f5146103d5578063c1393d2714610409578063cb7cdaad14610425578063e0f6ef8714610459578063e749303a14610477578063edb5a4571461049357610142565b80638de6e5f114610319578063927fb4de14610337578063b6f7ea8a14610355578063b9db15b414610373578063b9f9fbfe146103a357610142565b8063329bcfa51161010a578063329bcfa5146102155780634a71bd2a14610233578063528c87d2146102515780635515d0f6146102855780636c46f2a0146102b55780637ba3372d146102e557610142565b806302ee3a521461014757806308f0eb53146101655780630f926aeb146101815780631dc2c408146101b15780632bd6ccc8146101e3575b600080fd5b61014f6104b1565b60405161015c9190612375565b60405180910390f35b61017f600480360381019061017a919061250c565b6106da565b005b61019b600480360381019061019691906125c6565b610982565b6040516101a89190612602565b60405180910390f35b6101cb60048036038101906101c6919061261d565b61099a565b6040516101da939291906126a7565b60405180910390f35b6101fd60048036038101906101f891906126e5565b610a69565b60405161020c939291906126a7565b60405180910390f35b61021d610b2b565b60405161022a9190612824565b60405180910390f35b61023b610c30565b6040516102489190612824565b60405180910390f35b61026b600480360381019061026691906126e5565b610d72565b60405161027c959493929190612846565b60405180910390f35b61029f600480360381019061029a91906126e5565b610f50565b6040516102ac91906128bd565b60405180910390f35b6102cf60048036038101906102ca91906126e5565b610f83565b6040516102dc9190612602565b60405180910390f35b6102ff60048036038101906102fa919061261d565b610f9b565b604051610310959493929190612846565b60405180910390f35b610321611186565b60405161032e9190612602565b60405180910390f35b61033f61118c565b60405161034c9190612a1e565b60405180910390f35b61035d6113b5565b60405161036a9190612a1e565b60405180910390f35b61038d600480360381019061038891906126e5565b61161b565b60405161039a9190612ac4565b60405180910390f35b6103bd60048036038101906103b89190612ae6565b6118b2565b6040516103cc939291906126a7565b60405180910390f35b6103ef60048036038101906103ea9190612ae6565b611981565b604051610400959493929190612846565b60405180910390f35b610423600480360381019061041e9190612b26565b611b6c565b005b61043f600480360381019061043a91906126e5565b611d87565b604051610450959493929190612846565b60405180910390f35b610461611f65565b60405161046e9190612602565b60405180910390f35b610491600480360381019061048c9190612b26565b611f6b565b005b61049b612151565b6040516104a89190612602565b60405180910390f35b60606005805480602002602001604051908101604052809291908181526020016000905b828210156106d157838290600052602060002090600502016040518060a0016040529081600082015481526020016001820154815260200160028201805461051c90612c10565b80601f016020809104026020016040519081016040528092919081815260200182805461054890612c10565b80156105955780601f1061056a57610100808354040283529160200191610595565b820191906000526020600020905b81548152906001019060200180831161057857829003601f168201915b505050505081526020016003820180546105ae90612c10565b80601f01602080910402602001604051908101604052809291908181526020018280546105da90612c10565b80156106275780601f106105fc57610100808354040283529160200191610627565b820191906000526020600020905b81548152906001019060200180831161060a57829003601f168201915b5050505050815260200160048201805461064090612c10565b80601f016020809104026020016040519081016040528092919081815260200182805461066c90612c10565b80156106b95780601f1061068e576101008083540402835291602001916106b9565b820191906000526020600020905b81548152906001019060200180831161069c57829003601f168201915b505050505081525050815260200190600101906104d5565b50505050905090565b813373ffffffffffffffffffffffffffffffffffffffff166006600083815260200190815260200160002060009054906101000a900473ffffffffffffffffffffffffffffffffffffffff1673ffffffffffffffffffffffffffffffffffffffff161461077c576040517f08c379a000000000000000000000000000000000000000000000000000000000815260040161077390612cb3565b60405180910390fd5b600060405180606001604052806001548152602001858152602001848152509050600160008154809291906107b090612d02565b919050555060048190806001815401808255809150506001900390600052602060002090600302016000909190919091506000820151816000015560208201518160010155604082015181600201908161080a9190612ef6565b505050600a6000858152602001908152602001600020819080600181540180825580915050600190039060005260206000209060030201600090919091909150600082015181600001556020820151816001015560408201518160020190816108739190612ef6565b50505083600760008360000151815260200190815260200160002081905550600860003373ffffffffffffffffffffffffffffffffffffffff1673ffffffffffffffffffffffffffffffffffffffff16815260200190815260200160002060008154809291906108e290612d02565b9190505550600c60003373ffffffffffffffffffffffffffffffffffffffff1673ffffffffffffffffffffffffffffffffffffffff168152602001908152602001600020819080600181540180825580915050600190039060005260206000209060030201600090919091909150600082015181600001556020820151816001015560408201518160020190816109799190612ef6565b50505050505050565b60086020528060005260406000206000915090505481565b600a60205281600052604060002081815481106109b657600080fd5b9060005260206000209060030201600091509150508060000154908060010154908060020180546109e690612c10565b80601f0160208091040260200160405190810160405280929190818152602001828054610a1290612c10565b8015610a5f5780601f10610a3457610100808354040283529160200191610a5f565b820191906000526020600020905b815481529060010190602001808311610a4257829003601f168201915b5050505050905083565b60048181548110610a7957600080fd5b9060005260206000209060030201600091509050806000015490806001015490806002018054610aa890612c10565b80601f0160208091040260200160405190810160405280929190818152602001828054610ad490612c10565b8015610b215780601f10610af657610100808354040283529160200191610b21565b820191906000526020600020905b815481529060010190602001808311610b0457829003601f168201915b5050505050905083565b60606004805480602002602001604051908101604052809291908181526020016000905b82821015610c2757838290600052602060002090600302016040518060600160405290816000820154815260200160018201548152602001600282018054610b9690612c10565b80601f0160208091040260200160405190810160405280929190818152602001828054610bc290612c10565b8015610c0f5780601f10610be457610100808354040283529160200191610c0f565b820191906000526020600020905b815481529060010190602001808311610bf257829003601f168201915b50505050508152505081526020019060010190610b4f565b50505050905090565b6060600c60003373ffffffffffffffffffffffffffffffffffffffff1673ffffffffffffffffffffffffffffffffffffffff168152602001908152602001600020805480602002602001604051908101604052809291908181526020016000905b82821015610d6957838290600052602060002090600302016040518060600160405290816000820154815260200160018201548152602001600282018054610cd890612c10565b80601f0160208091040260200160405190810160405280929190818152602001828054610d0490612c10565b8015610d515780601f10610d2657610100808354040283529160200191610d51565b820191906000526020600020905b815481529060010190602001808311610d3457829003601f168201915b50505050508152505081526020019060010190610c91565b50505050905090565b60058181548110610d8257600080fd5b9060005260206000209060050201600091509050806000015490806001015490806002018054610db190612c10565b80601f0160208091040260200160405190810160405280929190818152602001828054610ddd90612c10565b8015610e2a5780601f10610dff57610100808354040283529160200191610e2a565b820191906000526020600020905b815481529060010190602001808311610e0d57829003601f168201915b505050505090806003018054610e3f90612c10565b80601f0160208091040260200160405190810160405280929190818152602001828054610e6b90612c10565b8015610eb85780601f10610e8d57610100808354040283529160200191610eb8565b820191906000526020600020905b815481529060010190602001808311610e9b57829003601f168201915b505050505090806004018054610ecd90612c10565b80601f0160208091040260200160405190810160405280929190818152602001828054610ef990612c10565b8015610f465780601f10610f1b57610100808354040283529160200191610f46565b820191906000526020600020905b815481529060010190602001808311610f2957829003601f168201915b5050505050905085565b60066020528060005260406000206000915054906101000a900473ffffffffffffffffffffffffffffffffffffffff1681565b60076020528060005260406000206000915090505481565b600b6020528160005260406000208181548110610fb757600080fd5b906000526020600020906005020160009150915050806000015490806001015490806002018054610fe790612c10565b80601f016020809104026020016040519081016040528092919081815260200182805461101390612c10565b80156110605780601f1061103557610100808354040283529160200191611060565b820191906000526020600020905b81548152906001019060200180831161104357829003601f168201915b50505050509080600301805461107590612c10565b80601f01602080910402602001604051908101604052809291908181526020018280546110a190612c10565b80156110ee5780601f106110c3576101008083540402835291602001916110ee565b820191906000526020600020905b8154815290600101906020018083116110d157829003601f168201915b50505050509080600401805461110390612c10565b80601f016020809104026020016040519081016040528092919081815260200182805461112f90612c10565b801561117c5780601f106111515761010080835404028352916020019161117c565b820191906000526020600020905b81548152906001019060200180831161115f57829003601f168201915b5050505050905085565b60015481565b60606003805480602002602001604051908101604052809291908181526020016000905b828210156113ac57838290600052602060002090600502016040518060a001604052908160008201548152602001600182015481526020016002820180546111f790612c10565b80601f016020809104026020016040519081016040528092919081815260200182805461122390612c10565b80156112705780601f1061124557610100808354040283529160200191611270565b820191906000526020600020905b81548152906001019060200180831161125357829003601f168201915b5050505050815260200160038201805461128990612c10565b80601f01602080910402602001604051908101604052809291908181526020018280546112b590612c10565b80156113025780601f106112d757610100808354040283529160200191611302565b820191906000526020600020905b8154815290600101906020018083116112e557829003601f168201915b5050505050815260200160048201805461131b90612c10565b80601f016020809104026020016040519081016040528092919081815260200182805461134790612c10565b80156113945780601f1061136957610100808354040283529160200191611394565b820191906000526020600020905b81548152906001019060200180831161137757829003601f168201915b505050505081525050815260200190600101906111b0565b50505050905090565b6060600960003373ffffffffffffffffffffffffffffffffffffffff1673ffffffffffffffffffffffffffffffffffffffff168152602001908152602001600020805480602002602001604051908101604052809291908181526020016000905b8282101561161257838290600052602060002090600502016040518060a0016040529081600082015481526020016001820154815260200160028201805461145d90612c10565b80601f016020809104026020016040519081016040528092919081815260200182805461148990612c10565b80156114d65780601f106114ab576101008083540402835291602001916114d6565b820191906000526020600020905b8154815290600101906020018083116114b957829003601f168201915b505050505081526020016003820180546114ef90612c10565b80601f016020809104026020016040519081016040528092919081815260200182805461151b90612c10565b80156115685780601f1061153d57610100808354040283529160200191611568565b820191906000526020600020905b81548152906001019060200180831161154b57829003601f168201915b5050505050815260200160048201805461158190612c10565b80601f01602080910402602001604051908101604052809291908181526020018280546115ad90612c10565b80156115fa5780601f106115cf576101008083540402835291602001916115fa565b820191906000526020600020905b8154815290600101906020018083116115dd57829003601f168201915b50505050508152505081526020019060010190611416565b50505050905090565b611623612157565b60005b60058054905081101561187157826005828154811061164857611647612fc8565b5b9060005260206000209060050201600001540361185e576005818154811061167357611672612fc8565b5b90600052602060002090600502016040518060a001604052908160008201548152602001600182015481526020016002820180546116b090612c10565b80601f01602080910402602001604051908101604052809291908181526020018280546116dc90612c10565b80156117295780601f106116fe57610100808354040283529160200191611729565b820191906000526020600020905b81548152906001019060200180831161170c57829003601f168201915b5050505050815260200160038201805461174290612c10565b80601f016020809104026020016040519081016040528092919081815260200182805461176e90612c10565b80156117bb5780601f10611790576101008083540402835291602001916117bb565b820191906000526020600020905b81548152906001019060200180831161179e57829003601f168201915b505050505081526020016004820180546117d490612c10565b80601f016020809104026020016040519081016040528092919081815260200182805461180090612c10565b801561184d5780601f106118225761010080835404028352916020019161184d565b820191906000526020600020905b81548152906001019060200180831161183057829003601f168201915b5050505050815250509150506118ad565b808061186990612d02565b915050611626565b506040517f08c379a00000000000000000000000000000000000000000000000000000000081526004016118a490613043565b60405180910390fd5b919050565b600c60205281600052604060002081815481106118ce57600080fd5b9060005260206000209060030201600091509150508060000154908060010154908060020180546118fe90612c10565b80601f016020809104026020016040519081016040528092919081815260200182805461192a90612c10565b80156119775780601f1061194c57610100808354040283529160200191611977565b820191906000526020600020905b81548152906001019060200180831161195a57829003601f168201915b5050505050905083565b6009602052816000526040600020818154811061199d57600080fd5b9060005260206000209060050201600091509150508060000154908060010154908060020180546119cd90612c10565b80601f01602080910402602001604051908101604052809291908181526020018280546119f990612c10565b8015611a465780601f10611a1b57610100808354040283529160200191611a46565b820191906000526020600020905b815481529060010190602001808311611a2957829003601f168201915b505050505090806003018054611a5b90612c10565b80601f0160208091040260200160405190810160405280929190818152602001828054611a8790612c10565b8015611ad45780601f10611aa957610100808354040283529160200191611ad4565b820191906000526020600020905b815481529060010190602001808311611ab757829003601f168201915b505050505090806004018054611ae990612c10565b80601f0160208091040260200160405190810160405280929190818152602001828054611b1590612c10565b8015611b625780601f10611b3757610100808354040283529160200191611b62565b820191906000526020600020905b815481529060010190602001808311611b4557829003601f168201915b5050505050905085565b60076000858152602001908152602001600020543373ffffffffffffffffffffffffffffffffffffffff166006600083815260200190815260200160002060009054906101000a900473ffffffffffffffffffffffffffffffffffffffff1673ffffffffffffffffffffffffffffffffffffffff1614611c21576040517f08c379a0000000000000000000000000000000000000000000000000000000008152600401611c1890612cb3565b60405180910390fd5b60006040518060a00160405280600254815260200187815260200186815260200185815260200184815250905060026000815480929190611c6190612d02565b9190505550600581908060018154018082558091505060019003906000526020600020906005020160009091909190915060008201518160000155602082015181600101556040820151816002019081611cbb9190612ef6565b506060820151816003019081611cd19190612ef6565b506080820151816004019081611ce79190612ef6565b505050600b600087815260200190815260200160002081908060018154018082558091505060019003906000526020600020906005020160009091909190915060008201518160000155602082015181600101556040820151816002019081611d509190612ef6565b506060820151816003019081611d669190612ef6565b506080820151816004019081611d7c9190612ef6565b505050505050505050565b60038181548110611d9757600080fd5b9060005260206000209060050201600091509050806000015490806001015490806002018054611dc690612c10565b80601f0160208091040260200160405190810160405280929190818152602001828054611df290612c10565b8015611e3f5780601f10611e1457610100808354040283529160200191611e3f565b820191906000526020600020905b815481529060010190602001808311611e2257829003601f168201915b505050505090806003018054611e5490612c10565b80601f0160208091040260200160405190810160405280929190818152602001828054611e8090612c10565b8015611ecd5780601f10611ea257610100808354040283529160200191611ecd565b820191906000526020600020905b815481529060010190602001808311611eb057829003601f168201915b505050505090806004018054611ee290612c10565b80601f0160208091040260200160405190810160405280929190818152602001828054611f0e90612c10565b8015611f5b5780601f10611f3057610100808354040283529160200191611f5b565b820191906000526020600020905b815481529060010190602001808311611f3e57829003601f168201915b5050505050905085565b60025481565b60006040518060a001604052806000548152602001868152602001858152602001848152602001838152509050600381908060018154018082558091505060019003906000526020600020906005020160009091909190915060008201518160000155602082015181600101556040820151816002019081611fed9190612ef6565b5060608201518160030190816120039190612ef6565b5060808201518160040190816120199190612ef6565b50505060008081548092919061202e90612d02565b919050555033600660008360000151815260200190815260200160002060006101000a81548173ffffffffffffffffffffffffffffffffffffffff021916908373ffffffffffffffffffffffffffffffffffffffff160217905550600960003373ffffffffffffffffffffffffffffffffffffffff1673ffffffffffffffffffffffffffffffffffffffff1681526020019081526020016000208190806001815401808255809150506001900390600052602060002090600502016000909190919091506000820151816000015560208201518160010155604082015181600201908161211b9190612ef6565b5060608201518160030190816121319190612ef6565b5060808201518160040190816121479190612ef6565b5050505050505050565b60005481565b6040518060a0016040528060008152602001600081526020016060815260200160608152602001606081525090565b600081519050919050565b600082825260208201905092915050565b6000819050602082019050919050565b6000819050919050565b6121c5816121b2565b82525050565b600081519050919050565b600082825260208201905092915050565b60005b838110156122055780820151818401526020810190506121ea565b60008484015250505050565b6000601f19601f8301169050919050565b600061222d826121cb565b61223781856121d6565b93506122478185602086016121e7565b61225081612211565b840191505092915050565b600060a08301600083015161227360008601826121bc565b50602083015161228660208601826121bc565b506040830151848203604086015261229e8282612222565b915050606083015184820360608601526122b88282612222565b915050608083015184820360808601526122d28282612222565b9150508091505092915050565b60006122eb838361225b565b905092915050565b6000602082019050919050565b600061230b82612186565b6123158185612191565b935083602082028501612327856121a2565b8060005b85811015612363578484038952815161234485826122df565b945061234f836122f3565b925060208a0199505060018101905061232b565b50829750879550505050505092915050565b6000602082019050818103600083015261238f8184612300565b905092915050565b6000604051905090565b600080fd5b600080fd5b6123b4816121b2565b81146123bf57600080fd5b50565b6000813590506123d1816123ab565b92915050565b600080fd5b600080fd5b7f4e487b7100000000000000000000000000000000000000000000000000000000600052604160045260246000fd5b61241982612211565b810181811067ffffffffffffffff82111715612438576124376123e1565b5b80604052505050565b600061244b612397565b90506124578282612410565b919050565b600067ffffffffffffffff821115612477576124766123e1565b5b61248082612211565b9050602081019050919050565b82818337600083830152505050565b60006124af6124aa8461245c565b612441565b9050828152602081018484840111156124cb576124ca6123dc565b5b6124d684828561248d565b509392505050565b600082601f8301126124f3576124f26123d7565b5b813561250384826020860161249c565b91505092915050565b60008060408385031215612523576125226123a1565b5b6000612531858286016123c2565b925050602083013567ffffffffffffffff811115612552576125516123a6565b5b61255e858286016124de565b9150509250929050565b600073ffffffffffffffffffffffffffffffffffffffff82169050919050565b600061259382612568565b9050919050565b6125a381612588565b81146125ae57600080fd5b50565b6000813590506125c08161259a565b92915050565b6000602082840312156125dc576125db6123a1565b5b60006125ea848285016125b1565b91505092915050565b6125fc816121b2565b82525050565b600060208201905061261760008301846125f3565b92915050565b60008060408385031215612634576126336123a1565b5b6000612642858286016123c2565b9250506020612653858286016123c2565b9150509250929050565b600082825260208201905092915050565b6000612679826121cb565b612683818561265d565b93506126938185602086016121e7565b61269c81612211565b840191505092915050565b60006060820190506126bc60008301866125f3565b6126c960208301856125f3565b81810360408301526126db818461266e565b9050949350505050565b6000602082840312156126fb576126fa6123a1565b5b6000612709848285016123c2565b91505092915050565b600081519050919050565b600082825260208201905092915050565b6000819050602082019050919050565b600060608301600083015161275660008601826121bc565b50602083015161276960208601826121bc565b50604083015184820360408601526127818282612222565b9150508091505092915050565b600061279a838361273e565b905092915050565b6000602082019050919050565b60006127ba82612712565b6127c4818561271d565b9350836020820285016127d68561272e565b8060005b8581101561281257848403895281516127f3858261278e565b94506127fe836127a2565b925060208a019950506001810190506127da565b50829750879550505050505092915050565b6000602082019050818103600083015261283e81846127af565b905092915050565b600060a08201905061285b60008301886125f3565b61286860208301876125f3565b818103604083015261287a818661266e565b9050818103606083015261288e818561266e565b905081810360808301526128a2818461266e565b90509695505050505050565b6128b781612588565b82525050565b60006020820190506128d260008301846128ae565b92915050565b600081519050919050565b600082825260208201905092915050565b6000819050602082019050919050565b600060a08301600083015161291c60008601826121bc565b50602083015161292f60208601826121bc565b50604083015184820360408601526129478282612222565b915050606083015184820360608601526129618282612222565b9150506080830151848203608086015261297b8282612222565b9150508091505092915050565b60006129948383612904565b905092915050565b6000602082019050919050565b60006129b4826128d8565b6129be81856128e3565b9350836020820285016129d0856128f4565b8060005b85811015612a0c57848403895281516129ed8582612988565b94506129f88361299c565b925060208a019950506001810190506129d4565b50829750879550505050505092915050565b60006020820190508181036000830152612a3881846129a9565b905092915050565b600060a083016000830151612a5860008601826121bc565b506020830151612a6b60208601826121bc565b5060408301518482036040860152612a838282612222565b91505060608301518482036060860152612a9d8282612222565b91505060808301518482036080860152612ab78282612222565b9150508091505092915050565b60006020820190508181036000830152612ade8184612a40565b905092915050565b60008060408385031215612afd57612afc6123a1565b5b6000612b0b858286016125b1565b9250506020612b1c858286016123c2565b9150509250929050565b60008060008060808587031215612b4057612b3f6123a1565b5b6000612b4e878288016123c2565b945050602085013567ffffffffffffffff811115612b6f57612b6e6123a6565b5b612b7b878288016124de565b935050604085013567ffffffffffffffff811115612b9c57612b9b6123a6565b5b612ba8878288016124de565b925050606085013567ffffffffffffffff811115612bc957612bc86123a6565b5b612bd5878288016124de565b91505092959194509250565b7f4e487b7100000000000000000000000000000000000000000000000000000000600052602260045260246000fd5b60006002820490506001821680612c2857607f821691505b602082108103612c3b57612c3a612be1565b5b50919050565b7f596f7520617265206e6f7420746865206f776e6572206f66207468697320636f60008201527f7700000000000000000000000000000000000000000000000000000000000000602082015250565b6000612c9d60218361265d565b9150612ca882612c41565b604082019050919050565b60006020820190508181036000830152612ccc81612c90565b9050919050565b7f4e487b7100000000000000000000000000000000000000000000000000000000600052601160045260246000fd5b6000612d0d826121b2565b91507fffffffffffffffffffffffffffffffffffffffffffffffffffffffffffffffff8203612d3f57612d3e612cd3565b5b600182019050919050565b60008190508160005260206000209050919050565b60006020601f8301049050919050565b600082821b905092915050565b600060088302612dac7fffffffffffffffffffffffffffffffffffffffffffffffffffffffffffffffff82612d6f565b612db68683612d6f565b95508019841693508086168417925050509392505050565b6000819050919050565b6000612df3612dee612de9846121b2565b612dce565b6121b2565b9050919050565b6000819050919050565b612e0d83612dd8565b612e21612e1982612dfa565b848454612d7c565b825550505050565b600090565b612e36612e29565b612e41818484612e04565b505050565b5b81811015612e6557612e5a600082612e2e565b600181019050612e47565b5050565b601f821115612eaa57612e7b81612d4a565b612e8484612d5f565b81016020851015612e93578190505b612ea7612e9f85612d5f565b830182612e46565b50505b505050565b600082821c905092915050565b6000612ecd60001984600802612eaf565b1980831691505092915050565b6000612ee68383612ebc565b9150826002028217905092915050565b612eff826121cb565b67ffffffffffffffff811115612f1857612f176123e1565b5b612f228254612c10565b612f2d828285612e69565b600060209050601f831160018114612f605760008415612f4e578287015190505b612f588582612eda565b865550612fc0565b601f198416612f6e86612d4a565b60005b82811015612f9657848901518255600182019150602085019450602081019050612f71565b86831015612fb35784890151612faf601f891682612ebc565b8355505b6001600288020188555050505b505050505050565b7f4e487b7100000000000000000000000000000000000000000000000000000000600052603260045260246000fd5b7f50726f64756374206e6f7420666f756e64210000000000000000000000000000600082015250565b600061302d60128361265d565b915061303882612ff7565b602082019050919050565b6000602082019050818103600083015261305c81613020565b905091905056fea26469706673582212208c9204ca9af8dea7ff62e6bc1bef961c076a2a2d4f06d826a54724f82c325dba64736f6c63430008130033",
  "immutableReferences": {},
  "source": "pragma solidity ^0.8.17;\r\n\r\ncontract MilkFactory {\r\n\r\n    struct Dairy {\r\n        address dairyAddress;\r\n        string dairyName;\r\n        string dairyPlace;\r\n    }\r\n\r\n    struct Cow {\r\n        uint256 id;\r\n        uint256 weight;\r\n        string breed;\r\n        string birthDate;\r\n        string residence;\r\n    }\r\n\r\n    struct Milk {\r\n        uint256 id;\r\n        uint256 cowId;\r\n        string dateOfProduction;\r\n    }\r\n\r\n    struct Product { //Should add more info about product \r\n        uint256 id;\r\n        uint256 milkId;\r\n        string dateOfProduction;\r\n        string productType;\r\n        string expiryDate;\r\n    }\r\n\r\n    //constructor() {\r\n    //    owner = msg.sender;\r\n    //}\r\n\r\n    modifier onlyOwnerOf(uint256 _cowId) {\r\n        require(cowToOwner[_cowId] == msg.sender, \"You are not the owner of this cow\");\r\n        _;\r\n    }\r\n    \r\n    uint256 public cowCount = 0;\r\n    uint256 public milkCount = 0;\r\n    uint256 public productCount = 0;\r\n\r\n    Cow[] public cowList;\r\n    Milk[] public milkList;\r\n    Product[] public productList;\r\n\r\n    mapping(uint256 => address) public cowToOwner;\r\n    mapping(uint256 => uint256) public milkToCow;\r\n    mapping(address => uint256) public ownerMilkCount;\r\n    mapping(address => Cow[]) public ownerToCowList;\r\n    mapping(uint256 => Milk[]) public cowToMilkList;\r\n    mapping(uint256 => Product[]) public milkToProductList;\r\n    mapping(address => Milk[]) public ownerToMilk;\r\n    //mapping(uint256 => uint256) public milkToCow;\r\n\r\n\r\n    function addCow(uint256 _weight, string memory _breed, string memory _birthDate, string memory _residence) public {\r\n        Cow memory myCow = Cow(cowCount, _weight, _breed, _birthDate, _residence);\r\n        cowList.push(myCow);\r\n        //Increase cow count that is used as id\r\n        cowCount++;\r\n        cowToOwner[myCow.id] = msg.sender;\r\n        ownerToCowList[msg.sender].push(myCow);\r\n    }\r\n    \r\n    function addMilk(uint256 _cowId, string memory _dateOfProduction) public onlyOwnerOf(_cowId) {\r\n        //Check if cow exists\r\n        Milk memory myMilk = Milk(milkCount, _cowId, _dateOfProduction);\r\n        milkCount++;\r\n        milkList.push(myMilk);\r\n        cowToMilkList[_cowId].push(myMilk);\r\n        milkToCow[myMilk.id] = _cowId;\r\n        ownerMilkCount[msg.sender]++; \r\n        ownerToMilk[msg.sender].push(myMilk);\r\n    }\r\n    \r\n    function addProduct(uint256 _milkId, string memory _dateOfProduction, string memory _productType, string memory _expiryDate) public onlyOwnerOf(milkToCow[_milkId]) {\r\n        //Check if milk exists\r\n        Product memory  myProduct = Product( productCount, _milkId, _dateOfProduction, _productType, _expiryDate);\r\n        productCount++;\r\n        productList.push(myProduct);\r\n        milkToProductList[_milkId].push(myProduct);\r\n    }\r\n\r\n    function getAllCows() public view returns(Cow[] memory) {\r\n        return cowList;\r\n    }\r\n\r\n    function getCowsOfOwner() public view returns(Cow[] memory) {\r\n        return ownerToCowList[msg.sender];\r\n    }\r\n    \r\n    function getAllMilks() public view returns(Milk[] memory) {\r\n        return milkList;\r\n    }\r\n\r\n\r\n    //TODO: Alternative to for is to create a mapping user->milk[] ?\r\n    function getMilksOfOwner() public view returns (Milk[] memory) {\r\n        return ownerToMilk[msg.sender];    \r\n    }\r\n\r\n    \r\n\r\n    function getAllProducts() public view returns(Product[] memory) {\r\n        return productList;\r\n    }\r\n\r\n    function getProduct(uint256 _productId) public view returns(Product memory) {\r\n        for(uint i=0; i < productList.length; i++) { \r\n            if(productList[i].id == _productId) {\r\n                return productList[i];\r\n            }\r\n        }\r\n        revert(\"Product not found!\"); //Undo, return value, give back gas \r\n    }\r\n}",
  "sourcePath": "C:\\Users\\tomas\\Desktop\\Blockchain-Project\\blockchain\\contracts\\MilkFactory.sol",
  "compiler": {
    "name": "solc",
    "version": "0.8.19+commit.7dd6d404.Emscripten.clang"
  },
  "schemaVersion": "3.4.13",
  "updatedAt": "2023-06-10T15:56:26.093Z",
  "networkType": "ethereum",
  "devdoc": {
    "kind": "dev",
    "methods": {},
    "version": 1
  },
  "userdoc": {
    "kind": "user",
    "methods": {},
    "version": 1
  }
}