{
  "contractName": "MilkFactory",
  "abi": [
    {
      "inputs": [
        {
          "internalType": "uint256",
          "name": "",
          "type": "uint256"
        }
      ],
      "name": "cowList",
      "outputs": [
        {
          "internalType": "uint256",
          "name": "id",
          "type": "uint256"
        },
        {
          "internalType": "uint256",
          "name": "weight",
          "type": "uint256"
        },
        {
          "internalType": "string",
          "name": "breed",
          "type": "string"
        },
        {
          "internalType": "string",
          "name": "birthDate",
          "type": "string"
        },
        {
          "internalType": "string",
          "name": "residence",
          "type": "string"
        }
      ],
      "stateMutability": "view",
      "type": "function",
      "constant": true
    },
    {
      "inputs": [
        {
          "internalType": "uint256",
          "name": "",
          "type": "uint256"
        },
        {
          "internalType": "uint256",
          "name": "",
          "type": "uint256"
        }
      ],
      "name": "cowToMilkList",
      "outputs": [
        {
          "internalType": "uint256",
          "name": "id",
          "type": "uint256"
        },
        {
          "internalType": "uint256",
          "name": "cowId",
          "type": "uint256"
        },
        {
          "internalType": "string",
          "name": "dateOfProduction",
          "type": "string"
        }
      ],
      "stateMutability": "view",
      "type": "function",
      "constant": true
    },
    {
      "inputs": [
        {
          "internalType": "uint256",
          "name": "",
          "type": "uint256"
        }
      ],
      "name": "cowToOwner",
      "outputs": [
        {
          "internalType": "address",
          "name": "",
          "type": "address"
        }
      ],
      "stateMutability": "view",
      "type": "function",
      "constant": true
    },
    {
      "inputs": [
        {
          "internalType": "uint256",
          "name": "",
          "type": "uint256"
        }
      ],
      "name": "milkToCow",
      "outputs": [
        {
          "internalType": "uint256",
          "name": "",
          "type": "uint256"
        }
      ],
      "stateMutability": "view",
      "type": "function",
      "constant": true
    },
    {
      "inputs": [
        {
          "internalType": "uint256",
          "name": "",
          "type": "uint256"
        },
        {
          "internalType": "uint256",
          "name": "",
          "type": "uint256"
        }
      ],
      "name": "milkToProductList",
      "outputs": [
        {
          "internalType": "uint256",
          "name": "id",
          "type": "uint256"
        },
        {
          "internalType": "uint256",
          "name": "milkId",
          "type": "uint256"
        },
        {
          "internalType": "string",
          "name": "dateOfProduction",
          "type": "string"
        },
        {
          "internalType": "string",
          "name": "productType",
          "type": "string"
        },
        {
          "internalType": "string",
          "name": "expiryDate",
          "type": "string"
        }
      ],
      "stateMutability": "view",
      "type": "function",
      "constant": true
    },
    {
      "inputs": [
        {
          "internalType": "address",
          "name": "",
          "type": "address"
        }
      ],
      "name": "ownerCowCount",
      "outputs": [
        {
          "internalType": "uint256",
          "name": "",
          "type": "uint256"
        }
      ],
      "stateMutability": "view",
      "type": "function",
      "constant": true
    },
    {
      "inputs": [
        {
          "internalType": "uint256",
          "name": "",
          "type": "uint256"
        }
      ],
      "name": "productList",
      "outputs": [
        {
          "internalType": "uint256",
          "name": "id",
          "type": "uint256"
        },
        {
          "internalType": "uint256",
          "name": "milkId",
          "type": "uint256"
        },
        {
          "internalType": "string",
          "name": "dateOfProduction",
          "type": "string"
        },
        {
          "internalType": "string",
          "name": "productType",
          "type": "string"
        },
        {
          "internalType": "string",
          "name": "expiryDate",
          "type": "string"
        }
      ],
      "stateMutability": "view",
      "type": "function",
      "constant": true
    },
    {
      "inputs": [
        {
          "internalType": "uint256",
          "name": "_cowId",
          "type": "uint256"
        },
        {
          "internalType": "uint256",
          "name": "_weight",
          "type": "uint256"
        },
        {
          "internalType": "string",
          "name": "_breed",
          "type": "string"
        },
        {
          "internalType": "string",
          "name": "_birthDate",
          "type": "string"
        },
        {
          "internalType": "string",
          "name": "_residence",
          "type": "string"
        }
      ],
      "name": "addCow",
      "outputs": [],
      "stateMutability": "nonpayable",
      "type": "function"
    },
    {
      "inputs": [
        {
          "internalType": "uint256",
          "name": "_cowId",
          "type": "uint256"
        },
        {
          "internalType": "uint256",
          "name": "_milkId",
          "type": "uint256"
        },
        {
          "internalType": "string",
          "name": "_dateOfProduction",
          "type": "string"
        }
      ],
      "name": "addMilk",
      "outputs": [],
      "stateMutability": "nonpayable",
      "type": "function"
    },
    {
      "inputs": [
        {
          "internalType": "uint256",
          "name": "_productId",
          "type": "uint256"
        },
        {
          "internalType": "uint256",
          "name": "_milkId",
          "type": "uint256"
        },
        {
          "internalType": "string",
          "name": "_dateOfProduction",
          "type": "string"
        },
        {
          "internalType": "string",
          "name": "_productType",
          "type": "string"
        },
        {
          "internalType": "string",
          "name": "_expiryDate",
          "type": "string"
        }
      ],
      "name": "addProduct",
      "outputs": [],
      "stateMutability": "nonpayable",
      "type": "function"
    },
    {
      "inputs": [],
      "name": "getAllProducts",
      "outputs": [
        {
          "components": [
            {
              "internalType": "uint256",
              "name": "id",
              "type": "uint256"
            },
            {
              "internalType": "uint256",
              "name": "milkId",
              "type": "uint256"
            },
            {
              "internalType": "string",
              "name": "dateOfProduction",
              "type": "string"
            },
            {
              "internalType": "string",
              "name": "productType",
              "type": "string"
            },
            {
              "internalType": "string",
              "name": "expiryDate",
              "type": "string"
            }
          ],
          "internalType": "struct MilkFactory.Product[]",
          "name": "",
          "type": "tuple[]"
        }
      ],
      "stateMutability": "view",
      "type": "function",
      "constant": true
    },
    {
      "inputs": [
        {
          "internalType": "uint256",
          "name": "_productId",
          "type": "uint256"
        }
      ],
      "name": "getProduct",
      "outputs": [
        {
          "components": [
            {
              "internalType": "uint256",
              "name": "id",
              "type": "uint256"
            },
            {
              "internalType": "uint256",
              "name": "milkId",
              "type": "uint256"
            },
            {
              "internalType": "string",
              "name": "dateOfProduction",
              "type": "string"
            },
            {
              "internalType": "string",
              "name": "productType",
              "type": "string"
            },
            {
              "internalType": "string",
              "name": "expiryDate",
              "type": "string"
            }
          ],
          "internalType": "struct MilkFactory.Product",
          "name": "",
          "type": "tuple"
        }
      ],
      "stateMutability": "view",
      "type": "function",
      "constant": true
    }
  ],
  "bytecode": "0x608060405234801561001057600080fd5b50611f88806100206000396000f3fe608060405234801561001057600080fd5b50600436106100b45760003560e01c806379350c781161007157806379350c78146101b95780637ba3372d146101d5578063b9db15b414610209578063cb7cdaad14610239578063cbc527941461026d578063edc65a801461029d576100b4565b806302ee3a52146100b957806317d0862c146100d75780631dc2c408146100f3578063528c87d2146101255780635515d0f6146101595780636c46f2a014610189575b600080fd5b6100c16102b9565b6040516100ce9190611519565b60405180910390f35b6100f160048036038101906100ec91906116b0565b6104e2565b005b61010d6004803603810190610108919061177f565b610640565b60405161011c93929190611818565b60405180910390f35b61013f600480360381019061013a9190611856565b61070f565b604051610150959493929190611883565b60405180910390f35b610173600480360381019061016e9190611856565b6108ed565b604051610180919061192c565b60405180910390f35b6101a3600480360381019061019e9190611856565b610920565b6040516101b09190611947565b60405180910390f35b6101d360048036038101906101ce9190611962565b610938565b005b6101ef60048036038101906101ea919061177f565b610a81565b604051610200959493929190611883565b60405180910390f35b610223600480360381019061021e9190611856565b610c6c565b6040516102309190611a55565b60405180910390f35b610253600480360381019061024e9190611856565b610f03565b604051610264959493929190611883565b60405180910390f35b61028760048036038101906102829190611aa3565b6110e1565b6040516102949190611947565b60405180910390f35b6102b760048036038101906102b291906116b0565b6110f9565b005b60606001805480602002602001604051908101604052809291908181526020016000905b828210156104d957838290600052602060002090600502016040518060a0016040529081600082015481526020016001820154815260200160028201805461032490611aff565b80601f016020809104026020016040519081016040528092919081815260200182805461035090611aff565b801561039d5780601f106103725761010080835404028352916020019161039d565b820191906000526020600020905b81548152906001019060200180831161038057829003601f168201915b505050505081526020016003820180546103b690611aff565b80601f01602080910402602001604051908101604052809291908181526020018280546103e290611aff565b801561042f5780601f106104045761010080835404028352916020019161042f565b820191906000526020600020905b81548152906001019060200180831161041257829003601f168201915b5050505050815260200160048201805461044890611aff565b80601f016020809104026020016040519081016040528092919081815260200182805461047490611aff565b80156104c15780601f10610496576101008083540402835291602001916104c1565b820191906000526020600020905b8154815290600101906020018083116104a457829003601f168201915b505050505081525050815260200190600101906102dd565b50505050905090565b60006040518060a001604052808781526020018681526020018581526020018481526020018381525090506000819080600181540180825580915050600190039060005260206000209060050201600090919091909150600082015181600001556020820151816001015560408201518160020190816105629190611cdc565b5060608201518160030190816105789190611cdc565b50608082015181600401908161058e9190611cdc565b505050336002600088815260200190815260200160002060006101000a81548173ffffffffffffffffffffffffffffffffffffffff021916908373ffffffffffffffffffffffffffffffffffffffff160217905550600360003373ffffffffffffffffffffffffffffffffffffffff1673ffffffffffffffffffffffffffffffffffffffff168152602001908152602001600020600081548092919061063390611ddd565b9190505550505050505050565b6004602052816000526040600020818154811061065c57600080fd5b90600052602060002090600302016000915091505080600001549080600101549080600201805461068c90611aff565b80601f01602080910402602001604051908101604052809291908181526020018280546106b890611aff565b80156107055780601f106106da57610100808354040283529160200191610705565b820191906000526020600020905b8154815290600101906020018083116106e857829003601f168201915b5050505050905083565b6001818154811061071f57600080fd5b906000526020600020906005020160009150905080600001549080600101549080600201805461074e90611aff565b80601f016020809104026020016040519081016040528092919081815260200182805461077a90611aff565b80156107c75780601f1061079c576101008083540402835291602001916107c7565b820191906000526020600020905b8154815290600101906020018083116107aa57829003601f168201915b5050505050908060030180546107dc90611aff565b80601f016020809104026020016040519081016040528092919081815260200182805461080890611aff565b80156108555780601f1061082a57610100808354040283529160200191610855565b820191906000526020600020905b81548152906001019060200180831161083857829003601f168201915b50505050509080600401805461086a90611aff565b80601f016020809104026020016040519081016040528092919081815260200182805461089690611aff565b80156108e35780601f106108b8576101008083540402835291602001916108e3565b820191906000526020600020905b8154815290600101906020018083116108c657829003601f168201915b5050505050905085565b60026020528060005260406000206000915054906101000a900473ffffffffffffffffffffffffffffffffffffffff1681565b60066020528060005260406000206000915090505481565b823373ffffffffffffffffffffffffffffffffffffffff166002600083815260200190815260200160002060009054906101000a900473ffffffffffffffffffffffffffffffffffffffff1673ffffffffffffffffffffffffffffffffffffffff16146109da576040517f08c379a00000000000000000000000000000000000000000000000000000000081526004016109d190611e97565b60405180910390fd5b600060405180606001604052808581526020018681526020018481525090506004600086815260200190815260200160002081908060018154018082558091505060019003906000526020600020906003020160009091909190915060008201518160000155602082015181600101556040820151816002019081610a5f9190611cdc565b5050508460066000868152602001908152602001600020819055505050505050565b60056020528160005260406000208181548110610a9d57600080fd5b906000526020600020906005020160009150915050806000015490806001015490806002018054610acd90611aff565b80601f0160208091040260200160405190810160405280929190818152602001828054610af990611aff565b8015610b465780601f10610b1b57610100808354040283529160200191610b46565b820191906000526020600020905b815481529060010190602001808311610b2957829003601f168201915b505050505090806003018054610b5b90611aff565b80601f0160208091040260200160405190810160405280929190818152602001828054610b8790611aff565b8015610bd45780601f10610ba957610100808354040283529160200191610bd4565b820191906000526020600020905b815481529060010190602001808311610bb757829003601f168201915b505050505090806004018054610be990611aff565b80601f0160208091040260200160405190810160405280929190818152602001828054610c1590611aff565b8015610c625780601f10610c3757610100808354040283529160200191610c62565b820191906000526020600020905b815481529060010190602001808311610c4557829003601f168201915b5050505050905085565b610c746112fb565b60005b600180549050811015610ec2578260018281548110610c9957610c98611eb7565b5b90600052602060002090600502016000015403610eaf5760018181548110610cc457610cc3611eb7565b5b90600052602060002090600502016040518060a00160405290816000820154815260200160018201548152602001600282018054610d0190611aff565b80601f0160208091040260200160405190810160405280929190818152602001828054610d2d90611aff565b8015610d7a5780601f10610d4f57610100808354040283529160200191610d7a565b820191906000526020600020905b815481529060010190602001808311610d5d57829003601f168201915b50505050508152602001600382018054610d9390611aff565b80601f0160208091040260200160405190810160405280929190818152602001828054610dbf90611aff565b8015610e0c5780601f10610de157610100808354040283529160200191610e0c565b820191906000526020600020905b815481529060010190602001808311610def57829003601f168201915b50505050508152602001600482018054610e2590611aff565b80601f0160208091040260200160405190810160405280929190818152602001828054610e5190611aff565b8015610e9e5780601f10610e7357610100808354040283529160200191610e9e565b820191906000526020600020905b815481529060010190602001808311610e8157829003601f168201915b505050505081525050915050610efe565b8080610eba90611ddd565b915050610c77565b506040517f08c379a0000000000000000000000000000000000000000000000000000000008152600401610ef590611f32565b60405180910390fd5b919050565b60008181548110610f1357600080fd5b9060005260206000209060050201600091509050806000015490806001015490806002018054610f4290611aff565b80601f0160208091040260200160405190810160405280929190818152602001828054610f6e90611aff565b8015610fbb5780601f10610f9057610100808354040283529160200191610fbb565b820191906000526020600020905b815481529060010190602001808311610f9e57829003601f168201915b505050505090806003018054610fd090611aff565b80601f0160208091040260200160405190810160405280929190818152602001828054610ffc90611aff565b80156110495780601f1061101e57610100808354040283529160200191611049565b820191906000526020600020905b81548152906001019060200180831161102c57829003601f168201915b50505050509080600401805461105e90611aff565b80601f016020809104026020016040519081016040528092919081815260200182805461108a90611aff565b80156110d75780601f106110ac576101008083540402835291602001916110d7565b820191906000526020600020905b8154815290600101906020018083116110ba57829003601f168201915b5050505050905085565b60036020528060005260406000206000915090505481565b60066000858152602001908152602001600020543373ffffffffffffffffffffffffffffffffffffffff166002600083815260200190815260200160002060009054906101000a900473ffffffffffffffffffffffffffffffffffffffff1673ffffffffffffffffffffffffffffffffffffffff16146111ae576040517f08c379a00000000000000000000000000000000000000000000000000000000081526004016111a590611e97565b60405180910390fd5b60006040518060a00160405280888152602001878152602001868152602001858152602001848152509050600560008781526020019081526020016000208190806001815401808255809150506001900390600052602060002090600502016000909190919091506000820151816000015560208201518160010155604082015181600201908161123f9190611cdc565b5060608201518160030190816112559190611cdc565b50608082015181600401908161126b9190611cdc565b5050506001819080600181540180825580915050600190039060005260206000209060050201600090919091909150600082015181600001556020820151816001015560408201518160020190816112c39190611cdc565b5060608201518160030190816112d99190611cdc565b5060808201518160040190816112ef9190611cdc565b50505050505050505050565b6040518060a0016040528060008152602001600081526020016060815260200160608152602001606081525090565b600081519050919050565b600082825260208201905092915050565b6000819050602082019050919050565b6000819050919050565b61136981611356565b82525050565b600081519050919050565b600082825260208201905092915050565b60005b838110156113a957808201518184015260208101905061138e565b60008484015250505050565b6000601f19601f8301169050919050565b60006113d18261136f565b6113db818561137a565b93506113eb81856020860161138b565b6113f4816113b5565b840191505092915050565b600060a0830160008301516114176000860182611360565b50602083015161142a6020860182611360565b506040830151848203604086015261144282826113c6565b9150506060830151848203606086015261145c82826113c6565b9150506080830151848203608086015261147682826113c6565b9150508091505092915050565b600061148f83836113ff565b905092915050565b6000602082019050919050565b60006114af8261132a565b6114b98185611335565b9350836020820285016114cb85611346565b8060005b8581101561150757848403895281516114e88582611483565b94506114f383611497565b925060208a019950506001810190506114cf565b50829750879550505050505092915050565b6000602082019050818103600083015261153381846114a4565b905092915050565b6000604051905090565b600080fd5b600080fd5b61155881611356565b811461156357600080fd5b50565b6000813590506115758161154f565b92915050565b600080fd5b600080fd5b7f4e487b7100000000000000000000000000000000000000000000000000000000600052604160045260246000fd5b6115bd826113b5565b810181811067ffffffffffffffff821117156115dc576115db611585565b5b80604052505050565b60006115ef61153b565b90506115fb82826115b4565b919050565b600067ffffffffffffffff82111561161b5761161a611585565b5b611624826113b5565b9050602081019050919050565b82818337600083830152505050565b600061165361164e84611600565b6115e5565b90508281526020810184848401111561166f5761166e611580565b5b61167a848285611631565b509392505050565b600082601f8301126116975761169661157b565b5b81356116a7848260208601611640565b91505092915050565b600080600080600060a086880312156116cc576116cb611545565b5b60006116da88828901611566565b95505060206116eb88828901611566565b945050604086013567ffffffffffffffff81111561170c5761170b61154a565b5b61171888828901611682565b935050606086013567ffffffffffffffff8111156117395761173861154a565b5b61174588828901611682565b925050608086013567ffffffffffffffff8111156117665761176561154a565b5b61177288828901611682565b9150509295509295909350565b6000806040838503121561179657611795611545565b5b60006117a485828601611566565b92505060206117b585828601611566565b9150509250929050565b6117c881611356565b82525050565b600082825260208201905092915050565b60006117ea8261136f565b6117f481856117ce565b935061180481856020860161138b565b61180d816113b5565b840191505092915050565b600060608201905061182d60008301866117bf565b61183a60208301856117bf565b818103604083015261184c81846117df565b9050949350505050565b60006020828403121561186c5761186b611545565b5b600061187a84828501611566565b91505092915050565b600060a08201905061189860008301886117bf565b6118a560208301876117bf565b81810360408301526118b781866117df565b905081810360608301526118cb81856117df565b905081810360808301526118df81846117df565b90509695505050505050565b600073ffffffffffffffffffffffffffffffffffffffff82169050919050565b6000611916826118eb565b9050919050565b6119268161190b565b82525050565b6000602082019050611941600083018461191d565b92915050565b600060208201905061195c60008301846117bf565b92915050565b60008060006060848603121561197b5761197a611545565b5b600061198986828701611566565b935050602061199a86828701611566565b925050604084013567ffffffffffffffff8111156119bb576119ba61154a565b5b6119c786828701611682565b9150509250925092565b600060a0830160008301516119e96000860182611360565b5060208301516119fc6020860182611360565b5060408301518482036040860152611a1482826113c6565b91505060608301518482036060860152611a2e82826113c6565b91505060808301518482036080860152611a4882826113c6565b9150508091505092915050565b60006020820190508181036000830152611a6f81846119d1565b905092915050565b611a808161190b565b8114611a8b57600080fd5b50565b600081359050611a9d81611a77565b92915050565b600060208284031215611ab957611ab8611545565b5b6000611ac784828501611a8e565b91505092915050565b7f4e487b7100000000000000000000000000000000000000000000000000000000600052602260045260246000fd5b60006002820490506001821680611b1757607f821691505b602082108103611b2a57611b29611ad0565b5b50919050565b60008190508160005260206000209050919050565b60006020601f8301049050919050565b600082821b905092915050565b600060088302611b927fffffffffffffffffffffffffffffffffffffffffffffffffffffffffffffffff82611b55565b611b9c8683611b55565b95508019841693508086168417925050509392505050565b6000819050919050565b6000611bd9611bd4611bcf84611356565b611bb4565b611356565b9050919050565b6000819050919050565b611bf383611bbe565b611c07611bff82611be0565b848454611b62565b825550505050565b600090565b611c1c611c0f565b611c27818484611bea565b505050565b5b81811015611c4b57611c40600082611c14565b600181019050611c2d565b5050565b601f821115611c9057611c6181611b30565b611c6a84611b45565b81016020851015611c79578190505b611c8d611c8585611b45565b830182611c2c565b50505b505050565b600082821c905092915050565b6000611cb360001984600802611c95565b1980831691505092915050565b6000611ccc8383611ca2565b9150826002028217905092915050565b611ce58261136f565b67ffffffffffffffff811115611cfe57611cfd611585565b5b611d088254611aff565b611d13828285611c4f565b600060209050601f831160018114611d465760008415611d34578287015190505b611d3e8582611cc0565b865550611da6565b601f198416611d5486611b30565b60005b82811015611d7c57848901518255600182019150602085019450602081019050611d57565b86831015611d995784890151611d95601f891682611ca2565b8355505b6001600288020188555050505b505050505050565b7f4e487b7100000000000000000000000000000000000000000000000000000000600052601160045260246000fd5b6000611de882611356565b91507fffffffffffffffffffffffffffffffffffffffffffffffffffffffffffffffff8203611e1a57611e19611dae565b5b600182019050919050565b7f596f7520617265206e6f7420746865206f776e6572206f66207468697320636f60008201527f7700000000000000000000000000000000000000000000000000000000000000602082015250565b6000611e816021836117ce565b9150611e8c82611e25565b604082019050919050565b60006020820190508181036000830152611eb081611e74565b9050919050565b7f4e487b7100000000000000000000000000000000000000000000000000000000600052603260045260246000fd5b7f50726f64756374206e6f7420666f756e64210000000000000000000000000000600082015250565b6000611f1c6012836117ce565b9150611f2782611ee6565b602082019050919050565b60006020820190508181036000830152611f4b81611f0f565b905091905056fea2646970667358221220328448a1626f8b8f909b940b3547947d4daca09331ead3b2c15569543190727664736f6c63430008130033",
  "immutableReferences": {},
  "source": "pragma solidity ^0.8.17;\r\n\r\ncontract MilkFactory {\r\n\r\n    struct Daisy {\r\n        address dairyAddress;\r\n        string dairyName;\r\n        string dairyPlace;\r\n    }\r\n\r\n    struct Cow {\r\n        uint256 id;\r\n        uint256 weight;\r\n        string breed;\r\n        string birthDate;\r\n        string residence;\r\n    }\r\n\r\n    struct Milk {\r\n        uint256 id;\r\n        uint256 cowId;\r\n        string dateOfProduction;\r\n    }\r\n\r\n    struct Product { //Should add more info about product \r\n        uint256 id;\r\n        uint256 milkId;\r\n        string dateOfProduction;\r\n        string productType;\r\n        string expiryDate;\r\n    }\r\n\r\n    //constructor() {\r\n    //    owner = msg.sender;\r\n    //}\r\n\r\n    modifier onlyOwnerOf(uint256 _cowId) {\r\n        require(cowToOwner[_cowId] == msg.sender, \"You are not the owner of this cow\");\r\n        _;\r\n    }\r\n    Cow[] public cowList;\r\n    Product[] public productList;\r\n\r\n    mapping(uint256 => address) public cowToOwner;\r\n    mapping(address => uint256) public ownerCowCount;\r\n    mapping(uint256 => Milk[]) public cowToMilkList;\r\n    mapping(uint256 => Product[]) public milkToProductList;\r\n    mapping(uint256 => uint256) public milkToCow;\r\n\r\n    function addCow(uint256 _cowId, uint256 _weight, string memory _breed, string memory _birthDate, string memory _residence) public {\r\n        Cow memory myCow = Cow(_cowId, _weight, _breed, _birthDate, _residence);\r\n        cowList.push(myCow);\r\n        cowToOwner[_cowId] = msg.sender;\r\n        ownerCowCount[msg.sender]++;\r\n    }\r\n    \r\n    function addMilk(uint256 _cowId, uint256 _milkId, string memory _dateOfProduction) public onlyOwnerOf(_cowId) {\r\n        Milk memory myMilk = Milk(_milkId, _cowId, _dateOfProduction);\r\n        cowToMilkList[_cowId].push(myMilk);\r\n        milkToCow[_milkId] = _cowId;\r\n    }\r\n\r\n    function addProduct(uint256 _productId, uint256 _milkId, string memory _dateOfProduction, string memory _productType, string memory _expiryDate) public onlyOwnerOf(milkToCow[_milkId]) {\r\n        Product memory  myProduct = Product(_productId, _milkId, _dateOfProduction, _productType, _expiryDate);\r\n        milkToProductList[_milkId].push(myProduct);\r\n        productList.push(myProduct);\r\n    }\r\n\r\n    function getAllProducts() public view returns(Product[] memory) {\r\n        return productList;\r\n    }\r\n\r\n    function getProduct(uint256 _productId) public view returns(Product memory) {\r\n        for(uint i=0; i < productList.length; i++) { \r\n            if(productList[i].id == _productId) {\r\n                return productList[i];\r\n            }\r\n        }\r\n        revert(\"Product not found!\"); //Undo, return value, give back gas \r\n    }\r\n}",
  "sourcePath": "C:\\Users\\tomas\\Desktop\\Blockchain-Project\\blockchain\\contracts\\MilkFactory.sol",
  "compiler": {
    "name": "solc",
    "version": "0.8.19+commit.7dd6d404.Emscripten.clang"
  },
  "schemaVersion": "3.4.13",
  "updatedAt": "2023-05-16T08:44:36.816Z",
  "networkType": "ethereum",
  "devdoc": {
    "kind": "dev",
    "methods": {},
    "version": 1
  },
  "userdoc": {
    "kind": "user",
    "methods": {},
    "version": 1
  }
}