{
  "contractName": "MilkFactory",
  "abi": [
    {
      "anonymous": false,
      "inputs": [
        {
          "indexed": false,
          "internalType": "string",
          "name": "message",
          "type": "string"
        }
      ],
      "name": "LogMessage",
      "type": "event"
    },
    {
      "anonymous": false,
      "inputs": [
        {
          "indexed": false,
          "internalType": "uint256",
          "name": "productId",
          "type": "uint256"
        }
      ],
      "name": "ProductAdded",
      "type": "event"
    },
    {
      "anonymous": false,
      "inputs": [
        {
          "indexed": false,
          "internalType": "uint256",
          "name": "productId",
          "type": "uint256"
        }
      ],
      "name": "SpoiledProduct",
      "type": "event"
    },
    {
      "inputs": [],
      "name": "cowCount",
      "outputs": [
        {
          "internalType": "uint256",
          "name": "",
          "type": "uint256"
        }
      ],
      "stateMutability": "view",
      "type": "function",
      "constant": true
    },
    {
      "inputs": [
        {
          "internalType": "uint256",
          "name": "",
          "type": "uint256"
        }
      ],
      "name": "cowList",
      "outputs": [
        {
          "internalType": "uint256",
          "name": "id",
          "type": "uint256"
        },
        {
          "internalType": "uint16",
          "name": "weight",
          "type": "uint16"
        },
        {
          "internalType": "string",
          "name": "breed",
          "type": "string"
        },
        {
          "internalType": "string",
          "name": "birthDate",
          "type": "string"
        },
        {
          "internalType": "string",
          "name": "residence",
          "type": "string"
        }
      ],
      "stateMutability": "view",
      "type": "function",
      "constant": true
    },
    {
      "inputs": [
        {
          "internalType": "uint256",
          "name": "",
          "type": "uint256"
        },
        {
          "internalType": "uint256",
          "name": "",
          "type": "uint256"
        }
      ],
      "name": "cowToMilkList",
      "outputs": [
        {
          "internalType": "uint256",
          "name": "id",
          "type": "uint256"
        },
        {
          "internalType": "uint256",
          "name": "cowId",
          "type": "uint256"
        },
        {
          "internalType": "string",
          "name": "dateOfProduction",
          "type": "string"
        }
      ],
      "stateMutability": "view",
      "type": "function",
      "constant": true
    },
    {
      "inputs": [
        {
          "internalType": "uint256",
          "name": "",
          "type": "uint256"
        }
      ],
      "name": "cowToOwner",
      "outputs": [
        {
          "internalType": "address",
          "name": "",
          "type": "address"
        }
      ],
      "stateMutability": "view",
      "type": "function",
      "constant": true
    },
    {
      "inputs": [
        {
          "internalType": "uint256",
          "name": "",
          "type": "uint256"
        }
      ],
      "name": "dairyList",
      "outputs": [
        {
          "internalType": "address",
          "name": "dairyAddress",
          "type": "address"
        },
        {
          "internalType": "string",
          "name": "dairyName",
          "type": "string"
        },
        {
          "internalType": "string",
          "name": "dairyPlace",
          "type": "string"
        }
      ],
      "stateMutability": "view",
      "type": "function",
      "constant": true
    },
    {
      "inputs": [
        {
          "internalType": "uint256",
          "name": "",
          "type": "uint256"
        }
      ],
      "name": "deathCows",
      "outputs": [
        {
          "internalType": "bool",
          "name": "",
          "type": "bool"
        }
      ],
      "stateMutability": "view",
      "type": "function",
      "constant": true
    },
    {
      "inputs": [],
      "name": "milkCount",
      "outputs": [
        {
          "internalType": "uint256",
          "name": "",
          "type": "uint256"
        }
      ],
      "stateMutability": "view",
      "type": "function",
      "constant": true
    },
    {
      "inputs": [
        {
          "internalType": "uint256",
          "name": "",
          "type": "uint256"
        }
      ],
      "name": "milkList",
      "outputs": [
        {
          "internalType": "uint256",
          "name": "id",
          "type": "uint256"
        },
        {
          "internalType": "uint256",
          "name": "cowId",
          "type": "uint256"
        },
        {
          "internalType": "string",
          "name": "dateOfProduction",
          "type": "string"
        }
      ],
      "stateMutability": "view",
      "type": "function",
      "constant": true
    },
    {
      "inputs": [
        {
          "internalType": "uint256",
          "name": "",
          "type": "uint256"
        }
      ],
      "name": "milkToCow",
      "outputs": [
        {
          "internalType": "uint256",
          "name": "",
          "type": "uint256"
        }
      ],
      "stateMutability": "view",
      "type": "function",
      "constant": true
    },
    {
      "inputs": [
        {
          "internalType": "uint256",
          "name": "",
          "type": "uint256"
        },
        {
          "internalType": "uint256",
          "name": "",
          "type": "uint256"
        }
      ],
      "name": "milkToProductList",
      "outputs": [
        {
          "internalType": "uint256",
          "name": "id",
          "type": "uint256"
        },
        {
          "internalType": "uint256",
          "name": "milkId",
          "type": "uint256"
        },
        {
          "internalType": "string",
          "name": "dateOfProduction",
          "type": "string"
        },
        {
          "internalType": "string",
          "name": "productType",
          "type": "string"
        },
        {
          "internalType": "string",
          "name": "expiryDate",
          "type": "string"
        }
      ],
      "stateMutability": "view",
      "type": "function",
      "constant": true
    },
    {
      "inputs": [
        {
          "internalType": "address",
          "name": "",
          "type": "address"
        }
      ],
      "name": "ownerMilkCount",
      "outputs": [
        {
          "internalType": "uint256",
          "name": "",
          "type": "uint256"
        }
      ],
      "stateMutability": "view",
      "type": "function",
      "constant": true
    },
    {
      "inputs": [
        {
          "internalType": "address",
          "name": "",
          "type": "address"
        },
        {
          "internalType": "uint256",
          "name": "",
          "type": "uint256"
        }
      ],
      "name": "ownerToCowList",
      "outputs": [
        {
          "internalType": "uint256",
          "name": "id",
          "type": "uint256"
        },
        {
          "internalType": "uint16",
          "name": "weight",
          "type": "uint16"
        },
        {
          "internalType": "string",
          "name": "breed",
          "type": "string"
        },
        {
          "internalType": "string",
          "name": "birthDate",
          "type": "string"
        },
        {
          "internalType": "string",
          "name": "residence",
          "type": "string"
        }
      ],
      "stateMutability": "view",
      "type": "function",
      "constant": true
    },
    {
      "inputs": [
        {
          "internalType": "address",
          "name": "",
          "type": "address"
        },
        {
          "internalType": "uint256",
          "name": "",
          "type": "uint256"
        }
      ],
      "name": "ownerToMilk",
      "outputs": [
        {
          "internalType": "uint256",
          "name": "id",
          "type": "uint256"
        },
        {
          "internalType": "uint256",
          "name": "cowId",
          "type": "uint256"
        },
        {
          "internalType": "string",
          "name": "dateOfProduction",
          "type": "string"
        }
      ],
      "stateMutability": "view",
      "type": "function",
      "constant": true
    },
    {
      "inputs": [],
      "name": "productCount",
      "outputs": [
        {
          "internalType": "uint256",
          "name": "",
          "type": "uint256"
        }
      ],
      "stateMutability": "view",
      "type": "function",
      "constant": true
    },
    {
      "inputs": [
        {
          "internalType": "uint256",
          "name": "",
          "type": "uint256"
        }
      ],
      "name": "productList",
      "outputs": [
        {
          "internalType": "uint256",
          "name": "id",
          "type": "uint256"
        },
        {
          "internalType": "uint256",
          "name": "milkId",
          "type": "uint256"
        },
        {
          "internalType": "string",
          "name": "dateOfProduction",
          "type": "string"
        },
        {
          "internalType": "string",
          "name": "productType",
          "type": "string"
        },
        {
          "internalType": "string",
          "name": "expiryDate",
          "type": "string"
        }
      ],
      "stateMutability": "view",
      "type": "function",
      "constant": true
    },
    {
      "inputs": [
        {
          "internalType": "uint256",
          "name": "",
          "type": "uint256"
        }
      ],
      "name": "spoiledMilks",
      "outputs": [
        {
          "internalType": "bool",
          "name": "",
          "type": "bool"
        }
      ],
      "stateMutability": "view",
      "type": "function",
      "constant": true
    },
    {
      "inputs": [
        {
          "internalType": "string",
          "name": "_dairyName",
          "type": "string"
        },
        {
          "internalType": "string",
          "name": "_dairyPlace",
          "type": "string"
        }
      ],
      "name": "addDairy",
      "outputs": [],
      "stateMutability": "nonpayable",
      "type": "function"
    },
    {
      "inputs": [],
      "name": "checkDairyIsRegistered",
      "outputs": [
        {
          "internalType": "bool",
          "name": "",
          "type": "bool"
        }
      ],
      "stateMutability": "view",
      "type": "function",
      "constant": true
    },
    {
      "inputs": [],
      "name": "getAllDairyExceptSelf",
      "outputs": [
        {
          "components": [
            {
              "internalType": "address",
              "name": "dairyAddress",
              "type": "address"
            },
            {
              "internalType": "string",
              "name": "dairyName",
              "type": "string"
            },
            {
              "internalType": "string",
              "name": "dairyPlace",
              "type": "string"
            }
          ],
          "internalType": "struct MilkFactory.Dairy[]",
          "name": "",
          "type": "tuple[]"
        }
      ],
      "stateMutability": "view",
      "type": "function",
      "constant": true
    },
    {
      "inputs": [
        {
          "internalType": "uint256",
          "name": "_cowId",
          "type": "uint256"
        },
        {
          "internalType": "address",
          "name": "_newOwner",
          "type": "address"
        }
      ],
      "name": "transferCow",
      "outputs": [],
      "stateMutability": "nonpayable",
      "type": "function"
    },
    {
      "inputs": [
        {
          "internalType": "uint256",
          "name": "_milkId",
          "type": "uint256"
        },
        {
          "internalType": "address",
          "name": "_newOwner",
          "type": "address"
        }
      ],
      "name": "transferMilk",
      "outputs": [],
      "stateMutability": "nonpayable",
      "type": "function"
    },
    {
      "inputs": [
        {
          "internalType": "uint16",
          "name": "_weight",
          "type": "uint16"
        },
        {
          "internalType": "string",
          "name": "_breed",
          "type": "string"
        },
        {
          "internalType": "string",
          "name": "_birthDate",
          "type": "string"
        },
        {
          "internalType": "string",
          "name": "_residence",
          "type": "string"
        }
      ],
      "name": "addCow",
      "outputs": [],
      "stateMutability": "nonpayable",
      "type": "function"
    },
    {
      "inputs": [
        {
          "internalType": "uint256",
          "name": "_cowId",
          "type": "uint256"
        },
        {
          "internalType": "string",
          "name": "_dateOfProduction",
          "type": "string"
        }
      ],
      "name": "addMilk",
      "outputs": [],
      "stateMutability": "nonpayable",
      "type": "function"
    },
    {
      "inputs": [
        {
          "internalType": "uint256",
          "name": "_milkId",
          "type": "uint256"
        },
        {
          "internalType": "string",
          "name": "_dateOfProduction",
          "type": "string"
        },
        {
          "internalType": "string",
          "name": "_productType",
          "type": "string"
        },
        {
          "internalType": "string",
          "name": "_expiryDate",
          "type": "string"
        }
      ],
      "name": "addProduct",
      "outputs": [],
      "stateMutability": "nonpayable",
      "type": "function"
    },
    {
      "inputs": [
        {
          "internalType": "uint256",
          "name": "_cowId",
          "type": "uint256"
        }
      ],
      "name": "killCow",
      "outputs": [],
      "stateMutability": "nonpayable",
      "type": "function"
    },
    {
      "inputs": [],
      "name": "getAllCows",
      "outputs": [
        {
          "components": [
            {
              "internalType": "uint256",
              "name": "id",
              "type": "uint256"
            },
            {
              "internalType": "uint16",
              "name": "weight",
              "type": "uint16"
            },
            {
              "internalType": "string",
              "name": "breed",
              "type": "string"
            },
            {
              "internalType": "string",
              "name": "birthDate",
              "type": "string"
            },
            {
              "internalType": "string",
              "name": "residence",
              "type": "string"
            }
          ],
          "internalType": "struct MilkFactory.Cow[]",
          "name": "",
          "type": "tuple[]"
        }
      ],
      "stateMutability": "view",
      "type": "function",
      "constant": true
    },
    {
      "inputs": [],
      "name": "getCowsOfOwner",
      "outputs": [
        {
          "components": [
            {
              "internalType": "uint256",
              "name": "id",
              "type": "uint256"
            },
            {
              "internalType": "uint16",
              "name": "weight",
              "type": "uint16"
            },
            {
              "internalType": "string",
              "name": "breed",
              "type": "string"
            },
            {
              "internalType": "string",
              "name": "birthDate",
              "type": "string"
            },
            {
              "internalType": "string",
              "name": "residence",
              "type": "string"
            }
          ],
          "internalType": "struct MilkFactory.Cow[]",
          "name": "",
          "type": "tuple[]"
        }
      ],
      "stateMutability": "view",
      "type": "function",
      "constant": true
    },
    {
      "inputs": [],
      "name": "getAliveCowsOfOwner",
      "outputs": [
        {
          "components": [
            {
              "internalType": "uint256",
              "name": "id",
              "type": "uint256"
            },
            {
              "internalType": "uint16",
              "name": "weight",
              "type": "uint16"
            },
            {
              "internalType": "string",
              "name": "breed",
              "type": "string"
            },
            {
              "internalType": "string",
              "name": "birthDate",
              "type": "string"
            },
            {
              "internalType": "string",
              "name": "residence",
              "type": "string"
            }
          ],
          "internalType": "struct MilkFactory.Cow[]",
          "name": "",
          "type": "tuple[]"
        }
      ],
      "stateMutability": "view",
      "type": "function",
      "constant": true
    },
    {
      "inputs": [],
      "name": "getAllMilks",
      "outputs": [
        {
          "components": [
            {
              "internalType": "uint256",
              "name": "id",
              "type": "uint256"
            },
            {
              "internalType": "uint256",
              "name": "cowId",
              "type": "uint256"
            },
            {
              "internalType": "string",
              "name": "dateOfProduction",
              "type": "string"
            }
          ],
          "internalType": "struct MilkFactory.Milk[]",
          "name": "",
          "type": "tuple[]"
        }
      ],
      "stateMutability": "view",
      "type": "function",
      "constant": true
    },
    {
      "inputs": [],
      "name": "getMilksOfOwner",
      "outputs": [
        {
          "components": [
            {
              "internalType": "uint256",
              "name": "id",
              "type": "uint256"
            },
            {
              "internalType": "uint256",
              "name": "cowId",
              "type": "uint256"
            },
            {
              "internalType": "string",
              "name": "dateOfProduction",
              "type": "string"
            }
          ],
          "internalType": "struct MilkFactory.Milk[]",
          "name": "",
          "type": "tuple[]"
        }
      ],
      "stateMutability": "view",
      "type": "function",
      "constant": true
    },
    {
      "inputs": [
        {
          "internalType": "uint256",
          "name": "_productId",
          "type": "uint256"
        }
      ],
      "name": "reportSpoiledProduct",
      "outputs": [],
      "stateMutability": "nonpayable",
      "type": "function"
    },
    {
      "inputs": [],
      "name": "getAllProducts",
      "outputs": [
        {
          "components": [
            {
              "internalType": "uint256",
              "name": "id",
              "type": "uint256"
            },
            {
              "internalType": "uint256",
              "name": "milkId",
              "type": "uint256"
            },
            {
              "internalType": "string",
              "name": "dateOfProduction",
              "type": "string"
            },
            {
              "internalType": "string",
              "name": "productType",
              "type": "string"
            },
            {
              "internalType": "string",
              "name": "expiryDate",
              "type": "string"
            }
          ],
          "internalType": "struct MilkFactory.Product[]",
          "name": "",
          "type": "tuple[]"
        }
      ],
      "stateMutability": "view",
      "type": "function",
      "constant": true
    },
    {
      "inputs": [
        {
          "internalType": "uint256",
          "name": "_productId",
          "type": "uint256"
        }
      ],
      "name": "getProduct",
      "outputs": [
        {
          "components": [
            {
              "internalType": "uint256",
              "name": "id",
              "type": "uint256"
            },
            {
              "internalType": "uint256",
              "name": "milkId",
              "type": "uint256"
            },
            {
              "internalType": "string",
              "name": "dateOfProduction",
              "type": "string"
            },
            {
              "internalType": "string",
              "name": "productType",
              "type": "string"
            },
            {
              "internalType": "string",
              "name": "expiryDate",
              "type": "string"
            }
          ],
          "internalType": "struct MilkFactory.Product",
          "name": "",
          "type": "tuple"
        }
      ],
      "stateMutability": "view",
      "type": "function",
      "constant": true
    },
    {
      "inputs": [
        {
          "internalType": "uint256",
          "name": "_milkId",
          "type": "uint256"
        }
      ],
      "name": "isMilkSpoiled",
      "outputs": [
        {
          "internalType": "bool",
          "name": "",
          "type": "bool"
        }
      ],
      "stateMutability": "view",
      "type": "function",
      "constant": true
    },
    {
      "inputs": [
        {
          "internalType": "uint256",
          "name": "_milkId",
          "type": "uint256"
        }
      ],
      "name": "getMilk",
      "outputs": [
        {
          "components": [
            {
              "internalType": "uint256",
              "name": "id",
              "type": "uint256"
            },
            {
              "internalType": "uint256",
              "name": "cowId",
              "type": "uint256"
            },
            {
              "internalType": "string",
              "name": "dateOfProduction",
              "type": "string"
            }
          ],
          "internalType": "struct MilkFactory.Milk",
          "name": "",
          "type": "tuple"
        }
      ],
      "stateMutability": "view",
      "type": "function",
      "constant": true
    },
    {
      "inputs": [
        {
          "internalType": "uint256",
          "name": "_cowId",
          "type": "uint256"
        }
      ],
      "name": "getCow",
      "outputs": [
        {
          "components": [
            {
              "internalType": "uint256",
              "name": "id",
              "type": "uint256"
            },
            {
              "internalType": "uint16",
              "name": "weight",
              "type": "uint16"
            },
            {
              "internalType": "string",
              "name": "breed",
              "type": "string"
            },
            {
              "internalType": "string",
              "name": "birthDate",
              "type": "string"
            },
            {
              "internalType": "string",
              "name": "residence",
              "type": "string"
            }
          ],
          "internalType": "struct MilkFactory.Cow",
          "name": "",
          "type": "tuple"
        }
      ],
      "stateMutability": "view",
      "type": "function",
      "constant": true
    }
  ],
  "bytecode": "0x6080604052600080556000600155600060025534801561001e57600080fd5b50615641806200002f6000396000f3fe608060405234801561001057600080fd5b506004361061021c5760003560e01c80638d15b01f11610125578063b9db15b4116100ad578063cb7cdaad1161007c578063cb7cdaad146106d5578063e0f6ef8714610709578063edb5a45714610727578063ef2670f114610745578063fe47b4fb146107615761021c565b8063b9db15b414610623578063b9f9fbfe14610653578063beda38f514610685578063c1393d27146106b95761021c565b80639e0289d2116100f45780639e0289d21461056d5780639fd1fef414610589578063ae81394c146105b9578063b3597a22146105e9578063b6f7ea8a146106055761021c565b80638d15b01f146104f95780638de6e5f114610515578063927fb4de146105335780639318c335146105515761021c565b806334df9b60116101a8578063528c87d211610177578063528c87d2146104155780635515d0f61461044957806365db2d58146104795780636c46f2a0146104955780637ba3372d146104c55761021c565b806334df9b601461038b578063449794dc146103bb5780634a71bd2a146103d957806352183933146103f75761021c565b8063103b99d7116101ef578063103b99d7146102bb578063184e9c2d146102d95780631dc2c408146103095780632bd6ccc81461033b578063329bcfa51461036d5761021c565b806302ee3a521461022157806308f0eb531461023f57806309e88f451461025b5780630f926aeb1461028b575b600080fd5b610229610793565b604051610236919061413f565b60405180910390f35b610259600480360381019061025491906142d6565b6109bc565b005b61027560048036038101906102709190614332565b610c92565b604051610282919061437a565b60405180910390f35b6102a560048036038101906102a091906143f3565b610cb2565b6040516102b2919061442f565b60405180910390f35b6102c3610cca565b6040516102d09190614572565b60405180910390f35b6102f360048036038101906102ee9190614332565b610fae565b60405161030091906145e4565b60405180910390f35b610323600480360381019061031e9190614606565b611121565b60405161033293929190614690565b60405180910390f35b61035560048036038101906103509190614332565b6111f0565b60405161036493929190614690565b60405180910390f35b6103756112b2565b60405161038291906147e0565b60405180910390f35b6103a560048036038101906103a09190614332565b6113b7565b6040516103b291906148a3565b60405180910390f35b6103c3611664565b6040516103d09190614a0b565b60405180910390f35b6103e1611a6e565b6040516103ee91906147e0565b60405180910390f35b6103ff611bb0565b60405161040c919061437a565b60405180910390f35b61042f600480360381019061042a9190614332565b611c63565b604051610440959493929190614a2d565b60405180910390f35b610463600480360381019061045e9190614332565b611e41565b6040516104709190614aa4565b60405180910390f35b610493600480360381019061048e9190614aeb565b611e74565b005b6104af60048036038101906104aa9190614332565b612090565b6040516104bc919061442f565b60405180910390f35b6104df60048036038101906104da9190614606565b6120a8565b6040516104f0959493929190614a2d565b60405180910390f35b610513600480360381019061050e9190614ba6565b612293565b005b61051d6127e6565b60405161052a919061442f565b60405180910390f35b61053b6127ec565b6040516105489190614a0b565b60405180910390f35b61056b60048036038101906105669190614ba6565b612a2b565b005b61058760048036038101906105829190614be6565b612e70565b005b6105a3600480360381019061059e9190614332565b612f4b565b6040516105b0919061437a565b60405180910390f35b6105d360048036038101906105ce9190614332565b612f6b565b6040516105e0919061437a565b60405180910390f35b61060360048036038101906105fe9190614332565b612f95565b005b61060d613067565b60405161061a9190614a0b565b60405180910390f35b61063d60048036038101906106389190614332565b6132e3565b60405161064a9190614ce2565b60405180910390f35b61066d60048036038101906106689190614d04565b61357a565b60405161067c93929190614690565b60405180910390f35b61069f600480360381019061069a9190614d04565b613649565b6040516106b0959493929190614d53565b60405180910390f35b6106d360048036038101906106ce9190614dbb565b613842565b005b6106ef60048036038101906106ea9190614332565b613a96565b604051610700959493929190614d53565b60405180910390f35b610711613c82565b60405161071e919061442f565b60405180910390f35b61072f613c88565b60405161073c919061442f565b60405180910390f35b61075f600480360381019061075a9190614332565b613c8e565b005b61077b60048036038101906107769190614332565b613ccf565b60405161078a93929190614e76565b60405180910390f35b60606006805480602002602001604051908101604052809291908181526020016000905b828210156109b357838290600052602060002090600502016040518060a001604052908160008201548152602001600182015481526020016002820180546107fe90614eea565b80601f016020809104026020016040519081016040528092919081815260200182805461082a90614eea565b80156108775780601f1061084c57610100808354040283529160200191610877565b820191906000526020600020905b81548152906001019060200180831161085a57829003601f168201915b5050505050815260200160038201805461089090614eea565b80601f01602080910402602001604051908101604052809291908181526020018280546108bc90614eea565b80156109095780601f106108de57610100808354040283529160200191610909565b820191906000526020600020905b8154815290600101906020018083116108ec57829003601f168201915b5050505050815260200160048201805461092290614eea565b80601f016020809104026020016040519081016040528092919081815260200182805461094e90614eea565b801561099b5780601f106109705761010080835404028352916020019161099b565b820191906000526020600020905b81548152906001019060200180831161097e57829003601f168201915b505050505081525050815260200190600101906107b7565b50505050905090565b813373ffffffffffffffffffffffffffffffffffffffff166007600083815260200190815260200160002060009054906101000a900473ffffffffffffffffffffffffffffffffffffffff1673ffffffffffffffffffffffffffffffffffffffff1614610a5e576040517f08c379a0000000000000000000000000000000000000000000000000000000008152600401610a5590614f8d565b60405180910390fd5b6000604051806060016040528060015481526020018581526020018481525090506000600e6000600154815260200190815260200160002060006101000a81548160ff021916908315150217905550600581908060018154018082558091505060019003906000526020600020906003020160009091909190915060008201518160000155602082015181600101556040820151816002019081610b029190615159565b50505060016000815480929190610b189061525a565b9190505550600b600085815260200190815260200160002081908060018154018082558091505060019003906000526020600020906003020160009091909190915060008201518160000155602082015181600101556040820151816002019081610b839190615159565b50505083600860008360000151815260200190815260200160002081905550600960003373ffffffffffffffffffffffffffffffffffffffff1673ffffffffffffffffffffffffffffffffffffffff1681526020019081526020016000206000815480929190610bf29061525a565b9190505550600d60003373ffffffffffffffffffffffffffffffffffffffff1673ffffffffffffffffffffffffffffffffffffffff16815260200190815260200160002081908060018154018082558091505060019003906000526020600020906003020160009091909190915060008201518160000155602082015181600101556040820151816002019081610c899190615159565b50505050505050565b600e6020528060005260406000206000915054906101000a900460ff1681565b60096020528060005260406000206000915090505481565b606060006001600380549050610ce091906152a2565b67ffffffffffffffff811115610cf957610cf86141ab565b5b604051908082528060200260200182016040528015610d3257816020015b610d1f613e39565b815260200190600190039081610d175790505b5090506000805b600380549050811015610fa5573373ffffffffffffffffffffffffffffffffffffffff1660038281548110610d7157610d706152d6565b5b906000526020600020906003020160000160009054906101000a900473ffffffffffffffffffffffffffffffffffffffff1673ffffffffffffffffffffffffffffffffffffffff1614610f925760038181548110610dd257610dd16152d6565b5b90600052602060002090600302016040518060600160405290816000820160009054906101000a900473ffffffffffffffffffffffffffffffffffffffff1673ffffffffffffffffffffffffffffffffffffffff1673ffffffffffffffffffffffffffffffffffffffff168152602001600182018054610e5190614eea565b80601f0160208091040260200160405190810160405280929190818152602001828054610e7d90614eea565b8015610eca5780601f10610e9f57610100808354040283529160200191610eca565b820191906000526020600020905b815481529060010190602001808311610ead57829003601f168201915b50505050508152602001600282018054610ee390614eea565b80601f0160208091040260200160405190810160405280929190818152602001828054610f0f90614eea565b8015610f5c5780601f10610f3157610100808354040283529160200191610f5c565b820191906000526020600020905b815481529060010190602001808311610f3f57829003601f168201915b505050505081525050838381518110610f7857610f776152d6565b5b60200260200101819052508180610f8e9061525a565b9250505b8080610f9d9061525a565b915050610d39565b50819250505090565b610fb6613e70565b60005b6005805490508110156110e0578260058281548110610fdb57610fda6152d6565b5b906000526020600020906003020160000154036110cd5760058181548110611006576110056152d6565b5b9060005260206000209060030201604051806060016040529081600082015481526020016001820154815260200160028201805461104390614eea565b80601f016020809104026020016040519081016040528092919081815260200182805461106f90614eea565b80156110bc5780601f10611091576101008083540402835291602001916110bc565b820191906000526020600020905b81548152906001019060200180831161109f57829003601f168201915b50505050508152505091505061111c565b80806110d89061525a565b915050610fb9565b506040517f08c379a000000000000000000000000000000000000000000000000000000000815260040161111390615351565b60405180910390fd5b919050565b600b602052816000526040600020818154811061113d57600080fd5b90600052602060002090600302016000915091505080600001549080600101549080600201805461116d90614eea565b80601f016020809104026020016040519081016040528092919081815260200182805461119990614eea565b80156111e65780601f106111bb576101008083540402835291602001916111e6565b820191906000526020600020905b8154815290600101906020018083116111c957829003601f168201915b5050505050905083565b6005818154811061120057600080fd5b906000526020600020906003020160009150905080600001549080600101549080600201805461122f90614eea565b80601f016020809104026020016040519081016040528092919081815260200182805461125b90614eea565b80156112a85780601f1061127d576101008083540402835291602001916112a8565b820191906000526020600020905b81548152906001019060200180831161128b57829003601f168201915b5050505050905083565b60606005805480602002602001604051908101604052809291908181526020016000905b828210156113ae5783829060005260206000209060030201604051806060016040529081600082015481526020016001820154815260200160028201805461131d90614eea565b80601f016020809104026020016040519081016040528092919081815260200182805461134990614eea565b80156113965780601f1061136b57610100808354040283529160200191611396565b820191906000526020600020905b81548152906001019060200180831161137957829003601f168201915b505050505081525050815260200190600101906112d6565b50505050905090565b6113bf613e91565b60005b6004805490508110156116235782600482815481106113e4576113e36152d6565b5b90600052602060002090600502016000015403611610576004818154811061140f5761140e6152d6565b5b90600052602060002090600502016040518060a0016040529081600082015481526020016001820160009054906101000a900461ffff1661ffff1661ffff16815260200160028201805461146290614eea565b80601f016020809104026020016040519081016040528092919081815260200182805461148e90614eea565b80156114db5780601f106114b0576101008083540402835291602001916114db565b820191906000526020600020905b8154815290600101906020018083116114be57829003601f168201915b505050505081526020016003820180546114f490614eea565b80601f016020809104026020016040519081016040528092919081815260200182805461152090614eea565b801561156d5780601f106115425761010080835404028352916020019161156d565b820191906000526020600020905b81548152906001019060200180831161155057829003601f168201915b5050505050815260200160048201805461158690614eea565b80601f01602080910402602001604051908101604052809291908181526020018280546115b290614eea565b80156115ff5780601f106115d4576101008083540402835291602001916115ff565b820191906000526020600020905b8154815290600101906020018083116115e257829003601f168201915b50505050508152505091505061165f565b808061161b9061525a565b9150506113c2565b506040517f08c379a0000000000000000000000000000000000000000000000000000000008152600401611656906153bd565b60405180910390fd5b919050565b60606000600a60003373ffffffffffffffffffffffffffffffffffffffff1673ffffffffffffffffffffffffffffffffffffffff168152602001908152602001600020805480602002602001604051908101604052809291908181526020016000905b828210156118d957838290600052602060002090600502016040518060a0016040529081600082015481526020016001820160009054906101000a900461ffff1661ffff1661ffff16815260200160028201805461172490614eea565b80601f016020809104026020016040519081016040528092919081815260200182805461175090614eea565b801561179d5780601f106117725761010080835404028352916020019161179d565b820191906000526020600020905b81548152906001019060200180831161178057829003601f168201915b505050505081526020016003820180546117b690614eea565b80601f01602080910402602001604051908101604052809291908181526020018280546117e290614eea565b801561182f5780601f106118045761010080835404028352916020019161182f565b820191906000526020600020905b81548152906001019060200180831161181257829003601f168201915b5050505050815260200160048201805461184890614eea565b80601f016020809104026020016040519081016040528092919081815260200182805461187490614eea565b80156118c15780601f10611896576101008083540402835291602001916118c1565b820191906000526020600020905b8154815290600101906020018083116118a457829003601f168201915b505050505081525050815260200190600101906116c7565b5050505090506000805b82518110156119585760001515600f6000858481518110611907576119066152d6565b5b602002602001015160000151815260200190815260200160002060009054906101000a900460ff161515036119455781806119419061525a565b9250505b80806119509061525a565b9150506118e3565b5060008167ffffffffffffffff811115611975576119746141ab565b5b6040519080825280602002602001820160405280156119ae57816020015b61199b613e91565b8152602001906001900390816119935790505b5090506000805b8451811015611a635760001515600f60008784815181106119d9576119d86152d6565b5b602002602001015160000151815260200190815260200160002060009054906101000a900460ff16151503611a5057848181518110611a1b57611a1a6152d6565b5b6020026020010151838381518110611a3657611a356152d6565b5b60200260200101819052508180611a4c9061525a565b9250505b8080611a5b9061525a565b9150506119b5565b508194505050505090565b6060600d60003373ffffffffffffffffffffffffffffffffffffffff1673ffffffffffffffffffffffffffffffffffffffff168152602001908152602001600020805480602002602001604051908101604052809291908181526020016000905b82821015611ba757838290600052602060002090600302016040518060600160405290816000820154815260200160018201548152602001600282018054611b1690614eea565b80601f0160208091040260200160405190810160405280929190818152602001828054611b4290614eea565b8015611b8f5780601f10611b6457610100808354040283529160200191611b8f565b820191906000526020600020905b815481529060010190602001808311611b7257829003601f168201915b50505050508152505081526020019060010190611acf565b50505050905090565b600080600090505b600380549050811015611c5a573373ffffffffffffffffffffffffffffffffffffffff1660038281548110611bf057611bef6152d6565b5b906000526020600020906003020160000160009054906101000a900473ffffffffffffffffffffffffffffffffffffffff1673ffffffffffffffffffffffffffffffffffffffff1603611c47576001915050611c60565b8080611c529061525a565b915050611bb8565b50600090505b90565b60068181548110611c7357600080fd5b9060005260206000209060050201600091509050806000015490806001015490806002018054611ca290614eea565b80601f0160208091040260200160405190810160405280929190818152602001828054611cce90614eea565b8015611d1b5780601f10611cf057610100808354040283529160200191611d1b565b820191906000526020600020905b815481529060010190602001808311611cfe57829003601f168201915b505050505090806003018054611d3090614eea565b80601f0160208091040260200160405190810160405280929190818152602001828054611d5c90614eea565b8015611da95780601f10611d7e57610100808354040283529160200191611da9565b820191906000526020600020905b815481529060010190602001808311611d8c57829003601f168201915b505050505090806004018054611dbe90614eea565b80601f0160208091040260200160405190810160405280929190818152602001828054611dea90614eea565b8015611e375780601f10611e0c57610100808354040283529160200191611e37565b820191906000526020600020905b815481529060010190602001808311611e1a57829003601f168201915b5050505050905085565b60076020528060005260406000206000915054906101000a900473ffffffffffffffffffffffffffffffffffffffff1681565b60006040518060a0016040528060005481526020018661ffff16815260200185815260200184815260200183815250905060048190806001815401808255809150506001900390600052602060002090600502016000909190919091506000820151816000015560208201518160010160006101000a81548161ffff021916908361ffff1602179055506040820151816002019081611f139190615159565b506060820151816003019081611f299190615159565b506080820151816004019081611f3f9190615159565b505050600080815480929190611f549061525a565b919050555033600760008360000151815260200190815260200160002060006101000a81548173ffffffffffffffffffffffffffffffffffffffff021916908373ffffffffffffffffffffffffffffffffffffffff160217905550600a60003373ffffffffffffffffffffffffffffffffffffffff1673ffffffffffffffffffffffffffffffffffffffff1681526020019081526020016000208190806001815401808255809150506001900390600052602060002090600502016000909190919091506000820151816000015560208201518160010160006101000a81548161ffff021916908361ffff160217905550604082015181600201908161205a9190615159565b5060608201518160030190816120709190615159565b5060808201518160040190816120869190615159565b5050505050505050565b60086020528060005260406000206000915090505481565b600c60205281600052604060002081815481106120c457600080fd5b9060005260206000209060050201600091509150508060000154908060010154908060020180546120f490614eea565b80601f016020809104026020016040519081016040528092919081815260200182805461212090614eea565b801561216d5780601f106121425761010080835404028352916020019161216d565b820191906000526020600020905b81548152906001019060200180831161215057829003601f168201915b50505050509080600301805461218290614eea565b80601f01602080910402602001604051908101604052809291908181526020018280546121ae90614eea565b80156121fb5780601f106121d0576101008083540402835291602001916121fb565b820191906000526020600020905b8154815290600101906020018083116121de57829003601f168201915b50505050509080600401805461221090614eea565b80601f016020809104026020016040519081016040528092919081815260200182805461223c90614eea565b80156122895780601f1061225e57610100808354040283529160200191612289565b820191906000526020600020905b81548152906001019060200180831161226c57829003601f168201915b5050505050905085565b813373ffffffffffffffffffffffffffffffffffffffff166007600083815260200190815260200160002060009054906101000a900473ffffffffffffffffffffffffffffffffffffffff1673ffffffffffffffffffffffffffffffffffffffff1614612335576040517f08c379a000000000000000000000000000000000000000000000000000000000815260040161232c90614f8d565b60405180910390fd5b600073ffffffffffffffffffffffffffffffffffffffff168273ffffffffffffffffffffffffffffffffffffffff16036123a4576040517f08c379a000000000000000000000000000000000000000000000000000000000815260040161239b90615429565b60405180910390fd5b60005b600a60003373ffffffffffffffffffffffffffffffffffffffff1673ffffffffffffffffffffffffffffffffffffffff168152602001908152602001600020805490508110156125f75783600a60003373ffffffffffffffffffffffffffffffffffffffff1673ffffffffffffffffffffffffffffffffffffffff1681526020019081526020016000208281548110612443576124426152d6565b5b906000526020600020906005020160000154036125e457600a60003373ffffffffffffffffffffffffffffffffffffffff1673ffffffffffffffffffffffffffffffffffffffff1681526020019081526020016000206001600a60003373ffffffffffffffffffffffffffffffffffffffff1673ffffffffffffffffffffffffffffffffffffffff168152602001908152602001600020805490506124e891906152a2565b815481106124f9576124f86152d6565b5b9060005260206000209060050201600a60003373ffffffffffffffffffffffffffffffffffffffff1673ffffffffffffffffffffffffffffffffffffffff1681526020019081526020016000208281548110612558576125576152d6565b5b9060005260206000209060050201600082015481600001556001820160009054906101000a900461ffff168160010160006101000a81548161ffff021916908361ffff160217905550600282018160020190816125b5919061545f565b50600382018160030190816125ca919061545f565b50600482018160040190816125df919061545f565b509050505b80806125ef9061525a565b9150506123a7565b50600a60003373ffffffffffffffffffffffffffffffffffffffff1673ffffffffffffffffffffffffffffffffffffffff16815260200190815260200160002080548061264757612646615547565b5b60019003818190600052602060002090600502016000808201600090556001820160006101000a81549061ffff02191690556002820160006126899190613ec4565b6003820160006126999190613ec4565b6004820160006126a99190613ec4565b50509055600a60008373ffffffffffffffffffffffffffffffffffffffff1673ffffffffffffffffffffffffffffffffffffffff1681526020019081526020016000206126f5846113b7565b90806001815401808255809150506001900390600052602060002090600502016000909190919091506000820151816000015560208201518160010160006101000a81548161ffff021916908361ffff16021790555060408201518160020190816127609190615159565b5060608201518160030190816127769190615159565b50608082015181600401908161278c9190615159565b505050816007600085815260200190815260200160002060006101000a81548173ffffffffffffffffffffffffffffffffffffffff021916908373ffffffffffffffffffffffffffffffffffffffff160217905550505050565b60015481565b60606004805480602002602001604051908101604052809291908181526020016000905b82821015612a2257838290600052602060002090600502016040518060a0016040529081600082015481526020016001820160009054906101000a900461ffff1661ffff1661ffff16815260200160028201805461286d90614eea565b80601f016020809104026020016040519081016040528092919081815260200182805461289990614eea565b80156128e65780601f106128bb576101008083540402835291602001916128e6565b820191906000526020600020905b8154815290600101906020018083116128c957829003601f168201915b505050505081526020016003820180546128ff90614eea565b80601f016020809104026020016040519081016040528092919081815260200182805461292b90614eea565b80156129785780601f1061294d57610100808354040283529160200191612978565b820191906000526020600020905b81548152906001019060200180831161295b57829003601f168201915b5050505050815260200160048201805461299190614eea565b80601f01602080910402602001604051908101604052809291908181526020018280546129bd90614eea565b8015612a0a5780601f106129df57610100808354040283529160200191612a0a565b820191906000526020600020905b8154815290600101906020018083116129ed57829003601f168201915b50505050508152505081526020019060010190612810565b50505050905090565b600073ffffffffffffffffffffffffffffffffffffffff168173ffffffffffffffffffffffffffffffffffffffff1603612a9a576040517f08c379a0000000000000000000000000000000000000000000000000000000008152600401612a9190615429565b60405180910390fd5b60005b600d60003373ffffffffffffffffffffffffffffffffffffffff1673ffffffffffffffffffffffffffffffffffffffff16815260200190815260200160002080549050811015612c9c5782600d60003373ffffffffffffffffffffffffffffffffffffffff1673ffffffffffffffffffffffffffffffffffffffff1681526020019081526020016000208281548110612b3957612b386152d6565b5b90600052602060002090600302016000015403612c8957600d60003373ffffffffffffffffffffffffffffffffffffffff1673ffffffffffffffffffffffffffffffffffffffff1681526020019081526020016000206001600d60003373ffffffffffffffffffffffffffffffffffffffff1673ffffffffffffffffffffffffffffffffffffffff16815260200190815260200160002080549050612bde91906152a2565b81548110612bef57612bee6152d6565b5b9060005260206000209060030201600d60003373ffffffffffffffffffffffffffffffffffffffff1673ffffffffffffffffffffffffffffffffffffffff1681526020019081526020016000208281548110612c4e57612c4d6152d6565b5b9060005260206000209060030201600082015481600001556001820154816001015560028201816002019081612c84919061545f565b509050505b8080612c949061525a565b915050612a9d565b50600960003373ffffffffffffffffffffffffffffffffffffffff1673ffffffffffffffffffffffffffffffffffffffff1681526020019081526020016000206000815480929190612ced90615576565b9190505550600d60003373ffffffffffffffffffffffffffffffffffffffff1673ffffffffffffffffffffffffffffffffffffffff168152602001908152602001600020805480612d4157612d40615547565b5b60019003818190600052602060002090600302016000808201600090556001820160009055600282016000612d769190613ec4565b50509055600d60008273ffffffffffffffffffffffffffffffffffffffff1673ffffffffffffffffffffffffffffffffffffffff168152602001908152602001600020612dc283610fae565b908060018154018082558091505060019003906000526020600020906003020160009091909190915060008201518160000155602082015181600101556040820151816002019081612e149190615159565b505050600960008273ffffffffffffffffffffffffffffffffffffffff1673ffffffffffffffffffffffffffffffffffffffff1681526020019081526020016000206000815480929190612e679061525a565b91905055505050565b600060405180606001604052803373ffffffffffffffffffffffffffffffffffffffff168152602001848152602001838152509050600381908060018154018082558091505060019003906000526020600020906003020160009091909190915060008201518160000160006101000a81548173ffffffffffffffffffffffffffffffffffffffff021916908373ffffffffffffffffffffffffffffffffffffffff1602179055506020820151816001019081612f2d9190615159565b506040820151816002019081612f439190615159565b505050505050565b600f6020528060005260406000206000915054906101000a900460ff1681565b6000600e600083815260200190815260200160002060009054906101000a900460ff169050919050565b803373ffffffffffffffffffffffffffffffffffffffff166007600083815260200190815260200160002060009054906101000a900473ffffffffffffffffffffffffffffffffffffffff1673ffffffffffffffffffffffffffffffffffffffff1614613037576040517f08c379a000000000000000000000000000000000000000000000000000000000815260040161302e90614f8d565b60405180910390fd5b6001600f600084815260200190815260200160002060006101000a81548160ff0219169083151502179055505050565b6060600a60003373ffffffffffffffffffffffffffffffffffffffff1673ffffffffffffffffffffffffffffffffffffffff168152602001908152602001600020805480602002602001604051908101604052809291908181526020016000905b828210156132da57838290600052602060002090600502016040518060a0016040529081600082015481526020016001820160009054906101000a900461ffff1661ffff1661ffff16815260200160028201805461312590614eea565b80601f016020809104026020016040519081016040528092919081815260200182805461315190614eea565b801561319e5780601f106131735761010080835404028352916020019161319e565b820191906000526020600020905b81548152906001019060200180831161318157829003601f168201915b505050505081526020016003820180546131b790614eea565b80601f01602080910402602001604051908101604052809291908181526020018280546131e390614eea565b80156132305780601f1061320557610100808354040283529160200191613230565b820191906000526020600020905b81548152906001019060200180831161321357829003601f168201915b5050505050815260200160048201805461324990614eea565b80601f016020809104026020016040519081016040528092919081815260200182805461327590614eea565b80156132c25780601f10613297576101008083540402835291602001916132c2565b820191906000526020600020905b8154815290600101906020018083116132a557829003601f168201915b505050505081525050815260200190600101906130c8565b50505050905090565b6132eb613f04565b60005b6006805490508110156135395782600682815481106133105761330f6152d6565b5b90600052602060002090600502016000015403613526576006818154811061333b5761333a6152d6565b5b90600052602060002090600502016040518060a0016040529081600082015481526020016001820154815260200160028201805461337890614eea565b80601f01602080910402602001604051908101604052809291908181526020018280546133a490614eea565b80156133f15780601f106133c6576101008083540402835291602001916133f1565b820191906000526020600020905b8154815290600101906020018083116133d457829003601f168201915b5050505050815260200160038201805461340a90614eea565b80601f016020809104026020016040519081016040528092919081815260200182805461343690614eea565b80156134835780601f1061345857610100808354040283529160200191613483565b820191906000526020600020905b81548152906001019060200180831161346657829003601f168201915b5050505050815260200160048201805461349c90614eea565b80601f01602080910402602001604051908101604052809291908181526020018280546134c890614eea565b80156135155780601f106134ea57610100808354040283529160200191613515565b820191906000526020600020905b8154815290600101906020018083116134f857829003601f168201915b505050505081525050915050613575565b80806135319061525a565b9150506132ee565b506040517f08c379a000000000000000000000000000000000000000000000000000000000815260040161356c906155eb565b60405180910390fd5b919050565b600d602052816000526040600020818154811061359657600080fd5b9060005260206000209060030201600091509150508060000154908060010154908060020180546135c690614eea565b80601f01602080910402602001604051908101604052809291908181526020018280546135f290614eea565b801561363f5780601f106136145761010080835404028352916020019161363f565b820191906000526020600020905b81548152906001019060200180831161362257829003601f168201915b5050505050905083565b600a602052816000526040600020818154811061366557600080fd5b9060005260206000209060050201600091509150508060000154908060010160009054906101000a900461ffff16908060020180546136a390614eea565b80601f01602080910402602001604051908101604052809291908181526020018280546136cf90614eea565b801561371c5780601f106136f15761010080835404028352916020019161371c565b820191906000526020600020905b8154815290600101906020018083116136ff57829003601f168201915b50505050509080600301805461373190614eea565b80601f016020809104026020016040519081016040528092919081815260200182805461375d90614eea565b80156137aa5780601f1061377f576101008083540402835291602001916137aa565b820191906000526020600020905b81548152906001019060200180831161378d57829003601f168201915b5050505050908060040180546137bf90614eea565b80601f01602080910402602001604051908101604052809291908181526020018280546137eb90614eea565b80156138385780601f1061380d57610100808354040283529160200191613838565b820191906000526020600020905b81548152906001019060200180831161381b57829003601f168201915b5050505050905085565b60086000858152602001908152602001600020543373ffffffffffffffffffffffffffffffffffffffff166007600083815260200190815260200160002060009054906101000a900473ffffffffffffffffffffffffffffffffffffffff1673ffffffffffffffffffffffffffffffffffffffff16146138f7576040517f08c379a00000000000000000000000000000000000000000000000000000000081526004016138ee90614f8d565b60405180910390fd5b60006040518060a0016040528060025481526020018781526020018681526020018581526020018481525090506006819080600181540180825580915050600190039060005260206000209060050201600090919091909150600082015181600001556020820151816001015560408201518160020190816139799190615159565b50606082015181600301908161398f9190615159565b5060808201518160040190816139a59190615159565b505050600c600087815260200190815260200160002081908060018154018082558091505060019003906000526020600020906005020160009091909190915060008201518160000155602082015181600101556040820151816002019081613a0e9190615159565b506060820151816003019081613a249190615159565b506080820151816004019081613a3a9190615159565b5050507f4fc9d5acc453e78e01b205af5788a1c62f195c4b5cdc8eb8f1c670863b7e736a600254604051613a6e919061442f565b60405180910390a160026000815480929190613a899061525a565b9190505550505050505050565b60048181548110613aa657600080fd5b90600052602060002090600502016000915090508060000154908060010160009054906101000a900461ffff1690806002018054613ae390614eea565b80601f0160208091040260200160405190810160405280929190818152602001828054613b0f90614eea565b8015613b5c5780601f10613b3157610100808354040283529160200191613b5c565b820191906000526020600020905b815481529060010190602001808311613b3f57829003601f168201915b505050505090806003018054613b7190614eea565b80601f0160208091040260200160405190810160405280929190818152602001828054613b9d90614eea565b8015613bea5780601f10613bbf57610100808354040283529160200191613bea565b820191906000526020600020905b815481529060010190602001808311613bcd57829003601f168201915b505050505090806004018054613bff90614eea565b80601f0160208091040260200160405190810160405280929190818152602001828054613c2b90614eea565b8015613c785780601f10613c4d57610100808354040283529160200191613c78565b820191906000526020600020905b815481529060010190602001808311613c5b57829003601f168201915b5050505050905085565b60025481565b60005481565b6000613c99826132e3565b6020015190506001600e600083815260200190815260200160002060006101000a81548160ff0219169083151502179055505050565b60038181548110613cdf57600080fd5b90600052602060002090600302016000915090508060000160009054906101000a900473ffffffffffffffffffffffffffffffffffffffff1690806001018054613d2890614eea565b80601f0160208091040260200160405190810160405280929190818152602001828054613d5490614eea565b8015613da15780601f10613d7657610100808354040283529160200191613da1565b820191906000526020600020905b815481529060010190602001808311613d8457829003601f168201915b505050505090806002018054613db690614eea565b80601f0160208091040260200160405190810160405280929190818152602001828054613de290614eea565b8015613e2f5780601f10613e0457610100808354040283529160200191613e2f565b820191906000526020600020905b815481529060010190602001808311613e1257829003601f168201915b5050505050905083565b6040518060600160405280600073ffffffffffffffffffffffffffffffffffffffff16815260200160608152602001606081525090565b60405180606001604052806000815260200160008152602001606081525090565b6040518060a0016040528060008152602001600061ffff1681526020016060815260200160608152602001606081525090565b508054613ed090614eea565b6000825580601f10613ee25750613f01565b601f016020900490600052602060002090810190613f009190613f33565b5b50565b6040518060a0016040528060008152602001600081526020016060815260200160608152602001606081525090565b5b80821115613f4c576000816000905550600101613f34565b5090565b600081519050919050565b600082825260208201905092915050565b6000819050602082019050919050565b6000819050919050565b613f8f81613f7c565b82525050565b600081519050919050565b600082825260208201905092915050565b60005b83811015613fcf578082015181840152602081019050613fb4565b60008484015250505050565b6000601f19601f8301169050919050565b6000613ff782613f95565b6140018185613fa0565b9350614011818560208601613fb1565b61401a81613fdb565b840191505092915050565b600060a08301600083015161403d6000860182613f86565b5060208301516140506020860182613f86565b50604083015184820360408601526140688282613fec565b915050606083015184820360608601526140828282613fec565b9150506080830151848203608086015261409c8282613fec565b9150508091505092915050565b60006140b58383614025565b905092915050565b6000602082019050919050565b60006140d582613f50565b6140df8185613f5b565b9350836020820285016140f185613f6c565b8060005b8581101561412d578484038952815161410e85826140a9565b9450614119836140bd565b925060208a019950506001810190506140f5565b50829750879550505050505092915050565b6000602082019050818103600083015261415981846140ca565b905092915050565b6000604051905090565b600080fd5b600080fd5b61417e81613f7c565b811461418957600080fd5b50565b60008135905061419b81614175565b92915050565b600080fd5b600080fd5b7f4e487b7100000000000000000000000000000000000000000000000000000000600052604160045260246000fd5b6141e382613fdb565b810181811067ffffffffffffffff82111715614202576142016141ab565b5b80604052505050565b6000614215614161565b905061422182826141da565b919050565b600067ffffffffffffffff821115614241576142406141ab565b5b61424a82613fdb565b9050602081019050919050565b82818337600083830152505050565b600061427961427484614226565b61420b565b905082815260208101848484011115614295576142946141a6565b5b6142a0848285614257565b509392505050565b600082601f8301126142bd576142bc6141a1565b5b81356142cd848260208601614266565b91505092915050565b600080604083850312156142ed576142ec61416b565b5b60006142fb8582860161418c565b925050602083013567ffffffffffffffff81111561431c5761431b614170565b5b614328858286016142a8565b9150509250929050565b6000602082840312156143485761434761416b565b5b60006143568482850161418c565b91505092915050565b60008115159050919050565b6143748161435f565b82525050565b600060208201905061438f600083018461436b565b92915050565b600073ffffffffffffffffffffffffffffffffffffffff82169050919050565b60006143c082614395565b9050919050565b6143d0816143b5565b81146143db57600080fd5b50565b6000813590506143ed816143c7565b92915050565b6000602082840312156144095761440861416b565b5b6000614417848285016143de565b91505092915050565b61442981613f7c565b82525050565b60006020820190506144446000830184614420565b92915050565b600081519050919050565b600082825260208201905092915050565b6000819050602082019050919050565b61447f816143b5565b82525050565b600060608301600083015161449d6000860182614476565b50602083015184820360208601526144b58282613fec565b915050604083015184820360408601526144cf8282613fec565b9150508091505092915050565b60006144e88383614485565b905092915050565b6000602082019050919050565b60006145088261444a565b6145128185614455565b93508360208202850161452485614466565b8060005b85811015614560578484038952815161454185826144dc565b945061454c836144f0565b925060208a01995050600181019050614528565b50829750879550505050505092915050565b6000602082019050818103600083015261458c81846144fd565b905092915050565b60006060830160008301516145ac6000860182613f86565b5060208301516145bf6020860182613f86565b50604083015184820360408601526145d78282613fec565b9150508091505092915050565b600060208201905081810360008301526145fe8184614594565b905092915050565b6000806040838503121561461d5761461c61416b565b5b600061462b8582860161418c565b925050602061463c8582860161418c565b9150509250929050565b600082825260208201905092915050565b600061466282613f95565b61466c8185614646565b935061467c818560208601613fb1565b61468581613fdb565b840191505092915050565b60006060820190506146a56000830186614420565b6146b26020830185614420565b81810360408301526146c48184614657565b9050949350505050565b600081519050919050565b600082825260208201905092915050565b6000819050602082019050919050565b60006060830160008301516147126000860182613f86565b5060208301516147256020860182613f86565b506040830151848203604086015261473d8282613fec565b9150508091505092915050565b600061475683836146fa565b905092915050565b6000602082019050919050565b6000614776826146ce565b61478081856146d9565b935083602082028501614792856146ea565b8060005b858110156147ce57848403895281516147af858261474a565b94506147ba8361475e565b925060208a01995050600181019050614796565b50829750879550505050505092915050565b600060208201905081810360008301526147fa818461476b565b905092915050565b600061ffff82169050919050565b61481981614802565b82525050565b600060a0830160008301516148376000860182613f86565b50602083015161484a6020860182614810565b50604083015184820360408601526148628282613fec565b9150506060830151848203606086015261487c8282613fec565b915050608083015184820360808601526148968282613fec565b9150508091505092915050565b600060208201905081810360008301526148bd818461481f565b905092915050565b600081519050919050565b600082825260208201905092915050565b6000819050602082019050919050565b600060a0830160008301516149096000860182613f86565b50602083015161491c6020860182614810565b50604083015184820360408601526149348282613fec565b9150506060830151848203606086015261494e8282613fec565b915050608083015184820360808601526149688282613fec565b9150508091505092915050565b600061498183836148f1565b905092915050565b6000602082019050919050565b60006149a1826148c5565b6149ab81856148d0565b9350836020820285016149bd856148e1565b8060005b858110156149f957848403895281516149da8582614975565b94506149e583614989565b925060208a019950506001810190506149c1565b50829750879550505050505092915050565b60006020820190508181036000830152614a258184614996565b905092915050565b600060a082019050614a426000830188614420565b614a4f6020830187614420565b8181036040830152614a618186614657565b90508181036060830152614a758185614657565b90508181036080830152614a898184614657565b90509695505050505050565b614a9e816143b5565b82525050565b6000602082019050614ab96000830184614a95565b92915050565b614ac881614802565b8114614ad357600080fd5b50565b600081359050614ae581614abf565b92915050565b60008060008060808587031215614b0557614b0461416b565b5b6000614b1387828801614ad6565b945050602085013567ffffffffffffffff811115614b3457614b33614170565b5b614b40878288016142a8565b935050604085013567ffffffffffffffff811115614b6157614b60614170565b5b614b6d878288016142a8565b925050606085013567ffffffffffffffff811115614b8e57614b8d614170565b5b614b9a878288016142a8565b91505092959194509250565b60008060408385031215614bbd57614bbc61416b565b5b6000614bcb8582860161418c565b9250506020614bdc858286016143de565b9150509250929050565b60008060408385031215614bfd57614bfc61416b565b5b600083013567ffffffffffffffff811115614c1b57614c1a614170565b5b614c27858286016142a8565b925050602083013567ffffffffffffffff811115614c4857614c47614170565b5b614c54858286016142a8565b9150509250929050565b600060a083016000830151614c766000860182613f86565b506020830151614c896020860182613f86565b5060408301518482036040860152614ca18282613fec565b91505060608301518482036060860152614cbb8282613fec565b91505060808301518482036080860152614cd58282613fec565b9150508091505092915050565b60006020820190508181036000830152614cfc8184614c5e565b905092915050565b60008060408385031215614d1b57614d1a61416b565b5b6000614d29858286016143de565b9250506020614d3a8582860161418c565b9150509250929050565b614d4d81614802565b82525050565b600060a082019050614d686000830188614420565b614d756020830187614d44565b8181036040830152614d878186614657565b90508181036060830152614d9b8185614657565b90508181036080830152614daf8184614657565b90509695505050505050565b60008060008060808587031215614dd557614dd461416b565b5b6000614de38782880161418c565b945050602085013567ffffffffffffffff811115614e0457614e03614170565b5b614e10878288016142a8565b935050604085013567ffffffffffffffff811115614e3157614e30614170565b5b614e3d878288016142a8565b925050606085013567ffffffffffffffff811115614e5e57614e5d614170565b5b614e6a878288016142a8565b91505092959194509250565b6000606082019050614e8b6000830186614a95565b8181036020830152614e9d8185614657565b90508181036040830152614eb18184614657565b9050949350505050565b7f4e487b7100000000000000000000000000000000000000000000000000000000600052602260045260246000fd5b60006002820490506001821680614f0257607f821691505b602082108103614f1557614f14614ebb565b5b50919050565b7f596f7520617265206e6f7420746865206f776e6572206f66207468697320636f60008201527f7700000000000000000000000000000000000000000000000000000000000000602082015250565b6000614f77602183614646565b9150614f8282614f1b565b604082019050919050565b60006020820190508181036000830152614fa681614f6a565b9050919050565b60008190508160005260206000209050919050565b60006020601f8301049050919050565b600082821b905092915050565b60006008830261500f7fffffffffffffffffffffffffffffffffffffffffffffffffffffffffffffffff82614fd2565b6150198683614fd2565b95508019841693508086168417925050509392505050565b6000819050919050565b600061505661505161504c84613f7c565b615031565b613f7c565b9050919050565b6000819050919050565b6150708361503b565b61508461507c8261505d565b848454614fdf565b825550505050565b600090565b61509961508c565b6150a4818484615067565b505050565b5b818110156150c8576150bd600082615091565b6001810190506150aa565b5050565b601f82111561510d576150de81614fad565b6150e784614fc2565b810160208510156150f6578190505b61510a61510285614fc2565b8301826150a9565b50505b505050565b600082821c905092915050565b600061513060001984600802615112565b1980831691505092915050565b6000615149838361511f565b9150826002028217905092915050565b61516282613f95565b67ffffffffffffffff81111561517b5761517a6141ab565b5b6151858254614eea565b6151908282856150cc565b600060209050601f8311600181146151c357600084156151b1578287015190505b6151bb858261513d565b865550615223565b601f1984166151d186614fad565b60005b828110156151f9578489015182556001820191506020850194506020810190506151d4565b868310156152165784890151615212601f89168261511f565b8355505b6001600288020188555050505b505050505050565b7f4e487b7100000000000000000000000000000000000000000000000000000000600052601160045260246000fd5b600061526582613f7c565b91507fffffffffffffffffffffffffffffffffffffffffffffffffffffffffffffffff82036152975761529661522b565b5b600182019050919050565b60006152ad82613f7c565b91506152b883613f7c565b92508282039050818111156152d0576152cf61522b565b5b92915050565b7f4e487b7100000000000000000000000000000000000000000000000000000000600052603260045260246000fd5b7f4d696c6b206e6f7420666f756e64210000000000000000000000000000000000600082015250565b600061533b600f83614646565b915061534682615305565b602082019050919050565b6000602082019050818103600083015261536a8161532e565b9050919050565b7f436f77206e6f7420666f756e6421000000000000000000000000000000000000600082015250565b60006153a7600e83614646565b91506153b282615371565b602082019050919050565b600060208201905081810360008301526153d68161539a565b9050919050565b7f496e76616c6964206e6577206f776e6572206164647265737300000000000000600082015250565b6000615413601983614646565b915061541e826153dd565b602082019050919050565b6000602082019050818103600083015261544281615406565b9050919050565b60008154905061545881614eea565b9050919050565b81810361546d575050615545565b61547682615449565b67ffffffffffffffff81111561548f5761548e6141ab565b5b6154998254614eea565b6154a48282856150cc565b6000601f8311600181146154d357600084156154c1578287015490505b6154cb858261513d565b86555061553e565b601f1984166154e187614fad565b96506154ec86614fad565b60005b82811015615514578489015482556001820191506001850194506020810190506154ef565b86831015615531578489015461552d601f89168261511f565b8355505b6001600288020188555050505b5050505050505b565b7f4e487b7100000000000000000000000000000000000000000000000000000000600052603160045260246000fd5b600061558182613f7c565b9150600082036155945761559361522b565b5b600182039050919050565b7f50726f64756374206e6f7420666f756e64210000000000000000000000000000600082015250565b60006155d5601283614646565b91506155e08261559f565b602082019050919050565b60006020820190508181036000830152615604816155c8565b905091905056fea2646970667358221220f90fe941a6face30b6d1844c0b09247a922601689dc78b99c1b3c1ca6b5a89a764736f6c63430008130033",
  "immutableReferences": {},
  "source": "pragma solidity ^0.8.17;\r\n\r\ncontract MilkFactory {\r\n\r\n    struct Dairy {\r\n        address dairyAddress;\r\n        string dairyName;\r\n        string dairyPlace;\r\n    }\r\n\r\n    struct Cow {\r\n        uint256 id;\r\n        uint16 weight;\r\n        string breed;\r\n        string birthDate;\r\n        string residence;\r\n    }\r\n\r\n    struct Milk {\r\n        uint256 id;\r\n        uint256 cowId;\r\n        string dateOfProduction;\r\n    }\r\n\r\n    struct Product { //Should add more info about product \r\n        uint256 id;\r\n        uint256 milkId;\r\n        string dateOfProduction;\r\n        string productType;\r\n        string expiryDate;\r\n    }\r\n\r\n    //constructor() {\r\n    //    owner = msg.sender;\r\n    //}\r\n\r\n    modifier onlyOwnerOf(uint256 _cowId) {\r\n        require(cowToOwner[_cowId] == msg.sender, \"You are not the owner of this cow\");\r\n        _;\r\n    }\r\n    \r\n    uint256 public cowCount = 0;\r\n    uint256 public milkCount = 0;\r\n    uint256 public productCount = 0;\r\n\r\n    event ProductAdded(uint256 productId);\r\n    event SpoiledProduct(uint256 productId);\r\n    event LogMessage(string message);\r\n    \r\n    Dairy[] public dairyList;\r\n    Cow[] public cowList;\r\n    Milk[] public milkList;\r\n    Product[] public productList;\r\n\r\n    mapping(uint256 => address) public cowToOwner;\r\n    mapping(uint256 => uint256) public milkToCow;\r\n    mapping(address => uint256) public ownerMilkCount;\r\n    mapping(address => Cow[]) public ownerToCowList;\r\n    mapping(uint256 => Milk[]) public cowToMilkList;\r\n    mapping(uint256 => Product[]) public milkToProductList;\r\n    mapping(address => Milk[]) public ownerToMilk;\r\n    mapping(uint256 => bool) public spoiledMilks;\r\n    mapping(uint256 => bool) public deathCows;\r\n   \r\n   \r\n    function addDairy(string memory _dairyName, string memory _dairyPlace) public {\r\n        Dairy memory myDairy = Dairy(msg.sender, _dairyName, _dairyPlace);\r\n        dairyList.push(myDairy);\r\n    }\r\n\r\n    function checkDairyIsRegistered() public view returns (bool) {\r\n        for(uint i=0; i < dairyList.length; i++) { \r\n            if(dairyList[i].dairyAddress == msg.sender) {\r\n                return true;\r\n            }\r\n        }\r\n        return false;\r\n    }\r\n\r\n    function getAllDairyExceptSelf() public view returns (Dairy[] memory) {\r\n        Dairy[] memory result = new Dairy[](dairyList.length - 1);\r\n        uint256 resultIndex = 0;\r\n        for (uint256 i = 0; i < dairyList.length; i++) {\r\n            if (dairyList[i].dairyAddress != msg.sender) {\r\n                result[resultIndex] = dairyList[i];\r\n                resultIndex++;\r\n            }\r\n        }\r\n        return result;\r\n    }\r\n\r\n    function transferCow(uint256 _cowId, address _newOwner) public onlyOwnerOf(_cowId) {\r\n        require(_newOwner != address(0), \"Invalid new owner address\");\r\n        \r\n        //Delete cow from old owner mapping \r\n        for(uint i=0; i < ownerToCowList[msg.sender].length; i++) { \r\n            if(ownerToCowList[msg.sender][i].id == _cowId) {\r\n                ownerToCowList[msg.sender][i] = ownerToCowList[msg.sender][(ownerToCowList[msg.sender].length-1)];\r\n            }\r\n        }\r\n\r\n        ownerToCowList[msg.sender].pop();\r\n\r\n        //Add cow to new owner mapping\r\n        ownerToCowList[_newOwner].push(getCow(_cowId));\r\n        cowToOwner[_cowId] = _newOwner;\r\n    }\r\n\r\n    function transferMilk(uint256 _milkId, address _newOwner) public {\r\n        require(_newOwner != address(0), \"Invalid new owner address\");\r\n        \r\n        //Delete milk from old owner mapping \r\n        for(uint i=0; i < ownerToMilk[msg.sender].length; i++) { \r\n            if(ownerToMilk[msg.sender][i].id == _milkId) {\r\n                ownerToMilk[msg.sender][i] = ownerToMilk[msg.sender][(ownerToMilk[msg.sender].length-1)];\r\n            }\r\n        }\r\n        ownerMilkCount[msg.sender]--;\r\n        ownerToMilk[msg.sender].pop();\r\n        //Add milk to new owner mapping\r\n        ownerToMilk[_newOwner].push(getMilk(_milkId));\r\n        ownerMilkCount[_newOwner]++;\r\n    }\r\n\r\n\r\n    function addCow(uint16 _weight, string memory _breed, string memory _birthDate, string memory _residence) public {\r\n        Cow memory myCow = Cow(cowCount, _weight, _breed, _birthDate, _residence);\r\n        cowList.push(myCow);\r\n        //Increase cow count that is used as id\r\n        cowCount++;\r\n        cowToOwner[myCow.id] = msg.sender;\r\n        ownerToCowList[msg.sender].push(myCow);\r\n    }\r\n    \r\n    function addMilk(uint256 _cowId, string memory _dateOfProduction) public onlyOwnerOf(_cowId) {\r\n        //Check if cow exists\r\n        Milk memory myMilk = Milk(milkCount, _cowId, _dateOfProduction);\r\n        spoiledMilks[milkCount] = false;\r\n        milkList.push(myMilk);\r\n        milkCount++;\r\n        cowToMilkList[_cowId].push(myMilk);\r\n        milkToCow[myMilk.id] = _cowId;\r\n        ownerMilkCount[msg.sender]++; \r\n        ownerToMilk[msg.sender].push(myMilk);\r\n    }\r\n    \r\n    function addProduct(uint256 _milkId, string memory _dateOfProduction, string memory _productType, string memory _expiryDate) public  onlyOwnerOf(milkToCow[_milkId]) {\r\n        //Check if milk exists\r\n        Product memory  myProduct = Product( productCount, _milkId, _dateOfProduction, _productType, _expiryDate);\r\n        productList.push(myProduct);\r\n        milkToProductList[_milkId].push(myProduct);\r\n        emit ProductAdded(productCount);\r\n        productCount++;  \r\n    }\r\n\r\n    function killCow(uint256 _cowId) public onlyOwnerOf(_cowId) {\r\n        deathCows[_cowId] = true;\r\n    }\r\n\r\n    function getAllCows() public view returns(Cow[] memory) {\r\n        return cowList;\r\n    }\r\n\r\n    function getCowsOfOwner() public view returns(Cow[] memory) {\r\n        return ownerToCowList[msg.sender];\r\n    }\r\n\r\n    function getAliveCowsOfOwner() public view returns(Cow[] memory) {\r\n        Cow[] memory cows = ownerToCowList[msg.sender];\r\n        uint256 aliveCows = 0;\r\n        for(uint i=0; i < cows.length; i++) { \r\n            if(deathCows[cows[i].id] == false) {\r\n                aliveCows++;\r\n            }\r\n        }\r\n        Cow[] memory aliveCowList = new Cow[](aliveCows);\r\n        uint256 index = 0;\r\n        for(uint i=0; i < cows.length; i++) { \r\n            if(deathCows[cows[i].id] == false) {\r\n                aliveCowList[index] = cows[i];\r\n                index++;\r\n            }\r\n        }\r\n        return aliveCowList;\r\n    }\r\n    \r\n    function getAllMilks() public view returns(Milk[] memory) {\r\n        return milkList;\r\n    }\r\n\r\n    function getMilksOfOwner() public view returns (Milk[] memory) {\r\n        return ownerToMilk[msg.sender];    \r\n    }\r\n\r\n    function reportSpoiledProduct(uint256 _productId) public {\r\n        uint256 milkId = getProduct(_productId).milkId;\r\n        spoiledMilks[milkId] = true;\r\n    }\r\n\r\n    function getAllProducts() public view returns(Product[] memory) {\r\n        return productList;\r\n    }\r\n\r\n    function getProduct(uint256 _productId) public view returns(Product memory) {\r\n        for(uint i=0; i < productList.length; i++) { \r\n            if(productList[i].id == _productId) {\r\n                return productList[i];\r\n            }\r\n        }\r\n        revert(\"Product not found!\"); //Undo, return value, give back gas \r\n    }\r\n\r\n    function isMilkSpoiled(uint256 _milkId) public view returns(bool) {\r\n        return spoiledMilks[_milkId];\r\n    }\r\n\r\n    function getMilk(uint256 _milkId) public view returns(Milk memory) {\r\n        for(uint i=0; i < milkList.length; i++) { \r\n            if(milkList[i].id == _milkId) {\r\n                return milkList[i];\r\n            }\r\n        }\r\n        revert(\"Milk not found!\"); //Undo, return value, give back gas \r\n    }\r\n\r\n    function getCow(uint256 _cowId) public view returns(Cow memory) {\r\n        for(uint i=0; i < cowList.length; i++) { \r\n            if(cowList[i].id == _cowId) {\r\n                return cowList[i];\r\n            }\r\n        }\r\n        revert(\"Cow not found!\"); //Undo, return value, give back gas \r\n    }\r\n}",
  "sourcePath": "C:\\Users\\mstel\\Desktop\\Blockchain-Project\\blockchain\\contracts\\MilkFactory.sol",
  "compiler": {
    "name": "solc",
    "version": "0.8.19+commit.7dd6d404.Emscripten.clang"
  },
  "schemaVersion": "3.4.13",
  "updatedAt": "2023-07-11T14:48:38.356Z",
  "networkType": "ethereum",
  "devdoc": {
    "kind": "dev",
    "methods": {},
    "version": 1
  },
  "userdoc": {
    "kind": "user",
    "methods": {},
    "version": 1
  }
}