{
  "contractName": "MilkFactory",
  "abi": [
    {
      "anonymous": false,
      "inputs": [
        {
          "indexed": false,
          "internalType": "uint256",
          "name": "productId",
          "type": "uint256"
        }
      ],
      "name": "ProductAdded",
      "type": "event"
    },
    {
      "inputs": [],
      "name": "cowCount",
      "outputs": [
        {
          "internalType": "uint256",
          "name": "",
          "type": "uint256"
        }
      ],
      "stateMutability": "view",
      "type": "function",
      "constant": true
    },
    {
      "inputs": [
        {
          "internalType": "uint256",
          "name": "",
          "type": "uint256"
        }
      ],
      "name": "cowList",
      "outputs": [
        {
          "internalType": "uint256",
          "name": "id",
          "type": "uint256"
        },
        {
          "internalType": "uint256",
          "name": "weight",
          "type": "uint256"
        },
        {
          "internalType": "string",
          "name": "breed",
          "type": "string"
        },
        {
          "internalType": "string",
          "name": "birthDate",
          "type": "string"
        },
        {
          "internalType": "string",
          "name": "residence",
          "type": "string"
        }
      ],
      "stateMutability": "view",
      "type": "function",
      "constant": true
    },
    {
      "inputs": [
        {
          "internalType": "uint256",
          "name": "",
          "type": "uint256"
        },
        {
          "internalType": "uint256",
          "name": "",
          "type": "uint256"
        }
      ],
      "name": "cowToMilkList",
      "outputs": [
        {
          "internalType": "uint256",
          "name": "id",
          "type": "uint256"
        },
        {
          "internalType": "uint256",
          "name": "cowId",
          "type": "uint256"
        },
        {
          "internalType": "string",
          "name": "dateOfProduction",
          "type": "string"
        }
      ],
      "stateMutability": "view",
      "type": "function",
      "constant": true
    },
    {
      "inputs": [
        {
          "internalType": "uint256",
          "name": "",
          "type": "uint256"
        }
      ],
      "name": "cowToOwner",
      "outputs": [
        {
          "internalType": "address",
          "name": "",
          "type": "address"
        }
      ],
      "stateMutability": "view",
      "type": "function",
      "constant": true
    },
    {
      "inputs": [],
      "name": "milkCount",
      "outputs": [
        {
          "internalType": "uint256",
          "name": "",
          "type": "uint256"
        }
      ],
      "stateMutability": "view",
      "type": "function",
      "constant": true
    },
    {
      "inputs": [
        {
          "internalType": "uint256",
          "name": "",
          "type": "uint256"
        }
      ],
      "name": "milkList",
      "outputs": [
        {
          "internalType": "uint256",
          "name": "id",
          "type": "uint256"
        },
        {
          "internalType": "uint256",
          "name": "cowId",
          "type": "uint256"
        },
        {
          "internalType": "string",
          "name": "dateOfProduction",
          "type": "string"
        }
      ],
      "stateMutability": "view",
      "type": "function",
      "constant": true
    },
    {
      "inputs": [
        {
          "internalType": "uint256",
          "name": "",
          "type": "uint256"
        }
      ],
      "name": "milkToCow",
      "outputs": [
        {
          "internalType": "uint256",
          "name": "",
          "type": "uint256"
        }
      ],
      "stateMutability": "view",
      "type": "function",
      "constant": true
    },
    {
      "inputs": [
        {
          "internalType": "uint256",
          "name": "",
          "type": "uint256"
        },
        {
          "internalType": "uint256",
          "name": "",
          "type": "uint256"
        }
      ],
      "name": "milkToProductList",
      "outputs": [
        {
          "internalType": "uint256",
          "name": "id",
          "type": "uint256"
        },
        {
          "internalType": "uint256",
          "name": "milkId",
          "type": "uint256"
        },
        {
          "internalType": "string",
          "name": "dateOfProduction",
          "type": "string"
        },
        {
          "internalType": "string",
          "name": "productType",
          "type": "string"
        },
        {
          "internalType": "string",
          "name": "expiryDate",
          "type": "string"
        }
      ],
      "stateMutability": "view",
      "type": "function",
      "constant": true
    },
    {
      "inputs": [
        {
          "internalType": "address",
          "name": "",
          "type": "address"
        }
      ],
      "name": "ownerMilkCount",
      "outputs": [
        {
          "internalType": "uint256",
          "name": "",
          "type": "uint256"
        }
      ],
      "stateMutability": "view",
      "type": "function",
      "constant": true
    },
    {
      "inputs": [
        {
          "internalType": "address",
          "name": "",
          "type": "address"
        },
        {
          "internalType": "uint256",
          "name": "",
          "type": "uint256"
        }
      ],
      "name": "ownerToCowList",
      "outputs": [
        {
          "internalType": "uint256",
          "name": "id",
          "type": "uint256"
        },
        {
          "internalType": "uint256",
          "name": "weight",
          "type": "uint256"
        },
        {
          "internalType": "string",
          "name": "breed",
          "type": "string"
        },
        {
          "internalType": "string",
          "name": "birthDate",
          "type": "string"
        },
        {
          "internalType": "string",
          "name": "residence",
          "type": "string"
        }
      ],
      "stateMutability": "view",
      "type": "function",
      "constant": true
    },
    {
      "inputs": [
        {
          "internalType": "address",
          "name": "",
          "type": "address"
        },
        {
          "internalType": "uint256",
          "name": "",
          "type": "uint256"
        }
      ],
      "name": "ownerToMilk",
      "outputs": [
        {
          "internalType": "uint256",
          "name": "id",
          "type": "uint256"
        },
        {
          "internalType": "uint256",
          "name": "cowId",
          "type": "uint256"
        },
        {
          "internalType": "string",
          "name": "dateOfProduction",
          "type": "string"
        }
      ],
      "stateMutability": "view",
      "type": "function",
      "constant": true
    },
    {
      "inputs": [],
      "name": "productCount",
      "outputs": [
        {
          "internalType": "uint256",
          "name": "",
          "type": "uint256"
        }
      ],
      "stateMutability": "view",
      "type": "function",
      "constant": true
    },
    {
      "inputs": [
        {
          "internalType": "uint256",
          "name": "",
          "type": "uint256"
        }
      ],
      "name": "productList",
      "outputs": [
        {
          "internalType": "uint256",
          "name": "id",
          "type": "uint256"
        },
        {
          "internalType": "uint256",
          "name": "milkId",
          "type": "uint256"
        },
        {
          "internalType": "string",
          "name": "dateOfProduction",
          "type": "string"
        },
        {
          "internalType": "string",
          "name": "productType",
          "type": "string"
        },
        {
          "internalType": "string",
          "name": "expiryDate",
          "type": "string"
        }
      ],
      "stateMutability": "view",
      "type": "function",
      "constant": true
    },
    {
      "inputs": [
        {
          "internalType": "uint256",
          "name": "_weight",
          "type": "uint256"
        },
        {
          "internalType": "string",
          "name": "_breed",
          "type": "string"
        },
        {
          "internalType": "string",
          "name": "_birthDate",
          "type": "string"
        },
        {
          "internalType": "string",
          "name": "_residence",
          "type": "string"
        }
      ],
      "name": "addCow",
      "outputs": [],
      "stateMutability": "nonpayable",
      "type": "function"
    },
    {
      "inputs": [
        {
          "internalType": "uint256",
          "name": "_cowId",
          "type": "uint256"
        },
        {
          "internalType": "string",
          "name": "_dateOfProduction",
          "type": "string"
        }
      ],
      "name": "addMilk",
      "outputs": [],
      "stateMutability": "nonpayable",
      "type": "function"
    },
    {
      "inputs": [
        {
          "internalType": "uint256",
          "name": "_milkId",
          "type": "uint256"
        },
        {
          "internalType": "string",
          "name": "_dateOfProduction",
          "type": "string"
        },
        {
          "internalType": "string",
          "name": "_productType",
          "type": "string"
        },
        {
          "internalType": "string",
          "name": "_expiryDate",
          "type": "string"
        }
      ],
      "name": "addProduct",
      "outputs": [],
      "stateMutability": "nonpayable",
      "type": "function"
    },
    {
      "inputs": [],
      "name": "getAllCows",
      "outputs": [
        {
          "components": [
            {
              "internalType": "uint256",
              "name": "id",
              "type": "uint256"
            },
            {
              "internalType": "uint256",
              "name": "weight",
              "type": "uint256"
            },
            {
              "internalType": "string",
              "name": "breed",
              "type": "string"
            },
            {
              "internalType": "string",
              "name": "birthDate",
              "type": "string"
            },
            {
              "internalType": "string",
              "name": "residence",
              "type": "string"
            }
          ],
          "internalType": "struct MilkFactory.Cow[]",
          "name": "",
          "type": "tuple[]"
        }
      ],
      "stateMutability": "view",
      "type": "function",
      "constant": true
    },
    {
      "inputs": [],
      "name": "getCowsOfOwner",
      "outputs": [
        {
          "components": [
            {
              "internalType": "uint256",
              "name": "id",
              "type": "uint256"
            },
            {
              "internalType": "uint256",
              "name": "weight",
              "type": "uint256"
            },
            {
              "internalType": "string",
              "name": "breed",
              "type": "string"
            },
            {
              "internalType": "string",
              "name": "birthDate",
              "type": "string"
            },
            {
              "internalType": "string",
              "name": "residence",
              "type": "string"
            }
          ],
          "internalType": "struct MilkFactory.Cow[]",
          "name": "",
          "type": "tuple[]"
        }
      ],
      "stateMutability": "view",
      "type": "function",
      "constant": true
    },
    {
      "inputs": [],
      "name": "getAllMilks",
      "outputs": [
        {
          "components": [
            {
              "internalType": "uint256",
              "name": "id",
              "type": "uint256"
            },
            {
              "internalType": "uint256",
              "name": "cowId",
              "type": "uint256"
            },
            {
              "internalType": "string",
              "name": "dateOfProduction",
              "type": "string"
            }
          ],
          "internalType": "struct MilkFactory.Milk[]",
          "name": "",
          "type": "tuple[]"
        }
      ],
      "stateMutability": "view",
      "type": "function",
      "constant": true
    },
    {
      "inputs": [],
      "name": "getMilksOfOwner",
      "outputs": [
        {
          "components": [
            {
              "internalType": "uint256",
              "name": "id",
              "type": "uint256"
            },
            {
              "internalType": "uint256",
              "name": "cowId",
              "type": "uint256"
            },
            {
              "internalType": "string",
              "name": "dateOfProduction",
              "type": "string"
            }
          ],
          "internalType": "struct MilkFactory.Milk[]",
          "name": "",
          "type": "tuple[]"
        }
      ],
      "stateMutability": "view",
      "type": "function",
      "constant": true
    },
    {
      "inputs": [],
      "name": "getAllProducts",
      "outputs": [
        {
          "components": [
            {
              "internalType": "uint256",
              "name": "id",
              "type": "uint256"
            },
            {
              "internalType": "uint256",
              "name": "milkId",
              "type": "uint256"
            },
            {
              "internalType": "string",
              "name": "dateOfProduction",
              "type": "string"
            },
            {
              "internalType": "string",
              "name": "productType",
              "type": "string"
            },
            {
              "internalType": "string",
              "name": "expiryDate",
              "type": "string"
            }
          ],
          "internalType": "struct MilkFactory.Product[]",
          "name": "",
          "type": "tuple[]"
        }
      ],
      "stateMutability": "view",
      "type": "function",
      "constant": true
    },
    {
      "inputs": [
        {
          "internalType": "uint256",
          "name": "_productId",
          "type": "uint256"
        }
      ],
      "name": "getProduct",
      "outputs": [
        {
          "components": [
            {
              "internalType": "uint256",
              "name": "id",
              "type": "uint256"
            },
            {
              "internalType": "uint256",
              "name": "milkId",
              "type": "uint256"
            },
            {
              "internalType": "string",
              "name": "dateOfProduction",
              "type": "string"
            },
            {
              "internalType": "string",
              "name": "productType",
              "type": "string"
            },
            {
              "internalType": "string",
              "name": "expiryDate",
              "type": "string"
            }
          ],
          "internalType": "struct MilkFactory.Product",
          "name": "",
          "type": "tuple"
        }
      ],
      "stateMutability": "view",
      "type": "function",
      "constant": true
    },
    {
      "inputs": [
        {
          "internalType": "uint256",
          "name": "_milkId",
          "type": "uint256"
        }
      ],
      "name": "getMilk",
      "outputs": [
        {
          "components": [
            {
              "internalType": "uint256",
              "name": "id",
              "type": "uint256"
            },
            {
              "internalType": "uint256",
              "name": "cowId",
              "type": "uint256"
            },
            {
              "internalType": "string",
              "name": "dateOfProduction",
              "type": "string"
            }
          ],
          "internalType": "struct MilkFactory.Milk",
          "name": "",
          "type": "tuple"
        }
      ],
      "stateMutability": "view",
      "type": "function",
      "constant": true
    },
    {
      "inputs": [
        {
          "internalType": "uint256",
          "name": "_cowId",
          "type": "uint256"
        }
      ],
      "name": "getCow",
      "outputs": [
        {
          "components": [
            {
              "internalType": "uint256",
              "name": "id",
              "type": "uint256"
            },
            {
              "internalType": "uint256",
              "name": "weight",
              "type": "uint256"
            },
            {
              "internalType": "string",
              "name": "breed",
              "type": "string"
            },
            {
              "internalType": "string",
              "name": "birthDate",
              "type": "string"
            },
            {
              "internalType": "string",
              "name": "residence",
              "type": "string"
            }
          ],
          "internalType": "struct MilkFactory.Cow",
          "name": "",
          "type": "tuple"
        }
      ],
      "stateMutability": "view",
      "type": "function",
      "constant": true
    }
  ],
  "bytecode": "0x6080604052600080556000600155600060025534801561001e57600080fd5b506137928061002e6000396000f3fe608060405234801561001057600080fd5b50600436106101585760003560e01c80637ba3372d116100c3578063beda38f51161007c578063beda38f51461044b578063c1393d271461047f578063cb7cdaad1461049b578063e0f6ef87146104cf578063e749303a146104ed578063edb5a4571461050957610158565b80637ba3372d1461035b5780638de6e5f11461038f578063927fb4de146103ad578063b6f7ea8a146103cb578063b9db15b4146103e9578063b9f9fbfe1461041957610158565b8063329bcfa511610115578063329bcfa51461025b57806334df9b60146102795780634a71bd2a146102a9578063528c87d2146102c75780635515d0f6146102fb5780636c46f2a01461032b57610158565b806302ee3a521461015d57806308f0eb531461017b5780630f926aeb14610197578063184e9c2d146101c75780631dc2c408146101f75780632bd6ccc814610229575b600080fd5b610165610527565b604051610172919061287e565b60405180910390f35b61019560048036038101906101909190612a15565b610750565b005b6101b160048036038101906101ac9190612acf565b6109f8565b6040516101be9190612b0b565b60405180910390f35b6101e160048036038101906101dc9190612b26565b610a10565b6040516101ee9190612ba3565b60405180910390f35b610211600480360381019061020c9190612bc5565b610b83565b60405161022093929190612c4f565b60405180910390f35b610243600480360381019061023e9190612b26565b610c52565b60405161025293929190612c4f565b60405180910390f35b610263610d14565b6040516102709190612d9f565b60405180910390f35b610293600480360381019061028e9190612b26565b610e19565b6040516102a09190612e45565b60405180910390f35b6102b16110b0565b6040516102be9190612d9f565b60405180910390f35b6102e160048036038101906102dc9190612b26565b6111f2565b6040516102f2959493929190612e67565b60405180910390f35b61031560048036038101906103109190612b26565b6113d0565b6040516103229190612ede565b60405180910390f35b61034560048036038101906103409190612b26565b611403565b6040516103529190612b0b565b60405180910390f35b61037560048036038101906103709190612bc5565b61141b565b604051610386959493929190612e67565b60405180910390f35b610397611606565b6040516103a49190612b0b565b60405180910390f35b6103b561160c565b6040516103c2919061303f565b60405180910390f35b6103d3611835565b6040516103e0919061303f565b60405180910390f35b61040360048036038101906103fe9190612b26565b611a9b565b60405161041091906130e5565b60405180910390f35b610433600480360381019061042e9190613107565b611d32565b60405161044293929190612c4f565b60405180910390f35b61046560048036038101906104609190613107565b611e01565b604051610476959493929190612e67565b60405180910390f35b61049960048036038101906104949190613147565b611fec565b005b6104b560048036038101906104b09190612b26565b612240565b6040516104c6959493929190612e67565b60405180910390f35b6104d761241e565b6040516104e49190612b0b565b60405180910390f35b61050760048036038101906105029190613147565b612424565b005b61051161260a565b60405161051e9190612b0b565b60405180910390f35b60606005805480602002602001604051908101604052809291908181526020016000905b8282101561074757838290600052602060002090600502016040518060a0016040529081600082015481526020016001820154815260200160028201805461059290613231565b80601f01602080910402602001604051908101604052809291908181526020018280546105be90613231565b801561060b5780601f106105e05761010080835404028352916020019161060b565b820191906000526020600020905b8154815290600101906020018083116105ee57829003601f168201915b5050505050815260200160038201805461062490613231565b80601f016020809104026020016040519081016040528092919081815260200182805461065090613231565b801561069d5780601f106106725761010080835404028352916020019161069d565b820191906000526020600020905b81548152906001019060200180831161068057829003601f168201915b505050505081526020016004820180546106b690613231565b80601f01602080910402602001604051908101604052809291908181526020018280546106e290613231565b801561072f5780601f106107045761010080835404028352916020019161072f565b820191906000526020600020905b81548152906001019060200180831161071257829003601f168201915b5050505050815250508152602001906001019061054b565b50505050905090565b813373ffffffffffffffffffffffffffffffffffffffff166006600083815260200190815260200160002060009054906101000a900473ffffffffffffffffffffffffffffffffffffffff1673ffffffffffffffffffffffffffffffffffffffff16146107f2576040517f08c379a00000000000000000000000000000000000000000000000000000000081526004016107e9906132d4565b60405180910390fd5b6000604051806060016040528060015481526020018581526020018481525090506001600081548092919061082690613323565b91905055506004819080600181540180825580915050600190039060005260206000209060030201600090919091909150600082015181600001556020820151816001015560408201518160020190816108809190613517565b505050600a6000858152602001908152602001600020819080600181540180825580915050600190039060005260206000209060030201600090919091909150600082015181600001556020820151816001015560408201518160020190816108e99190613517565b50505083600760008360000151815260200190815260200160002081905550600860003373ffffffffffffffffffffffffffffffffffffffff1673ffffffffffffffffffffffffffffffffffffffff168152602001908152602001600020600081548092919061095890613323565b9190505550600c60003373ffffffffffffffffffffffffffffffffffffffff1673ffffffffffffffffffffffffffffffffffffffff168152602001908152602001600020819080600181540180825580915050600190039060005260206000209060030201600090919091909150600082015181600001556020820151816001015560408201518160020190816109ef9190613517565b50505050505050565b60086020528060005260406000206000915090505481565b610a18612610565b60005b600480549050811015610b42578260048281548110610a3d57610a3c6135e9565b5b90600052602060002090600302016000015403610b2f5760048181548110610a6857610a676135e9565b5b90600052602060002090600302016040518060600160405290816000820154815260200160018201548152602001600282018054610aa590613231565b80601f0160208091040260200160405190810160405280929190818152602001828054610ad190613231565b8015610b1e5780601f10610af357610100808354040283529160200191610b1e565b820191906000526020600020905b815481529060010190602001808311610b0157829003601f168201915b505050505081525050915050610b7e565b8080610b3a90613323565b915050610a1b565b506040517f08c379a0000000000000000000000000000000000000000000000000000000008152600401610b7590613664565b60405180910390fd5b919050565b600a6020528160005260406000208181548110610b9f57600080fd5b906000526020600020906003020160009150915050806000015490806001015490806002018054610bcf90613231565b80601f0160208091040260200160405190810160405280929190818152602001828054610bfb90613231565b8015610c485780601f10610c1d57610100808354040283529160200191610c48565b820191906000526020600020905b815481529060010190602001808311610c2b57829003601f168201915b5050505050905083565b60048181548110610c6257600080fd5b9060005260206000209060030201600091509050806000015490806001015490806002018054610c9190613231565b80601f0160208091040260200160405190810160405280929190818152602001828054610cbd90613231565b8015610d0a5780601f10610cdf57610100808354040283529160200191610d0a565b820191906000526020600020905b815481529060010190602001808311610ced57829003601f168201915b5050505050905083565b60606004805480602002602001604051908101604052809291908181526020016000905b82821015610e1057838290600052602060002090600302016040518060600160405290816000820154815260200160018201548152602001600282018054610d7f90613231565b80601f0160208091040260200160405190810160405280929190818152602001828054610dab90613231565b8015610df85780601f10610dcd57610100808354040283529160200191610df8565b820191906000526020600020905b815481529060010190602001808311610ddb57829003601f168201915b50505050508152505081526020019060010190610d38565b50505050905090565b610e21612631565b60005b60038054905081101561106f578260038281548110610e4657610e456135e9565b5b9060005260206000209060050201600001540361105c5760038181548110610e7157610e706135e9565b5b90600052602060002090600502016040518060a00160405290816000820154815260200160018201548152602001600282018054610eae90613231565b80601f0160208091040260200160405190810160405280929190818152602001828054610eda90613231565b8015610f275780601f10610efc57610100808354040283529160200191610f27565b820191906000526020600020905b815481529060010190602001808311610f0a57829003601f168201915b50505050508152602001600382018054610f4090613231565b80601f0160208091040260200160405190810160405280929190818152602001828054610f6c90613231565b8015610fb95780601f10610f8e57610100808354040283529160200191610fb9565b820191906000526020600020905b815481529060010190602001808311610f9c57829003601f168201915b50505050508152602001600482018054610fd290613231565b80601f0160208091040260200160405190810160405280929190818152602001828054610ffe90613231565b801561104b5780601f106110205761010080835404028352916020019161104b565b820191906000526020600020905b81548152906001019060200180831161102e57829003601f168201915b5050505050815250509150506110ab565b808061106790613323565b915050610e24565b506040517f08c379a00000000000000000000000000000000000000000000000000000000081526004016110a2906136d0565b60405180910390fd5b919050565b6060600c60003373ffffffffffffffffffffffffffffffffffffffff1673ffffffffffffffffffffffffffffffffffffffff168152602001908152602001600020805480602002602001604051908101604052809291908181526020016000905b828210156111e95783829060005260206000209060030201604051806060016040529081600082015481526020016001820154815260200160028201805461115890613231565b80601f016020809104026020016040519081016040528092919081815260200182805461118490613231565b80156111d15780601f106111a6576101008083540402835291602001916111d1565b820191906000526020600020905b8154815290600101906020018083116111b457829003601f168201915b50505050508152505081526020019060010190611111565b50505050905090565b6005818154811061120257600080fd5b906000526020600020906005020160009150905080600001549080600101549080600201805461123190613231565b80601f016020809104026020016040519081016040528092919081815260200182805461125d90613231565b80156112aa5780601f1061127f576101008083540402835291602001916112aa565b820191906000526020600020905b81548152906001019060200180831161128d57829003601f168201915b5050505050908060030180546112bf90613231565b80601f01602080910402602001604051908101604052809291908181526020018280546112eb90613231565b80156113385780601f1061130d57610100808354040283529160200191611338565b820191906000526020600020905b81548152906001019060200180831161131b57829003601f168201915b50505050509080600401805461134d90613231565b80601f016020809104026020016040519081016040528092919081815260200182805461137990613231565b80156113c65780601f1061139b576101008083540402835291602001916113c6565b820191906000526020600020905b8154815290600101906020018083116113a957829003601f168201915b5050505050905085565b60066020528060005260406000206000915054906101000a900473ffffffffffffffffffffffffffffffffffffffff1681565b60076020528060005260406000206000915090505481565b600b602052816000526040600020818154811061143757600080fd5b90600052602060002090600502016000915091505080600001549080600101549080600201805461146790613231565b80601f016020809104026020016040519081016040528092919081815260200182805461149390613231565b80156114e05780601f106114b5576101008083540402835291602001916114e0565b820191906000526020600020905b8154815290600101906020018083116114c357829003601f168201915b5050505050908060030180546114f590613231565b80601f016020809104026020016040519081016040528092919081815260200182805461152190613231565b801561156e5780601f106115435761010080835404028352916020019161156e565b820191906000526020600020905b81548152906001019060200180831161155157829003601f168201915b50505050509080600401805461158390613231565b80601f01602080910402602001604051908101604052809291908181526020018280546115af90613231565b80156115fc5780601f106115d1576101008083540402835291602001916115fc565b820191906000526020600020905b8154815290600101906020018083116115df57829003601f168201915b5050505050905085565b60015481565b60606003805480602002602001604051908101604052809291908181526020016000905b8282101561182c57838290600052602060002090600502016040518060a0016040529081600082015481526020016001820154815260200160028201805461167790613231565b80601f01602080910402602001604051908101604052809291908181526020018280546116a390613231565b80156116f05780601f106116c5576101008083540402835291602001916116f0565b820191906000526020600020905b8154815290600101906020018083116116d357829003601f168201915b5050505050815260200160038201805461170990613231565b80601f016020809104026020016040519081016040528092919081815260200182805461173590613231565b80156117825780601f1061175757610100808354040283529160200191611782565b820191906000526020600020905b81548152906001019060200180831161176557829003601f168201915b5050505050815260200160048201805461179b90613231565b80601f01602080910402602001604051908101604052809291908181526020018280546117c790613231565b80156118145780601f106117e957610100808354040283529160200191611814565b820191906000526020600020905b8154815290600101906020018083116117f757829003601f168201915b50505050508152505081526020019060010190611630565b50505050905090565b6060600960003373ffffffffffffffffffffffffffffffffffffffff1673ffffffffffffffffffffffffffffffffffffffff168152602001908152602001600020805480602002602001604051908101604052809291908181526020016000905b82821015611a9257838290600052602060002090600502016040518060a001604052908160008201548152602001600182015481526020016002820180546118dd90613231565b80601f016020809104026020016040519081016040528092919081815260200182805461190990613231565b80156119565780601f1061192b57610100808354040283529160200191611956565b820191906000526020600020905b81548152906001019060200180831161193957829003601f168201915b5050505050815260200160038201805461196f90613231565b80601f016020809104026020016040519081016040528092919081815260200182805461199b90613231565b80156119e85780601f106119bd576101008083540402835291602001916119e8565b820191906000526020600020905b8154815290600101906020018083116119cb57829003601f168201915b50505050508152602001600482018054611a0190613231565b80601f0160208091040260200160405190810160405280929190818152602001828054611a2d90613231565b8015611a7a5780601f10611a4f57610100808354040283529160200191611a7a565b820191906000526020600020905b815481529060010190602001808311611a5d57829003601f168201915b50505050508152505081526020019060010190611896565b50505050905090565b611aa3612660565b60005b600580549050811015611cf1578260058281548110611ac857611ac76135e9565b5b90600052602060002090600502016000015403611cde5760058181548110611af357611af26135e9565b5b90600052602060002090600502016040518060a00160405290816000820154815260200160018201548152602001600282018054611b3090613231565b80601f0160208091040260200160405190810160405280929190818152602001828054611b5c90613231565b8015611ba95780601f10611b7e57610100808354040283529160200191611ba9565b820191906000526020600020905b815481529060010190602001808311611b8c57829003601f168201915b50505050508152602001600382018054611bc290613231565b80601f0160208091040260200160405190810160405280929190818152602001828054611bee90613231565b8015611c3b5780601f10611c1057610100808354040283529160200191611c3b565b820191906000526020600020905b815481529060010190602001808311611c1e57829003601f168201915b50505050508152602001600482018054611c5490613231565b80601f0160208091040260200160405190810160405280929190818152602001828054611c8090613231565b8015611ccd5780601f10611ca257610100808354040283529160200191611ccd565b820191906000526020600020905b815481529060010190602001808311611cb057829003601f168201915b505050505081525050915050611d2d565b8080611ce990613323565b915050611aa6565b506040517f08c379a0000000000000000000000000000000000000000000000000000000008152600401611d249061373c565b60405180910390fd5b919050565b600c6020528160005260406000208181548110611d4e57600080fd5b906000526020600020906003020160009150915050806000015490806001015490806002018054611d7e90613231565b80601f0160208091040260200160405190810160405280929190818152602001828054611daa90613231565b8015611df75780601f10611dcc57610100808354040283529160200191611df7565b820191906000526020600020905b815481529060010190602001808311611dda57829003601f168201915b5050505050905083565b60096020528160005260406000208181548110611e1d57600080fd5b906000526020600020906005020160009150915050806000015490806001015490806002018054611e4d90613231565b80601f0160208091040260200160405190810160405280929190818152602001828054611e7990613231565b8015611ec65780601f10611e9b57610100808354040283529160200191611ec6565b820191906000526020600020905b815481529060010190602001808311611ea957829003601f168201915b505050505090806003018054611edb90613231565b80601f0160208091040260200160405190810160405280929190818152602001828054611f0790613231565b8015611f545780601f10611f2957610100808354040283529160200191611f54565b820191906000526020600020905b815481529060010190602001808311611f3757829003601f168201915b505050505090806004018054611f6990613231565b80601f0160208091040260200160405190810160405280929190818152602001828054611f9590613231565b8015611fe25780601f10611fb757610100808354040283529160200191611fe2565b820191906000526020600020905b815481529060010190602001808311611fc557829003601f168201915b5050505050905085565b60076000858152602001908152602001600020543373ffffffffffffffffffffffffffffffffffffffff166006600083815260200190815260200160002060009054906101000a900473ffffffffffffffffffffffffffffffffffffffff1673ffffffffffffffffffffffffffffffffffffffff16146120a1576040517f08c379a0000000000000000000000000000000000000000000000000000000008152600401612098906132d4565b60405180910390fd5b60006040518060a0016040528060025481526020018781526020018681526020018581526020018481525090506005819080600181540180825580915050600190039060005260206000209060050201600090919091909150600082015181600001556020820151816001015560408201518160020190816121239190613517565b5060608201518160030190816121399190613517565b50608082015181600401908161214f9190613517565b505050600b6000878152602001908152602001600020819080600181540180825580915050600190039060005260206000209060050201600090919091909150600082015181600001556020820151816001015560408201518160020190816121b89190613517565b5060608201518160030190816121ce9190613517565b5060808201518160040190816121e49190613517565b5050507f4fc9d5acc453e78e01b205af5788a1c62f195c4b5cdc8eb8f1c670863b7e736a6002546040516122189190612b0b565b60405180910390a16002600081548092919061223390613323565b9190505550505050505050565b6003818154811061225057600080fd5b906000526020600020906005020160009150905080600001549080600101549080600201805461227f90613231565b80601f01602080910402602001604051908101604052809291908181526020018280546122ab90613231565b80156122f85780601f106122cd576101008083540402835291602001916122f8565b820191906000526020600020905b8154815290600101906020018083116122db57829003601f168201915b50505050509080600301805461230d90613231565b80601f016020809104026020016040519081016040528092919081815260200182805461233990613231565b80156123865780601f1061235b57610100808354040283529160200191612386565b820191906000526020600020905b81548152906001019060200180831161236957829003601f168201915b50505050509080600401805461239b90613231565b80601f01602080910402602001604051908101604052809291908181526020018280546123c790613231565b80156124145780601f106123e957610100808354040283529160200191612414565b820191906000526020600020905b8154815290600101906020018083116123f757829003601f168201915b5050505050905085565b60025481565b60006040518060a0016040528060005481526020018681526020018581526020018481526020018381525090506003819080600181540180825580915050600190039060005260206000209060050201600090919091909150600082015181600001556020820151816001015560408201518160020190816124a69190613517565b5060608201518160030190816124bc9190613517565b5060808201518160040190816124d29190613517565b5050506000808154809291906124e790613323565b919050555033600660008360000151815260200190815260200160002060006101000a81548173ffffffffffffffffffffffffffffffffffffffff021916908373ffffffffffffffffffffffffffffffffffffffff160217905550600960003373ffffffffffffffffffffffffffffffffffffffff1673ffffffffffffffffffffffffffffffffffffffff168152602001908152602001600020819080600181540180825580915050600190039060005260206000209060050201600090919091909150600082015181600001556020820151816001015560408201518160020190816125d49190613517565b5060608201518160030190816125ea9190613517565b5060808201518160040190816126009190613517565b5050505050505050565b60005481565b60405180606001604052806000815260200160008152602001606081525090565b6040518060a0016040528060008152602001600081526020016060815260200160608152602001606081525090565b6040518060a0016040528060008152602001600081526020016060815260200160608152602001606081525090565b600081519050919050565b600082825260208201905092915050565b6000819050602082019050919050565b6000819050919050565b6126ce816126bb565b82525050565b600081519050919050565b600082825260208201905092915050565b60005b8381101561270e5780820151818401526020810190506126f3565b60008484015250505050565b6000601f19601f8301169050919050565b6000612736826126d4565b61274081856126df565b93506127508185602086016126f0565b6127598161271a565b840191505092915050565b600060a08301600083015161277c60008601826126c5565b50602083015161278f60208601826126c5565b50604083015184820360408601526127a7828261272b565b915050606083015184820360608601526127c1828261272b565b915050608083015184820360808601526127db828261272b565b9150508091505092915050565b60006127f48383612764565b905092915050565b6000602082019050919050565b60006128148261268f565b61281e818561269a565b935083602082028501612830856126ab565b8060005b8581101561286c578484038952815161284d85826127e8565b9450612858836127fc565b925060208a01995050600181019050612834565b50829750879550505050505092915050565b600060208201905081810360008301526128988184612809565b905092915050565b6000604051905090565b600080fd5b600080fd5b6128bd816126bb565b81146128c857600080fd5b50565b6000813590506128da816128b4565b92915050565b600080fd5b600080fd5b7f4e487b7100000000000000000000000000000000000000000000000000000000600052604160045260246000fd5b6129228261271a565b810181811067ffffffffffffffff82111715612941576129406128ea565b5b80604052505050565b60006129546128a0565b90506129608282612919565b919050565b600067ffffffffffffffff8211156129805761297f6128ea565b5b6129898261271a565b9050602081019050919050565b82818337600083830152505050565b60006129b86129b384612965565b61294a565b9050828152602081018484840111156129d4576129d36128e5565b5b6129df848285612996565b509392505050565b600082601f8301126129fc576129fb6128e0565b5b8135612a0c8482602086016129a5565b91505092915050565b60008060408385031215612a2c57612a2b6128aa565b5b6000612a3a858286016128cb565b925050602083013567ffffffffffffffff811115612a5b57612a5a6128af565b5b612a67858286016129e7565b9150509250929050565b600073ffffffffffffffffffffffffffffffffffffffff82169050919050565b6000612a9c82612a71565b9050919050565b612aac81612a91565b8114612ab757600080fd5b50565b600081359050612ac981612aa3565b92915050565b600060208284031215612ae557612ae46128aa565b5b6000612af384828501612aba565b91505092915050565b612b05816126bb565b82525050565b6000602082019050612b206000830184612afc565b92915050565b600060208284031215612b3c57612b3b6128aa565b5b6000612b4a848285016128cb565b91505092915050565b6000606083016000830151612b6b60008601826126c5565b506020830151612b7e60208601826126c5565b5060408301518482036040860152612b96828261272b565b9150508091505092915050565b60006020820190508181036000830152612bbd8184612b53565b905092915050565b60008060408385031215612bdc57612bdb6128aa565b5b6000612bea858286016128cb565b9250506020612bfb858286016128cb565b9150509250929050565b600082825260208201905092915050565b6000612c21826126d4565b612c2b8185612c05565b9350612c3b8185602086016126f0565b612c448161271a565b840191505092915050565b6000606082019050612c646000830186612afc565b612c716020830185612afc565b8181036040830152612c838184612c16565b9050949350505050565b600081519050919050565b600082825260208201905092915050565b6000819050602082019050919050565b6000606083016000830151612cd160008601826126c5565b506020830151612ce460208601826126c5565b5060408301518482036040860152612cfc828261272b565b9150508091505092915050565b6000612d158383612cb9565b905092915050565b6000602082019050919050565b6000612d3582612c8d565b612d3f8185612c98565b935083602082028501612d5185612ca9565b8060005b85811015612d8d5784840389528151612d6e8582612d09565b9450612d7983612d1d565b925060208a01995050600181019050612d55565b50829750879550505050505092915050565b60006020820190508181036000830152612db98184612d2a565b905092915050565b600060a083016000830151612dd960008601826126c5565b506020830151612dec60208601826126c5565b5060408301518482036040860152612e04828261272b565b91505060608301518482036060860152612e1e828261272b565b91505060808301518482036080860152612e38828261272b565b9150508091505092915050565b60006020820190508181036000830152612e5f8184612dc1565b905092915050565b600060a082019050612e7c6000830188612afc565b612e896020830187612afc565b8181036040830152612e9b8186612c16565b90508181036060830152612eaf8185612c16565b90508181036080830152612ec38184612c16565b90509695505050505050565b612ed881612a91565b82525050565b6000602082019050612ef36000830184612ecf565b92915050565b600081519050919050565b600082825260208201905092915050565b6000819050602082019050919050565b600060a083016000830151612f3d60008601826126c5565b506020830151612f5060208601826126c5565b5060408301518482036040860152612f68828261272b565b91505060608301518482036060860152612f82828261272b565b91505060808301518482036080860152612f9c828261272b565b9150508091505092915050565b6000612fb58383612f25565b905092915050565b6000602082019050919050565b6000612fd582612ef9565b612fdf8185612f04565b935083602082028501612ff185612f15565b8060005b8581101561302d578484038952815161300e8582612fa9565b945061301983612fbd565b925060208a01995050600181019050612ff5565b50829750879550505050505092915050565b600060208201905081810360008301526130598184612fca565b905092915050565b600060a08301600083015161307960008601826126c5565b50602083015161308c60208601826126c5565b50604083015184820360408601526130a4828261272b565b915050606083015184820360608601526130be828261272b565b915050608083015184820360808601526130d8828261272b565b9150508091505092915050565b600060208201905081810360008301526130ff8184613061565b905092915050565b6000806040838503121561311e5761311d6128aa565b5b600061312c85828601612aba565b925050602061313d858286016128cb565b9150509250929050565b60008060008060808587031215613161576131606128aa565b5b600061316f878288016128cb565b945050602085013567ffffffffffffffff8111156131905761318f6128af565b5b61319c878288016129e7565b935050604085013567ffffffffffffffff8111156131bd576131bc6128af565b5b6131c9878288016129e7565b925050606085013567ffffffffffffffff8111156131ea576131e96128af565b5b6131f6878288016129e7565b91505092959194509250565b7f4e487b7100000000000000000000000000000000000000000000000000000000600052602260045260246000fd5b6000600282049050600182168061324957607f821691505b60208210810361325c5761325b613202565b5b50919050565b7f596f7520617265206e6f7420746865206f776e6572206f66207468697320636f60008201527f7700000000000000000000000000000000000000000000000000000000000000602082015250565b60006132be602183612c05565b91506132c982613262565b604082019050919050565b600060208201905081810360008301526132ed816132b1565b9050919050565b7f4e487b7100000000000000000000000000000000000000000000000000000000600052601160045260246000fd5b600061332e826126bb565b91507fffffffffffffffffffffffffffffffffffffffffffffffffffffffffffffffff82036133605761335f6132f4565b5b600182019050919050565b60008190508160005260206000209050919050565b60006020601f8301049050919050565b600082821b905092915050565b6000600883026133cd7fffffffffffffffffffffffffffffffffffffffffffffffffffffffffffffffff82613390565b6133d78683613390565b95508019841693508086168417925050509392505050565b6000819050919050565b600061341461340f61340a846126bb565b6133ef565b6126bb565b9050919050565b6000819050919050565b61342e836133f9565b61344261343a8261341b565b84845461339d565b825550505050565b600090565b61345761344a565b613462818484613425565b505050565b5b818110156134865761347b60008261344f565b600181019050613468565b5050565b601f8211156134cb5761349c8161336b565b6134a584613380565b810160208510156134b4578190505b6134c86134c085613380565b830182613467565b50505b505050565b600082821c905092915050565b60006134ee600019846008026134d0565b1980831691505092915050565b600061350783836134dd565b9150826002028217905092915050565b613520826126d4565b67ffffffffffffffff811115613539576135386128ea565b5b6135438254613231565b61354e82828561348a565b600060209050601f831160018114613581576000841561356f578287015190505b61357985826134fb565b8655506135e1565b601f19841661358f8661336b565b60005b828110156135b757848901518255600182019150602085019450602081019050613592565b868310156135d457848901516135d0601f8916826134dd565b8355505b6001600288020188555050505b505050505050565b7f4e487b7100000000000000000000000000000000000000000000000000000000600052603260045260246000fd5b7f4d696c6b206e6f7420666f756e64210000000000000000000000000000000000600082015250565b600061364e600f83612c05565b915061365982613618565b602082019050919050565b6000602082019050818103600083015261367d81613641565b9050919050565b7f436f77206e6f7420666f756e6421000000000000000000000000000000000000600082015250565b60006136ba600e83612c05565b91506136c582613684565b602082019050919050565b600060208201905081810360008301526136e9816136ad565b9050919050565b7f50726f64756374206e6f7420666f756e64210000000000000000000000000000600082015250565b6000613726601283612c05565b9150613731826136f0565b602082019050919050565b6000602082019050818103600083015261375581613719565b905091905056fea26469706673582212201292a1ae6158cf9b44a6de2d171fe1a43bd88cdf205f21e77baa87c908d837a064736f6c63430008130033",
  "immutableReferences": {},
  "source": "pragma solidity ^0.8.17;\r\n\r\ncontract MilkFactory {\r\n\r\n    struct Dairy {\r\n        address dairyAddress;\r\n        string dairyName;\r\n        string dairyPlace;\r\n    }\r\n\r\n    struct Cow {\r\n        uint256 id;\r\n        uint256 weight;\r\n        string breed;\r\n        string birthDate;\r\n        string residence;\r\n    }\r\n\r\n    struct Milk {\r\n        uint256 id;\r\n        uint256 cowId;\r\n        string dateOfProduction;\r\n    }\r\n\r\n    struct Product { //Should add more info about product \r\n        uint256 id;\r\n        uint256 milkId;\r\n        string dateOfProduction;\r\n        string productType;\r\n        string expiryDate;\r\n    }\r\n\r\n    //constructor() {\r\n    //    owner = msg.sender;\r\n    //}\r\n\r\n    modifier onlyOwnerOf(uint256 _cowId) {\r\n        require(cowToOwner[_cowId] == msg.sender, \"You are not the owner of this cow\");\r\n        _;\r\n    }\r\n    \r\n    uint256 public cowCount = 0;\r\n    uint256 public milkCount = 0;\r\n    uint256 public productCount = 0;\r\n\r\n    event ProductAdded(uint256 productId);\r\n\r\n    Cow[] public cowList;\r\n    Milk[] public milkList;\r\n    Product[] public productList;\r\n\r\n    mapping(uint256 => address) public cowToOwner;\r\n    mapping(uint256 => uint256) public milkToCow;\r\n    mapping(address => uint256) public ownerMilkCount;\r\n    mapping(address => Cow[]) public ownerToCowList;\r\n    mapping(uint256 => Milk[]) public cowToMilkList;\r\n    mapping(uint256 => Product[]) public milkToProductList;\r\n    mapping(address => Milk[]) public ownerToMilk;\r\n    //mapping(uint256 => uint256) public milkToCow;\r\n\r\n\r\n    function addCow(uint256 _weight, string memory _breed, string memory _birthDate, string memory _residence) public {\r\n        Cow memory myCow = Cow(cowCount, _weight, _breed, _birthDate, _residence);\r\n        cowList.push(myCow);\r\n        //Increase cow count that is used as id\r\n        cowCount++;\r\n        cowToOwner[myCow.id] = msg.sender;\r\n        ownerToCowList[msg.sender].push(myCow);\r\n    }\r\n    \r\n    function addMilk(uint256 _cowId, string memory _dateOfProduction) public onlyOwnerOf(_cowId) {\r\n        //Check if cow exists\r\n        Milk memory myMilk = Milk(milkCount, _cowId, _dateOfProduction);\r\n        milkCount++;\r\n        milkList.push(myMilk);\r\n        cowToMilkList[_cowId].push(myMilk);\r\n        milkToCow[myMilk.id] = _cowId;\r\n        ownerMilkCount[msg.sender]++; \r\n        ownerToMilk[msg.sender].push(myMilk);\r\n    }\r\n    \r\n    function addProduct(uint256 _milkId, string memory _dateOfProduction, string memory _productType, string memory _expiryDate) public  onlyOwnerOf(milkToCow[_milkId]) {\r\n        //Check if milk exists\r\n        Product memory  myProduct = Product( productCount, _milkId, _dateOfProduction, _productType, _expiryDate);\r\n        productList.push(myProduct);\r\n        milkToProductList[_milkId].push(myProduct);\r\n        emit ProductAdded(productCount);\r\n        productCount++;  \r\n    }\r\n\r\n    function getAllCows() public view returns(Cow[] memory) {\r\n        return cowList;\r\n    }\r\n\r\n    function getCowsOfOwner() public view returns(Cow[] memory) {\r\n        return ownerToCowList[msg.sender];\r\n    }\r\n    \r\n    function getAllMilks() public view returns(Milk[] memory) {\r\n        return milkList;\r\n    }\r\n\r\n\r\n    //TODO: Alternative to for is to create a mapping user->milk[] ?\r\n    function getMilksOfOwner() public view returns (Milk[] memory) {\r\n        return ownerToMilk[msg.sender];    \r\n    }\r\n\r\n    \r\n\r\n    function getAllProducts() public view returns(Product[] memory) {\r\n        return productList;\r\n    }\r\n\r\n    function getProduct(uint256 _productId) public view returns(Product memory) {\r\n        for(uint i=0; i < productList.length; i++) { \r\n            if(productList[i].id == _productId) {\r\n                return productList[i];\r\n            }\r\n        }\r\n        revert(\"Product not found!\"); //Undo, return value, give back gas \r\n    }\r\n\r\n    function getMilk(uint256 _milkId) public view returns(Milk memory) {\r\n        for(uint i=0; i < milkList.length; i++) { \r\n            if(milkList[i].id == _milkId) {\r\n                return milkList[i];\r\n            }\r\n        }\r\n        revert(\"Milk not found!\"); //Undo, return value, give back gas \r\n    }\r\n\r\n    function getCow(uint256 _cowId) public view returns(Cow memory) {\r\n        for(uint i=0; i < cowList.length; i++) { \r\n            if(cowList[i].id == _cowId) {\r\n                return cowList[i];\r\n            }\r\n        }\r\n        revert(\"Cow not found!\"); //Undo, return value, give back gas \r\n    }\r\n}",
  "sourcePath": "C:\\Users\\tomas\\Desktop\\Blockchain-Project\\blockchain\\contracts\\MilkFactory.sol",
  "compiler": {
    "name": "solc",
    "version": "0.8.19+commit.7dd6d404.Emscripten.clang"
  },
  "schemaVersion": "3.4.13",
  "updatedAt": "2023-07-04T09:46:42.496Z",
  "networkType": "ethereum",
  "devdoc": {
    "kind": "dev",
    "methods": {},
    "version": 1
  },
  "userdoc": {
    "kind": "user",
    "methods": {},
    "version": 1
  }
}