{
  "contractName": "MilkFactory",
  "abi": [
    {
      "anonymous": false,
      "inputs": [
        {
          "indexed": false,
          "internalType": "string",
          "name": "message",
          "type": "string"
        }
      ],
      "name": "LogMessage",
      "type": "event"
    },
    {
      "anonymous": false,
      "inputs": [
        {
          "indexed": false,
          "internalType": "uint256",
          "name": "productId",
          "type": "uint256"
        }
      ],
      "name": "ProductAdded",
      "type": "event"
    },
    {
      "anonymous": false,
      "inputs": [
        {
          "indexed": false,
          "internalType": "uint256",
          "name": "productId",
          "type": "uint256"
        }
      ],
      "name": "SpoiledProduct",
      "type": "event"
    },
    {
      "inputs": [],
      "name": "cowCount",
      "outputs": [
        {
          "internalType": "uint256",
          "name": "",
          "type": "uint256"
        }
      ],
      "stateMutability": "view",
      "type": "function",
      "constant": true
    },
    {
      "inputs": [
        {
          "internalType": "uint256",
          "name": "",
          "type": "uint256"
        }
      ],
      "name": "cowList",
      "outputs": [
        {
          "internalType": "uint256",
          "name": "id",
          "type": "uint256"
        },
        {
          "internalType": "uint16",
          "name": "weight",
          "type": "uint16"
        },
        {
          "internalType": "string",
          "name": "breed",
          "type": "string"
        },
        {
          "internalType": "string",
          "name": "birthDate",
          "type": "string"
        },
        {
          "internalType": "string",
          "name": "residence",
          "type": "string"
        }
      ],
      "stateMutability": "view",
      "type": "function",
      "constant": true
    },
    {
      "inputs": [
        {
          "internalType": "uint256",
          "name": "",
          "type": "uint256"
        },
        {
          "internalType": "uint256",
          "name": "",
          "type": "uint256"
        }
      ],
      "name": "cowToMilkList",
      "outputs": [
        {
          "internalType": "uint256",
          "name": "id",
          "type": "uint256"
        },
        {
          "internalType": "uint256",
          "name": "cowId",
          "type": "uint256"
        },
        {
          "internalType": "string",
          "name": "dateOfProduction",
          "type": "string"
        }
      ],
      "stateMutability": "view",
      "type": "function",
      "constant": true
    },
    {
      "inputs": [
        {
          "internalType": "uint256",
          "name": "",
          "type": "uint256"
        }
      ],
      "name": "cowToOwner",
      "outputs": [
        {
          "internalType": "address",
          "name": "",
          "type": "address"
        }
      ],
      "stateMutability": "view",
      "type": "function",
      "constant": true
    },
    {
      "inputs": [
        {
          "internalType": "uint256",
          "name": "",
          "type": "uint256"
        }
      ],
      "name": "deathCows",
      "outputs": [
        {
          "internalType": "bool",
          "name": "",
          "type": "bool"
        }
      ],
      "stateMutability": "view",
      "type": "function",
      "constant": true
    },
    {
      "inputs": [],
      "name": "milkCount",
      "outputs": [
        {
          "internalType": "uint256",
          "name": "",
          "type": "uint256"
        }
      ],
      "stateMutability": "view",
      "type": "function",
      "constant": true
    },
    {
      "inputs": [
        {
          "internalType": "uint256",
          "name": "",
          "type": "uint256"
        }
      ],
      "name": "milkList",
      "outputs": [
        {
          "internalType": "uint256",
          "name": "id",
          "type": "uint256"
        },
        {
          "internalType": "uint256",
          "name": "cowId",
          "type": "uint256"
        },
        {
          "internalType": "string",
          "name": "dateOfProduction",
          "type": "string"
        }
      ],
      "stateMutability": "view",
      "type": "function",
      "constant": true
    },
    {
      "inputs": [
        {
          "internalType": "uint256",
          "name": "",
          "type": "uint256"
        }
      ],
      "name": "milkToCow",
      "outputs": [
        {
          "internalType": "uint256",
          "name": "",
          "type": "uint256"
        }
      ],
      "stateMutability": "view",
      "type": "function",
      "constant": true
    },
    {
      "inputs": [
        {
          "internalType": "uint256",
          "name": "",
          "type": "uint256"
        },
        {
          "internalType": "uint256",
          "name": "",
          "type": "uint256"
        }
      ],
      "name": "milkToProductList",
      "outputs": [
        {
          "internalType": "uint256",
          "name": "id",
          "type": "uint256"
        },
        {
          "internalType": "uint256",
          "name": "milkId",
          "type": "uint256"
        },
        {
          "internalType": "string",
          "name": "dateOfProduction",
          "type": "string"
        },
        {
          "internalType": "string",
          "name": "productType",
          "type": "string"
        },
        {
          "internalType": "string",
          "name": "expiryDate",
          "type": "string"
        }
      ],
      "stateMutability": "view",
      "type": "function",
      "constant": true
    },
    {
      "inputs": [
        {
          "internalType": "address",
          "name": "",
          "type": "address"
        }
      ],
      "name": "ownerMilkCount",
      "outputs": [
        {
          "internalType": "uint256",
          "name": "",
          "type": "uint256"
        }
      ],
      "stateMutability": "view",
      "type": "function",
      "constant": true
    },
    {
      "inputs": [
        {
          "internalType": "address",
          "name": "",
          "type": "address"
        },
        {
          "internalType": "uint256",
          "name": "",
          "type": "uint256"
        }
      ],
      "name": "ownerToCowList",
      "outputs": [
        {
          "internalType": "uint256",
          "name": "id",
          "type": "uint256"
        },
        {
          "internalType": "uint16",
          "name": "weight",
          "type": "uint16"
        },
        {
          "internalType": "string",
          "name": "breed",
          "type": "string"
        },
        {
          "internalType": "string",
          "name": "birthDate",
          "type": "string"
        },
        {
          "internalType": "string",
          "name": "residence",
          "type": "string"
        }
      ],
      "stateMutability": "view",
      "type": "function",
      "constant": true
    },
    {
      "inputs": [
        {
          "internalType": "address",
          "name": "",
          "type": "address"
        },
        {
          "internalType": "uint256",
          "name": "",
          "type": "uint256"
        }
      ],
      "name": "ownerToMilk",
      "outputs": [
        {
          "internalType": "uint256",
          "name": "id",
          "type": "uint256"
        },
        {
          "internalType": "uint256",
          "name": "cowId",
          "type": "uint256"
        },
        {
          "internalType": "string",
          "name": "dateOfProduction",
          "type": "string"
        }
      ],
      "stateMutability": "view",
      "type": "function",
      "constant": true
    },
    {
      "inputs": [],
      "name": "productCount",
      "outputs": [
        {
          "internalType": "uint256",
          "name": "",
          "type": "uint256"
        }
      ],
      "stateMutability": "view",
      "type": "function",
      "constant": true
    },
    {
      "inputs": [
        {
          "internalType": "uint256",
          "name": "",
          "type": "uint256"
        }
      ],
      "name": "productList",
      "outputs": [
        {
          "internalType": "uint256",
          "name": "id",
          "type": "uint256"
        },
        {
          "internalType": "uint256",
          "name": "milkId",
          "type": "uint256"
        },
        {
          "internalType": "string",
          "name": "dateOfProduction",
          "type": "string"
        },
        {
          "internalType": "string",
          "name": "productType",
          "type": "string"
        },
        {
          "internalType": "string",
          "name": "expiryDate",
          "type": "string"
        }
      ],
      "stateMutability": "view",
      "type": "function",
      "constant": true
    },
    {
      "inputs": [
        {
          "internalType": "uint256",
          "name": "",
          "type": "uint256"
        }
      ],
      "name": "spoiledMilks",
      "outputs": [
        {
          "internalType": "bool",
          "name": "",
          "type": "bool"
        }
      ],
      "stateMutability": "view",
      "type": "function",
      "constant": true
    },
    {
      "inputs": [
        {
          "internalType": "uint256",
          "name": "_cowId",
          "type": "uint256"
        },
        {
          "internalType": "address",
          "name": "_newOwner",
          "type": "address"
        }
      ],
      "name": "transferCow",
      "outputs": [],
      "stateMutability": "nonpayable",
      "type": "function"
    },
    {
      "inputs": [
        {
          "internalType": "uint16",
          "name": "_weight",
          "type": "uint16"
        },
        {
          "internalType": "string",
          "name": "_breed",
          "type": "string"
        },
        {
          "internalType": "string",
          "name": "_birthDate",
          "type": "string"
        },
        {
          "internalType": "string",
          "name": "_residence",
          "type": "string"
        }
      ],
      "name": "addCow",
      "outputs": [],
      "stateMutability": "nonpayable",
      "type": "function"
    },
    {
      "inputs": [
        {
          "internalType": "uint256",
          "name": "_cowId",
          "type": "uint256"
        },
        {
          "internalType": "string",
          "name": "_dateOfProduction",
          "type": "string"
        }
      ],
      "name": "addMilk",
      "outputs": [],
      "stateMutability": "nonpayable",
      "type": "function"
    },
    {
      "inputs": [
        {
          "internalType": "uint256",
          "name": "_milkId",
          "type": "uint256"
        },
        {
          "internalType": "string",
          "name": "_dateOfProduction",
          "type": "string"
        },
        {
          "internalType": "string",
          "name": "_productType",
          "type": "string"
        },
        {
          "internalType": "string",
          "name": "_expiryDate",
          "type": "string"
        }
      ],
      "name": "addProduct",
      "outputs": [],
      "stateMutability": "nonpayable",
      "type": "function"
    },
    {
      "inputs": [
        {
          "internalType": "uint256",
          "name": "_cowId",
          "type": "uint256"
        }
      ],
      "name": "killCow",
      "outputs": [],
      "stateMutability": "nonpayable",
      "type": "function"
    },
    {
      "inputs": [],
      "name": "getAllCows",
      "outputs": [
        {
          "components": [
            {
              "internalType": "uint256",
              "name": "id",
              "type": "uint256"
            },
            {
              "internalType": "uint16",
              "name": "weight",
              "type": "uint16"
            },
            {
              "internalType": "string",
              "name": "breed",
              "type": "string"
            },
            {
              "internalType": "string",
              "name": "birthDate",
              "type": "string"
            },
            {
              "internalType": "string",
              "name": "residence",
              "type": "string"
            }
          ],
          "internalType": "struct MilkFactory.Cow[]",
          "name": "",
          "type": "tuple[]"
        }
      ],
      "stateMutability": "view",
      "type": "function",
      "constant": true
    },
    {
      "inputs": [],
      "name": "getCowsOfOwner",
      "outputs": [
        {
          "components": [
            {
              "internalType": "uint256",
              "name": "id",
              "type": "uint256"
            },
            {
              "internalType": "uint16",
              "name": "weight",
              "type": "uint16"
            },
            {
              "internalType": "string",
              "name": "breed",
              "type": "string"
            },
            {
              "internalType": "string",
              "name": "birthDate",
              "type": "string"
            },
            {
              "internalType": "string",
              "name": "residence",
              "type": "string"
            }
          ],
          "internalType": "struct MilkFactory.Cow[]",
          "name": "",
          "type": "tuple[]"
        }
      ],
      "stateMutability": "view",
      "type": "function",
      "constant": true
    },
    {
      "inputs": [],
      "name": "getAliveCowsOfOwner",
      "outputs": [
        {
          "components": [
            {
              "internalType": "uint256",
              "name": "id",
              "type": "uint256"
            },
            {
              "internalType": "uint16",
              "name": "weight",
              "type": "uint16"
            },
            {
              "internalType": "string",
              "name": "breed",
              "type": "string"
            },
            {
              "internalType": "string",
              "name": "birthDate",
              "type": "string"
            },
            {
              "internalType": "string",
              "name": "residence",
              "type": "string"
            }
          ],
          "internalType": "struct MilkFactory.Cow[]",
          "name": "",
          "type": "tuple[]"
        }
      ],
      "stateMutability": "view",
      "type": "function",
      "constant": true
    },
    {
      "inputs": [],
      "name": "getAllMilks",
      "outputs": [
        {
          "components": [
            {
              "internalType": "uint256",
              "name": "id",
              "type": "uint256"
            },
            {
              "internalType": "uint256",
              "name": "cowId",
              "type": "uint256"
            },
            {
              "internalType": "string",
              "name": "dateOfProduction",
              "type": "string"
            }
          ],
          "internalType": "struct MilkFactory.Milk[]",
          "name": "",
          "type": "tuple[]"
        }
      ],
      "stateMutability": "view",
      "type": "function",
      "constant": true
    },
    {
      "inputs": [],
      "name": "getMilksOfOwner",
      "outputs": [
        {
          "components": [
            {
              "internalType": "uint256",
              "name": "id",
              "type": "uint256"
            },
            {
              "internalType": "uint256",
              "name": "cowId",
              "type": "uint256"
            },
            {
              "internalType": "string",
              "name": "dateOfProduction",
              "type": "string"
            }
          ],
          "internalType": "struct MilkFactory.Milk[]",
          "name": "",
          "type": "tuple[]"
        }
      ],
      "stateMutability": "view",
      "type": "function",
      "constant": true
    },
    {
      "inputs": [
        {
          "internalType": "uint256",
          "name": "_productId",
          "type": "uint256"
        }
      ],
      "name": "reportSpoiledProduct",
      "outputs": [],
      "stateMutability": "nonpayable",
      "type": "function"
    },
    {
      "inputs": [],
      "name": "getAllProducts",
      "outputs": [
        {
          "components": [
            {
              "internalType": "uint256",
              "name": "id",
              "type": "uint256"
            },
            {
              "internalType": "uint256",
              "name": "milkId",
              "type": "uint256"
            },
            {
              "internalType": "string",
              "name": "dateOfProduction",
              "type": "string"
            },
            {
              "internalType": "string",
              "name": "productType",
              "type": "string"
            },
            {
              "internalType": "string",
              "name": "expiryDate",
              "type": "string"
            }
          ],
          "internalType": "struct MilkFactory.Product[]",
          "name": "",
          "type": "tuple[]"
        }
      ],
      "stateMutability": "view",
      "type": "function",
      "constant": true
    },
    {
      "inputs": [
        {
          "internalType": "uint256",
          "name": "_productId",
          "type": "uint256"
        }
      ],
      "name": "getProduct",
      "outputs": [
        {
          "components": [
            {
              "internalType": "uint256",
              "name": "id",
              "type": "uint256"
            },
            {
              "internalType": "uint256",
              "name": "milkId",
              "type": "uint256"
            },
            {
              "internalType": "string",
              "name": "dateOfProduction",
              "type": "string"
            },
            {
              "internalType": "string",
              "name": "productType",
              "type": "string"
            },
            {
              "internalType": "string",
              "name": "expiryDate",
              "type": "string"
            }
          ],
          "internalType": "struct MilkFactory.Product",
          "name": "",
          "type": "tuple"
        }
      ],
      "stateMutability": "view",
      "type": "function",
      "constant": true
    },
    {
      "inputs": [
        {
          "internalType": "uint256",
          "name": "_milkId",
          "type": "uint256"
        }
      ],
      "name": "isMilkSpoiled",
      "outputs": [
        {
          "internalType": "bool",
          "name": "",
          "type": "bool"
        }
      ],
      "stateMutability": "view",
      "type": "function",
      "constant": true
    },
    {
      "inputs": [
        {
          "internalType": "uint256",
          "name": "_milkId",
          "type": "uint256"
        }
      ],
      "name": "getMilk",
      "outputs": [
        {
          "components": [
            {
              "internalType": "uint256",
              "name": "id",
              "type": "uint256"
            },
            {
              "internalType": "uint256",
              "name": "cowId",
              "type": "uint256"
            },
            {
              "internalType": "string",
              "name": "dateOfProduction",
              "type": "string"
            }
          ],
          "internalType": "struct MilkFactory.Milk",
          "name": "",
          "type": "tuple"
        }
      ],
      "stateMutability": "view",
      "type": "function",
      "constant": true
    },
    {
      "inputs": [
        {
          "internalType": "uint256",
          "name": "_cowId",
          "type": "uint256"
        }
      ],
      "name": "getCow",
      "outputs": [
        {
          "components": [
            {
              "internalType": "uint256",
              "name": "id",
              "type": "uint256"
            },
            {
              "internalType": "uint16",
              "name": "weight",
              "type": "uint16"
            },
            {
              "internalType": "string",
              "name": "breed",
              "type": "string"
            },
            {
              "internalType": "string",
              "name": "birthDate",
              "type": "string"
            },
            {
              "internalType": "string",
              "name": "residence",
              "type": "string"
            }
          ],
          "internalType": "struct MilkFactory.Cow",
          "name": "",
          "type": "tuple"
        }
      ],
      "stateMutability": "view",
      "type": "function",
      "constant": true
    }
  ],
  "bytecode": "0x6080604052600080556000600155600060025534801561001e57600080fd5b506145ec8061002e6000396000f3fe608060405234801561001057600080fd5b50600436106101e55760003560e01c80637ba3372d1161010f578063b9db15b4116100a2578063cb7cdaad11610071578063cb7cdaad1461062a578063e0f6ef871461065e578063edb5a4571461067c578063ef2670f11461069a576101e5565b8063b9db15b414610578578063b9f9fbfe146105a8578063beda38f5146105da578063c1393d271461060e576101e5565b80639fd1fef4116100de5780639fd1fef4146104de578063ae81394c1461050e578063b3597a221461053e578063b6f7ea8a1461055a576101e5565b80637ba3372d146104525780638d15b01f146104865780638de6e5f1146104a2578063927fb4de146104c0576101e5565b8063329bcfa511610187578063528c87d211610156578063528c87d2146103a25780635515d0f6146103d657806365db2d58146104065780636c46f2a014610422576101e5565b8063329bcfa51461031857806334df9b6014610336578063449794dc146103665780634a71bd2a14610384576101e5565b80630f926aeb116101c35780630f926aeb14610254578063184e9c2d146102845780631dc2c408146102b45780632bd6ccc8146102e6576101e5565b806302ee3a52146101ea57806308f0eb531461020857806309e88f4514610224575b600080fd5b6101f26106b6565b6040516101ff919061347b565b60405180910390f35b610222600480360381019061021d9190613612565b6108df565b005b61023e6004803603810190610239919061366e565b610bb5565b60405161024b91906136b6565b60405180910390f35b61026e6004803603810190610269919061372f565b610bd5565b60405161027b919061376b565b60405180910390f35b61029e6004803603810190610299919061366e565b610bed565b6040516102ab91906137d6565b60405180910390f35b6102ce60048036038101906102c991906137f8565b610d60565b6040516102dd93929190613882565b60405180910390f35b61030060048036038101906102fb919061366e565b610e2f565b60405161030f93929190613882565b60405180910390f35b610320610ef1565b60405161032d91906139d2565b60405180910390f35b610350600480360381019061034b919061366e565b610ff6565b60405161035d9190613a95565b60405180910390f35b61036e6112a3565b60405161037b9190613bfd565b60405180910390f35b61038c6116ad565b60405161039991906139d2565b60405180910390f35b6103bc60048036038101906103b7919061366e565b6117ef565b6040516103cd959493929190613c1f565b60405180910390f35b6103f060048036038101906103eb919061366e565b6119cd565b6040516103fd9190613c96565b60405180910390f35b610420600480360381019061041b9190613cdd565b611a00565b005b61043c6004803603810190610437919061366e565b611c1c565b604051610449919061376b565b60405180910390f35b61046c600480360381019061046791906137f8565b611c34565b60405161047d959493929190613c1f565b60405180910390f35b6104a0600480360381019061049b9190613d98565b611e1f565b005b6104aa6121e3565b6040516104b7919061376b565b60405180910390f35b6104c86121e9565b6040516104d59190613bfd565b60405180910390f35b6104f860048036038101906104f3919061366e565b612428565b60405161050591906136b6565b60405180910390f35b6105286004803603810190610523919061366e565b612448565b60405161053591906136b6565b60405180910390f35b6105586004803603810190610553919061366e565b612472565b005b610562612544565b60405161056f9190613bfd565b60405180910390f35b610592600480360381019061058d919061366e565b6127c0565b60405161059f9190613e5c565b60405180910390f35b6105c260048036038101906105bd9190613e7e565b612a57565b6040516105d193929190613882565b60405180910390f35b6105f460048036038101906105ef9190613e7e565b612b26565b604051610605959493929190613ecd565b60405180910390f35b61062860048036038101906106239190613f35565b612d1f565b005b610644600480360381019061063f919061366e565b612f73565b604051610655959493929190613ecd565b60405180910390f35b61066661315f565b604051610673919061376b565b60405180910390f35b610684613165565b604051610691919061376b565b60405180910390f35b6106b460048036038101906106af919061366e565b61316b565b005b60606005805480602002602001604051908101604052809291908181526020016000905b828210156108d657838290600052602060002090600502016040518060a001604052908160008201548152602001600182015481526020016002820180546107219061401f565b80601f016020809104026020016040519081016040528092919081815260200182805461074d9061401f565b801561079a5780601f1061076f5761010080835404028352916020019161079a565b820191906000526020600020905b81548152906001019060200180831161077d57829003601f168201915b505050505081526020016003820180546107b39061401f565b80601f01602080910402602001604051908101604052809291908181526020018280546107df9061401f565b801561082c5780601f106108015761010080835404028352916020019161082c565b820191906000526020600020905b81548152906001019060200180831161080f57829003601f168201915b505050505081526020016004820180546108459061401f565b80601f01602080910402602001604051908101604052809291908181526020018280546108719061401f565b80156108be5780601f10610893576101008083540402835291602001916108be565b820191906000526020600020905b8154815290600101906020018083116108a157829003601f168201915b505050505081525050815260200190600101906106da565b50505050905090565b813373ffffffffffffffffffffffffffffffffffffffff166006600083815260200190815260200160002060009054906101000a900473ffffffffffffffffffffffffffffffffffffffff1673ffffffffffffffffffffffffffffffffffffffff1614610981576040517f08c379a0000000000000000000000000000000000000000000000000000000008152600401610978906140c2565b60405180910390fd5b6000604051806060016040528060015481526020018581526020018481525090506000600d6000600154815260200190815260200160002060006101000a81548160ff021916908315150217905550600481908060018154018082558091505060019003906000526020600020906003020160009091909190915060008201518160000155602082015181600101556040820151816002019081610a25919061428e565b50505060016000815480929190610a3b9061438f565b9190505550600a600085815260200190815260200160002081908060018154018082558091505060019003906000526020600020906003020160009091909190915060008201518160000155602082015181600101556040820151816002019081610aa6919061428e565b50505083600760008360000151815260200190815260200160002081905550600860003373ffffffffffffffffffffffffffffffffffffffff1673ffffffffffffffffffffffffffffffffffffffff1681526020019081526020016000206000815480929190610b159061438f565b9190505550600c60003373ffffffffffffffffffffffffffffffffffffffff1673ffffffffffffffffffffffffffffffffffffffff16815260200190815260200160002081908060018154018082558091505060019003906000526020600020906003020160009091909190915060008201518160000155602082015181600101556040820151816002019081610bac919061428e565b50505050505050565b600d6020528060005260406000206000915054906101000a900460ff1681565b60086020528060005260406000206000915090505481565b610bf56131ac565b60005b600480549050811015610d1f578260048281548110610c1a57610c196143d7565b5b90600052602060002090600302016000015403610d0c5760048181548110610c4557610c446143d7565b5b90600052602060002090600302016040518060600160405290816000820154815260200160018201548152602001600282018054610c829061401f565b80601f0160208091040260200160405190810160405280929190818152602001828054610cae9061401f565b8015610cfb5780601f10610cd057610100808354040283529160200191610cfb565b820191906000526020600020905b815481529060010190602001808311610cde57829003601f168201915b505050505081525050915050610d5b565b8080610d179061438f565b915050610bf8565b506040517f08c379a0000000000000000000000000000000000000000000000000000000008152600401610d5290614452565b60405180910390fd5b919050565b600a6020528160005260406000208181548110610d7c57600080fd5b906000526020600020906003020160009150915050806000015490806001015490806002018054610dac9061401f565b80601f0160208091040260200160405190810160405280929190818152602001828054610dd89061401f565b8015610e255780601f10610dfa57610100808354040283529160200191610e25565b820191906000526020600020905b815481529060010190602001808311610e0857829003601f168201915b5050505050905083565b60048181548110610e3f57600080fd5b9060005260206000209060030201600091509050806000015490806001015490806002018054610e6e9061401f565b80601f0160208091040260200160405190810160405280929190818152602001828054610e9a9061401f565b8015610ee75780601f10610ebc57610100808354040283529160200191610ee7565b820191906000526020600020905b815481529060010190602001808311610eca57829003601f168201915b5050505050905083565b60606004805480602002602001604051908101604052809291908181526020016000905b82821015610fed57838290600052602060002090600302016040518060600160405290816000820154815260200160018201548152602001600282018054610f5c9061401f565b80601f0160208091040260200160405190810160405280929190818152602001828054610f889061401f565b8015610fd55780601f10610faa57610100808354040283529160200191610fd5565b820191906000526020600020905b815481529060010190602001808311610fb857829003601f168201915b50505050508152505081526020019060010190610f15565b50505050905090565b610ffe6131cd565b60005b600380549050811015611262578260038281548110611023576110226143d7565b5b9060005260206000209060050201600001540361124f576003818154811061104e5761104d6143d7565b5b90600052602060002090600502016040518060a0016040529081600082015481526020016001820160009054906101000a900461ffff1661ffff1661ffff1681526020016002820180546110a19061401f565b80601f01602080910402602001604051908101604052809291908181526020018280546110cd9061401f565b801561111a5780601f106110ef5761010080835404028352916020019161111a565b820191906000526020600020905b8154815290600101906020018083116110fd57829003601f168201915b505050505081526020016003820180546111339061401f565b80601f016020809104026020016040519081016040528092919081815260200182805461115f9061401f565b80156111ac5780601f10611181576101008083540402835291602001916111ac565b820191906000526020600020905b81548152906001019060200180831161118f57829003601f168201915b505050505081526020016004820180546111c59061401f565b80601f01602080910402602001604051908101604052809291908181526020018280546111f19061401f565b801561123e5780601f106112135761010080835404028352916020019161123e565b820191906000526020600020905b81548152906001019060200180831161122157829003601f168201915b50505050508152505091505061129e565b808061125a9061438f565b915050611001565b506040517f08c379a0000000000000000000000000000000000000000000000000000000008152600401611295906144be565b60405180910390fd5b919050565b60606000600960003373ffffffffffffffffffffffffffffffffffffffff1673ffffffffffffffffffffffffffffffffffffffff168152602001908152602001600020805480602002602001604051908101604052809291908181526020016000905b8282101561151857838290600052602060002090600502016040518060a0016040529081600082015481526020016001820160009054906101000a900461ffff1661ffff1661ffff1681526020016002820180546113639061401f565b80601f016020809104026020016040519081016040528092919081815260200182805461138f9061401f565b80156113dc5780601f106113b1576101008083540402835291602001916113dc565b820191906000526020600020905b8154815290600101906020018083116113bf57829003601f168201915b505050505081526020016003820180546113f59061401f565b80601f01602080910402602001604051908101604052809291908181526020018280546114219061401f565b801561146e5780601f106114435761010080835404028352916020019161146e565b820191906000526020600020905b81548152906001019060200180831161145157829003601f168201915b505050505081526020016004820180546114879061401f565b80601f01602080910402602001604051908101604052809291908181526020018280546114b39061401f565b80156115005780601f106114d557610100808354040283529160200191611500565b820191906000526020600020905b8154815290600101906020018083116114e357829003601f168201915b50505050508152505081526020019060010190611306565b5050505090506000805b82518110156115975760001515600e6000858481518110611546576115456143d7565b5b602002602001015160000151815260200190815260200160002060009054906101000a900460ff161515036115845781806115809061438f565b9250505b808061158f9061438f565b915050611522565b5060008167ffffffffffffffff8111156115b4576115b36134e7565b5b6040519080825280602002602001820160405280156115ed57816020015b6115da6131cd565b8152602001906001900390816115d25790505b5090506000805b84518110156116a25760001515600e6000878481518110611618576116176143d7565b5b602002602001015160000151815260200190815260200160002060009054906101000a900460ff1615150361168f5784818151811061165a576116596143d7565b5b6020026020010151838381518110611675576116746143d7565b5b6020026020010181905250818061168b9061438f565b9250505b808061169a9061438f565b9150506115f4565b508194505050505090565b6060600c60003373ffffffffffffffffffffffffffffffffffffffff1673ffffffffffffffffffffffffffffffffffffffff168152602001908152602001600020805480602002602001604051908101604052809291908181526020016000905b828210156117e6578382906000526020600020906003020160405180606001604052908160008201548152602001600182015481526020016002820180546117559061401f565b80601f01602080910402602001604051908101604052809291908181526020018280546117819061401f565b80156117ce5780601f106117a3576101008083540402835291602001916117ce565b820191906000526020600020905b8154815290600101906020018083116117b157829003601f168201915b5050505050815250508152602001906001019061170e565b50505050905090565b600581815481106117ff57600080fd5b906000526020600020906005020160009150905080600001549080600101549080600201805461182e9061401f565b80601f016020809104026020016040519081016040528092919081815260200182805461185a9061401f565b80156118a75780601f1061187c576101008083540402835291602001916118a7565b820191906000526020600020905b81548152906001019060200180831161188a57829003601f168201915b5050505050908060030180546118bc9061401f565b80601f01602080910402602001604051908101604052809291908181526020018280546118e89061401f565b80156119355780601f1061190a57610100808354040283529160200191611935565b820191906000526020600020905b81548152906001019060200180831161191857829003601f168201915b50505050509080600401805461194a9061401f565b80601f01602080910402602001604051908101604052809291908181526020018280546119769061401f565b80156119c35780601f10611998576101008083540402835291602001916119c3565b820191906000526020600020905b8154815290600101906020018083116119a657829003601f168201915b5050505050905085565b60066020528060005260406000206000915054906101000a900473ffffffffffffffffffffffffffffffffffffffff1681565b60006040518060a0016040528060005481526020018661ffff16815260200185815260200184815260200183815250905060038190806001815401808255809150506001900390600052602060002090600502016000909190919091506000820151816000015560208201518160010160006101000a81548161ffff021916908361ffff1602179055506040820151816002019081611a9f919061428e565b506060820151816003019081611ab5919061428e565b506080820151816004019081611acb919061428e565b505050600080815480929190611ae09061438f565b919050555033600660008360000151815260200190815260200160002060006101000a81548173ffffffffffffffffffffffffffffffffffffffff021916908373ffffffffffffffffffffffffffffffffffffffff160217905550600960003373ffffffffffffffffffffffffffffffffffffffff1673ffffffffffffffffffffffffffffffffffffffff1681526020019081526020016000208190806001815401808255809150506001900390600052602060002090600502016000909190919091506000820151816000015560208201518160010160006101000a81548161ffff021916908361ffff1602179055506040820151816002019081611be6919061428e565b506060820151816003019081611bfc919061428e565b506080820151816004019081611c12919061428e565b5050505050505050565b60076020528060005260406000206000915090505481565b600b6020528160005260406000208181548110611c5057600080fd5b906000526020600020906005020160009150915050806000015490806001015490806002018054611c809061401f565b80601f0160208091040260200160405190810160405280929190818152602001828054611cac9061401f565b8015611cf95780601f10611cce57610100808354040283529160200191611cf9565b820191906000526020600020905b815481529060010190602001808311611cdc57829003601f168201915b505050505090806003018054611d0e9061401f565b80601f0160208091040260200160405190810160405280929190818152602001828054611d3a9061401f565b8015611d875780601f10611d5c57610100808354040283529160200191611d87565b820191906000526020600020905b815481529060010190602001808311611d6a57829003601f168201915b505050505090806004018054611d9c9061401f565b80601f0160208091040260200160405190810160405280929190818152602001828054611dc89061401f565b8015611e155780601f10611dea57610100808354040283529160200191611e15565b820191906000526020600020905b815481529060010190602001808311611df857829003601f168201915b5050505050905085565b813373ffffffffffffffffffffffffffffffffffffffff166006600083815260200190815260200160002060009054906101000a900473ffffffffffffffffffffffffffffffffffffffff1673ffffffffffffffffffffffffffffffffffffffff1614611ec1576040517f08c379a0000000000000000000000000000000000000000000000000000000008152600401611eb8906140c2565b60405180910390fd5b600073ffffffffffffffffffffffffffffffffffffffff168273ffffffffffffffffffffffffffffffffffffffff1603611f30576040517f08c379a0000000000000000000000000000000000000000000000000000000008152600401611f279061452a565b60405180910390fd5b60005b600960003373ffffffffffffffffffffffffffffffffffffffff1673ffffffffffffffffffffffffffffffffffffffff168152602001908152602001600020805490508110156120a95783600960003373ffffffffffffffffffffffffffffffffffffffff1673ffffffffffffffffffffffffffffffffffffffff1681526020019081526020016000208281548110611fcf57611fce6143d7565b5b9060005260206000209060050201600001540361209657600960003373ffffffffffffffffffffffffffffffffffffffff1673ffffffffffffffffffffffffffffffffffffffff1681526020019081526020016000208181548110612037576120366143d7565b5b90600052602060002090600502016000808201600090556001820160006101000a81549061ffff02191690556002820160006120739190613200565b6003820160006120839190613200565b6004820160006120939190613200565b50505b80806120a19061438f565b915050611f33565b50600960008373ffffffffffffffffffffffffffffffffffffffff1673ffffffffffffffffffffffffffffffffffffffff1681526020019081526020016000206120f284610ff6565b90806001815401808255809150506001900390600052602060002090600502016000909190919091506000820151816000015560208201518160010160006101000a81548161ffff021916908361ffff160217905550604082015181600201908161215d919061428e565b506060820151816003019081612173919061428e565b506080820151816004019081612189919061428e565b505050816006600085815260200190815260200160002060006101000a81548173ffffffffffffffffffffffffffffffffffffffff021916908373ffffffffffffffffffffffffffffffffffffffff160217905550505050565b60015481565b60606003805480602002602001604051908101604052809291908181526020016000905b8282101561241f57838290600052602060002090600502016040518060a0016040529081600082015481526020016001820160009054906101000a900461ffff1661ffff1661ffff16815260200160028201805461226a9061401f565b80601f01602080910402602001604051908101604052809291908181526020018280546122969061401f565b80156122e35780601f106122b8576101008083540402835291602001916122e3565b820191906000526020600020905b8154815290600101906020018083116122c657829003601f168201915b505050505081526020016003820180546122fc9061401f565b80601f01602080910402602001604051908101604052809291908181526020018280546123289061401f565b80156123755780601f1061234a57610100808354040283529160200191612375565b820191906000526020600020905b81548152906001019060200180831161235857829003601f168201915b5050505050815260200160048201805461238e9061401f565b80601f01602080910402602001604051908101604052809291908181526020018280546123ba9061401f565b80156124075780601f106123dc57610100808354040283529160200191612407565b820191906000526020600020905b8154815290600101906020018083116123ea57829003601f168201915b5050505050815250508152602001906001019061220d565b50505050905090565b600e6020528060005260406000206000915054906101000a900460ff1681565b6000600d600083815260200190815260200160002060009054906101000a900460ff169050919050565b803373ffffffffffffffffffffffffffffffffffffffff166006600083815260200190815260200160002060009054906101000a900473ffffffffffffffffffffffffffffffffffffffff1673ffffffffffffffffffffffffffffffffffffffff1614612514576040517f08c379a000000000000000000000000000000000000000000000000000000000815260040161250b906140c2565b60405180910390fd5b6001600e600084815260200190815260200160002060006101000a81548160ff0219169083151502179055505050565b6060600960003373ffffffffffffffffffffffffffffffffffffffff1673ffffffffffffffffffffffffffffffffffffffff168152602001908152602001600020805480602002602001604051908101604052809291908181526020016000905b828210156127b757838290600052602060002090600502016040518060a0016040529081600082015481526020016001820160009054906101000a900461ffff1661ffff1661ffff1681526020016002820180546126029061401f565b80601f016020809104026020016040519081016040528092919081815260200182805461262e9061401f565b801561267b5780601f106126505761010080835404028352916020019161267b565b820191906000526020600020905b81548152906001019060200180831161265e57829003601f168201915b505050505081526020016003820180546126949061401f565b80601f01602080910402602001604051908101604052809291908181526020018280546126c09061401f565b801561270d5780601f106126e25761010080835404028352916020019161270d565b820191906000526020600020905b8154815290600101906020018083116126f057829003601f168201915b505050505081526020016004820180546127269061401f565b80601f01602080910402602001604051908101604052809291908181526020018280546127529061401f565b801561279f5780601f106127745761010080835404028352916020019161279f565b820191906000526020600020905b81548152906001019060200180831161278257829003601f168201915b505050505081525050815260200190600101906125a5565b50505050905090565b6127c8613240565b60005b600580549050811015612a165782600582815481106127ed576127ec6143d7565b5b90600052602060002090600502016000015403612a035760058181548110612818576128176143d7565b5b90600052602060002090600502016040518060a001604052908160008201548152602001600182015481526020016002820180546128559061401f565b80601f01602080910402602001604051908101604052809291908181526020018280546128819061401f565b80156128ce5780601f106128a3576101008083540402835291602001916128ce565b820191906000526020600020905b8154815290600101906020018083116128b157829003601f168201915b505050505081526020016003820180546128e79061401f565b80601f01602080910402602001604051908101604052809291908181526020018280546129139061401f565b80156129605780601f1061293557610100808354040283529160200191612960565b820191906000526020600020905b81548152906001019060200180831161294357829003601f168201915b505050505081526020016004820180546129799061401f565b80601f01602080910402602001604051908101604052809291908181526020018280546129a59061401f565b80156129f25780601f106129c7576101008083540402835291602001916129f2565b820191906000526020600020905b8154815290600101906020018083116129d557829003601f168201915b505050505081525050915050612a52565b8080612a0e9061438f565b9150506127cb565b506040517f08c379a0000000000000000000000000000000000000000000000000000000008152600401612a4990614596565b60405180910390fd5b919050565b600c6020528160005260406000208181548110612a7357600080fd5b906000526020600020906003020160009150915050806000015490806001015490806002018054612aa39061401f565b80601f0160208091040260200160405190810160405280929190818152602001828054612acf9061401f565b8015612b1c5780601f10612af157610100808354040283529160200191612b1c565b820191906000526020600020905b815481529060010190602001808311612aff57829003601f168201915b5050505050905083565b60096020528160005260406000208181548110612b4257600080fd5b9060005260206000209060050201600091509150508060000154908060010160009054906101000a900461ffff1690806002018054612b809061401f565b80601f0160208091040260200160405190810160405280929190818152602001828054612bac9061401f565b8015612bf95780601f10612bce57610100808354040283529160200191612bf9565b820191906000526020600020905b815481529060010190602001808311612bdc57829003601f168201915b505050505090806003018054612c0e9061401f565b80601f0160208091040260200160405190810160405280929190818152602001828054612c3a9061401f565b8015612c875780601f10612c5c57610100808354040283529160200191612c87565b820191906000526020600020905b815481529060010190602001808311612c6a57829003601f168201915b505050505090806004018054612c9c9061401f565b80601f0160208091040260200160405190810160405280929190818152602001828054612cc89061401f565b8015612d155780601f10612cea57610100808354040283529160200191612d15565b820191906000526020600020905b815481529060010190602001808311612cf857829003601f168201915b5050505050905085565b60076000858152602001908152602001600020543373ffffffffffffffffffffffffffffffffffffffff166006600083815260200190815260200160002060009054906101000a900473ffffffffffffffffffffffffffffffffffffffff1673ffffffffffffffffffffffffffffffffffffffff1614612dd4576040517f08c379a0000000000000000000000000000000000000000000000000000000008152600401612dcb906140c2565b60405180910390fd5b60006040518060a001604052806002548152602001878152602001868152602001858152602001848152509050600581908060018154018082558091505060019003906000526020600020906005020160009091909190915060008201518160000155602082015181600101556040820151816002019081612e56919061428e565b506060820151816003019081612e6c919061428e565b506080820151816004019081612e82919061428e565b505050600b600087815260200190815260200160002081908060018154018082558091505060019003906000526020600020906005020160009091909190915060008201518160000155602082015181600101556040820151816002019081612eeb919061428e565b506060820151816003019081612f01919061428e565b506080820151816004019081612f17919061428e565b5050507f4fc9d5acc453e78e01b205af5788a1c62f195c4b5cdc8eb8f1c670863b7e736a600254604051612f4b919061376b565b60405180910390a160026000815480929190612f669061438f565b9190505550505050505050565b60038181548110612f8357600080fd5b90600052602060002090600502016000915090508060000154908060010160009054906101000a900461ffff1690806002018054612fc09061401f565b80601f0160208091040260200160405190810160405280929190818152602001828054612fec9061401f565b80156130395780601f1061300e57610100808354040283529160200191613039565b820191906000526020600020905b81548152906001019060200180831161301c57829003601f168201915b50505050509080600301805461304e9061401f565b80601f016020809104026020016040519081016040528092919081815260200182805461307a9061401f565b80156130c75780601f1061309c576101008083540402835291602001916130c7565b820191906000526020600020905b8154815290600101906020018083116130aa57829003601f168201915b5050505050908060040180546130dc9061401f565b80601f01602080910402602001604051908101604052809291908181526020018280546131089061401f565b80156131555780601f1061312a57610100808354040283529160200191613155565b820191906000526020600020905b81548152906001019060200180831161313857829003601f168201915b5050505050905085565b60025481565b60005481565b6000613176826127c0565b6020015190506001600d600083815260200190815260200160002060006101000a81548160ff0219169083151502179055505050565b60405180606001604052806000815260200160008152602001606081525090565b6040518060a0016040528060008152602001600061ffff1681526020016060815260200160608152602001606081525090565b50805461320c9061401f565b6000825580601f1061321e575061323d565b601f01602090049060005260206000209081019061323c919061326f565b5b50565b6040518060a0016040528060008152602001600081526020016060815260200160608152602001606081525090565b5b80821115613288576000816000905550600101613270565b5090565b600081519050919050565b600082825260208201905092915050565b6000819050602082019050919050565b6000819050919050565b6132cb816132b8565b82525050565b600081519050919050565b600082825260208201905092915050565b60005b8381101561330b5780820151818401526020810190506132f0565b60008484015250505050565b6000601f19601f8301169050919050565b6000613333826132d1565b61333d81856132dc565b935061334d8185602086016132ed565b61335681613317565b840191505092915050565b600060a08301600083015161337960008601826132c2565b50602083015161338c60208601826132c2565b50604083015184820360408601526133a48282613328565b915050606083015184820360608601526133be8282613328565b915050608083015184820360808601526133d88282613328565b9150508091505092915050565b60006133f18383613361565b905092915050565b6000602082019050919050565b60006134118261328c565b61341b8185613297565b93508360208202850161342d856132a8565b8060005b85811015613469578484038952815161344a85826133e5565b9450613455836133f9565b925060208a01995050600181019050613431565b50829750879550505050505092915050565b600060208201905081810360008301526134958184613406565b905092915050565b6000604051905090565b600080fd5b600080fd5b6134ba816132b8565b81146134c557600080fd5b50565b6000813590506134d7816134b1565b92915050565b600080fd5b600080fd5b7f4e487b7100000000000000000000000000000000000000000000000000000000600052604160045260246000fd5b61351f82613317565b810181811067ffffffffffffffff8211171561353e5761353d6134e7565b5b80604052505050565b600061355161349d565b905061355d8282613516565b919050565b600067ffffffffffffffff82111561357d5761357c6134e7565b5b61358682613317565b9050602081019050919050565b82818337600083830152505050565b60006135b56135b084613562565b613547565b9050828152602081018484840111156135d1576135d06134e2565b5b6135dc848285613593565b509392505050565b600082601f8301126135f9576135f86134dd565b5b81356136098482602086016135a2565b91505092915050565b60008060408385031215613629576136286134a7565b5b6000613637858286016134c8565b925050602083013567ffffffffffffffff811115613658576136576134ac565b5b613664858286016135e4565b9150509250929050565b600060208284031215613684576136836134a7565b5b6000613692848285016134c8565b91505092915050565b60008115159050919050565b6136b08161369b565b82525050565b60006020820190506136cb60008301846136a7565b92915050565b600073ffffffffffffffffffffffffffffffffffffffff82169050919050565b60006136fc826136d1565b9050919050565b61370c816136f1565b811461371757600080fd5b50565b60008135905061372981613703565b92915050565b600060208284031215613745576137446134a7565b5b60006137538482850161371a565b91505092915050565b613765816132b8565b82525050565b6000602082019050613780600083018461375c565b92915050565b600060608301600083015161379e60008601826132c2565b5060208301516137b160208601826132c2565b50604083015184820360408601526137c98282613328565b9150508091505092915050565b600060208201905081810360008301526137f08184613786565b905092915050565b6000806040838503121561380f5761380e6134a7565b5b600061381d858286016134c8565b925050602061382e858286016134c8565b9150509250929050565b600082825260208201905092915050565b6000613854826132d1565b61385e8185613838565b935061386e8185602086016132ed565b61387781613317565b840191505092915050565b6000606082019050613897600083018661375c565b6138a4602083018561375c565b81810360408301526138b68184613849565b9050949350505050565b600081519050919050565b600082825260208201905092915050565b6000819050602082019050919050565b600060608301600083015161390460008601826132c2565b50602083015161391760208601826132c2565b506040830151848203604086015261392f8282613328565b9150508091505092915050565b600061394883836138ec565b905092915050565b6000602082019050919050565b6000613968826138c0565b61397281856138cb565b935083602082028501613984856138dc565b8060005b858110156139c057848403895281516139a1858261393c565b94506139ac83613950565b925060208a01995050600181019050613988565b50829750879550505050505092915050565b600060208201905081810360008301526139ec818461395d565b905092915050565b600061ffff82169050919050565b613a0b816139f4565b82525050565b600060a083016000830151613a2960008601826132c2565b506020830151613a3c6020860182613a02565b5060408301518482036040860152613a548282613328565b91505060608301518482036060860152613a6e8282613328565b91505060808301518482036080860152613a888282613328565b9150508091505092915050565b60006020820190508181036000830152613aaf8184613a11565b905092915050565b600081519050919050565b600082825260208201905092915050565b6000819050602082019050919050565b600060a083016000830151613afb60008601826132c2565b506020830151613b0e6020860182613a02565b5060408301518482036040860152613b268282613328565b91505060608301518482036060860152613b408282613328565b91505060808301518482036080860152613b5a8282613328565b9150508091505092915050565b6000613b738383613ae3565b905092915050565b6000602082019050919050565b6000613b9382613ab7565b613b9d8185613ac2565b935083602082028501613baf85613ad3565b8060005b85811015613beb5784840389528151613bcc8582613b67565b9450613bd783613b7b565b925060208a01995050600181019050613bb3565b50829750879550505050505092915050565b60006020820190508181036000830152613c178184613b88565b905092915050565b600060a082019050613c34600083018861375c565b613c41602083018761375c565b8181036040830152613c538186613849565b90508181036060830152613c678185613849565b90508181036080830152613c7b8184613849565b90509695505050505050565b613c90816136f1565b82525050565b6000602082019050613cab6000830184613c87565b92915050565b613cba816139f4565b8114613cc557600080fd5b50565b600081359050613cd781613cb1565b92915050565b60008060008060808587031215613cf757613cf66134a7565b5b6000613d0587828801613cc8565b945050602085013567ffffffffffffffff811115613d2657613d256134ac565b5b613d32878288016135e4565b935050604085013567ffffffffffffffff811115613d5357613d526134ac565b5b613d5f878288016135e4565b925050606085013567ffffffffffffffff811115613d8057613d7f6134ac565b5b613d8c878288016135e4565b91505092959194509250565b60008060408385031215613daf57613dae6134a7565b5b6000613dbd858286016134c8565b9250506020613dce8582860161371a565b9150509250929050565b600060a083016000830151613df060008601826132c2565b506020830151613e0360208601826132c2565b5060408301518482036040860152613e1b8282613328565b91505060608301518482036060860152613e358282613328565b91505060808301518482036080860152613e4f8282613328565b9150508091505092915050565b60006020820190508181036000830152613e768184613dd8565b905092915050565b60008060408385031215613e9557613e946134a7565b5b6000613ea38582860161371a565b9250506020613eb4858286016134c8565b9150509250929050565b613ec7816139f4565b82525050565b600060a082019050613ee2600083018861375c565b613eef6020830187613ebe565b8181036040830152613f018186613849565b90508181036060830152613f158185613849565b90508181036080830152613f298184613849565b90509695505050505050565b60008060008060808587031215613f4f57613f4e6134a7565b5b6000613f5d878288016134c8565b945050602085013567ffffffffffffffff811115613f7e57613f7d6134ac565b5b613f8a878288016135e4565b935050604085013567ffffffffffffffff811115613fab57613faa6134ac565b5b613fb7878288016135e4565b925050606085013567ffffffffffffffff811115613fd857613fd76134ac565b5b613fe4878288016135e4565b91505092959194509250565b7f4e487b7100000000000000000000000000000000000000000000000000000000600052602260045260246000fd5b6000600282049050600182168061403757607f821691505b60208210810361404a57614049613ff0565b5b50919050565b7f596f7520617265206e6f7420746865206f776e6572206f66207468697320636f60008201527f7700000000000000000000000000000000000000000000000000000000000000602082015250565b60006140ac602183613838565b91506140b782614050565b604082019050919050565b600060208201905081810360008301526140db8161409f565b9050919050565b60008190508160005260206000209050919050565b60006020601f8301049050919050565b600082821b905092915050565b6000600883026141447fffffffffffffffffffffffffffffffffffffffffffffffffffffffffffffffff82614107565b61414e8683614107565b95508019841693508086168417925050509392505050565b6000819050919050565b600061418b614186614181846132b8565b614166565b6132b8565b9050919050565b6000819050919050565b6141a583614170565b6141b96141b182614192565b848454614114565b825550505050565b600090565b6141ce6141c1565b6141d981848461419c565b505050565b5b818110156141fd576141f26000826141c6565b6001810190506141df565b5050565b601f82111561424257614213816140e2565b61421c846140f7565b8101602085101561422b578190505b61423f614237856140f7565b8301826141de565b50505b505050565b600082821c905092915050565b600061426560001984600802614247565b1980831691505092915050565b600061427e8383614254565b9150826002028217905092915050565b614297826132d1565b67ffffffffffffffff8111156142b0576142af6134e7565b5b6142ba825461401f565b6142c5828285614201565b600060209050601f8311600181146142f857600084156142e6578287015190505b6142f08582614272565b865550614358565b601f198416614306866140e2565b60005b8281101561432e57848901518255600182019150602085019450602081019050614309565b8683101561434b5784890151614347601f891682614254565b8355505b6001600288020188555050505b505050505050565b7f4e487b7100000000000000000000000000000000000000000000000000000000600052601160045260246000fd5b600061439a826132b8565b91507fffffffffffffffffffffffffffffffffffffffffffffffffffffffffffffffff82036143cc576143cb614360565b5b600182019050919050565b7f4e487b7100000000000000000000000000000000000000000000000000000000600052603260045260246000fd5b7f4d696c6b206e6f7420666f756e64210000000000000000000000000000000000600082015250565b600061443c600f83613838565b915061444782614406565b602082019050919050565b6000602082019050818103600083015261446b8161442f565b9050919050565b7f436f77206e6f7420666f756e6421000000000000000000000000000000000000600082015250565b60006144a8600e83613838565b91506144b382614472565b602082019050919050565b600060208201905081810360008301526144d78161449b565b9050919050565b7f496e76616c6964206e6577206f776e6572206164647265737300000000000000600082015250565b6000614514601983613838565b915061451f826144de565b602082019050919050565b6000602082019050818103600083015261454381614507565b9050919050565b7f50726f64756374206e6f7420666f756e64210000000000000000000000000000600082015250565b6000614580601283613838565b915061458b8261454a565b602082019050919050565b600060208201905081810360008301526145af81614573565b905091905056fea2646970667358221220eb7d5ddc3094f2fc18c10fcb3c8eb350c1fd1b39a6409c4d9764d85d12d85a0f64736f6c63430008130033",
  "immutableReferences": {},
  "source": "pragma solidity ^0.8.17;\r\n\r\ncontract MilkFactory {\r\n\r\n    struct Dairy {\r\n        address dairyAddress;\r\n        string dairyName;\r\n        string dairyPlace;\r\n    }\r\n\r\n    struct Cow {\r\n        uint256 id;\r\n        uint16 weight;\r\n        string breed;\r\n        string birthDate;\r\n        string residence;\r\n    }\r\n\r\n    struct Milk {\r\n        uint256 id;\r\n        uint256 cowId;\r\n        string dateOfProduction;\r\n    }\r\n\r\n    struct Product { //Should add more info about product \r\n        uint256 id;\r\n        uint256 milkId;\r\n        string dateOfProduction;\r\n        string productType;\r\n        string expiryDate;\r\n    }\r\n\r\n    //constructor() {\r\n    //    owner = msg.sender;\r\n    //}\r\n\r\n    modifier onlyOwnerOf(uint256 _cowId) {\r\n        require(cowToOwner[_cowId] == msg.sender, \"You are not the owner of this cow\");\r\n        _;\r\n    }\r\n    \r\n    uint256 public cowCount = 0;\r\n    uint256 public milkCount = 0;\r\n    uint256 public productCount = 0;\r\n\r\n    event ProductAdded(uint256 productId);\r\n    event SpoiledProduct(uint256 productId);\r\n    event LogMessage(string message);\r\n    \r\n    Cow[] public cowList;\r\n    Milk[] public milkList;\r\n    Product[] public productList;\r\n\r\n    mapping(uint256 => address) public cowToOwner;\r\n    mapping(uint256 => uint256) public milkToCow;\r\n    mapping(address => uint256) public ownerMilkCount;\r\n    mapping(address => Cow[]) public ownerToCowList;\r\n    mapping(uint256 => Milk[]) public cowToMilkList;\r\n    mapping(uint256 => Product[]) public milkToProductList;\r\n    mapping(address => Milk[]) public ownerToMilk;\r\n    mapping(uint256 => bool) public spoiledMilks;\r\n    mapping(uint256 => bool) public deathCows;\r\n   \r\n    //mapping(uint256 => uint256) public milkToCow;\r\n    \r\n    function transferCow(uint256 _cowId, address _newOwner) public onlyOwnerOf(_cowId) {\r\n        require(_newOwner != address(0), \"Invalid new owner address\");\r\n        \r\n        //Delete cow from old owner mapping \r\n        for(uint i=0; i < ownerToCowList[msg.sender].length; i++) { \r\n            if(ownerToCowList[msg.sender][i].id == _cowId) {\r\n                delete ownerToCowList[msg.sender][i];\r\n            }\r\n        }\r\n        //Add cow to new owner mapping\r\n        ownerToCowList[_newOwner].push(getCow(_cowId));\r\n        cowToOwner[_cowId] = _newOwner;\r\n    }\r\n\r\n\r\n    function addCow(uint16 _weight, string memory _breed, string memory _birthDate, string memory _residence) public {\r\n        Cow memory myCow = Cow(cowCount, _weight, _breed, _birthDate, _residence);\r\n        cowList.push(myCow);\r\n        //Increase cow count that is used as id\r\n        cowCount++;\r\n        cowToOwner[myCow.id] = msg.sender;\r\n        ownerToCowList[msg.sender].push(myCow);\r\n    }\r\n    \r\n    function addMilk(uint256 _cowId, string memory _dateOfProduction) public onlyOwnerOf(_cowId) {\r\n        //Check if cow exists\r\n        Milk memory myMilk = Milk(milkCount, _cowId, _dateOfProduction);\r\n        spoiledMilks[milkCount] = false;\r\n        milkList.push(myMilk);\r\n        milkCount++;\r\n        cowToMilkList[_cowId].push(myMilk);\r\n        milkToCow[myMilk.id] = _cowId;\r\n        ownerMilkCount[msg.sender]++; \r\n        ownerToMilk[msg.sender].push(myMilk);\r\n    }\r\n    \r\n    function addProduct(uint256 _milkId, string memory _dateOfProduction, string memory _productType, string memory _expiryDate) public  onlyOwnerOf(milkToCow[_milkId]) {\r\n        //Check if milk exists\r\n        Product memory  myProduct = Product( productCount, _milkId, _dateOfProduction, _productType, _expiryDate);\r\n        productList.push(myProduct);\r\n        milkToProductList[_milkId].push(myProduct);\r\n        emit ProductAdded(productCount);\r\n        productCount++;  \r\n    }\r\n\r\n    function killCow(uint256 _cowId) public onlyOwnerOf(_cowId) {\r\n        deathCows[_cowId] = true;\r\n    }\r\n\r\n    function getAllCows() public view returns(Cow[] memory) {\r\n        return cowList;\r\n    }\r\n\r\n    function getCowsOfOwner() public view returns(Cow[] memory) {\r\n        return ownerToCowList[msg.sender];\r\n    }\r\n\r\n    function getAliveCowsOfOwner() public view returns(Cow[] memory) {\r\n        Cow[] memory cows = ownerToCowList[msg.sender];\r\n        uint256 aliveCows = 0;\r\n        for(uint i=0; i < cows.length; i++) { \r\n            if(deathCows[cows[i].id] == false) {\r\n                aliveCows++;\r\n            }\r\n        }\r\n        Cow[] memory aliveCowList = new Cow[](aliveCows);\r\n        uint256 index = 0;\r\n        for(uint i=0; i < cows.length; i++) { \r\n            if(deathCows[cows[i].id] == false) {\r\n                aliveCowList[index] = cows[i];\r\n                index++;\r\n            }\r\n        }\r\n        return aliveCowList;\r\n    }\r\n    \r\n    function getAllMilks() public view returns(Milk[] memory) {\r\n        return milkList;\r\n    }\r\n\r\n    function getMilksOfOwner() public view returns (Milk[] memory) {\r\n        return ownerToMilk[msg.sender];    \r\n    }\r\n\r\n    function reportSpoiledProduct(uint256 _productId) public {\r\n        uint256 milkId = getProduct(_productId).milkId;\r\n        spoiledMilks[milkId] = true;\r\n    }\r\n\r\n    function getAllProducts() public view returns(Product[] memory) {\r\n        return productList;\r\n    }\r\n\r\n    function getProduct(uint256 _productId) public view returns(Product memory) {\r\n        for(uint i=0; i < productList.length; i++) { \r\n            if(productList[i].id == _productId) {\r\n                return productList[i];\r\n            }\r\n        }\r\n        revert(\"Product not found!\"); //Undo, return value, give back gas \r\n    }\r\n\r\n    function isMilkSpoiled(uint256 _milkId) public view returns(bool) {\r\n        return spoiledMilks[_milkId];\r\n    }\r\n\r\n    function getMilk(uint256 _milkId) public view returns(Milk memory) {\r\n        for(uint i=0; i < milkList.length; i++) { \r\n            if(milkList[i].id == _milkId) {\r\n                return milkList[i];\r\n            }\r\n        }\r\n        revert(\"Milk not found!\"); //Undo, return value, give back gas \r\n    }\r\n\r\n    function getCow(uint256 _cowId) public view returns(Cow memory) {\r\n        for(uint i=0; i < cowList.length; i++) { \r\n            if(cowList[i].id == _cowId) {\r\n                return cowList[i];\r\n            }\r\n        }\r\n        revert(\"Cow not found!\"); //Undo, return value, give back gas \r\n    }\r\n}",
  "sourcePath": "C:\\Users\\tomas\\Desktop\\Blockchain-Project\\blockchain\\contracts\\MilkFactory.sol",
  "compiler": {
    "name": "solc",
    "version": "0.8.19+commit.7dd6d404.Emscripten.clang"
  },
  "schemaVersion": "3.4.13",
  "updatedAt": "2023-07-10T10:18:54.398Z",
  "networkType": "ethereum",
  "devdoc": {
    "kind": "dev",
    "methods": {},
    "version": 1
  },
  "userdoc": {
    "kind": "user",
    "methods": {},
    "version": 1
  }
}