{
  "contractName": "MilkFactory",
  "abi": [
    {
      "anonymous": false,
      "inputs": [
        {
          "indexed": false,
          "internalType": "string",
          "name": "message",
          "type": "string"
        }
      ],
      "name": "LogMessage",
      "type": "event"
    },
    {
      "anonymous": false,
      "inputs": [
        {
          "indexed": false,
          "internalType": "uint256",
          "name": "productId",
          "type": "uint256"
        }
      ],
      "name": "ProductAdded",
      "type": "event"
    },
    {
      "anonymous": false,
      "inputs": [
        {
          "indexed": false,
          "internalType": "uint256",
          "name": "productId",
          "type": "uint256"
        }
      ],
      "name": "SpoiledProduct",
      "type": "event"
    },
    {
      "inputs": [],
      "name": "cowCount",
      "outputs": [
        {
          "internalType": "uint256",
          "name": "",
          "type": "uint256"
        }
      ],
      "stateMutability": "view",
      "type": "function",
      "constant": true
    },
    {
      "inputs": [
        {
          "internalType": "uint256",
          "name": "",
          "type": "uint256"
        }
      ],
      "name": "cowList",
      "outputs": [
        {
          "internalType": "uint256",
          "name": "id",
          "type": "uint256"
        },
        {
          "internalType": "uint256",
          "name": "weight",
          "type": "uint256"
        },
        {
          "internalType": "string",
          "name": "breed",
          "type": "string"
        },
        {
          "internalType": "string",
          "name": "birthDate",
          "type": "string"
        },
        {
          "internalType": "string",
          "name": "residence",
          "type": "string"
        }
      ],
      "stateMutability": "view",
      "type": "function",
      "constant": true
    },
    {
      "inputs": [
        {
          "internalType": "uint256",
          "name": "",
          "type": "uint256"
        },
        {
          "internalType": "uint256",
          "name": "",
          "type": "uint256"
        }
      ],
      "name": "cowToMilkList",
      "outputs": [
        {
          "internalType": "uint256",
          "name": "id",
          "type": "uint256"
        },
        {
          "internalType": "uint256",
          "name": "cowId",
          "type": "uint256"
        },
        {
          "internalType": "string",
          "name": "dateOfProduction",
          "type": "string"
        }
      ],
      "stateMutability": "view",
      "type": "function",
      "constant": true
    },
    {
      "inputs": [
        {
          "internalType": "uint256",
          "name": "",
          "type": "uint256"
        }
      ],
      "name": "cowToOwner",
      "outputs": [
        {
          "internalType": "address",
          "name": "",
          "type": "address"
        }
      ],
      "stateMutability": "view",
      "type": "function",
      "constant": true
    },
    {
      "inputs": [],
      "name": "milkCount",
      "outputs": [
        {
          "internalType": "uint256",
          "name": "",
          "type": "uint256"
        }
      ],
      "stateMutability": "view",
      "type": "function",
      "constant": true
    },
    {
      "inputs": [
        {
          "internalType": "uint256",
          "name": "",
          "type": "uint256"
        }
      ],
      "name": "milkList",
      "outputs": [
        {
          "internalType": "uint256",
          "name": "id",
          "type": "uint256"
        },
        {
          "internalType": "uint256",
          "name": "cowId",
          "type": "uint256"
        },
        {
          "internalType": "string",
          "name": "dateOfProduction",
          "type": "string"
        }
      ],
      "stateMutability": "view",
      "type": "function",
      "constant": true
    },
    {
      "inputs": [
        {
          "internalType": "uint256",
          "name": "",
          "type": "uint256"
        }
      ],
      "name": "milkToCow",
      "outputs": [
        {
          "internalType": "uint256",
          "name": "",
          "type": "uint256"
        }
      ],
      "stateMutability": "view",
      "type": "function",
      "constant": true
    },
    {
      "inputs": [
        {
          "internalType": "uint256",
          "name": "",
          "type": "uint256"
        },
        {
          "internalType": "uint256",
          "name": "",
          "type": "uint256"
        }
      ],
      "name": "milkToProductList",
      "outputs": [
        {
          "internalType": "uint256",
          "name": "id",
          "type": "uint256"
        },
        {
          "internalType": "uint256",
          "name": "milkId",
          "type": "uint256"
        },
        {
          "internalType": "string",
          "name": "dateOfProduction",
          "type": "string"
        },
        {
          "internalType": "string",
          "name": "productType",
          "type": "string"
        },
        {
          "internalType": "string",
          "name": "expiryDate",
          "type": "string"
        }
      ],
      "stateMutability": "view",
      "type": "function",
      "constant": true
    },
    {
      "inputs": [
        {
          "internalType": "address",
          "name": "",
          "type": "address"
        }
      ],
      "name": "ownerMilkCount",
      "outputs": [
        {
          "internalType": "uint256",
          "name": "",
          "type": "uint256"
        }
      ],
      "stateMutability": "view",
      "type": "function",
      "constant": true
    },
    {
      "inputs": [
        {
          "internalType": "address",
          "name": "",
          "type": "address"
        },
        {
          "internalType": "uint256",
          "name": "",
          "type": "uint256"
        }
      ],
      "name": "ownerToCowList",
      "outputs": [
        {
          "internalType": "uint256",
          "name": "id",
          "type": "uint256"
        },
        {
          "internalType": "uint256",
          "name": "weight",
          "type": "uint256"
        },
        {
          "internalType": "string",
          "name": "breed",
          "type": "string"
        },
        {
          "internalType": "string",
          "name": "birthDate",
          "type": "string"
        },
        {
          "internalType": "string",
          "name": "residence",
          "type": "string"
        }
      ],
      "stateMutability": "view",
      "type": "function",
      "constant": true
    },
    {
      "inputs": [
        {
          "internalType": "address",
          "name": "",
          "type": "address"
        },
        {
          "internalType": "uint256",
          "name": "",
          "type": "uint256"
        }
      ],
      "name": "ownerToMilk",
      "outputs": [
        {
          "internalType": "uint256",
          "name": "id",
          "type": "uint256"
        },
        {
          "internalType": "uint256",
          "name": "cowId",
          "type": "uint256"
        },
        {
          "internalType": "string",
          "name": "dateOfProduction",
          "type": "string"
        }
      ],
      "stateMutability": "view",
      "type": "function",
      "constant": true
    },
    {
      "inputs": [],
      "name": "productCount",
      "outputs": [
        {
          "internalType": "uint256",
          "name": "",
          "type": "uint256"
        }
      ],
      "stateMutability": "view",
      "type": "function",
      "constant": true
    },
    {
      "inputs": [
        {
          "internalType": "uint256",
          "name": "",
          "type": "uint256"
        }
      ],
      "name": "productList",
      "outputs": [
        {
          "internalType": "uint256",
          "name": "id",
          "type": "uint256"
        },
        {
          "internalType": "uint256",
          "name": "milkId",
          "type": "uint256"
        },
        {
          "internalType": "string",
          "name": "dateOfProduction",
          "type": "string"
        },
        {
          "internalType": "string",
          "name": "productType",
          "type": "string"
        },
        {
          "internalType": "string",
          "name": "expiryDate",
          "type": "string"
        }
      ],
      "stateMutability": "view",
      "type": "function",
      "constant": true
    },
    {
      "inputs": [
        {
          "internalType": "uint256",
          "name": "",
          "type": "uint256"
        }
      ],
      "name": "spoiledMilks",
      "outputs": [
        {
          "internalType": "bool",
          "name": "",
          "type": "bool"
        }
      ],
      "stateMutability": "view",
      "type": "function",
      "constant": true
    },
    {
      "inputs": [
        {
          "internalType": "uint256",
          "name": "_weight",
          "type": "uint256"
        },
        {
          "internalType": "string",
          "name": "_breed",
          "type": "string"
        },
        {
          "internalType": "string",
          "name": "_birthDate",
          "type": "string"
        },
        {
          "internalType": "string",
          "name": "_residence",
          "type": "string"
        }
      ],
      "name": "addCow",
      "outputs": [],
      "stateMutability": "nonpayable",
      "type": "function"
    },
    {
      "inputs": [
        {
          "internalType": "uint256",
          "name": "_cowId",
          "type": "uint256"
        },
        {
          "internalType": "string",
          "name": "_dateOfProduction",
          "type": "string"
        }
      ],
      "name": "addMilk",
      "outputs": [],
      "stateMutability": "nonpayable",
      "type": "function"
    },
    {
      "inputs": [
        {
          "internalType": "uint256",
          "name": "_milkId",
          "type": "uint256"
        },
        {
          "internalType": "string",
          "name": "_dateOfProduction",
          "type": "string"
        },
        {
          "internalType": "string",
          "name": "_productType",
          "type": "string"
        },
        {
          "internalType": "string",
          "name": "_expiryDate",
          "type": "string"
        }
      ],
      "name": "addProduct",
      "outputs": [],
      "stateMutability": "nonpayable",
      "type": "function"
    },
    {
      "inputs": [],
      "name": "getAllCows",
      "outputs": [
        {
          "components": [
            {
              "internalType": "uint256",
              "name": "id",
              "type": "uint256"
            },
            {
              "internalType": "uint256",
              "name": "weight",
              "type": "uint256"
            },
            {
              "internalType": "string",
              "name": "breed",
              "type": "string"
            },
            {
              "internalType": "string",
              "name": "birthDate",
              "type": "string"
            },
            {
              "internalType": "string",
              "name": "residence",
              "type": "string"
            }
          ],
          "internalType": "struct MilkFactory.Cow[]",
          "name": "",
          "type": "tuple[]"
        }
      ],
      "stateMutability": "view",
      "type": "function",
      "constant": true
    },
    {
      "inputs": [],
      "name": "getCowsOfOwner",
      "outputs": [
        {
          "components": [
            {
              "internalType": "uint256",
              "name": "id",
              "type": "uint256"
            },
            {
              "internalType": "uint256",
              "name": "weight",
              "type": "uint256"
            },
            {
              "internalType": "string",
              "name": "breed",
              "type": "string"
            },
            {
              "internalType": "string",
              "name": "birthDate",
              "type": "string"
            },
            {
              "internalType": "string",
              "name": "residence",
              "type": "string"
            }
          ],
          "internalType": "struct MilkFactory.Cow[]",
          "name": "",
          "type": "tuple[]"
        }
      ],
      "stateMutability": "view",
      "type": "function",
      "constant": true
    },
    {
      "inputs": [],
      "name": "getAllMilks",
      "outputs": [
        {
          "components": [
            {
              "internalType": "uint256",
              "name": "id",
              "type": "uint256"
            },
            {
              "internalType": "uint256",
              "name": "cowId",
              "type": "uint256"
            },
            {
              "internalType": "string",
              "name": "dateOfProduction",
              "type": "string"
            }
          ],
          "internalType": "struct MilkFactory.Milk[]",
          "name": "",
          "type": "tuple[]"
        }
      ],
      "stateMutability": "view",
      "type": "function",
      "constant": true
    },
    {
      "inputs": [],
      "name": "getMilksOfOwner",
      "outputs": [
        {
          "components": [
            {
              "internalType": "uint256",
              "name": "id",
              "type": "uint256"
            },
            {
              "internalType": "uint256",
              "name": "cowId",
              "type": "uint256"
            },
            {
              "internalType": "string",
              "name": "dateOfProduction",
              "type": "string"
            }
          ],
          "internalType": "struct MilkFactory.Milk[]",
          "name": "",
          "type": "tuple[]"
        }
      ],
      "stateMutability": "view",
      "type": "function",
      "constant": true
    },
    {
      "inputs": [
        {
          "internalType": "uint256",
          "name": "_productId",
          "type": "uint256"
        }
      ],
      "name": "reportSpoiledProduct",
      "outputs": [],
      "stateMutability": "nonpayable",
      "type": "function"
    },
    {
      "inputs": [],
      "name": "getAllProducts",
      "outputs": [
        {
          "components": [
            {
              "internalType": "uint256",
              "name": "id",
              "type": "uint256"
            },
            {
              "internalType": "uint256",
              "name": "milkId",
              "type": "uint256"
            },
            {
              "internalType": "string",
              "name": "dateOfProduction",
              "type": "string"
            },
            {
              "internalType": "string",
              "name": "productType",
              "type": "string"
            },
            {
              "internalType": "string",
              "name": "expiryDate",
              "type": "string"
            }
          ],
          "internalType": "struct MilkFactory.Product[]",
          "name": "",
          "type": "tuple[]"
        }
      ],
      "stateMutability": "view",
      "type": "function",
      "constant": true
    },
    {
      "inputs": [
        {
          "internalType": "uint256",
          "name": "_productId",
          "type": "uint256"
        }
      ],
      "name": "getProduct",
      "outputs": [
        {
          "components": [
            {
              "internalType": "uint256",
              "name": "id",
              "type": "uint256"
            },
            {
              "internalType": "uint256",
              "name": "milkId",
              "type": "uint256"
            },
            {
              "internalType": "string",
              "name": "dateOfProduction",
              "type": "string"
            },
            {
              "internalType": "string",
              "name": "productType",
              "type": "string"
            },
            {
              "internalType": "string",
              "name": "expiryDate",
              "type": "string"
            }
          ],
          "internalType": "struct MilkFactory.Product",
          "name": "",
          "type": "tuple"
        }
      ],
      "stateMutability": "view",
      "type": "function",
      "constant": true
    },
    {
      "inputs": [
        {
          "internalType": "uint256",
          "name": "_milkId",
          "type": "uint256"
        }
      ],
      "name": "isMilkSpoiled",
      "outputs": [
        {
          "internalType": "bool",
          "name": "",
          "type": "bool"
        }
      ],
      "stateMutability": "view",
      "type": "function",
      "constant": true
    },
    {
      "inputs": [
        {
          "internalType": "uint256",
          "name": "_milkId",
          "type": "uint256"
        }
      ],
      "name": "getMilk",
      "outputs": [
        {
          "components": [
            {
              "internalType": "uint256",
              "name": "id",
              "type": "uint256"
            },
            {
              "internalType": "uint256",
              "name": "cowId",
              "type": "uint256"
            },
            {
              "internalType": "string",
              "name": "dateOfProduction",
              "type": "string"
            }
          ],
          "internalType": "struct MilkFactory.Milk",
          "name": "",
          "type": "tuple"
        }
      ],
      "stateMutability": "view",
      "type": "function",
      "constant": true
    },
    {
      "inputs": [
        {
          "internalType": "uint256",
          "name": "_cowId",
          "type": "uint256"
        }
      ],
      "name": "getCow",
      "outputs": [
        {
          "components": [
            {
              "internalType": "uint256",
              "name": "id",
              "type": "uint256"
            },
            {
              "internalType": "uint256",
              "name": "weight",
              "type": "uint256"
            },
            {
              "internalType": "string",
              "name": "breed",
              "type": "string"
            },
            {
              "internalType": "string",
              "name": "birthDate",
              "type": "string"
            },
            {
              "internalType": "string",
              "name": "residence",
              "type": "string"
            }
          ],
          "internalType": "struct MilkFactory.Cow",
          "name": "",
          "type": "tuple"
        }
      ],
      "stateMutability": "view",
      "type": "function",
      "constant": true
    }
  ],
  "bytecode": "0x6080604052600080556000600155600060025534801561001e57600080fd5b5061394e8061002e6000396000f3fe608060405234801561001057600080fd5b50600436106101a95760003560e01c80637ba3372d116100f9578063beda38f511610097578063e0f6ef8711610071578063e0f6ef8714610580578063e749303a1461059e578063edb5a457146105ba578063ef2670f1146105d8576101a9565b8063beda38f5146104fc578063c1393d2714610530578063cb7cdaad1461054c576101a9565b8063ae81394c116100d3578063ae81394c1461044c578063b6f7ea8a1461047c578063b9db15b41461049a578063b9f9fbfe146104ca576101a9565b80637ba3372d146103dc5780638de6e5f114610410578063927fb4de1461042e576101a9565b80632bd6ccc8116101665780634a71bd2a116101405780634a71bd2a1461032a578063528c87d2146103485780635515d0f61461037c5780636c46f2a0146103ac576101a9565b80632bd6ccc8146102aa578063329bcfa5146102dc57806334df9b60146102fa576101a9565b806302ee3a52146101ae57806308f0eb53146101cc57806309e88f45146101e85780630f926aeb14610218578063184e9c2d146102485780631dc2c40814610278575b600080fd5b6101b66105f4565b6040516101c39190612a04565b60405180910390f35b6101e660048036038101906101e19190612b9b565b61081d565b005b61020260048036038101906101fd9190612bf7565b610af3565b60405161020f9190612c3f565b60405180910390f35b610232600480360381019061022d9190612cb8565b610b13565b60405161023f9190612cf4565b60405180910390f35b610262600480360381019061025d9190612bf7565b610b2b565b60405161026f9190612d5f565b60405180910390f35b610292600480360381019061028d9190612d81565b610c9e565b6040516102a193929190612e0b565b60405180910390f35b6102c460048036038101906102bf9190612bf7565b610d6d565b6040516102d393929190612e0b565b60405180910390f35b6102e4610e2f565b6040516102f19190612f5b565b60405180910390f35b610314600480360381019061030f9190612bf7565b610f34565b6040516103219190613001565b60405180910390f35b6103326111cb565b60405161033f9190612f5b565b60405180910390f35b610362600480360381019061035d9190612bf7565b61130d565b604051610373959493929190613023565b60405180910390f35b61039660048036038101906103919190612bf7565b6114eb565b6040516103a3919061309a565b60405180910390f35b6103c660048036038101906103c19190612bf7565b61151e565b6040516103d39190612cf4565b60405180910390f35b6103f660048036038101906103f19190612d81565b611536565b604051610407959493929190613023565b60405180910390f35b610418611721565b6040516104259190612cf4565b60405180910390f35b610436611727565b60405161044391906131fb565b60405180910390f35b61046660048036038101906104619190612bf7565b611950565b6040516104739190612c3f565b60405180910390f35b61048461197a565b60405161049191906131fb565b60405180910390f35b6104b460048036038101906104af9190612bf7565b611be0565b6040516104c191906132a1565b60405180910390f35b6104e460048036038101906104df91906132c3565b611e77565b6040516104f393929190612e0b565b60405180910390f35b610516600480360381019061051191906132c3565b611f46565b604051610527959493929190613023565b60405180910390f35b61054a60048036038101906105459190613303565b612131565b005b61056660048036038101906105619190612bf7565b612385565b604051610577959493929190613023565b60405180910390f35b610588612563565b6040516105959190612cf4565b60405180910390f35b6105b860048036038101906105b39190613303565b612569565b005b6105c261274f565b6040516105cf9190612cf4565b60405180910390f35b6105f260048036038101906105ed9190612bf7565b612755565b005b60606005805480602002602001604051908101604052809291908181526020016000905b8282101561081457838290600052602060002090600502016040518060a0016040529081600082015481526020016001820154815260200160028201805461065f906133ed565b80601f016020809104026020016040519081016040528092919081815260200182805461068b906133ed565b80156106d85780601f106106ad576101008083540402835291602001916106d8565b820191906000526020600020905b8154815290600101906020018083116106bb57829003601f168201915b505050505081526020016003820180546106f1906133ed565b80601f016020809104026020016040519081016040528092919081815260200182805461071d906133ed565b801561076a5780601f1061073f5761010080835404028352916020019161076a565b820191906000526020600020905b81548152906001019060200180831161074d57829003601f168201915b50505050508152602001600482018054610783906133ed565b80601f01602080910402602001604051908101604052809291908181526020018280546107af906133ed565b80156107fc5780601f106107d1576101008083540402835291602001916107fc565b820191906000526020600020905b8154815290600101906020018083116107df57829003601f168201915b50505050508152505081526020019060010190610618565b50505050905090565b813373ffffffffffffffffffffffffffffffffffffffff166006600083815260200190815260200160002060009054906101000a900473ffffffffffffffffffffffffffffffffffffffff1673ffffffffffffffffffffffffffffffffffffffff16146108bf576040517f08c379a00000000000000000000000000000000000000000000000000000000081526004016108b690613490565b60405180910390fd5b6000604051806060016040528060015481526020018581526020018481525090506000600d6000600154815260200190815260200160002060006101000a81548160ff02191690831515021790555060016000815480929190610921906134df565b919050555060048190806001815401808255809150506001900390600052602060002090600302016000909190919091506000820151816000015560208201518160010155604082015181600201908161097b91906136d3565b505050600a6000858152602001908152602001600020819080600181540180825580915050600190039060005260206000209060030201600090919091909150600082015181600001556020820151816001015560408201518160020190816109e491906136d3565b50505083600760008360000151815260200190815260200160002081905550600860003373ffffffffffffffffffffffffffffffffffffffff1673ffffffffffffffffffffffffffffffffffffffff1681526020019081526020016000206000815480929190610a53906134df565b9190505550600c60003373ffffffffffffffffffffffffffffffffffffffff1673ffffffffffffffffffffffffffffffffffffffff16815260200190815260200160002081908060018154018082558091505060019003906000526020600020906003020160009091909190915060008201518160000155602082015181600101556040820151816002019081610aea91906136d3565b50505050505050565b600d6020528060005260406000206000915054906101000a900460ff1681565b60086020528060005260406000206000915090505481565b610b33612796565b60005b600480549050811015610c5d578260048281548110610b5857610b576137a5565b5b90600052602060002090600302016000015403610c4a5760048181548110610b8357610b826137a5565b5b90600052602060002090600302016040518060600160405290816000820154815260200160018201548152602001600282018054610bc0906133ed565b80601f0160208091040260200160405190810160405280929190818152602001828054610bec906133ed565b8015610c395780601f10610c0e57610100808354040283529160200191610c39565b820191906000526020600020905b815481529060010190602001808311610c1c57829003601f168201915b505050505081525050915050610c99565b8080610c55906134df565b915050610b36565b506040517f08c379a0000000000000000000000000000000000000000000000000000000008152600401610c9090613820565b60405180910390fd5b919050565b600a6020528160005260406000208181548110610cba57600080fd5b906000526020600020906003020160009150915050806000015490806001015490806002018054610cea906133ed565b80601f0160208091040260200160405190810160405280929190818152602001828054610d16906133ed565b8015610d635780601f10610d3857610100808354040283529160200191610d63565b820191906000526020600020905b815481529060010190602001808311610d4657829003601f168201915b5050505050905083565b60048181548110610d7d57600080fd5b9060005260206000209060030201600091509050806000015490806001015490806002018054610dac906133ed565b80601f0160208091040260200160405190810160405280929190818152602001828054610dd8906133ed565b8015610e255780601f10610dfa57610100808354040283529160200191610e25565b820191906000526020600020905b815481529060010190602001808311610e0857829003601f168201915b5050505050905083565b60606004805480602002602001604051908101604052809291908181526020016000905b82821015610f2b57838290600052602060002090600302016040518060600160405290816000820154815260200160018201548152602001600282018054610e9a906133ed565b80601f0160208091040260200160405190810160405280929190818152602001828054610ec6906133ed565b8015610f135780601f10610ee857610100808354040283529160200191610f13565b820191906000526020600020905b815481529060010190602001808311610ef657829003601f168201915b50505050508152505081526020019060010190610e53565b50505050905090565b610f3c6127b7565b60005b60038054905081101561118a578260038281548110610f6157610f606137a5565b5b906000526020600020906005020160000154036111775760038181548110610f8c57610f8b6137a5565b5b90600052602060002090600502016040518060a00160405290816000820154815260200160018201548152602001600282018054610fc9906133ed565b80601f0160208091040260200160405190810160405280929190818152602001828054610ff5906133ed565b80156110425780601f1061101757610100808354040283529160200191611042565b820191906000526020600020905b81548152906001019060200180831161102557829003601f168201915b5050505050815260200160038201805461105b906133ed565b80601f0160208091040260200160405190810160405280929190818152602001828054611087906133ed565b80156110d45780601f106110a9576101008083540402835291602001916110d4565b820191906000526020600020905b8154815290600101906020018083116110b757829003601f168201915b505050505081526020016004820180546110ed906133ed565b80601f0160208091040260200160405190810160405280929190818152602001828054611119906133ed565b80156111665780601f1061113b57610100808354040283529160200191611166565b820191906000526020600020905b81548152906001019060200180831161114957829003601f168201915b5050505050815250509150506111c6565b8080611182906134df565b915050610f3f565b506040517f08c379a00000000000000000000000000000000000000000000000000000000081526004016111bd9061388c565b60405180910390fd5b919050565b6060600c60003373ffffffffffffffffffffffffffffffffffffffff1673ffffffffffffffffffffffffffffffffffffffff168152602001908152602001600020805480602002602001604051908101604052809291908181526020016000905b8282101561130457838290600052602060002090600302016040518060600160405290816000820154815260200160018201548152602001600282018054611273906133ed565b80601f016020809104026020016040519081016040528092919081815260200182805461129f906133ed565b80156112ec5780601f106112c1576101008083540402835291602001916112ec565b820191906000526020600020905b8154815290600101906020018083116112cf57829003601f168201915b5050505050815250508152602001906001019061122c565b50505050905090565b6005818154811061131d57600080fd5b906000526020600020906005020160009150905080600001549080600101549080600201805461134c906133ed565b80601f0160208091040260200160405190810160405280929190818152602001828054611378906133ed565b80156113c55780601f1061139a576101008083540402835291602001916113c5565b820191906000526020600020905b8154815290600101906020018083116113a857829003601f168201915b5050505050908060030180546113da906133ed565b80601f0160208091040260200160405190810160405280929190818152602001828054611406906133ed565b80156114535780601f1061142857610100808354040283529160200191611453565b820191906000526020600020905b81548152906001019060200180831161143657829003601f168201915b505050505090806004018054611468906133ed565b80601f0160208091040260200160405190810160405280929190818152602001828054611494906133ed565b80156114e15780601f106114b6576101008083540402835291602001916114e1565b820191906000526020600020905b8154815290600101906020018083116114c457829003601f168201915b5050505050905085565b60066020528060005260406000206000915054906101000a900473ffffffffffffffffffffffffffffffffffffffff1681565b60076020528060005260406000206000915090505481565b600b602052816000526040600020818154811061155257600080fd5b906000526020600020906005020160009150915050806000015490806001015490806002018054611582906133ed565b80601f01602080910402602001604051908101604052809291908181526020018280546115ae906133ed565b80156115fb5780601f106115d0576101008083540402835291602001916115fb565b820191906000526020600020905b8154815290600101906020018083116115de57829003601f168201915b505050505090806003018054611610906133ed565b80601f016020809104026020016040519081016040528092919081815260200182805461163c906133ed565b80156116895780601f1061165e57610100808354040283529160200191611689565b820191906000526020600020905b81548152906001019060200180831161166c57829003601f168201915b50505050509080600401805461169e906133ed565b80601f01602080910402602001604051908101604052809291908181526020018280546116ca906133ed565b80156117175780601f106116ec57610100808354040283529160200191611717565b820191906000526020600020905b8154815290600101906020018083116116fa57829003601f168201915b5050505050905085565b60015481565b60606003805480602002602001604051908101604052809291908181526020016000905b8282101561194757838290600052602060002090600502016040518060a00160405290816000820154815260200160018201548152602001600282018054611792906133ed565b80601f01602080910402602001604051908101604052809291908181526020018280546117be906133ed565b801561180b5780601f106117e05761010080835404028352916020019161180b565b820191906000526020600020905b8154815290600101906020018083116117ee57829003601f168201915b50505050508152602001600382018054611824906133ed565b80601f0160208091040260200160405190810160405280929190818152602001828054611850906133ed565b801561189d5780601f106118725761010080835404028352916020019161189d565b820191906000526020600020905b81548152906001019060200180831161188057829003601f168201915b505050505081526020016004820180546118b6906133ed565b80601f01602080910402602001604051908101604052809291908181526020018280546118e2906133ed565b801561192f5780601f106119045761010080835404028352916020019161192f565b820191906000526020600020905b81548152906001019060200180831161191257829003601f168201915b5050505050815250508152602001906001019061174b565b50505050905090565b6000600d600083815260200190815260200160002060009054906101000a900460ff169050919050565b6060600960003373ffffffffffffffffffffffffffffffffffffffff1673ffffffffffffffffffffffffffffffffffffffff168152602001908152602001600020805480602002602001604051908101604052809291908181526020016000905b82821015611bd757838290600052602060002090600502016040518060a00160405290816000820154815260200160018201548152602001600282018054611a22906133ed565b80601f0160208091040260200160405190810160405280929190818152602001828054611a4e906133ed565b8015611a9b5780601f10611a7057610100808354040283529160200191611a9b565b820191906000526020600020905b815481529060010190602001808311611a7e57829003601f168201915b50505050508152602001600382018054611ab4906133ed565b80601f0160208091040260200160405190810160405280929190818152602001828054611ae0906133ed565b8015611b2d5780601f10611b0257610100808354040283529160200191611b2d565b820191906000526020600020905b815481529060010190602001808311611b1057829003601f168201915b50505050508152602001600482018054611b46906133ed565b80601f0160208091040260200160405190810160405280929190818152602001828054611b72906133ed565b8015611bbf5780601f10611b9457610100808354040283529160200191611bbf565b820191906000526020600020905b815481529060010190602001808311611ba257829003601f168201915b505050505081525050815260200190600101906119db565b50505050905090565b611be86127e6565b60005b600580549050811015611e36578260058281548110611c0d57611c0c6137a5565b5b90600052602060002090600502016000015403611e235760058181548110611c3857611c376137a5565b5b90600052602060002090600502016040518060a00160405290816000820154815260200160018201548152602001600282018054611c75906133ed565b80601f0160208091040260200160405190810160405280929190818152602001828054611ca1906133ed565b8015611cee5780601f10611cc357610100808354040283529160200191611cee565b820191906000526020600020905b815481529060010190602001808311611cd157829003601f168201915b50505050508152602001600382018054611d07906133ed565b80601f0160208091040260200160405190810160405280929190818152602001828054611d33906133ed565b8015611d805780601f10611d5557610100808354040283529160200191611d80565b820191906000526020600020905b815481529060010190602001808311611d6357829003601f168201915b50505050508152602001600482018054611d99906133ed565b80601f0160208091040260200160405190810160405280929190818152602001828054611dc5906133ed565b8015611e125780601f10611de757610100808354040283529160200191611e12565b820191906000526020600020905b815481529060010190602001808311611df557829003601f168201915b505050505081525050915050611e72565b8080611e2e906134df565b915050611beb565b506040517f08c379a0000000000000000000000000000000000000000000000000000000008152600401611e69906138f8565b60405180910390fd5b919050565b600c6020528160005260406000208181548110611e9357600080fd5b906000526020600020906003020160009150915050806000015490806001015490806002018054611ec3906133ed565b80601f0160208091040260200160405190810160405280929190818152602001828054611eef906133ed565b8015611f3c5780601f10611f1157610100808354040283529160200191611f3c565b820191906000526020600020905b815481529060010190602001808311611f1f57829003601f168201915b5050505050905083565b60096020528160005260406000208181548110611f6257600080fd5b906000526020600020906005020160009150915050806000015490806001015490806002018054611f92906133ed565b80601f0160208091040260200160405190810160405280929190818152602001828054611fbe906133ed565b801561200b5780601f10611fe05761010080835404028352916020019161200b565b820191906000526020600020905b815481529060010190602001808311611fee57829003601f168201915b505050505090806003018054612020906133ed565b80601f016020809104026020016040519081016040528092919081815260200182805461204c906133ed565b80156120995780601f1061206e57610100808354040283529160200191612099565b820191906000526020600020905b81548152906001019060200180831161207c57829003601f168201915b5050505050908060040180546120ae906133ed565b80601f01602080910402602001604051908101604052809291908181526020018280546120da906133ed565b80156121275780601f106120fc57610100808354040283529160200191612127565b820191906000526020600020905b81548152906001019060200180831161210a57829003601f168201915b5050505050905085565b60076000858152602001908152602001600020543373ffffffffffffffffffffffffffffffffffffffff166006600083815260200190815260200160002060009054906101000a900473ffffffffffffffffffffffffffffffffffffffff1673ffffffffffffffffffffffffffffffffffffffff16146121e6576040517f08c379a00000000000000000000000000000000000000000000000000000000081526004016121dd90613490565b60405180910390fd5b60006040518060a00160405280600254815260200187815260200186815260200185815260200184815250905060058190806001815401808255809150506001900390600052602060002090600502016000909190919091506000820151816000015560208201518160010155604082015181600201908161226891906136d3565b50606082015181600301908161227e91906136d3565b50608082015181600401908161229491906136d3565b505050600b6000878152602001908152602001600020819080600181540180825580915050600190039060005260206000209060050201600090919091909150600082015181600001556020820151816001015560408201518160020190816122fd91906136d3565b50606082015181600301908161231391906136d3565b50608082015181600401908161232991906136d3565b5050507f4fc9d5acc453e78e01b205af5788a1c62f195c4b5cdc8eb8f1c670863b7e736a60025460405161235d9190612cf4565b60405180910390a160026000815480929190612378906134df565b9190505550505050505050565b6003818154811061239557600080fd5b90600052602060002090600502016000915090508060000154908060010154908060020180546123c4906133ed565b80601f01602080910402602001604051908101604052809291908181526020018280546123f0906133ed565b801561243d5780601f106124125761010080835404028352916020019161243d565b820191906000526020600020905b81548152906001019060200180831161242057829003601f168201915b505050505090806003018054612452906133ed565b80601f016020809104026020016040519081016040528092919081815260200182805461247e906133ed565b80156124cb5780601f106124a0576101008083540402835291602001916124cb565b820191906000526020600020905b8154815290600101906020018083116124ae57829003601f168201915b5050505050908060040180546124e0906133ed565b80601f016020809104026020016040519081016040528092919081815260200182805461250c906133ed565b80156125595780601f1061252e57610100808354040283529160200191612559565b820191906000526020600020905b81548152906001019060200180831161253c57829003601f168201915b5050505050905085565b60025481565b60006040518060a0016040528060005481526020018681526020018581526020018481526020018381525090506003819080600181540180825580915050600190039060005260206000209060050201600090919091909150600082015181600001556020820151816001015560408201518160020190816125eb91906136d3565b50606082015181600301908161260191906136d3565b50608082015181600401908161261791906136d3565b50505060008081548092919061262c906134df565b919050555033600660008360000151815260200190815260200160002060006101000a81548173ffffffffffffffffffffffffffffffffffffffff021916908373ffffffffffffffffffffffffffffffffffffffff160217905550600960003373ffffffffffffffffffffffffffffffffffffffff1673ffffffffffffffffffffffffffffffffffffffff1681526020019081526020016000208190806001815401808255809150506001900390600052602060002090600502016000909190919091506000820151816000015560208201518160010155604082015181600201908161271991906136d3565b50606082015181600301908161272f91906136d3565b50608082015181600401908161274591906136d3565b5050505050505050565b60005481565b600061276082611be0565b6020015190506001600d600083815260200190815260200160002060006101000a81548160ff0219169083151502179055505050565b60405180606001604052806000815260200160008152602001606081525090565b6040518060a0016040528060008152602001600081526020016060815260200160608152602001606081525090565b6040518060a0016040528060008152602001600081526020016060815260200160608152602001606081525090565b600081519050919050565b600082825260208201905092915050565b6000819050602082019050919050565b6000819050919050565b61285481612841565b82525050565b600081519050919050565b600082825260208201905092915050565b60005b83811015612894578082015181840152602081019050612879565b60008484015250505050565b6000601f19601f8301169050919050565b60006128bc8261285a565b6128c68185612865565b93506128d6818560208601612876565b6128df816128a0565b840191505092915050565b600060a083016000830151612902600086018261284b565b506020830151612915602086018261284b565b506040830151848203604086015261292d82826128b1565b9150506060830151848203606086015261294782826128b1565b9150506080830151848203608086015261296182826128b1565b9150508091505092915050565b600061297a83836128ea565b905092915050565b6000602082019050919050565b600061299a82612815565b6129a48185612820565b9350836020820285016129b685612831565b8060005b858110156129f257848403895281516129d3858261296e565b94506129de83612982565b925060208a019950506001810190506129ba565b50829750879550505050505092915050565b60006020820190508181036000830152612a1e818461298f565b905092915050565b6000604051905090565b600080fd5b600080fd5b612a4381612841565b8114612a4e57600080fd5b50565b600081359050612a6081612a3a565b92915050565b600080fd5b600080fd5b7f4e487b7100000000000000000000000000000000000000000000000000000000600052604160045260246000fd5b612aa8826128a0565b810181811067ffffffffffffffff82111715612ac757612ac6612a70565b5b80604052505050565b6000612ada612a26565b9050612ae68282612a9f565b919050565b600067ffffffffffffffff821115612b0657612b05612a70565b5b612b0f826128a0565b9050602081019050919050565b82818337600083830152505050565b6000612b3e612b3984612aeb565b612ad0565b905082815260208101848484011115612b5a57612b59612a6b565b5b612b65848285612b1c565b509392505050565b600082601f830112612b8257612b81612a66565b5b8135612b92848260208601612b2b565b91505092915050565b60008060408385031215612bb257612bb1612a30565b5b6000612bc085828601612a51565b925050602083013567ffffffffffffffff811115612be157612be0612a35565b5b612bed85828601612b6d565b9150509250929050565b600060208284031215612c0d57612c0c612a30565b5b6000612c1b84828501612a51565b91505092915050565b60008115159050919050565b612c3981612c24565b82525050565b6000602082019050612c546000830184612c30565b92915050565b600073ffffffffffffffffffffffffffffffffffffffff82169050919050565b6000612c8582612c5a565b9050919050565b612c9581612c7a565b8114612ca057600080fd5b50565b600081359050612cb281612c8c565b92915050565b600060208284031215612cce57612ccd612a30565b5b6000612cdc84828501612ca3565b91505092915050565b612cee81612841565b82525050565b6000602082019050612d096000830184612ce5565b92915050565b6000606083016000830151612d27600086018261284b565b506020830151612d3a602086018261284b565b5060408301518482036040860152612d5282826128b1565b9150508091505092915050565b60006020820190508181036000830152612d798184612d0f565b905092915050565b60008060408385031215612d9857612d97612a30565b5b6000612da685828601612a51565b9250506020612db785828601612a51565b9150509250929050565b600082825260208201905092915050565b6000612ddd8261285a565b612de78185612dc1565b9350612df7818560208601612876565b612e00816128a0565b840191505092915050565b6000606082019050612e206000830186612ce5565b612e2d6020830185612ce5565b8181036040830152612e3f8184612dd2565b9050949350505050565b600081519050919050565b600082825260208201905092915050565b6000819050602082019050919050565b6000606083016000830151612e8d600086018261284b565b506020830151612ea0602086018261284b565b5060408301518482036040860152612eb882826128b1565b9150508091505092915050565b6000612ed18383612e75565b905092915050565b6000602082019050919050565b6000612ef182612e49565b612efb8185612e54565b935083602082028501612f0d85612e65565b8060005b85811015612f495784840389528151612f2a8582612ec5565b9450612f3583612ed9565b925060208a01995050600181019050612f11565b50829750879550505050505092915050565b60006020820190508181036000830152612f758184612ee6565b905092915050565b600060a083016000830151612f95600086018261284b565b506020830151612fa8602086018261284b565b5060408301518482036040860152612fc082826128b1565b91505060608301518482036060860152612fda82826128b1565b91505060808301518482036080860152612ff482826128b1565b9150508091505092915050565b6000602082019050818103600083015261301b8184612f7d565b905092915050565b600060a0820190506130386000830188612ce5565b6130456020830187612ce5565b81810360408301526130578186612dd2565b9050818103606083015261306b8185612dd2565b9050818103608083015261307f8184612dd2565b90509695505050505050565b61309481612c7a565b82525050565b60006020820190506130af600083018461308b565b92915050565b600081519050919050565b600082825260208201905092915050565b6000819050602082019050919050565b600060a0830160008301516130f9600086018261284b565b50602083015161310c602086018261284b565b506040830151848203604086015261312482826128b1565b9150506060830151848203606086015261313e82826128b1565b9150506080830151848203608086015261315882826128b1565b9150508091505092915050565b600061317183836130e1565b905092915050565b6000602082019050919050565b6000613191826130b5565b61319b81856130c0565b9350836020820285016131ad856130d1565b8060005b858110156131e957848403895281516131ca8582613165565b94506131d583613179565b925060208a019950506001810190506131b1565b50829750879550505050505092915050565b600060208201905081810360008301526132158184613186565b905092915050565b600060a083016000830151613235600086018261284b565b506020830151613248602086018261284b565b506040830151848203604086015261326082826128b1565b9150506060830151848203606086015261327a82826128b1565b9150506080830151848203608086015261329482826128b1565b9150508091505092915050565b600060208201905081810360008301526132bb818461321d565b905092915050565b600080604083850312156132da576132d9612a30565b5b60006132e885828601612ca3565b92505060206132f985828601612a51565b9150509250929050565b6000806000806080858703121561331d5761331c612a30565b5b600061332b87828801612a51565b945050602085013567ffffffffffffffff81111561334c5761334b612a35565b5b61335887828801612b6d565b935050604085013567ffffffffffffffff81111561337957613378612a35565b5b61338587828801612b6d565b925050606085013567ffffffffffffffff8111156133a6576133a5612a35565b5b6133b287828801612b6d565b91505092959194509250565b7f4e487b7100000000000000000000000000000000000000000000000000000000600052602260045260246000fd5b6000600282049050600182168061340557607f821691505b602082108103613418576134176133be565b5b50919050565b7f596f7520617265206e6f7420746865206f776e6572206f66207468697320636f60008201527f7700000000000000000000000000000000000000000000000000000000000000602082015250565b600061347a602183612dc1565b91506134858261341e565b604082019050919050565b600060208201905081810360008301526134a98161346d565b9050919050565b7f4e487b7100000000000000000000000000000000000000000000000000000000600052601160045260246000fd5b60006134ea82612841565b91507fffffffffffffffffffffffffffffffffffffffffffffffffffffffffffffffff820361351c5761351b6134b0565b5b600182019050919050565b60008190508160005260206000209050919050565b60006020601f8301049050919050565b600082821b905092915050565b6000600883026135897fffffffffffffffffffffffffffffffffffffffffffffffffffffffffffffffff8261354c565b613593868361354c565b95508019841693508086168417925050509392505050565b6000819050919050565b60006135d06135cb6135c684612841565b6135ab565b612841565b9050919050565b6000819050919050565b6135ea836135b5565b6135fe6135f6826135d7565b848454613559565b825550505050565b600090565b613613613606565b61361e8184846135e1565b505050565b5b818110156136425761363760008261360b565b600181019050613624565b5050565b601f8211156136875761365881613527565b6136618461353c565b81016020851015613670578190505b61368461367c8561353c565b830182613623565b50505b505050565b600082821c905092915050565b60006136aa6000198460080261368c565b1980831691505092915050565b60006136c38383613699565b9150826002028217905092915050565b6136dc8261285a565b67ffffffffffffffff8111156136f5576136f4612a70565b5b6136ff82546133ed565b61370a828285613646565b600060209050601f83116001811461373d576000841561372b578287015190505b61373585826136b7565b86555061379d565b601f19841661374b86613527565b60005b828110156137735784890151825560018201915060208501945060208101905061374e565b86831015613790578489015161378c601f891682613699565b8355505b6001600288020188555050505b505050505050565b7f4e487b7100000000000000000000000000000000000000000000000000000000600052603260045260246000fd5b7f4d696c6b206e6f7420666f756e64210000000000000000000000000000000000600082015250565b600061380a600f83612dc1565b9150613815826137d4565b602082019050919050565b60006020820190508181036000830152613839816137fd565b9050919050565b7f436f77206e6f7420666f756e6421000000000000000000000000000000000000600082015250565b6000613876600e83612dc1565b915061388182613840565b602082019050919050565b600060208201905081810360008301526138a581613869565b9050919050565b7f50726f64756374206e6f7420666f756e64210000000000000000000000000000600082015250565b60006138e2601283612dc1565b91506138ed826138ac565b602082019050919050565b60006020820190508181036000830152613911816138d5565b905091905056fea2646970667358221220ff432630771e68a12ec3e7788d3a856e1cfbf0dee60e3d1e218cb16b34fe13ce64736f6c63430008130033",
  "immutableReferences": {},
  "source": "pragma solidity ^0.8.17;\r\n\r\ncontract MilkFactory {\r\n\r\n    struct Dairy {\r\n        address dairyAddress;\r\n        string dairyName;\r\n        string dairyPlace;\r\n    }\r\n\r\n    struct Cow {\r\n        uint256 id;\r\n        uint256 weight;\r\n        string breed;\r\n        string birthDate;\r\n        string residence;\r\n    }\r\n\r\n    struct Milk {\r\n        uint256 id;\r\n        uint256 cowId;\r\n        string dateOfProduction;\r\n    }\r\n\r\n    struct Product { //Should add more info about product \r\n        uint256 id;\r\n        uint256 milkId;\r\n        string dateOfProduction;\r\n        string productType;\r\n        string expiryDate;\r\n    }\r\n\r\n    //constructor() {\r\n    //    owner = msg.sender;\r\n    //}\r\n\r\n    modifier onlyOwnerOf(uint256 _cowId) {\r\n        require(cowToOwner[_cowId] == msg.sender, \"You are not the owner of this cow\");\r\n        _;\r\n    }\r\n    \r\n    uint256 public cowCount = 0;\r\n    uint256 public milkCount = 0;\r\n    uint256 public productCount = 0;\r\n\r\n    event ProductAdded(uint256 productId);\r\n    event SpoiledProduct(uint256 productId);\r\n    event LogMessage(string message);\r\n    \r\n    Cow[] public cowList;\r\n    Milk[] public milkList;\r\n    Product[] public productList;\r\n\r\n    mapping(uint256 => address) public cowToOwner;\r\n    mapping(uint256 => uint256) public milkToCow;\r\n    mapping(address => uint256) public ownerMilkCount;\r\n    mapping(address => Cow[]) public ownerToCowList;\r\n    mapping(uint256 => Milk[]) public cowToMilkList;\r\n    mapping(uint256 => Product[]) public milkToProductList;\r\n    mapping(address => Milk[]) public ownerToMilk;\r\n    mapping(uint256 => bool) public spoiledMilks;\r\n    //mapping(uint256 => uint256) public milkToCow;\r\n    \r\n\r\n    function addCow(uint256 _weight, string memory _breed, string memory _birthDate, string memory _residence) public {\r\n        Cow memory myCow = Cow(cowCount, _weight, _breed, _birthDate, _residence);\r\n        cowList.push(myCow);\r\n        //Increase cow count that is used as id\r\n        cowCount++;\r\n        cowToOwner[myCow.id] = msg.sender;\r\n        ownerToCowList[msg.sender].push(myCow);\r\n    }\r\n    \r\n    function addMilk(uint256 _cowId, string memory _dateOfProduction) public onlyOwnerOf(_cowId) {\r\n        //Check if cow exists\r\n        Milk memory myMilk = Milk(milkCount, _cowId, _dateOfProduction);\r\n        spoiledMilks[milkCount] = false;\r\n        milkCount++;\r\n        milkList.push(myMilk);\r\n        cowToMilkList[_cowId].push(myMilk);\r\n        milkToCow[myMilk.id] = _cowId;\r\n        ownerMilkCount[msg.sender]++; \r\n        ownerToMilk[msg.sender].push(myMilk);\r\n    }\r\n    \r\n    function addProduct(uint256 _milkId, string memory _dateOfProduction, string memory _productType, string memory _expiryDate) public  onlyOwnerOf(milkToCow[_milkId]) {\r\n        //Check if milk exists\r\n        Product memory  myProduct = Product( productCount, _milkId, _dateOfProduction, _productType, _expiryDate);\r\n        productList.push(myProduct);\r\n        milkToProductList[_milkId].push(myProduct);\r\n        emit ProductAdded(productCount);\r\n        productCount++;  \r\n    }\r\n\r\n    function getAllCows() public view returns(Cow[] memory) {\r\n        return cowList;\r\n    }\r\n\r\n    function getCowsOfOwner() public view returns(Cow[] memory) {\r\n        return ownerToCowList[msg.sender];\r\n    }\r\n    \r\n    function getAllMilks() public view returns(Milk[] memory) {\r\n        return milkList;\r\n    }\r\n\r\n    function getMilksOfOwner() public view returns (Milk[] memory) {\r\n        return ownerToMilk[msg.sender];    \r\n    }\r\n\r\n    function reportSpoiledProduct(uint256 _productId) public {\r\n        uint256 milkId = getProduct(_productId).milkId;\r\n        spoiledMilks[milkId] = true;\r\n    }\r\n\r\n    function getAllProducts() public view returns(Product[] memory) {\r\n        return productList;\r\n    }\r\n\r\n    function getProduct(uint256 _productId) public view returns(Product memory) {\r\n        for(uint i=0; i < productList.length; i++) { \r\n            if(productList[i].id == _productId) {\r\n                return productList[i];\r\n            }\r\n        }\r\n        revert(\"Product not found!\"); //Undo, return value, give back gas \r\n    }\r\n\r\n    function isMilkSpoiled(uint256 _milkId) public view returns(bool) {\r\n        return spoiledMilks[_milkId];\r\n    }\r\n\r\n    function getMilk(uint256 _milkId) public view returns(Milk memory) {\r\n        for(uint i=0; i < milkList.length; i++) { \r\n            if(milkList[i].id == _milkId) {\r\n                return milkList[i];\r\n            }\r\n        }\r\n        revert(\"Milk not found!\"); //Undo, return value, give back gas \r\n    }\r\n\r\n    function getCow(uint256 _cowId) public view returns(Cow memory) {\r\n        for(uint i=0; i < cowList.length; i++) { \r\n            if(cowList[i].id == _cowId) {\r\n                return cowList[i];\r\n            }\r\n        }\r\n        revert(\"Cow not found!\"); //Undo, return value, give back gas \r\n    }\r\n}",
  "sourcePath": "C:\\Users\\tomas\\Desktop\\Blockchain-Project\\blockchain\\contracts\\MilkFactory.sol",
  "compiler": {
    "name": "solc",
    "version": "0.8.19+commit.7dd6d404.Emscripten.clang"
  },
  "schemaVersion": "3.4.13",
  "updatedAt": "2023-07-05T09:46:34.496Z",
  "networkType": "ethereum",
  "devdoc": {
    "kind": "dev",
    "methods": {},
    "version": 1
  },
  "userdoc": {
    "kind": "user",
    "methods": {},
    "version": 1
  }
}