{
  "contractName": "MilkFactory",
  "abi": [
    {
      "inputs": [
        {
          "internalType": "uint256",
          "name": "",
          "type": "uint256"
        },
        {
          "internalType": "uint256",
          "name": "",
          "type": "uint256"
        }
      ],
      "name": "cowToMilkList",
      "outputs": [
        {
          "internalType": "uint256",
          "name": "id",
          "type": "uint256"
        },
        {
          "internalType": "uint256",
          "name": "cowId",
          "type": "uint256"
        }
      ],
      "stateMutability": "view",
      "type": "function",
      "constant": true
    },
    {
      "inputs": [
        {
          "internalType": "uint256",
          "name": "",
          "type": "uint256"
        }
      ],
      "name": "cowToOwner",
      "outputs": [
        {
          "internalType": "address",
          "name": "",
          "type": "address"
        }
      ],
      "stateMutability": "view",
      "type": "function",
      "constant": true
    },
    {
      "inputs": [
        {
          "internalType": "uint256",
          "name": "",
          "type": "uint256"
        }
      ],
      "name": "milkToCow",
      "outputs": [
        {
          "internalType": "uint256",
          "name": "",
          "type": "uint256"
        }
      ],
      "stateMutability": "view",
      "type": "function",
      "constant": true
    },
    {
      "inputs": [
        {
          "internalType": "uint256",
          "name": "",
          "type": "uint256"
        },
        {
          "internalType": "uint256",
          "name": "",
          "type": "uint256"
        }
      ],
      "name": "milkToProductList",
      "outputs": [
        {
          "internalType": "uint256",
          "name": "id",
          "type": "uint256"
        },
        {
          "internalType": "uint256",
          "name": "milkId",
          "type": "uint256"
        }
      ],
      "stateMutability": "view",
      "type": "function",
      "constant": true
    },
    {
      "inputs": [
        {
          "internalType": "address",
          "name": "",
          "type": "address"
        }
      ],
      "name": "ownerCowCount",
      "outputs": [
        {
          "internalType": "uint256",
          "name": "",
          "type": "uint256"
        }
      ],
      "stateMutability": "view",
      "type": "function",
      "constant": true
    },
    {
      "inputs": [
        {
          "internalType": "uint256",
          "name": "_cowId",
          "type": "uint256"
        }
      ],
      "name": "addCow",
      "outputs": [],
      "stateMutability": "nonpayable",
      "type": "function"
    },
    {
      "inputs": [
        {
          "internalType": "uint256",
          "name": "_cowId",
          "type": "uint256"
        },
        {
          "internalType": "uint256",
          "name": "_milkId",
          "type": "uint256"
        }
      ],
      "name": "addMilk",
      "outputs": [],
      "stateMutability": "nonpayable",
      "type": "function"
    },
    {
      "inputs": [
        {
          "internalType": "uint256",
          "name": "_productId",
          "type": "uint256"
        },
        {
          "internalType": "uint256",
          "name": "_milkId",
          "type": "uint256"
        }
      ],
      "name": "addProduct",
      "outputs": [],
      "stateMutability": "nonpayable",
      "type": "function"
    },
    {
      "inputs": [],
      "name": "getAllProducts",
      "outputs": [
        {
          "components": [
            {
              "internalType": "uint256",
              "name": "id",
              "type": "uint256"
            },
            {
              "internalType": "uint256",
              "name": "milkId",
              "type": "uint256"
            }
          ],
          "internalType": "struct MilkFactory.Product[]",
          "name": "",
          "type": "tuple[]"
        }
      ],
      "stateMutability": "view",
      "type": "function",
      "constant": true
    },
    {
      "inputs": [
        {
          "internalType": "uint256",
          "name": "_productId",
          "type": "uint256"
        }
      ],
      "name": "getProduct",
      "outputs": [
        {
          "components": [
            {
              "internalType": "uint256",
              "name": "id",
              "type": "uint256"
            },
            {
              "internalType": "uint256",
              "name": "milkId",
              "type": "uint256"
            }
          ],
          "internalType": "struct MilkFactory.Product",
          "name": "",
          "type": "tuple"
        }
      ],
      "stateMutability": "view",
      "type": "function",
      "constant": true
    }
  ],
  "bytecode": "0x608060405234801561001057600080fd5b50610c57806100206000396000f3fe608060405234801561001057600080fd5b506004361061009e5760003560e01c80637ba3372d116100665780637ba3372d1461016e5780638b6924791461019f578063b9db15b4146101bb578063c5c1b3b5146101eb578063cbc52794146102075761009e565b806302ee3a52146100a35780630bc2e79c146100c15780631dc2c408146100dd5780635515d0f61461010e5780636c46f2a01461013e575b600080fd5b6100ab610237565b6040516100b8919061085a565b60405180910390f35b6100db60048036038101906100d691906108ad565b6102aa565b005b6100f760048036038101906100f291906108da565b610354565b604051610105929190610929565b60405180910390f35b610128600480360381019061012391906108ad565b610395565b6040516101359190610993565b60405180910390f35b610158600480360381019061015391906108ad565b6103c8565b60405161016591906109ae565b60405180910390f35b610188600480360381019061018391906108da565b6103e0565b604051610196929190610929565b60405180910390f35b6101b960048036038101906101b491906108da565b610421565b005b6101d560048036038101906101d091906108ad565b610542565b6040516101e291906109f8565b60405180910390f35b610205600480360381019061020091906108da565b610623565b005b610221600480360381019061021c9190610a3f565b610731565b60405161022e91906109ae565b60405180910390f35b60606000805480602002602001604051908101604052809291908181526020016000905b828210156102a15783829060005260206000209060020201604051806040016040529081600082015481526020016001820154815250508152602001906001019061025b565b50505050905090565b336001600083815260200190815260200160002060006101000a81548173ffffffffffffffffffffffffffffffffffffffff021916908373ffffffffffffffffffffffffffffffffffffffff160217905550600260003373ffffffffffffffffffffffffffffffffffffffff1673ffffffffffffffffffffffffffffffffffffffff168152602001908152602001600020600081548092919061034c90610a9b565b919050555050565b6003602052816000526040600020818154811061037057600080fd5b9060005260206000209060020201600091509150508060000154908060010154905082565b60016020528060005260406000206000915054906101000a900473ffffffffffffffffffffffffffffffffffffffff1681565b60056020528060005260406000206000915090505481565b600460205281600052604060002081815481106103fc57600080fd5b9060005260206000209060020201600091509150508060000154908060010154905082565b60056000828152602001908152602001600020543373ffffffffffffffffffffffffffffffffffffffff166001600083815260200190815260200160002060009054906101000a900473ffffffffffffffffffffffffffffffffffffffff1673ffffffffffffffffffffffffffffffffffffffff16146104d6576040517f08c379a00000000000000000000000000000000000000000000000000000000081526004016104cd90610b66565b60405180910390fd5b60046000838152602001908152602001600020604051806040016040528085815260200184815250908060018154018082558091505060019003906000526020600020906002020160009091909190915060008201518160000155602082015181600101555050505050565b61054a610749565b60005b6000805490508110156105e257826000828154811061056f5761056e610b86565b5b906000526020600020906002020160000154036105cf576000818154811061059a57610599610b86565b5b90600052602060002090600202016040518060400160405290816000820154815260200160018201548152505091505061061e565b80806105da90610a9b565b91505061054d565b506040517f08c379a000000000000000000000000000000000000000000000000000000000815260040161061590610c01565b60405180910390fd5b919050565b813373ffffffffffffffffffffffffffffffffffffffff166001600083815260200190815260200160002060009054906101000a900473ffffffffffffffffffffffffffffffffffffffff1673ffffffffffffffffffffffffffffffffffffffff16146106c5576040517f08c379a00000000000000000000000000000000000000000000000000000000081526004016106bc90610b66565b60405180910390fd5b60036000848152602001908152602001600020604051806040016040528084815260200185815250908060018154018082558091505060019003906000526020600020906002020160009091909190915060008201518160000155602082015181600101555050505050565b60026020528060005260406000206000915090505481565b604051806040016040528060008152602001600081525090565b600081519050919050565b600082825260208201905092915050565b6000819050602082019050919050565b6000819050919050565b6107a28161078f565b82525050565b6040820160008201516107be6000850182610799565b5060208201516107d16020850182610799565b50505050565b60006107e383836107a8565b60408301905092915050565b6000602082019050919050565b600061080782610763565b610811818561076e565b935061081c8361077f565b8060005b8381101561084d57815161083488826107d7565b975061083f836107ef565b925050600181019050610820565b5085935050505092915050565b6000602082019050818103600083015261087481846107fc565b905092915050565b600080fd5b61088a8161078f565b811461089557600080fd5b50565b6000813590506108a781610881565b92915050565b6000602082840312156108c3576108c261087c565b5b60006108d184828501610898565b91505092915050565b600080604083850312156108f1576108f061087c565b5b60006108ff85828601610898565b925050602061091085828601610898565b9150509250929050565b6109238161078f565b82525050565b600060408201905061093e600083018561091a565b61094b602083018461091a565b9392505050565b600073ffffffffffffffffffffffffffffffffffffffff82169050919050565b600061097d82610952565b9050919050565b61098d81610972565b82525050565b60006020820190506109a86000830184610984565b92915050565b60006020820190506109c3600083018461091a565b92915050565b6040820160008201516109df6000850182610799565b5060208201516109f26020850182610799565b50505050565b6000604082019050610a0d60008301846109c9565b92915050565b610a1c81610972565b8114610a2757600080fd5b50565b600081359050610a3981610a13565b92915050565b600060208284031215610a5557610a5461087c565b5b6000610a6384828501610a2a565b91505092915050565b7f4e487b7100000000000000000000000000000000000000000000000000000000600052601160045260246000fd5b6000610aa68261078f565b91507fffffffffffffffffffffffffffffffffffffffffffffffffffffffffffffffff8203610ad857610ad7610a6c565b5b600182019050919050565b600082825260208201905092915050565b7f596f7520617265206e6f7420746865206f776e6572206f66207468697320636f60008201527f7700000000000000000000000000000000000000000000000000000000000000602082015250565b6000610b50602183610ae3565b9150610b5b82610af4565b604082019050919050565b60006020820190508181036000830152610b7f81610b43565b9050919050565b7f4e487b7100000000000000000000000000000000000000000000000000000000600052603260045260246000fd5b7f50726f64756374206e6f7420666f756e64210000000000000000000000000000600082015250565b6000610beb601283610ae3565b9150610bf682610bb5565b602082019050919050565b60006020820190508181036000830152610c1a81610bde565b905091905056fea26469706673582212200d7abbd310c396efe7ddad6be9a0573a3842e8bcc16c2ba080419c47a22486c264736f6c63430008130033",
  "immutableReferences": {},
  "source": "pragma solidity ^0.8.17;\r\n\r\ncontract MilkFactory {\r\n\r\n    struct Daisy {\r\n        uint256 id;\r\n    }\r\n\r\n    struct Cow {\r\n        uint256 id;\r\n    }\r\n\r\n    struct Milk {\r\n        uint256 id;\r\n        uint256 cowId;\r\n    }\r\n\r\n    struct Product { //Should add more info about product \r\n        uint256 id;\r\n        uint256 milkId;\r\n    }\r\n\r\n    //constructor() {\r\n    //    owner = msg.sender;\r\n    //}\r\n\r\n    modifier onlyOwnerOf(uint256 _cowId) {\r\n        require(cowToOwner[_cowId] == msg.sender, \"You are not the owner of this cow\");\r\n        _;\r\n    }\r\n\r\n    Product[] productList;\r\n\r\n    mapping(uint256 => address) public cowToOwner;\r\n    mapping(address => uint256) public ownerCowCount;\r\n    mapping(uint256 => Milk[]) public cowToMilkList;\r\n    mapping(uint256 => Product[]) public milkToProductList;\r\n    mapping(uint256 => uint256) public milkToCow;\r\n\r\n    function addCow(uint256 _cowId) public {\r\n        cowToOwner[_cowId] = msg.sender;\r\n        ownerCowCount[msg.sender]++;\r\n    }\r\n    \r\n    function addMilk(uint256 _cowId, uint256 _milkId) public onlyOwnerOf(_cowId) {\r\n        cowToMilkList[_cowId].push(Milk(_milkId, _cowId));\r\n    }\r\n\r\n    function addProduct(uint256 _productId, uint256 _milkId) public onlyOwnerOf(milkToCow[_milkId]) {\r\n        milkToProductList[_milkId].push(Product(_productId, _milkId));\r\n    }\r\n\r\n    function getAllProducts() public view returns(Product[] memory) {\r\n        return productList;\r\n    }\r\n\r\n    function getProduct(uint256 _productId) public view returns(Product memory) {\r\n        for(uint i=0; i < productList.length; i++) { \r\n            if(productList[i].id == _productId) {\r\n                return productList[i];\r\n            }\r\n        }\r\n        revert(\"Product not found!\"); //Undo, return value, give back gas \r\n    }\r\n\r\n}",
  "sourcePath": "C:\\Users\\tomas\\Desktop\\Blockchain-Project\\blockchain\\contracts\\MilkFactory.sol",
  "compiler": {
    "name": "solc",
    "version": "0.8.19+commit.7dd6d404.Emscripten.clang"
  },
  "schemaVersion": "3.4.13",
  "updatedAt": "2023-04-15T08:52:50.037Z",
  "networkType": "ethereum",
  "devdoc": {
    "kind": "dev",
    "methods": {},
    "version": 1
  },
  "userdoc": {
    "kind": "user",
    "methods": {},
    "version": 1
  }
}