{
  "contractName": "MilkFactory",
  "abi": [
    {
      "anonymous": false,
      "inputs": [
        {
          "indexed": false,
          "internalType": "string",
          "name": "message",
          "type": "string"
        }
      ],
      "name": "LogMessage",
      "type": "event"
    },
    {
      "anonymous": false,
      "inputs": [
        {
          "indexed": false,
          "internalType": "uint256",
          "name": "productId",
          "type": "uint256"
        }
      ],
      "name": "ProductAdded",
      "type": "event"
    },
    {
      "anonymous": false,
      "inputs": [
        {
          "indexed": false,
          "internalType": "uint256",
          "name": "productId",
          "type": "uint256"
        }
      ],
      "name": "SpoiledProduct",
      "type": "event"
    },
    {
      "inputs": [],
      "name": "cowCount",
      "outputs": [
        {
          "internalType": "uint256",
          "name": "",
          "type": "uint256"
        }
      ],
      "stateMutability": "view",
      "type": "function",
      "constant": true
    },
    {
      "inputs": [
        {
          "internalType": "uint256",
          "name": "",
          "type": "uint256"
        }
      ],
      "name": "cowList",
      "outputs": [
        {
          "internalType": "uint256",
          "name": "id",
          "type": "uint256"
        },
        {
          "internalType": "uint16",
          "name": "weight",
          "type": "uint16"
        },
        {
          "internalType": "string",
          "name": "breed",
          "type": "string"
        },
        {
          "internalType": "string",
          "name": "birthDate",
          "type": "string"
        },
        {
          "internalType": "string",
          "name": "residence",
          "type": "string"
        }
      ],
      "stateMutability": "view",
      "type": "function",
      "constant": true
    },
    {
      "inputs": [
        {
          "internalType": "uint256",
          "name": "",
          "type": "uint256"
        },
        {
          "internalType": "uint256",
          "name": "",
          "type": "uint256"
        }
      ],
      "name": "cowToMilkList",
      "outputs": [
        {
          "internalType": "uint256",
          "name": "id",
          "type": "uint256"
        },
        {
          "internalType": "uint256",
          "name": "cowId",
          "type": "uint256"
        },
        {
          "internalType": "string",
          "name": "dateOfProduction",
          "type": "string"
        }
      ],
      "stateMutability": "view",
      "type": "function",
      "constant": true
    },
    {
      "inputs": [
        {
          "internalType": "uint256",
          "name": "",
          "type": "uint256"
        }
      ],
      "name": "cowToOwner",
      "outputs": [
        {
          "internalType": "address",
          "name": "",
          "type": "address"
        }
      ],
      "stateMutability": "view",
      "type": "function",
      "constant": true
    },
    {
      "inputs": [
        {
          "internalType": "uint256",
          "name": "",
          "type": "uint256"
        }
      ],
      "name": "dairyList",
      "outputs": [
        {
          "internalType": "address",
          "name": "dairyAddress",
          "type": "address"
        },
        {
          "internalType": "string",
          "name": "dairyName",
          "type": "string"
        },
        {
          "internalType": "string",
          "name": "dairyPlace",
          "type": "string"
        }
      ],
      "stateMutability": "view",
      "type": "function",
      "constant": true
    },
    {
      "inputs": [
        {
          "internalType": "uint256",
          "name": "",
          "type": "uint256"
        }
      ],
      "name": "deathCows",
      "outputs": [
        {
          "internalType": "bool",
          "name": "",
          "type": "bool"
        }
      ],
      "stateMutability": "view",
      "type": "function",
      "constant": true
    },
    {
      "inputs": [],
      "name": "milkCount",
      "outputs": [
        {
          "internalType": "uint256",
          "name": "",
          "type": "uint256"
        }
      ],
      "stateMutability": "view",
      "type": "function",
      "constant": true
    },
    {
      "inputs": [
        {
          "internalType": "uint256",
          "name": "",
          "type": "uint256"
        }
      ],
      "name": "milkList",
      "outputs": [
        {
          "internalType": "uint256",
          "name": "id",
          "type": "uint256"
        },
        {
          "internalType": "uint256",
          "name": "cowId",
          "type": "uint256"
        },
        {
          "internalType": "string",
          "name": "dateOfProduction",
          "type": "string"
        }
      ],
      "stateMutability": "view",
      "type": "function",
      "constant": true
    },
    {
      "inputs": [
        {
          "internalType": "uint256",
          "name": "",
          "type": "uint256"
        }
      ],
      "name": "milkToCow",
      "outputs": [
        {
          "internalType": "uint256",
          "name": "",
          "type": "uint256"
        }
      ],
      "stateMutability": "view",
      "type": "function",
      "constant": true
    },
    {
      "inputs": [
        {
          "internalType": "uint256",
          "name": "",
          "type": "uint256"
        },
        {
          "internalType": "uint256",
          "name": "",
          "type": "uint256"
        }
      ],
      "name": "milkToProductList",
      "outputs": [
        {
          "internalType": "uint256",
          "name": "id",
          "type": "uint256"
        },
        {
          "internalType": "uint256",
          "name": "milkId",
          "type": "uint256"
        },
        {
          "internalType": "string",
          "name": "dateOfProduction",
          "type": "string"
        },
        {
          "internalType": "string",
          "name": "productType",
          "type": "string"
        },
        {
          "internalType": "string",
          "name": "expiryDate",
          "type": "string"
        }
      ],
      "stateMutability": "view",
      "type": "function",
      "constant": true
    },
    {
      "inputs": [
        {
          "internalType": "address",
          "name": "",
          "type": "address"
        }
      ],
      "name": "ownerMilkCount",
      "outputs": [
        {
          "internalType": "uint256",
          "name": "",
          "type": "uint256"
        }
      ],
      "stateMutability": "view",
      "type": "function",
      "constant": true
    },
    {
      "inputs": [
        {
          "internalType": "address",
          "name": "",
          "type": "address"
        },
        {
          "internalType": "uint256",
          "name": "",
          "type": "uint256"
        }
      ],
      "name": "ownerToCowList",
      "outputs": [
        {
          "internalType": "uint256",
          "name": "id",
          "type": "uint256"
        },
        {
          "internalType": "uint16",
          "name": "weight",
          "type": "uint16"
        },
        {
          "internalType": "string",
          "name": "breed",
          "type": "string"
        },
        {
          "internalType": "string",
          "name": "birthDate",
          "type": "string"
        },
        {
          "internalType": "string",
          "name": "residence",
          "type": "string"
        }
      ],
      "stateMutability": "view",
      "type": "function",
      "constant": true
    },
    {
      "inputs": [
        {
          "internalType": "address",
          "name": "",
          "type": "address"
        },
        {
          "internalType": "uint256",
          "name": "",
          "type": "uint256"
        }
      ],
      "name": "ownerToMilk",
      "outputs": [
        {
          "internalType": "uint256",
          "name": "id",
          "type": "uint256"
        },
        {
          "internalType": "uint256",
          "name": "cowId",
          "type": "uint256"
        },
        {
          "internalType": "string",
          "name": "dateOfProduction",
          "type": "string"
        }
      ],
      "stateMutability": "view",
      "type": "function",
      "constant": true
    },
    {
      "inputs": [],
      "name": "productCount",
      "outputs": [
        {
          "internalType": "uint256",
          "name": "",
          "type": "uint256"
        }
      ],
      "stateMutability": "view",
      "type": "function",
      "constant": true
    },
    {
      "inputs": [
        {
          "internalType": "uint256",
          "name": "",
          "type": "uint256"
        }
      ],
      "name": "productList",
      "outputs": [
        {
          "internalType": "uint256",
          "name": "id",
          "type": "uint256"
        },
        {
          "internalType": "uint256",
          "name": "milkId",
          "type": "uint256"
        },
        {
          "internalType": "string",
          "name": "dateOfProduction",
          "type": "string"
        },
        {
          "internalType": "string",
          "name": "productType",
          "type": "string"
        },
        {
          "internalType": "string",
          "name": "expiryDate",
          "type": "string"
        }
      ],
      "stateMutability": "view",
      "type": "function",
      "constant": true
    },
    {
      "inputs": [
        {
          "internalType": "uint256",
          "name": "",
          "type": "uint256"
        }
      ],
      "name": "spoiledMilks",
      "outputs": [
        {
          "internalType": "bool",
          "name": "",
          "type": "bool"
        }
      ],
      "stateMutability": "view",
      "type": "function",
      "constant": true
    },
    {
      "inputs": [
        {
          "internalType": "string",
          "name": "_dairyName",
          "type": "string"
        },
        {
          "internalType": "string",
          "name": "_dairyPlace",
          "type": "string"
        }
      ],
      "name": "addDairy",
      "outputs": [],
      "stateMutability": "nonpayable",
      "type": "function"
    },
    {
      "inputs": [],
      "name": "checkDairyIsRegistered",
      "outputs": [
        {
          "internalType": "bool",
          "name": "",
          "type": "bool"
        }
      ],
      "stateMutability": "view",
      "type": "function",
      "constant": true
    },
    {
      "inputs": [],
      "name": "getAllDairyExceptSelf",
      "outputs": [
        {
          "components": [
            {
              "internalType": "address",
              "name": "dairyAddress",
              "type": "address"
            },
            {
              "internalType": "string",
              "name": "dairyName",
              "type": "string"
            },
            {
              "internalType": "string",
              "name": "dairyPlace",
              "type": "string"
            }
          ],
          "internalType": "struct MilkFactory.Dairy[]",
          "name": "",
          "type": "tuple[]"
        }
      ],
      "stateMutability": "view",
      "type": "function",
      "constant": true
    },
    {
      "inputs": [
        {
          "internalType": "uint256",
          "name": "_cowId",
          "type": "uint256"
        },
        {
          "internalType": "address",
          "name": "_newOwner",
          "type": "address"
        }
      ],
      "name": "transferCow",
      "outputs": [],
      "stateMutability": "nonpayable",
      "type": "function"
    },
    {
      "inputs": [
        {
          "internalType": "uint16",
          "name": "_weight",
          "type": "uint16"
        },
        {
          "internalType": "string",
          "name": "_breed",
          "type": "string"
        },
        {
          "internalType": "string",
          "name": "_birthDate",
          "type": "string"
        },
        {
          "internalType": "string",
          "name": "_residence",
          "type": "string"
        }
      ],
      "name": "addCow",
      "outputs": [],
      "stateMutability": "nonpayable",
      "type": "function"
    },
    {
      "inputs": [
        {
          "internalType": "uint256",
          "name": "_cowId",
          "type": "uint256"
        },
        {
          "internalType": "string",
          "name": "_dateOfProduction",
          "type": "string"
        }
      ],
      "name": "addMilk",
      "outputs": [],
      "stateMutability": "nonpayable",
      "type": "function"
    },
    {
      "inputs": [
        {
          "internalType": "uint256",
          "name": "_milkId",
          "type": "uint256"
        },
        {
          "internalType": "string",
          "name": "_dateOfProduction",
          "type": "string"
        },
        {
          "internalType": "string",
          "name": "_productType",
          "type": "string"
        },
        {
          "internalType": "string",
          "name": "_expiryDate",
          "type": "string"
        }
      ],
      "name": "addProduct",
      "outputs": [],
      "stateMutability": "nonpayable",
      "type": "function"
    },
    {
      "inputs": [
        {
          "internalType": "uint256",
          "name": "_cowId",
          "type": "uint256"
        }
      ],
      "name": "killCow",
      "outputs": [],
      "stateMutability": "nonpayable",
      "type": "function"
    },
    {
      "inputs": [],
      "name": "getAllCows",
      "outputs": [
        {
          "components": [
            {
              "internalType": "uint256",
              "name": "id",
              "type": "uint256"
            },
            {
              "internalType": "uint16",
              "name": "weight",
              "type": "uint16"
            },
            {
              "internalType": "string",
              "name": "breed",
              "type": "string"
            },
            {
              "internalType": "string",
              "name": "birthDate",
              "type": "string"
            },
            {
              "internalType": "string",
              "name": "residence",
              "type": "string"
            }
          ],
          "internalType": "struct MilkFactory.Cow[]",
          "name": "",
          "type": "tuple[]"
        }
      ],
      "stateMutability": "view",
      "type": "function",
      "constant": true
    },
    {
      "inputs": [],
      "name": "getCowsOfOwner",
      "outputs": [
        {
          "components": [
            {
              "internalType": "uint256",
              "name": "id",
              "type": "uint256"
            },
            {
              "internalType": "uint16",
              "name": "weight",
              "type": "uint16"
            },
            {
              "internalType": "string",
              "name": "breed",
              "type": "string"
            },
            {
              "internalType": "string",
              "name": "birthDate",
              "type": "string"
            },
            {
              "internalType": "string",
              "name": "residence",
              "type": "string"
            }
          ],
          "internalType": "struct MilkFactory.Cow[]",
          "name": "",
          "type": "tuple[]"
        }
      ],
      "stateMutability": "view",
      "type": "function",
      "constant": true
    },
    {
      "inputs": [],
      "name": "getAliveCowsOfOwner",
      "outputs": [
        {
          "components": [
            {
              "internalType": "uint256",
              "name": "id",
              "type": "uint256"
            },
            {
              "internalType": "uint16",
              "name": "weight",
              "type": "uint16"
            },
            {
              "internalType": "string",
              "name": "breed",
              "type": "string"
            },
            {
              "internalType": "string",
              "name": "birthDate",
              "type": "string"
            },
            {
              "internalType": "string",
              "name": "residence",
              "type": "string"
            }
          ],
          "internalType": "struct MilkFactory.Cow[]",
          "name": "",
          "type": "tuple[]"
        }
      ],
      "stateMutability": "view",
      "type": "function",
      "constant": true
    },
    {
      "inputs": [],
      "name": "getAllMilks",
      "outputs": [
        {
          "components": [
            {
              "internalType": "uint256",
              "name": "id",
              "type": "uint256"
            },
            {
              "internalType": "uint256",
              "name": "cowId",
              "type": "uint256"
            },
            {
              "internalType": "string",
              "name": "dateOfProduction",
              "type": "string"
            }
          ],
          "internalType": "struct MilkFactory.Milk[]",
          "name": "",
          "type": "tuple[]"
        }
      ],
      "stateMutability": "view",
      "type": "function",
      "constant": true
    },
    {
      "inputs": [],
      "name": "getMilksOfOwner",
      "outputs": [
        {
          "components": [
            {
              "internalType": "uint256",
              "name": "id",
              "type": "uint256"
            },
            {
              "internalType": "uint256",
              "name": "cowId",
              "type": "uint256"
            },
            {
              "internalType": "string",
              "name": "dateOfProduction",
              "type": "string"
            }
          ],
          "internalType": "struct MilkFactory.Milk[]",
          "name": "",
          "type": "tuple[]"
        }
      ],
      "stateMutability": "view",
      "type": "function",
      "constant": true
    },
    {
      "inputs": [
        {
          "internalType": "uint256",
          "name": "_productId",
          "type": "uint256"
        }
      ],
      "name": "reportSpoiledProduct",
      "outputs": [],
      "stateMutability": "nonpayable",
      "type": "function"
    },
    {
      "inputs": [],
      "name": "getAllProducts",
      "outputs": [
        {
          "components": [
            {
              "internalType": "uint256",
              "name": "id",
              "type": "uint256"
            },
            {
              "internalType": "uint256",
              "name": "milkId",
              "type": "uint256"
            },
            {
              "internalType": "string",
              "name": "dateOfProduction",
              "type": "string"
            },
            {
              "internalType": "string",
              "name": "productType",
              "type": "string"
            },
            {
              "internalType": "string",
              "name": "expiryDate",
              "type": "string"
            }
          ],
          "internalType": "struct MilkFactory.Product[]",
          "name": "",
          "type": "tuple[]"
        }
      ],
      "stateMutability": "view",
      "type": "function",
      "constant": true
    },
    {
      "inputs": [
        {
          "internalType": "uint256",
          "name": "_productId",
          "type": "uint256"
        }
      ],
      "name": "getProduct",
      "outputs": [
        {
          "components": [
            {
              "internalType": "uint256",
              "name": "id",
              "type": "uint256"
            },
            {
              "internalType": "uint256",
              "name": "milkId",
              "type": "uint256"
            },
            {
              "internalType": "string",
              "name": "dateOfProduction",
              "type": "string"
            },
            {
              "internalType": "string",
              "name": "productType",
              "type": "string"
            },
            {
              "internalType": "string",
              "name": "expiryDate",
              "type": "string"
            }
          ],
          "internalType": "struct MilkFactory.Product",
          "name": "",
          "type": "tuple"
        }
      ],
      "stateMutability": "view",
      "type": "function",
      "constant": true
    },
    {
      "inputs": [
        {
          "internalType": "uint256",
          "name": "_milkId",
          "type": "uint256"
        }
      ],
      "name": "isMilkSpoiled",
      "outputs": [
        {
          "internalType": "bool",
          "name": "",
          "type": "bool"
        }
      ],
      "stateMutability": "view",
      "type": "function",
      "constant": true
    },
    {
      "inputs": [
        {
          "internalType": "uint256",
          "name": "_milkId",
          "type": "uint256"
        }
      ],
      "name": "getMilk",
      "outputs": [
        {
          "components": [
            {
              "internalType": "uint256",
              "name": "id",
              "type": "uint256"
            },
            {
              "internalType": "uint256",
              "name": "cowId",
              "type": "uint256"
            },
            {
              "internalType": "string",
              "name": "dateOfProduction",
              "type": "string"
            }
          ],
          "internalType": "struct MilkFactory.Milk",
          "name": "",
          "type": "tuple"
        }
      ],
      "stateMutability": "view",
      "type": "function",
      "constant": true
    },
    {
      "inputs": [
        {
          "internalType": "uint256",
          "name": "_cowId",
          "type": "uint256"
        }
      ],
      "name": "getCow",
      "outputs": [
        {
          "components": [
            {
              "internalType": "uint256",
              "name": "id",
              "type": "uint256"
            },
            {
              "internalType": "uint16",
              "name": "weight",
              "type": "uint16"
            },
            {
              "internalType": "string",
              "name": "breed",
              "type": "string"
            },
            {
              "internalType": "string",
              "name": "birthDate",
              "type": "string"
            },
            {
              "internalType": "string",
              "name": "residence",
              "type": "string"
            }
          ],
          "internalType": "struct MilkFactory.Cow",
          "name": "",
          "type": "tuple"
        }
      ],
      "stateMutability": "view",
      "type": "function",
      "constant": true
    }
  ],
  "bytecode": "0x6080604052600080556000600155600060025534801561001e57600080fd5b506151ac8061002e6000396000f3fe608060405234801561001057600080fd5b50600436106102115760003560e01c80637ba3372d11610125578063b9db15b4116100ad578063cb7cdaad1161007c578063cb7cdaad146106ae578063e0f6ef87146106e2578063edb5a45714610700578063ef2670f11461071e578063fe47b4fb1461073a57610211565b8063b9db15b4146105fc578063b9f9fbfe1461062c578063beda38f51461065e578063c1393d271461069257610211565b80639e0289d2116100f45780639e0289d2146105465780639fd1fef414610562578063ae81394c14610592578063b3597a22146105c2578063b6f7ea8a146105de57610211565b80637ba3372d146104ba5780638d15b01f146104ee5780638de6e5f11461050a578063927fb4de1461052857610211565b8063329bcfa5116101a8578063521839331161017757806352183933146103ec578063528c87d21461040a5780635515d0f61461043e57806365db2d581461046e5780636c46f2a01461048a57610211565b8063329bcfa51461036257806334df9b6014610380578063449794dc146103b05780634a71bd2a146103ce57610211565b8063103b99d7116101e4578063103b99d7146102b0578063184e9c2d146102ce5780631dc2c408146102fe5780632bd6ccc81461033057610211565b806302ee3a521461021657806308f0eb531461023457806309e88f45146102505780630f926aeb14610280575b600080fd5b61021e61076c565b60405161022b9190613cd3565b60405180910390f35b61024e60048036038101906102499190613e6a565b610995565b005b61026a60048036038101906102659190613ec6565b610c6b565b6040516102779190613f0e565b60405180910390f35b61029a60048036038101906102959190613f87565b610c8b565b6040516102a79190613fc3565b60405180910390f35b6102b8610ca3565b6040516102c59190614106565b60405180910390f35b6102e860048036038101906102e39190613ec6565b610f87565b6040516102f59190614178565b60405180910390f35b6103186004803603810190610313919061419a565b6110fa565b60405161032793929190614224565b60405180910390f35b61034a60048036038101906103459190613ec6565b6111c9565b60405161035993929190614224565b60405180910390f35b61036a61128b565b6040516103779190614374565b60405180910390f35b61039a60048036038101906103959190613ec6565b611390565b6040516103a79190614437565b60405180910390f35b6103b861163d565b6040516103c5919061459f565b60405180910390f35b6103d6611a47565b6040516103e39190614374565b60405180910390f35b6103f4611b89565b6040516104019190613f0e565b60405180910390f35b610424600480360381019061041f9190613ec6565b611c3c565b6040516104359594939291906145c1565b60405180910390f35b61045860048036038101906104539190613ec6565b611e1a565b6040516104659190614638565b60405180910390f35b6104886004803603810190610483919061467f565b611e4d565b005b6104a4600480360381019061049f9190613ec6565b612069565b6040516104b19190613fc3565b60405180910390f35b6104d460048036038101906104cf919061419a565b612081565b6040516104e59594939291906145c1565b60405180910390f35b6105086004803603810190610503919061473a565b61226c565b005b6105126127bf565b60405161051f9190613fc3565b60405180910390f35b6105306127c5565b60405161053d919061459f565b60405180910390f35b610560600480360381019061055b919061477a565b612a04565b005b61057c60048036038101906105779190613ec6565b612adf565b6040516105899190613f0e565b60405180910390f35b6105ac60048036038101906105a79190613ec6565b612aff565b6040516105b99190613f0e565b60405180910390f35b6105dc60048036038101906105d79190613ec6565b612b29565b005b6105e6612bfb565b6040516105f3919061459f565b60405180910390f35b61061660048036038101906106119190613ec6565b612e77565b6040516106239190614876565b60405180910390f35b61064660048036038101906106419190614898565b61310e565b60405161065593929190614224565b60405180910390f35b61067860048036038101906106739190614898565b6131dd565b6040516106899594939291906148e7565b60405180910390f35b6106ac60048036038101906106a7919061494f565b6133d6565b005b6106c860048036038101906106c39190613ec6565b61362a565b6040516106d99594939291906148e7565b60405180910390f35b6106ea613816565b6040516106f79190613fc3565b60405180910390f35b61070861381c565b6040516107159190613fc3565b60405180910390f35b61073860048036038101906107339190613ec6565b613822565b005b610754600480360381019061074f9190613ec6565b613863565b60405161076393929190614a0a565b60405180910390f35b60606006805480602002602001604051908101604052809291908181526020016000905b8282101561098c57838290600052602060002090600502016040518060a001604052908160008201548152602001600182015481526020016002820180546107d790614a7e565b80601f016020809104026020016040519081016040528092919081815260200182805461080390614a7e565b80156108505780601f1061082557610100808354040283529160200191610850565b820191906000526020600020905b81548152906001019060200180831161083357829003601f168201915b5050505050815260200160038201805461086990614a7e565b80601f016020809104026020016040519081016040528092919081815260200182805461089590614a7e565b80156108e25780601f106108b7576101008083540402835291602001916108e2565b820191906000526020600020905b8154815290600101906020018083116108c557829003601f168201915b505050505081526020016004820180546108fb90614a7e565b80601f016020809104026020016040519081016040528092919081815260200182805461092790614a7e565b80156109745780601f1061094957610100808354040283529160200191610974565b820191906000526020600020905b81548152906001019060200180831161095757829003601f168201915b50505050508152505081526020019060010190610790565b50505050905090565b813373ffffffffffffffffffffffffffffffffffffffff166007600083815260200190815260200160002060009054906101000a900473ffffffffffffffffffffffffffffffffffffffff1673ffffffffffffffffffffffffffffffffffffffff1614610a37576040517f08c379a0000000000000000000000000000000000000000000000000000000008152600401610a2e90614b21565b60405180910390fd5b6000604051806060016040528060015481526020018581526020018481525090506000600e6000600154815260200190815260200160002060006101000a81548160ff021916908315150217905550600581908060018154018082558091505060019003906000526020600020906003020160009091909190915060008201518160000155602082015181600101556040820151816002019081610adb9190614ced565b50505060016000815480929190610af190614dee565b9190505550600b600085815260200190815260200160002081908060018154018082558091505060019003906000526020600020906003020160009091909190915060008201518160000155602082015181600101556040820151816002019081610b5c9190614ced565b50505083600860008360000151815260200190815260200160002081905550600960003373ffffffffffffffffffffffffffffffffffffffff1673ffffffffffffffffffffffffffffffffffffffff1681526020019081526020016000206000815480929190610bcb90614dee565b9190505550600d60003373ffffffffffffffffffffffffffffffffffffffff1673ffffffffffffffffffffffffffffffffffffffff16815260200190815260200160002081908060018154018082558091505060019003906000526020600020906003020160009091909190915060008201518160000155602082015181600101556040820151816002019081610c629190614ced565b50505050505050565b600e6020528060005260406000206000915054906101000a900460ff1681565b60096020528060005260406000206000915090505481565b606060006001600380549050610cb99190614e36565b67ffffffffffffffff811115610cd257610cd1613d3f565b5b604051908082528060200260200182016040528015610d0b57816020015b610cf86139cd565b815260200190600190039081610cf05790505b5090506000805b600380549050811015610f7e573373ffffffffffffffffffffffffffffffffffffffff1660038281548110610d4a57610d49614e6a565b5b906000526020600020906003020160000160009054906101000a900473ffffffffffffffffffffffffffffffffffffffff1673ffffffffffffffffffffffffffffffffffffffff1614610f6b5760038181548110610dab57610daa614e6a565b5b90600052602060002090600302016040518060600160405290816000820160009054906101000a900473ffffffffffffffffffffffffffffffffffffffff1673ffffffffffffffffffffffffffffffffffffffff1673ffffffffffffffffffffffffffffffffffffffff168152602001600182018054610e2a90614a7e565b80601f0160208091040260200160405190810160405280929190818152602001828054610e5690614a7e565b8015610ea35780601f10610e7857610100808354040283529160200191610ea3565b820191906000526020600020905b815481529060010190602001808311610e8657829003601f168201915b50505050508152602001600282018054610ebc90614a7e565b80601f0160208091040260200160405190810160405280929190818152602001828054610ee890614a7e565b8015610f355780601f10610f0a57610100808354040283529160200191610f35565b820191906000526020600020905b815481529060010190602001808311610f1857829003601f168201915b505050505081525050838381518110610f5157610f50614e6a565b5b60200260200101819052508180610f6790614dee565b9250505b8080610f7690614dee565b915050610d12565b50819250505090565b610f8f613a04565b60005b6005805490508110156110b9578260058281548110610fb457610fb3614e6a565b5b906000526020600020906003020160000154036110a65760058181548110610fdf57610fde614e6a565b5b9060005260206000209060030201604051806060016040529081600082015481526020016001820154815260200160028201805461101c90614a7e565b80601f016020809104026020016040519081016040528092919081815260200182805461104890614a7e565b80156110955780601f1061106a57610100808354040283529160200191611095565b820191906000526020600020905b81548152906001019060200180831161107857829003601f168201915b5050505050815250509150506110f5565b80806110b190614dee565b915050610f92565b506040517f08c379a00000000000000000000000000000000000000000000000000000000081526004016110ec90614ee5565b60405180910390fd5b919050565b600b602052816000526040600020818154811061111657600080fd5b90600052602060002090600302016000915091505080600001549080600101549080600201805461114690614a7e565b80601f016020809104026020016040519081016040528092919081815260200182805461117290614a7e565b80156111bf5780601f10611194576101008083540402835291602001916111bf565b820191906000526020600020905b8154815290600101906020018083116111a257829003601f168201915b5050505050905083565b600581815481106111d957600080fd5b906000526020600020906003020160009150905080600001549080600101549080600201805461120890614a7e565b80601f016020809104026020016040519081016040528092919081815260200182805461123490614a7e565b80156112815780601f1061125657610100808354040283529160200191611281565b820191906000526020600020905b81548152906001019060200180831161126457829003601f168201915b5050505050905083565b60606005805480602002602001604051908101604052809291908181526020016000905b82821015611387578382906000526020600020906003020160405180606001604052908160008201548152602001600182015481526020016002820180546112f690614a7e565b80601f016020809104026020016040519081016040528092919081815260200182805461132290614a7e565b801561136f5780601f106113445761010080835404028352916020019161136f565b820191906000526020600020905b81548152906001019060200180831161135257829003601f168201915b505050505081525050815260200190600101906112af565b50505050905090565b611398613a25565b60005b6004805490508110156115fc5782600482815481106113bd576113bc614e6a565b5b906000526020600020906005020160000154036115e957600481815481106113e8576113e7614e6a565b5b90600052602060002090600502016040518060a0016040529081600082015481526020016001820160009054906101000a900461ffff1661ffff1661ffff16815260200160028201805461143b90614a7e565b80601f016020809104026020016040519081016040528092919081815260200182805461146790614a7e565b80156114b45780601f10611489576101008083540402835291602001916114b4565b820191906000526020600020905b81548152906001019060200180831161149757829003601f168201915b505050505081526020016003820180546114cd90614a7e565b80601f01602080910402602001604051908101604052809291908181526020018280546114f990614a7e565b80156115465780601f1061151b57610100808354040283529160200191611546565b820191906000526020600020905b81548152906001019060200180831161152957829003601f168201915b5050505050815260200160048201805461155f90614a7e565b80601f016020809104026020016040519081016040528092919081815260200182805461158b90614a7e565b80156115d85780601f106115ad576101008083540402835291602001916115d8565b820191906000526020600020905b8154815290600101906020018083116115bb57829003601f168201915b505050505081525050915050611638565b80806115f490614dee565b91505061139b565b506040517f08c379a000000000000000000000000000000000000000000000000000000000815260040161162f90614f51565b60405180910390fd5b919050565b60606000600a60003373ffffffffffffffffffffffffffffffffffffffff1673ffffffffffffffffffffffffffffffffffffffff168152602001908152602001600020805480602002602001604051908101604052809291908181526020016000905b828210156118b257838290600052602060002090600502016040518060a0016040529081600082015481526020016001820160009054906101000a900461ffff1661ffff1661ffff1681526020016002820180546116fd90614a7e565b80601f016020809104026020016040519081016040528092919081815260200182805461172990614a7e565b80156117765780601f1061174b57610100808354040283529160200191611776565b820191906000526020600020905b81548152906001019060200180831161175957829003601f168201915b5050505050815260200160038201805461178f90614a7e565b80601f01602080910402602001604051908101604052809291908181526020018280546117bb90614a7e565b80156118085780601f106117dd57610100808354040283529160200191611808565b820191906000526020600020905b8154815290600101906020018083116117eb57829003601f168201915b5050505050815260200160048201805461182190614a7e565b80601f016020809104026020016040519081016040528092919081815260200182805461184d90614a7e565b801561189a5780601f1061186f5761010080835404028352916020019161189a565b820191906000526020600020905b81548152906001019060200180831161187d57829003601f168201915b505050505081525050815260200190600101906116a0565b5050505090506000805b82518110156119315760001515600f60008584815181106118e0576118df614e6a565b5b602002602001015160000151815260200190815260200160002060009054906101000a900460ff1615150361191e57818061191a90614dee565b9250505b808061192990614dee565b9150506118bc565b5060008167ffffffffffffffff81111561194e5761194d613d3f565b5b60405190808252806020026020018201604052801561198757816020015b611974613a25565b81526020019060019003908161196c5790505b5090506000805b8451811015611a3c5760001515600f60008784815181106119b2576119b1614e6a565b5b602002602001015160000151815260200190815260200160002060009054906101000a900460ff16151503611a29578481815181106119f4576119f3614e6a565b5b6020026020010151838381518110611a0f57611a0e614e6a565b5b60200260200101819052508180611a2590614dee565b9250505b8080611a3490614dee565b91505061198e565b508194505050505090565b6060600d60003373ffffffffffffffffffffffffffffffffffffffff1673ffffffffffffffffffffffffffffffffffffffff168152602001908152602001600020805480602002602001604051908101604052809291908181526020016000905b82821015611b8057838290600052602060002090600302016040518060600160405290816000820154815260200160018201548152602001600282018054611aef90614a7e565b80601f0160208091040260200160405190810160405280929190818152602001828054611b1b90614a7e565b8015611b685780601f10611b3d57610100808354040283529160200191611b68565b820191906000526020600020905b815481529060010190602001808311611b4b57829003601f168201915b50505050508152505081526020019060010190611aa8565b50505050905090565b600080600090505b600380549050811015611c33573373ffffffffffffffffffffffffffffffffffffffff1660038281548110611bc957611bc8614e6a565b5b906000526020600020906003020160000160009054906101000a900473ffffffffffffffffffffffffffffffffffffffff1673ffffffffffffffffffffffffffffffffffffffff1603611c20576001915050611c39565b8080611c2b90614dee565b915050611b91565b50600090505b90565b60068181548110611c4c57600080fd5b9060005260206000209060050201600091509050806000015490806001015490806002018054611c7b90614a7e565b80601f0160208091040260200160405190810160405280929190818152602001828054611ca790614a7e565b8015611cf45780601f10611cc957610100808354040283529160200191611cf4565b820191906000526020600020905b815481529060010190602001808311611cd757829003601f168201915b505050505090806003018054611d0990614a7e565b80601f0160208091040260200160405190810160405280929190818152602001828054611d3590614a7e565b8015611d825780601f10611d5757610100808354040283529160200191611d82565b820191906000526020600020905b815481529060010190602001808311611d6557829003601f168201915b505050505090806004018054611d9790614a7e565b80601f0160208091040260200160405190810160405280929190818152602001828054611dc390614a7e565b8015611e105780601f10611de557610100808354040283529160200191611e10565b820191906000526020600020905b815481529060010190602001808311611df357829003601f168201915b5050505050905085565b60076020528060005260406000206000915054906101000a900473ffffffffffffffffffffffffffffffffffffffff1681565b60006040518060a0016040528060005481526020018661ffff16815260200185815260200184815260200183815250905060048190806001815401808255809150506001900390600052602060002090600502016000909190919091506000820151816000015560208201518160010160006101000a81548161ffff021916908361ffff1602179055506040820151816002019081611eec9190614ced565b506060820151816003019081611f029190614ced565b506080820151816004019081611f189190614ced565b505050600080815480929190611f2d90614dee565b919050555033600760008360000151815260200190815260200160002060006101000a81548173ffffffffffffffffffffffffffffffffffffffff021916908373ffffffffffffffffffffffffffffffffffffffff160217905550600a60003373ffffffffffffffffffffffffffffffffffffffff1673ffffffffffffffffffffffffffffffffffffffff1681526020019081526020016000208190806001815401808255809150506001900390600052602060002090600502016000909190919091506000820151816000015560208201518160010160006101000a81548161ffff021916908361ffff16021790555060408201518160020190816120339190614ced565b5060608201518160030190816120499190614ced565b50608082015181600401908161205f9190614ced565b5050505050505050565b60086020528060005260406000206000915090505481565b600c602052816000526040600020818154811061209d57600080fd5b9060005260206000209060050201600091509150508060000154908060010154908060020180546120cd90614a7e565b80601f01602080910402602001604051908101604052809291908181526020018280546120f990614a7e565b80156121465780601f1061211b57610100808354040283529160200191612146565b820191906000526020600020905b81548152906001019060200180831161212957829003601f168201915b50505050509080600301805461215b90614a7e565b80601f016020809104026020016040519081016040528092919081815260200182805461218790614a7e565b80156121d45780601f106121a9576101008083540402835291602001916121d4565b820191906000526020600020905b8154815290600101906020018083116121b757829003601f168201915b5050505050908060040180546121e990614a7e565b80601f016020809104026020016040519081016040528092919081815260200182805461221590614a7e565b80156122625780601f1061223757610100808354040283529160200191612262565b820191906000526020600020905b81548152906001019060200180831161224557829003601f168201915b5050505050905085565b813373ffffffffffffffffffffffffffffffffffffffff166007600083815260200190815260200160002060009054906101000a900473ffffffffffffffffffffffffffffffffffffffff1673ffffffffffffffffffffffffffffffffffffffff161461230e576040517f08c379a000000000000000000000000000000000000000000000000000000000815260040161230590614b21565b60405180910390fd5b600073ffffffffffffffffffffffffffffffffffffffff168273ffffffffffffffffffffffffffffffffffffffff160361237d576040517f08c379a000000000000000000000000000000000000000000000000000000000815260040161237490614fbd565b60405180910390fd5b60005b600a60003373ffffffffffffffffffffffffffffffffffffffff1673ffffffffffffffffffffffffffffffffffffffff168152602001908152602001600020805490508110156125d05783600a60003373ffffffffffffffffffffffffffffffffffffffff1673ffffffffffffffffffffffffffffffffffffffff168152602001908152602001600020828154811061241c5761241b614e6a565b5b906000526020600020906005020160000154036125bd57600a60003373ffffffffffffffffffffffffffffffffffffffff1673ffffffffffffffffffffffffffffffffffffffff1681526020019081526020016000206001600a60003373ffffffffffffffffffffffffffffffffffffffff1673ffffffffffffffffffffffffffffffffffffffff168152602001908152602001600020805490506124c19190614e36565b815481106124d2576124d1614e6a565b5b9060005260206000209060050201600a60003373ffffffffffffffffffffffffffffffffffffffff1673ffffffffffffffffffffffffffffffffffffffff168152602001908152602001600020828154811061253157612530614e6a565b5b9060005260206000209060050201600082015481600001556001820160009054906101000a900461ffff168160010160006101000a81548161ffff021916908361ffff1602179055506002820181600201908161258e9190614ff3565b50600382018160030190816125a39190614ff3565b50600482018160040190816125b89190614ff3565b509050505b80806125c890614dee565b915050612380565b50600a60003373ffffffffffffffffffffffffffffffffffffffff1673ffffffffffffffffffffffffffffffffffffffff1681526020019081526020016000208054806126205761261f6150db565b5b60019003818190600052602060002090600502016000808201600090556001820160006101000a81549061ffff02191690556002820160006126629190613a58565b6003820160006126729190613a58565b6004820160006126829190613a58565b50509055600a60008373ffffffffffffffffffffffffffffffffffffffff1673ffffffffffffffffffffffffffffffffffffffff1681526020019081526020016000206126ce84611390565b90806001815401808255809150506001900390600052602060002090600502016000909190919091506000820151816000015560208201518160010160006101000a81548161ffff021916908361ffff16021790555060408201518160020190816127399190614ced565b50606082015181600301908161274f9190614ced565b5060808201518160040190816127659190614ced565b505050816007600085815260200190815260200160002060006101000a81548173ffffffffffffffffffffffffffffffffffffffff021916908373ffffffffffffffffffffffffffffffffffffffff160217905550505050565b60015481565b60606004805480602002602001604051908101604052809291908181526020016000905b828210156129fb57838290600052602060002090600502016040518060a0016040529081600082015481526020016001820160009054906101000a900461ffff1661ffff1661ffff16815260200160028201805461284690614a7e565b80601f016020809104026020016040519081016040528092919081815260200182805461287290614a7e565b80156128bf5780601f10612894576101008083540402835291602001916128bf565b820191906000526020600020905b8154815290600101906020018083116128a257829003601f168201915b505050505081526020016003820180546128d890614a7e565b80601f016020809104026020016040519081016040528092919081815260200182805461290490614a7e565b80156129515780601f1061292657610100808354040283529160200191612951565b820191906000526020600020905b81548152906001019060200180831161293457829003601f168201915b5050505050815260200160048201805461296a90614a7e565b80601f016020809104026020016040519081016040528092919081815260200182805461299690614a7e565b80156129e35780601f106129b8576101008083540402835291602001916129e3565b820191906000526020600020905b8154815290600101906020018083116129c657829003601f168201915b505050505081525050815260200190600101906127e9565b50505050905090565b600060405180606001604052803373ffffffffffffffffffffffffffffffffffffffff168152602001848152602001838152509050600381908060018154018082558091505060019003906000526020600020906003020160009091909190915060008201518160000160006101000a81548173ffffffffffffffffffffffffffffffffffffffff021916908373ffffffffffffffffffffffffffffffffffffffff1602179055506020820151816001019081612ac19190614ced565b506040820151816002019081612ad79190614ced565b505050505050565b600f6020528060005260406000206000915054906101000a900460ff1681565b6000600e600083815260200190815260200160002060009054906101000a900460ff169050919050565b803373ffffffffffffffffffffffffffffffffffffffff166007600083815260200190815260200160002060009054906101000a900473ffffffffffffffffffffffffffffffffffffffff1673ffffffffffffffffffffffffffffffffffffffff1614612bcb576040517f08c379a0000000000000000000000000000000000000000000000000000000008152600401612bc290614b21565b60405180910390fd5b6001600f600084815260200190815260200160002060006101000a81548160ff0219169083151502179055505050565b6060600a60003373ffffffffffffffffffffffffffffffffffffffff1673ffffffffffffffffffffffffffffffffffffffff168152602001908152602001600020805480602002602001604051908101604052809291908181526020016000905b82821015612e6e57838290600052602060002090600502016040518060a0016040529081600082015481526020016001820160009054906101000a900461ffff1661ffff1661ffff168152602001600282018054612cb990614a7e565b80601f0160208091040260200160405190810160405280929190818152602001828054612ce590614a7e565b8015612d325780601f10612d0757610100808354040283529160200191612d32565b820191906000526020600020905b815481529060010190602001808311612d1557829003601f168201915b50505050508152602001600382018054612d4b90614a7e565b80601f0160208091040260200160405190810160405280929190818152602001828054612d7790614a7e565b8015612dc45780601f10612d9957610100808354040283529160200191612dc4565b820191906000526020600020905b815481529060010190602001808311612da757829003601f168201915b50505050508152602001600482018054612ddd90614a7e565b80601f0160208091040260200160405190810160405280929190818152602001828054612e0990614a7e565b8015612e565780601f10612e2b57610100808354040283529160200191612e56565b820191906000526020600020905b815481529060010190602001808311612e3957829003601f168201915b50505050508152505081526020019060010190612c5c565b50505050905090565b612e7f613a98565b60005b6006805490508110156130cd578260068281548110612ea457612ea3614e6a565b5b906000526020600020906005020160000154036130ba5760068181548110612ecf57612ece614e6a565b5b90600052602060002090600502016040518060a00160405290816000820154815260200160018201548152602001600282018054612f0c90614a7e565b80601f0160208091040260200160405190810160405280929190818152602001828054612f3890614a7e565b8015612f855780601f10612f5a57610100808354040283529160200191612f85565b820191906000526020600020905b815481529060010190602001808311612f6857829003601f168201915b50505050508152602001600382018054612f9e90614a7e565b80601f0160208091040260200160405190810160405280929190818152602001828054612fca90614a7e565b80156130175780601f10612fec57610100808354040283529160200191613017565b820191906000526020600020905b815481529060010190602001808311612ffa57829003601f168201915b5050505050815260200160048201805461303090614a7e565b80601f016020809104026020016040519081016040528092919081815260200182805461305c90614a7e565b80156130a95780601f1061307e576101008083540402835291602001916130a9565b820191906000526020600020905b81548152906001019060200180831161308c57829003601f168201915b505050505081525050915050613109565b80806130c590614dee565b915050612e82565b506040517f08c379a000000000000000000000000000000000000000000000000000000000815260040161310090615156565b60405180910390fd5b919050565b600d602052816000526040600020818154811061312a57600080fd5b90600052602060002090600302016000915091505080600001549080600101549080600201805461315a90614a7e565b80601f016020809104026020016040519081016040528092919081815260200182805461318690614a7e565b80156131d35780601f106131a8576101008083540402835291602001916131d3565b820191906000526020600020905b8154815290600101906020018083116131b657829003601f168201915b5050505050905083565b600a60205281600052604060002081815481106131f957600080fd5b9060005260206000209060050201600091509150508060000154908060010160009054906101000a900461ffff169080600201805461323790614a7e565b80601f016020809104026020016040519081016040528092919081815260200182805461326390614a7e565b80156132b05780601f10613285576101008083540402835291602001916132b0565b820191906000526020600020905b81548152906001019060200180831161329357829003601f168201915b5050505050908060030180546132c590614a7e565b80601f01602080910402602001604051908101604052809291908181526020018280546132f190614a7e565b801561333e5780601f106133135761010080835404028352916020019161333e565b820191906000526020600020905b81548152906001019060200180831161332157829003601f168201915b50505050509080600401805461335390614a7e565b80601f016020809104026020016040519081016040528092919081815260200182805461337f90614a7e565b80156133cc5780601f106133a1576101008083540402835291602001916133cc565b820191906000526020600020905b8154815290600101906020018083116133af57829003601f168201915b5050505050905085565b60086000858152602001908152602001600020543373ffffffffffffffffffffffffffffffffffffffff166007600083815260200190815260200160002060009054906101000a900473ffffffffffffffffffffffffffffffffffffffff1673ffffffffffffffffffffffffffffffffffffffff161461348b576040517f08c379a000000000000000000000000000000000000000000000000000000000815260040161348290614b21565b60405180910390fd5b60006040518060a00160405280600254815260200187815260200186815260200185815260200184815250905060068190806001815401808255809150506001900390600052602060002090600502016000909190919091506000820151816000015560208201518160010155604082015181600201908161350d9190614ced565b5060608201518160030190816135239190614ced565b5060808201518160040190816135399190614ced565b505050600c6000878152602001908152602001600020819080600181540180825580915050600190039060005260206000209060050201600090919091909150600082015181600001556020820151816001015560408201518160020190816135a29190614ced565b5060608201518160030190816135b89190614ced565b5060808201518160040190816135ce9190614ced565b5050507f4fc9d5acc453e78e01b205af5788a1c62f195c4b5cdc8eb8f1c670863b7e736a6002546040516136029190613fc3565b60405180910390a16002600081548092919061361d90614dee565b9190505550505050505050565b6004818154811061363a57600080fd5b90600052602060002090600502016000915090508060000154908060010160009054906101000a900461ffff169080600201805461367790614a7e565b80601f01602080910402602001604051908101604052809291908181526020018280546136a390614a7e565b80156136f05780601f106136c5576101008083540402835291602001916136f0565b820191906000526020600020905b8154815290600101906020018083116136d357829003601f168201915b50505050509080600301805461370590614a7e565b80601f016020809104026020016040519081016040528092919081815260200182805461373190614a7e565b801561377e5780601f106137535761010080835404028352916020019161377e565b820191906000526020600020905b81548152906001019060200180831161376157829003601f168201915b50505050509080600401805461379390614a7e565b80601f01602080910402602001604051908101604052809291908181526020018280546137bf90614a7e565b801561380c5780601f106137e15761010080835404028352916020019161380c565b820191906000526020600020905b8154815290600101906020018083116137ef57829003601f168201915b5050505050905085565b60025481565b60005481565b600061382d82612e77565b6020015190506001600e600083815260200190815260200160002060006101000a81548160ff0219169083151502179055505050565b6003818154811061387357600080fd5b90600052602060002090600302016000915090508060000160009054906101000a900473ffffffffffffffffffffffffffffffffffffffff16908060010180546138bc90614a7e565b80601f01602080910402602001604051908101604052809291908181526020018280546138e890614a7e565b80156139355780601f1061390a57610100808354040283529160200191613935565b820191906000526020600020905b81548152906001019060200180831161391857829003601f168201915b50505050509080600201805461394a90614a7e565b80601f016020809104026020016040519081016040528092919081815260200182805461397690614a7e565b80156139c35780601f10613998576101008083540402835291602001916139c3565b820191906000526020600020905b8154815290600101906020018083116139a657829003601f168201915b5050505050905083565b6040518060600160405280600073ffffffffffffffffffffffffffffffffffffffff16815260200160608152602001606081525090565b60405180606001604052806000815260200160008152602001606081525090565b6040518060a0016040528060008152602001600061ffff1681526020016060815260200160608152602001606081525090565b508054613a6490614a7e565b6000825580601f10613a765750613a95565b601f016020900490600052602060002090810190613a949190613ac7565b5b50565b6040518060a0016040528060008152602001600081526020016060815260200160608152602001606081525090565b5b80821115613ae0576000816000905550600101613ac8565b5090565b600081519050919050565b600082825260208201905092915050565b6000819050602082019050919050565b6000819050919050565b613b2381613b10565b82525050565b600081519050919050565b600082825260208201905092915050565b60005b83811015613b63578082015181840152602081019050613b48565b60008484015250505050565b6000601f19601f8301169050919050565b6000613b8b82613b29565b613b958185613b34565b9350613ba5818560208601613b45565b613bae81613b6f565b840191505092915050565b600060a083016000830151613bd16000860182613b1a565b506020830151613be46020860182613b1a565b5060408301518482036040860152613bfc8282613b80565b91505060608301518482036060860152613c168282613b80565b91505060808301518482036080860152613c308282613b80565b9150508091505092915050565b6000613c498383613bb9565b905092915050565b6000602082019050919050565b6000613c6982613ae4565b613c738185613aef565b935083602082028501613c8585613b00565b8060005b85811015613cc15784840389528151613ca28582613c3d565b9450613cad83613c51565b925060208a01995050600181019050613c89565b50829750879550505050505092915050565b60006020820190508181036000830152613ced8184613c5e565b905092915050565b6000604051905090565b600080fd5b600080fd5b613d1281613b10565b8114613d1d57600080fd5b50565b600081359050613d2f81613d09565b92915050565b600080fd5b600080fd5b7f4e487b7100000000000000000000000000000000000000000000000000000000600052604160045260246000fd5b613d7782613b6f565b810181811067ffffffffffffffff82111715613d9657613d95613d3f565b5b80604052505050565b6000613da9613cf5565b9050613db58282613d6e565b919050565b600067ffffffffffffffff821115613dd557613dd4613d3f565b5b613dde82613b6f565b9050602081019050919050565b82818337600083830152505050565b6000613e0d613e0884613dba565b613d9f565b905082815260208101848484011115613e2957613e28613d3a565b5b613e34848285613deb565b509392505050565b600082601f830112613e5157613e50613d35565b5b8135613e61848260208601613dfa565b91505092915050565b60008060408385031215613e8157613e80613cff565b5b6000613e8f85828601613d20565b925050602083013567ffffffffffffffff811115613eb057613eaf613d04565b5b613ebc85828601613e3c565b9150509250929050565b600060208284031215613edc57613edb613cff565b5b6000613eea84828501613d20565b91505092915050565b60008115159050919050565b613f0881613ef3565b82525050565b6000602082019050613f236000830184613eff565b92915050565b600073ffffffffffffffffffffffffffffffffffffffff82169050919050565b6000613f5482613f29565b9050919050565b613f6481613f49565b8114613f6f57600080fd5b50565b600081359050613f8181613f5b565b92915050565b600060208284031215613f9d57613f9c613cff565b5b6000613fab84828501613f72565b91505092915050565b613fbd81613b10565b82525050565b6000602082019050613fd86000830184613fb4565b92915050565b600081519050919050565b600082825260208201905092915050565b6000819050602082019050919050565b61401381613f49565b82525050565b6000606083016000830151614031600086018261400a565b50602083015184820360208601526140498282613b80565b915050604083015184820360408601526140638282613b80565b9150508091505092915050565b600061407c8383614019565b905092915050565b6000602082019050919050565b600061409c82613fde565b6140a68185613fe9565b9350836020820285016140b885613ffa565b8060005b858110156140f457848403895281516140d58582614070565b94506140e083614084565b925060208a019950506001810190506140bc565b50829750879550505050505092915050565b600060208201905081810360008301526141208184614091565b905092915050565b60006060830160008301516141406000860182613b1a565b5060208301516141536020860182613b1a565b506040830151848203604086015261416b8282613b80565b9150508091505092915050565b600060208201905081810360008301526141928184614128565b905092915050565b600080604083850312156141b1576141b0613cff565b5b60006141bf85828601613d20565b92505060206141d085828601613d20565b9150509250929050565b600082825260208201905092915050565b60006141f682613b29565b61420081856141da565b9350614210818560208601613b45565b61421981613b6f565b840191505092915050565b60006060820190506142396000830186613fb4565b6142466020830185613fb4565b818103604083015261425881846141eb565b9050949350505050565b600081519050919050565b600082825260208201905092915050565b6000819050602082019050919050565b60006060830160008301516142a66000860182613b1a565b5060208301516142b96020860182613b1a565b50604083015184820360408601526142d18282613b80565b9150508091505092915050565b60006142ea838361428e565b905092915050565b6000602082019050919050565b600061430a82614262565b614314818561426d565b9350836020820285016143268561427e565b8060005b85811015614362578484038952815161434385826142de565b945061434e836142f2565b925060208a0199505060018101905061432a565b50829750879550505050505092915050565b6000602082019050818103600083015261438e81846142ff565b905092915050565b600061ffff82169050919050565b6143ad81614396565b82525050565b600060a0830160008301516143cb6000860182613b1a565b5060208301516143de60208601826143a4565b50604083015184820360408601526143f68282613b80565b915050606083015184820360608601526144108282613b80565b9150506080830151848203608086015261442a8282613b80565b9150508091505092915050565b6000602082019050818103600083015261445181846143b3565b905092915050565b600081519050919050565b600082825260208201905092915050565b6000819050602082019050919050565b600060a08301600083015161449d6000860182613b1a565b5060208301516144b060208601826143a4565b50604083015184820360408601526144c88282613b80565b915050606083015184820360608601526144e28282613b80565b915050608083015184820360808601526144fc8282613b80565b9150508091505092915050565b60006145158383614485565b905092915050565b6000602082019050919050565b600061453582614459565b61453f8185614464565b93508360208202850161455185614475565b8060005b8581101561458d578484038952815161456e8582614509565b94506145798361451d565b925060208a01995050600181019050614555565b50829750879550505050505092915050565b600060208201905081810360008301526145b9818461452a565b905092915050565b600060a0820190506145d66000830188613fb4565b6145e36020830187613fb4565b81810360408301526145f581866141eb565b9050818103606083015261460981856141eb565b9050818103608083015261461d81846141eb565b90509695505050505050565b61463281613f49565b82525050565b600060208201905061464d6000830184614629565b92915050565b61465c81614396565b811461466757600080fd5b50565b60008135905061467981614653565b92915050565b6000806000806080858703121561469957614698613cff565b5b60006146a78782880161466a565b945050602085013567ffffffffffffffff8111156146c8576146c7613d04565b5b6146d487828801613e3c565b935050604085013567ffffffffffffffff8111156146f5576146f4613d04565b5b61470187828801613e3c565b925050606085013567ffffffffffffffff81111561472257614721613d04565b5b61472e87828801613e3c565b91505092959194509250565b6000806040838503121561475157614750613cff565b5b600061475f85828601613d20565b925050602061477085828601613f72565b9150509250929050565b6000806040838503121561479157614790613cff565b5b600083013567ffffffffffffffff8111156147af576147ae613d04565b5b6147bb85828601613e3c565b925050602083013567ffffffffffffffff8111156147dc576147db613d04565b5b6147e885828601613e3c565b9150509250929050565b600060a08301600083015161480a6000860182613b1a565b50602083015161481d6020860182613b1a565b50604083015184820360408601526148358282613b80565b9150506060830151848203606086015261484f8282613b80565b915050608083015184820360808601526148698282613b80565b9150508091505092915050565b6000602082019050818103600083015261489081846147f2565b905092915050565b600080604083850312156148af576148ae613cff565b5b60006148bd85828601613f72565b92505060206148ce85828601613d20565b9150509250929050565b6148e181614396565b82525050565b600060a0820190506148fc6000830188613fb4565b61490960208301876148d8565b818103604083015261491b81866141eb565b9050818103606083015261492f81856141eb565b9050818103608083015261494381846141eb565b90509695505050505050565b6000806000806080858703121561496957614968613cff565b5b600061497787828801613d20565b945050602085013567ffffffffffffffff81111561499857614997613d04565b5b6149a487828801613e3c565b935050604085013567ffffffffffffffff8111156149c5576149c4613d04565b5b6149d187828801613e3c565b925050606085013567ffffffffffffffff8111156149f2576149f1613d04565b5b6149fe87828801613e3c565b91505092959194509250565b6000606082019050614a1f6000830186614629565b8181036020830152614a3181856141eb565b90508181036040830152614a4581846141eb565b9050949350505050565b7f4e487b7100000000000000000000000000000000000000000000000000000000600052602260045260246000fd5b60006002820490506001821680614a9657607f821691505b602082108103614aa957614aa8614a4f565b5b50919050565b7f596f7520617265206e6f7420746865206f776e6572206f66207468697320636f60008201527f7700000000000000000000000000000000000000000000000000000000000000602082015250565b6000614b0b6021836141da565b9150614b1682614aaf565b604082019050919050565b60006020820190508181036000830152614b3a81614afe565b9050919050565b60008190508160005260206000209050919050565b60006020601f8301049050919050565b600082821b905092915050565b600060088302614ba37fffffffffffffffffffffffffffffffffffffffffffffffffffffffffffffffff82614b66565b614bad8683614b66565b95508019841693508086168417925050509392505050565b6000819050919050565b6000614bea614be5614be084613b10565b614bc5565b613b10565b9050919050565b6000819050919050565b614c0483614bcf565b614c18614c1082614bf1565b848454614b73565b825550505050565b600090565b614c2d614c20565b614c38818484614bfb565b505050565b5b81811015614c5c57614c51600082614c25565b600181019050614c3e565b5050565b601f821115614ca157614c7281614b41565b614c7b84614b56565b81016020851015614c8a578190505b614c9e614c9685614b56565b830182614c3d565b50505b505050565b600082821c905092915050565b6000614cc460001984600802614ca6565b1980831691505092915050565b6000614cdd8383614cb3565b9150826002028217905092915050565b614cf682613b29565b67ffffffffffffffff811115614d0f57614d0e613d3f565b5b614d198254614a7e565b614d24828285614c60565b600060209050601f831160018114614d575760008415614d45578287015190505b614d4f8582614cd1565b865550614db7565b601f198416614d6586614b41565b60005b82811015614d8d57848901518255600182019150602085019450602081019050614d68565b86831015614daa5784890151614da6601f891682614cb3565b8355505b6001600288020188555050505b505050505050565b7f4e487b7100000000000000000000000000000000000000000000000000000000600052601160045260246000fd5b6000614df982613b10565b91507fffffffffffffffffffffffffffffffffffffffffffffffffffffffffffffffff8203614e2b57614e2a614dbf565b5b600182019050919050565b6000614e4182613b10565b9150614e4c83613b10565b9250828203905081811115614e6457614e63614dbf565b5b92915050565b7f4e487b7100000000000000000000000000000000000000000000000000000000600052603260045260246000fd5b7f4d696c6b206e6f7420666f756e64210000000000000000000000000000000000600082015250565b6000614ecf600f836141da565b9150614eda82614e99565b602082019050919050565b60006020820190508181036000830152614efe81614ec2565b9050919050565b7f436f77206e6f7420666f756e6421000000000000000000000000000000000000600082015250565b6000614f3b600e836141da565b9150614f4682614f05565b602082019050919050565b60006020820190508181036000830152614f6a81614f2e565b9050919050565b7f496e76616c6964206e6577206f776e6572206164647265737300000000000000600082015250565b6000614fa76019836141da565b9150614fb282614f71565b602082019050919050565b60006020820190508181036000830152614fd681614f9a565b9050919050565b600081549050614fec81614a7e565b9050919050565b8181036150015750506150d9565b61500a82614fdd565b67ffffffffffffffff81111561502357615022613d3f565b5b61502d8254614a7e565b615038828285614c60565b6000601f8311600181146150675760008415615055578287015490505b61505f8582614cd1565b8655506150d2565b601f19841661507587614b41565b965061508086614b41565b60005b828110156150a857848901548255600182019150600185019450602081019050615083565b868310156150c557848901546150c1601f891682614cb3565b8355505b6001600288020188555050505b5050505050505b565b7f4e487b7100000000000000000000000000000000000000000000000000000000600052603160045260246000fd5b7f50726f64756374206e6f7420666f756e64210000000000000000000000000000600082015250565b60006151406012836141da565b915061514b8261510a565b602082019050919050565b6000602082019050818103600083015261516f81615133565b905091905056fea26469706673582212204f2e11f81edc56549d1fa003773b10960d04a9788019971a638cfe54e97dac9464736f6c63430008130033",
  "immutableReferences": {},
  "source": "pragma solidity ^0.8.17;\r\n\r\ncontract MilkFactory {\r\n\r\n    struct Dairy {\r\n        address dairyAddress;\r\n        string dairyName;\r\n        string dairyPlace;\r\n    }\r\n\r\n    struct Cow {\r\n        uint256 id;\r\n        uint16 weight;\r\n        string breed;\r\n        string birthDate;\r\n        string residence;\r\n    }\r\n\r\n    struct Milk {\r\n        uint256 id;\r\n        uint256 cowId;\r\n        string dateOfProduction;\r\n    }\r\n\r\n    struct Product { //Should add more info about product \r\n        uint256 id;\r\n        uint256 milkId;\r\n        string dateOfProduction;\r\n        string productType;\r\n        string expiryDate;\r\n    }\r\n\r\n    //constructor() {\r\n    //    owner = msg.sender;\r\n    //}\r\n\r\n    modifier onlyOwnerOf(uint256 _cowId) {\r\n        require(cowToOwner[_cowId] == msg.sender, \"You are not the owner of this cow\");\r\n        _;\r\n    }\r\n    \r\n    uint256 public cowCount = 0;\r\n    uint256 public milkCount = 0;\r\n    uint256 public productCount = 0;\r\n\r\n    event ProductAdded(uint256 productId);\r\n    event SpoiledProduct(uint256 productId);\r\n    event LogMessage(string message);\r\n    \r\n    Dairy[] public dairyList;\r\n    Cow[] public cowList;\r\n    Milk[] public milkList;\r\n    Product[] public productList;\r\n\r\n    mapping(uint256 => address) public cowToOwner;\r\n    mapping(uint256 => uint256) public milkToCow;\r\n    mapping(address => uint256) public ownerMilkCount;\r\n    mapping(address => Cow[]) public ownerToCowList;\r\n    mapping(uint256 => Milk[]) public cowToMilkList;\r\n    mapping(uint256 => Product[]) public milkToProductList;\r\n    mapping(address => Milk[]) public ownerToMilk;\r\n    mapping(uint256 => bool) public spoiledMilks;\r\n    mapping(uint256 => bool) public deathCows;\r\n   \r\n   \r\n    function addDairy(string memory _dairyName, string memory _dairyPlace) public {\r\n        Dairy memory myDairy = Dairy(msg.sender, _dairyName, _dairyPlace);\r\n        dairyList.push(myDairy);\r\n    }\r\n\r\n    function checkDairyIsRegistered() public view returns (bool) {\r\n        for(uint i=0; i < dairyList.length; i++) { \r\n            if(dairyList[i].dairyAddress == msg.sender) {\r\n                return true;\r\n            }\r\n        }\r\n        return false;\r\n    }\r\n\r\n    function getAllDairyExceptSelf() public view returns (Dairy[] memory) {\r\n        Dairy[] memory result = new Dairy[](dairyList.length - 1);\r\n        uint256 resultIndex = 0;\r\n        for (uint256 i = 0; i < dairyList.length; i++) {\r\n            if (dairyList[i].dairyAddress != msg.sender) {\r\n                result[resultIndex] = dairyList[i];\r\n                resultIndex++;\r\n            }\r\n        }\r\n        return result;\r\n    }\r\n\r\n    function transferCow(uint256 _cowId, address _newOwner) public onlyOwnerOf(_cowId) {\r\n        require(_newOwner != address(0), \"Invalid new owner address\");\r\n        \r\n        //Delete cow from old owner mapping \r\n        for(uint i=0; i < ownerToCowList[msg.sender].length; i++) { \r\n            if(ownerToCowList[msg.sender][i].id == _cowId) {\r\n                ownerToCowList[msg.sender][i] = ownerToCowList[msg.sender][(ownerToCowList[msg.sender].length-1)];\r\n            }\r\n        }\r\n\r\n        ownerToCowList[msg.sender].pop();\r\n\r\n        //Add cow to new owner mapping\r\n        ownerToCowList[_newOwner].push(getCow(_cowId));\r\n        cowToOwner[_cowId] = _newOwner;\r\n    }\r\n\r\n\r\n    function addCow(uint16 _weight, string memory _breed, string memory _birthDate, string memory _residence) public {\r\n        Cow memory myCow = Cow(cowCount, _weight, _breed, _birthDate, _residence);\r\n        cowList.push(myCow);\r\n        //Increase cow count that is used as id\r\n        cowCount++;\r\n        cowToOwner[myCow.id] = msg.sender;\r\n        ownerToCowList[msg.sender].push(myCow);\r\n    }\r\n    \r\n    function addMilk(uint256 _cowId, string memory _dateOfProduction) public onlyOwnerOf(_cowId) {\r\n        //Check if cow exists\r\n        Milk memory myMilk = Milk(milkCount, _cowId, _dateOfProduction);\r\n        spoiledMilks[milkCount] = false;\r\n        milkList.push(myMilk);\r\n        milkCount++;\r\n        cowToMilkList[_cowId].push(myMilk);\r\n        milkToCow[myMilk.id] = _cowId;\r\n        ownerMilkCount[msg.sender]++; \r\n        ownerToMilk[msg.sender].push(myMilk);\r\n    }\r\n    \r\n    function addProduct(uint256 _milkId, string memory _dateOfProduction, string memory _productType, string memory _expiryDate) public  onlyOwnerOf(milkToCow[_milkId]) {\r\n        //Check if milk exists\r\n        Product memory  myProduct = Product( productCount, _milkId, _dateOfProduction, _productType, _expiryDate);\r\n        productList.push(myProduct);\r\n        milkToProductList[_milkId].push(myProduct);\r\n        emit ProductAdded(productCount);\r\n        productCount++;  \r\n    }\r\n\r\n    function killCow(uint256 _cowId) public onlyOwnerOf(_cowId) {\r\n        deathCows[_cowId] = true;\r\n    }\r\n\r\n    function getAllCows() public view returns(Cow[] memory) {\r\n        return cowList;\r\n    }\r\n\r\n    function getCowsOfOwner() public view returns(Cow[] memory) {\r\n        return ownerToCowList[msg.sender];\r\n    }\r\n\r\n    function getAliveCowsOfOwner() public view returns(Cow[] memory) {\r\n        Cow[] memory cows = ownerToCowList[msg.sender];\r\n        uint256 aliveCows = 0;\r\n        for(uint i=0; i < cows.length; i++) { \r\n            if(deathCows[cows[i].id] == false) {\r\n                aliveCows++;\r\n            }\r\n        }\r\n        Cow[] memory aliveCowList = new Cow[](aliveCows);\r\n        uint256 index = 0;\r\n        for(uint i=0; i < cows.length; i++) { \r\n            if(deathCows[cows[i].id] == false) {\r\n                aliveCowList[index] = cows[i];\r\n                index++;\r\n            }\r\n        }\r\n        return aliveCowList;\r\n    }\r\n    \r\n    function getAllMilks() public view returns(Milk[] memory) {\r\n        return milkList;\r\n    }\r\n\r\n    function getMilksOfOwner() public view returns (Milk[] memory) {\r\n        return ownerToMilk[msg.sender];    \r\n    }\r\n\r\n    function reportSpoiledProduct(uint256 _productId) public {\r\n        uint256 milkId = getProduct(_productId).milkId;\r\n        spoiledMilks[milkId] = true;\r\n    }\r\n\r\n    function getAllProducts() public view returns(Product[] memory) {\r\n        return productList;\r\n    }\r\n\r\n    function getProduct(uint256 _productId) public view returns(Product memory) {\r\n        for(uint i=0; i < productList.length; i++) { \r\n            if(productList[i].id == _productId) {\r\n                return productList[i];\r\n            }\r\n        }\r\n        revert(\"Product not found!\"); //Undo, return value, give back gas \r\n    }\r\n\r\n    function isMilkSpoiled(uint256 _milkId) public view returns(bool) {\r\n        return spoiledMilks[_milkId];\r\n    }\r\n\r\n    function getMilk(uint256 _milkId) public view returns(Milk memory) {\r\n        for(uint i=0; i < milkList.length; i++) { \r\n            if(milkList[i].id == _milkId) {\r\n                return milkList[i];\r\n            }\r\n        }\r\n        revert(\"Milk not found!\"); //Undo, return value, give back gas \r\n    }\r\n\r\n    function getCow(uint256 _cowId) public view returns(Cow memory) {\r\n        for(uint i=0; i < cowList.length; i++) { \r\n            if(cowList[i].id == _cowId) {\r\n                return cowList[i];\r\n            }\r\n        }\r\n        revert(\"Cow not found!\"); //Undo, return value, give back gas \r\n    }\r\n}",
  "sourcePath": "C:\\Users\\tomas\\Desktop\\Blockchain-Project\\blockchain\\contracts\\MilkFactory.sol",
  "compiler": {
    "name": "solc",
    "version": "0.8.19+commit.7dd6d404.Emscripten.clang"
  },
  "schemaVersion": "3.4.13",
  "updatedAt": "2023-07-11T09:55:03.638Z",
  "networkType": "ethereum",
  "devdoc": {
    "kind": "dev",
    "methods": {},
    "version": 1
  },
  "userdoc": {
    "kind": "user",
    "methods": {},
    "version": 1
  }
}