{
  "contractName": "MilkFactory",
  "abi": [
    {
      "anonymous": false,
      "inputs": [
        {
          "indexed": false,
          "internalType": "string",
          "name": "message",
          "type": "string"
        }
      ],
      "name": "LogMessage",
      "type": "event"
    },
    {
      "anonymous": false,
      "inputs": [
        {
          "indexed": false,
          "internalType": "uint256",
          "name": "productId",
          "type": "uint256"
        }
      ],
      "name": "ProductAdded",
      "type": "event"
    },
    {
      "anonymous": false,
      "inputs": [
        {
          "indexed": false,
          "internalType": "uint256",
          "name": "productId",
          "type": "uint256"
        }
      ],
      "name": "SpoiledProduct",
      "type": "event"
    },
    {
      "inputs": [],
      "name": "cowCount",
      "outputs": [
        {
          "internalType": "uint256",
          "name": "",
          "type": "uint256"
        }
      ],
      "stateMutability": "view",
      "type": "function",
      "constant": true
    },
    {
      "inputs": [
        {
          "internalType": "uint256",
          "name": "",
          "type": "uint256"
        }
      ],
      "name": "cowList",
      "outputs": [
        {
          "internalType": "uint256",
          "name": "id",
          "type": "uint256"
        },
        {
          "internalType": "uint16",
          "name": "weight",
          "type": "uint16"
        },
        {
          "internalType": "string",
          "name": "breed",
          "type": "string"
        },
        {
          "internalType": "string",
          "name": "birthDate",
          "type": "string"
        },
        {
          "internalType": "string",
          "name": "residence",
          "type": "string"
        }
      ],
      "stateMutability": "view",
      "type": "function",
      "constant": true
    },
    {
      "inputs": [
        {
          "internalType": "uint256",
          "name": "",
          "type": "uint256"
        },
        {
          "internalType": "uint256",
          "name": "",
          "type": "uint256"
        }
      ],
      "name": "cowToMilkList",
      "outputs": [
        {
          "internalType": "uint256",
          "name": "id",
          "type": "uint256"
        },
        {
          "internalType": "uint256",
          "name": "cowId",
          "type": "uint256"
        },
        {
          "internalType": "string",
          "name": "dateOfProduction",
          "type": "string"
        }
      ],
      "stateMutability": "view",
      "type": "function",
      "constant": true
    },
    {
      "inputs": [
        {
          "internalType": "uint256",
          "name": "",
          "type": "uint256"
        }
      ],
      "name": "cowToOwner",
      "outputs": [
        {
          "internalType": "address",
          "name": "",
          "type": "address"
        }
      ],
      "stateMutability": "view",
      "type": "function",
      "constant": true
    },
    {
      "inputs": [
        {
          "internalType": "uint256",
          "name": "",
          "type": "uint256"
        }
      ],
      "name": "deathCows",
      "outputs": [
        {
          "internalType": "bool",
          "name": "",
          "type": "bool"
        }
      ],
      "stateMutability": "view",
      "type": "function",
      "constant": true
    },
    {
      "inputs": [],
      "name": "milkCount",
      "outputs": [
        {
          "internalType": "uint256",
          "name": "",
          "type": "uint256"
        }
      ],
      "stateMutability": "view",
      "type": "function",
      "constant": true
    },
    {
      "inputs": [
        {
          "internalType": "uint256",
          "name": "",
          "type": "uint256"
        }
      ],
      "name": "milkList",
      "outputs": [
        {
          "internalType": "uint256",
          "name": "id",
          "type": "uint256"
        },
        {
          "internalType": "uint256",
          "name": "cowId",
          "type": "uint256"
        },
        {
          "internalType": "string",
          "name": "dateOfProduction",
          "type": "string"
        }
      ],
      "stateMutability": "view",
      "type": "function",
      "constant": true
    },
    {
      "inputs": [
        {
          "internalType": "uint256",
          "name": "",
          "type": "uint256"
        }
      ],
      "name": "milkToCow",
      "outputs": [
        {
          "internalType": "uint256",
          "name": "",
          "type": "uint256"
        }
      ],
      "stateMutability": "view",
      "type": "function",
      "constant": true
    },
    {
      "inputs": [
        {
          "internalType": "uint256",
          "name": "",
          "type": "uint256"
        },
        {
          "internalType": "uint256",
          "name": "",
          "type": "uint256"
        }
      ],
      "name": "milkToProductList",
      "outputs": [
        {
          "internalType": "uint256",
          "name": "id",
          "type": "uint256"
        },
        {
          "internalType": "uint256",
          "name": "milkId",
          "type": "uint256"
        },
        {
          "internalType": "string",
          "name": "dateOfProduction",
          "type": "string"
        },
        {
          "internalType": "string",
          "name": "productType",
          "type": "string"
        },
        {
          "internalType": "string",
          "name": "expiryDate",
          "type": "string"
        }
      ],
      "stateMutability": "view",
      "type": "function",
      "constant": true
    },
    {
      "inputs": [
        {
          "internalType": "address",
          "name": "",
          "type": "address"
        }
      ],
      "name": "ownerMilkCount",
      "outputs": [
        {
          "internalType": "uint256",
          "name": "",
          "type": "uint256"
        }
      ],
      "stateMutability": "view",
      "type": "function",
      "constant": true
    },
    {
      "inputs": [
        {
          "internalType": "address",
          "name": "",
          "type": "address"
        },
        {
          "internalType": "uint256",
          "name": "",
          "type": "uint256"
        }
      ],
      "name": "ownerToCowList",
      "outputs": [
        {
          "internalType": "uint256",
          "name": "id",
          "type": "uint256"
        },
        {
          "internalType": "uint16",
          "name": "weight",
          "type": "uint16"
        },
        {
          "internalType": "string",
          "name": "breed",
          "type": "string"
        },
        {
          "internalType": "string",
          "name": "birthDate",
          "type": "string"
        },
        {
          "internalType": "string",
          "name": "residence",
          "type": "string"
        }
      ],
      "stateMutability": "view",
      "type": "function",
      "constant": true
    },
    {
      "inputs": [
        {
          "internalType": "address",
          "name": "",
          "type": "address"
        },
        {
          "internalType": "uint256",
          "name": "",
          "type": "uint256"
        }
      ],
      "name": "ownerToMilk",
      "outputs": [
        {
          "internalType": "uint256",
          "name": "id",
          "type": "uint256"
        },
        {
          "internalType": "uint256",
          "name": "cowId",
          "type": "uint256"
        },
        {
          "internalType": "string",
          "name": "dateOfProduction",
          "type": "string"
        }
      ],
      "stateMutability": "view",
      "type": "function",
      "constant": true
    },
    {
      "inputs": [],
      "name": "productCount",
      "outputs": [
        {
          "internalType": "uint256",
          "name": "",
          "type": "uint256"
        }
      ],
      "stateMutability": "view",
      "type": "function",
      "constant": true
    },
    {
      "inputs": [
        {
          "internalType": "uint256",
          "name": "",
          "type": "uint256"
        }
      ],
      "name": "productList",
      "outputs": [
        {
          "internalType": "uint256",
          "name": "id",
          "type": "uint256"
        },
        {
          "internalType": "uint256",
          "name": "milkId",
          "type": "uint256"
        },
        {
          "internalType": "string",
          "name": "dateOfProduction",
          "type": "string"
        },
        {
          "internalType": "string",
          "name": "productType",
          "type": "string"
        },
        {
          "internalType": "string",
          "name": "expiryDate",
          "type": "string"
        }
      ],
      "stateMutability": "view",
      "type": "function",
      "constant": true
    },
    {
      "inputs": [
        {
          "internalType": "uint256",
          "name": "",
          "type": "uint256"
        }
      ],
      "name": "spoiledMilks",
      "outputs": [
        {
          "internalType": "bool",
          "name": "",
          "type": "bool"
        }
      ],
      "stateMutability": "view",
      "type": "function",
      "constant": true
    },
    {
      "inputs": [
        {
          "internalType": "uint16",
          "name": "_weight",
          "type": "uint16"
        },
        {
          "internalType": "string",
          "name": "_breed",
          "type": "string"
        },
        {
          "internalType": "string",
          "name": "_birthDate",
          "type": "string"
        },
        {
          "internalType": "string",
          "name": "_residence",
          "type": "string"
        }
      ],
      "name": "addCow",
      "outputs": [],
      "stateMutability": "nonpayable",
      "type": "function"
    },
    {
      "inputs": [
        {
          "internalType": "uint256",
          "name": "_cowId",
          "type": "uint256"
        },
        {
          "internalType": "string",
          "name": "_dateOfProduction",
          "type": "string"
        }
      ],
      "name": "addMilk",
      "outputs": [],
      "stateMutability": "nonpayable",
      "type": "function"
    },
    {
      "inputs": [
        {
          "internalType": "uint256",
          "name": "_milkId",
          "type": "uint256"
        },
        {
          "internalType": "string",
          "name": "_dateOfProduction",
          "type": "string"
        },
        {
          "internalType": "string",
          "name": "_productType",
          "type": "string"
        },
        {
          "internalType": "string",
          "name": "_expiryDate",
          "type": "string"
        }
      ],
      "name": "addProduct",
      "outputs": [],
      "stateMutability": "nonpayable",
      "type": "function"
    },
    {
      "inputs": [
        {
          "internalType": "uint256",
          "name": "_cowId",
          "type": "uint256"
        }
      ],
      "name": "killCow",
      "outputs": [],
      "stateMutability": "nonpayable",
      "type": "function"
    },
    {
      "inputs": [],
      "name": "getAllCows",
      "outputs": [
        {
          "components": [
            {
              "internalType": "uint256",
              "name": "id",
              "type": "uint256"
            },
            {
              "internalType": "uint16",
              "name": "weight",
              "type": "uint16"
            },
            {
              "internalType": "string",
              "name": "breed",
              "type": "string"
            },
            {
              "internalType": "string",
              "name": "birthDate",
              "type": "string"
            },
            {
              "internalType": "string",
              "name": "residence",
              "type": "string"
            }
          ],
          "internalType": "struct MilkFactory.Cow[]",
          "name": "",
          "type": "tuple[]"
        }
      ],
      "stateMutability": "view",
      "type": "function",
      "constant": true
    },
    {
      "inputs": [],
      "name": "getCowsOfOwner",
      "outputs": [
        {
          "components": [
            {
              "internalType": "uint256",
              "name": "id",
              "type": "uint256"
            },
            {
              "internalType": "uint16",
              "name": "weight",
              "type": "uint16"
            },
            {
              "internalType": "string",
              "name": "breed",
              "type": "string"
            },
            {
              "internalType": "string",
              "name": "birthDate",
              "type": "string"
            },
            {
              "internalType": "string",
              "name": "residence",
              "type": "string"
            }
          ],
          "internalType": "struct MilkFactory.Cow[]",
          "name": "",
          "type": "tuple[]"
        }
      ],
      "stateMutability": "view",
      "type": "function",
      "constant": true
    },
    {
      "inputs": [],
      "name": "getAliveCowsOfOwner",
      "outputs": [
        {
          "components": [
            {
              "internalType": "uint256",
              "name": "id",
              "type": "uint256"
            },
            {
              "internalType": "uint16",
              "name": "weight",
              "type": "uint16"
            },
            {
              "internalType": "string",
              "name": "breed",
              "type": "string"
            },
            {
              "internalType": "string",
              "name": "birthDate",
              "type": "string"
            },
            {
              "internalType": "string",
              "name": "residence",
              "type": "string"
            }
          ],
          "internalType": "struct MilkFactory.Cow[]",
          "name": "",
          "type": "tuple[]"
        }
      ],
      "stateMutability": "view",
      "type": "function",
      "constant": true
    },
    {
      "inputs": [],
      "name": "getAllMilks",
      "outputs": [
        {
          "components": [
            {
              "internalType": "uint256",
              "name": "id",
              "type": "uint256"
            },
            {
              "internalType": "uint256",
              "name": "cowId",
              "type": "uint256"
            },
            {
              "internalType": "string",
              "name": "dateOfProduction",
              "type": "string"
            }
          ],
          "internalType": "struct MilkFactory.Milk[]",
          "name": "",
          "type": "tuple[]"
        }
      ],
      "stateMutability": "view",
      "type": "function",
      "constant": true
    },
    {
      "inputs": [],
      "name": "getMilksOfOwner",
      "outputs": [
        {
          "components": [
            {
              "internalType": "uint256",
              "name": "id",
              "type": "uint256"
            },
            {
              "internalType": "uint256",
              "name": "cowId",
              "type": "uint256"
            },
            {
              "internalType": "string",
              "name": "dateOfProduction",
              "type": "string"
            }
          ],
          "internalType": "struct MilkFactory.Milk[]",
          "name": "",
          "type": "tuple[]"
        }
      ],
      "stateMutability": "view",
      "type": "function",
      "constant": true
    },
    {
      "inputs": [
        {
          "internalType": "uint256",
          "name": "_productId",
          "type": "uint256"
        }
      ],
      "name": "reportSpoiledProduct",
      "outputs": [],
      "stateMutability": "nonpayable",
      "type": "function"
    },
    {
      "inputs": [],
      "name": "getAllProducts",
      "outputs": [
        {
          "components": [
            {
              "internalType": "uint256",
              "name": "id",
              "type": "uint256"
            },
            {
              "internalType": "uint256",
              "name": "milkId",
              "type": "uint256"
            },
            {
              "internalType": "string",
              "name": "dateOfProduction",
              "type": "string"
            },
            {
              "internalType": "string",
              "name": "productType",
              "type": "string"
            },
            {
              "internalType": "string",
              "name": "expiryDate",
              "type": "string"
            }
          ],
          "internalType": "struct MilkFactory.Product[]",
          "name": "",
          "type": "tuple[]"
        }
      ],
      "stateMutability": "view",
      "type": "function",
      "constant": true
    },
    {
      "inputs": [
        {
          "internalType": "uint256",
          "name": "_productId",
          "type": "uint256"
        }
      ],
      "name": "getProduct",
      "outputs": [
        {
          "components": [
            {
              "internalType": "uint256",
              "name": "id",
              "type": "uint256"
            },
            {
              "internalType": "uint256",
              "name": "milkId",
              "type": "uint256"
            },
            {
              "internalType": "string",
              "name": "dateOfProduction",
              "type": "string"
            },
            {
              "internalType": "string",
              "name": "productType",
              "type": "string"
            },
            {
              "internalType": "string",
              "name": "expiryDate",
              "type": "string"
            }
          ],
          "internalType": "struct MilkFactory.Product",
          "name": "",
          "type": "tuple"
        }
      ],
      "stateMutability": "view",
      "type": "function",
      "constant": true
    },
    {
      "inputs": [
        {
          "internalType": "uint256",
          "name": "_milkId",
          "type": "uint256"
        }
      ],
      "name": "isMilkSpoiled",
      "outputs": [
        {
          "internalType": "bool",
          "name": "",
          "type": "bool"
        }
      ],
      "stateMutability": "view",
      "type": "function",
      "constant": true
    },
    {
      "inputs": [
        {
          "internalType": "uint256",
          "name": "_milkId",
          "type": "uint256"
        }
      ],
      "name": "getMilk",
      "outputs": [
        {
          "components": [
            {
              "internalType": "uint256",
              "name": "id",
              "type": "uint256"
            },
            {
              "internalType": "uint256",
              "name": "cowId",
              "type": "uint256"
            },
            {
              "internalType": "string",
              "name": "dateOfProduction",
              "type": "string"
            }
          ],
          "internalType": "struct MilkFactory.Milk",
          "name": "",
          "type": "tuple"
        }
      ],
      "stateMutability": "view",
      "type": "function",
      "constant": true
    },
    {
      "inputs": [
        {
          "internalType": "uint256",
          "name": "_cowId",
          "type": "uint256"
        }
      ],
      "name": "getCow",
      "outputs": [
        {
          "components": [
            {
              "internalType": "uint256",
              "name": "id",
              "type": "uint256"
            },
            {
              "internalType": "uint16",
              "name": "weight",
              "type": "uint16"
            },
            {
              "internalType": "string",
              "name": "breed",
              "type": "string"
            },
            {
              "internalType": "string",
              "name": "birthDate",
              "type": "string"
            },
            {
              "internalType": "string",
              "name": "residence",
              "type": "string"
            }
          ],
          "internalType": "struct MilkFactory.Cow",
          "name": "",
          "type": "tuple"
        }
      ],
      "stateMutability": "view",
      "type": "function",
      "constant": true
    }
  ],
  "bytecode": "0x6080604052600080556000600155600060025534801561001e57600080fd5b506140f88061002e6000396000f3fe608060405234801561001057600080fd5b50600436106101da5760003560e01c80637ba3372d11610104578063b9db15b4116100a2578063cb7cdaad11610071578063cb7cdaad14610603578063e0f6ef8714610637578063edb5a45714610655578063ef2670f114610673576101da565b8063b9db15b414610551578063b9f9fbfe14610581578063beda38f5146105b3578063c1393d27146105e7576101da565b80639fd1fef4116100de5780639fd1fef4146104b7578063ae81394c146104e7578063b3597a2214610517578063b6f7ea8a14610533576101da565b80637ba3372d146104475780638de6e5f11461047b578063927fb4de14610499576101da565b8063329bcfa51161017c578063528c87d21161014b578063528c87d2146103975780635515d0f6146103cb57806365db2d58146103fb5780636c46f2a014610417576101da565b8063329bcfa51461030d57806334df9b601461032b578063449794dc1461035b5780634a71bd2a14610379576101da565b80630f926aeb116101b85780630f926aeb14610249578063184e9c2d146102795780631dc2c408146102a95780632bd6ccc8146102db576101da565b806302ee3a52146101df57806308f0eb53146101fd57806309e88f4514610219575b600080fd5b6101e761068f565b6040516101f49190613033565b60405180910390f35b610217600480360381019061021291906131ca565b6108b8565b005b610233600480360381019061022e9190613226565b610b8e565b604051610240919061326e565b60405180910390f35b610263600480360381019061025e91906132e7565b610bae565b6040516102709190613323565b60405180910390f35b610293600480360381019061028e9190613226565b610bc6565b6040516102a0919061338e565b60405180910390f35b6102c360048036038101906102be91906133b0565b610d39565b6040516102d29392919061343a565b60405180910390f35b6102f560048036038101906102f09190613226565b610e08565b6040516103049392919061343a565b60405180910390f35b610315610eca565b604051610322919061358a565b60405180910390f35b61034560048036038101906103409190613226565b610fcf565b604051610352919061364d565b60405180910390f35b61036361127c565b60405161037091906137b5565b60405180910390f35b610381611686565b60405161038e919061358a565b60405180910390f35b6103b160048036038101906103ac9190613226565b6117c8565b6040516103c29594939291906137d7565b60405180910390f35b6103e560048036038101906103e09190613226565b6119a6565b6040516103f2919061384e565b60405180910390f35b61041560048036038101906104109190613895565b6119d9565b005b610431600480360381019061042c9190613226565b611bf5565b60405161043e9190613323565b60405180910390f35b610461600480360381019061045c91906133b0565b611c0d565b6040516104729594939291906137d7565b60405180910390f35b610483611df8565b6040516104909190613323565b60405180910390f35b6104a1611dfe565b6040516104ae91906137b5565b60405180910390f35b6104d160048036038101906104cc9190613226565b61203d565b6040516104de919061326e565b60405180910390f35b61050160048036038101906104fc9190613226565b61205d565b60405161050e919061326e565b60405180910390f35b610531600480360381019061052c9190613226565b612087565b005b61053b612159565b60405161054891906137b5565b60405180910390f35b61056b60048036038101906105669190613226565b6123d5565b60405161057891906139d4565b60405180910390f35b61059b600480360381019061059691906139f6565b61266c565b6040516105aa9392919061343a565b60405180910390f35b6105cd60048036038101906105c891906139f6565b61273b565b6040516105de959493929190613a45565b60405180910390f35b61060160048036038101906105fc9190613aad565b612934565b005b61061d60048036038101906106189190613226565b612b88565b60405161062e959493929190613a45565b60405180910390f35b61063f612d74565b60405161064c9190613323565b60405180910390f35b61065d612d7a565b60405161066a9190613323565b60405180910390f35b61068d60048036038101906106889190613226565b612d80565b005b60606005805480602002602001604051908101604052809291908181526020016000905b828210156108af57838290600052602060002090600502016040518060a001604052908160008201548152602001600182015481526020016002820180546106fa90613b97565b80601f016020809104026020016040519081016040528092919081815260200182805461072690613b97565b80156107735780601f1061074857610100808354040283529160200191610773565b820191906000526020600020905b81548152906001019060200180831161075657829003601f168201915b5050505050815260200160038201805461078c90613b97565b80601f01602080910402602001604051908101604052809291908181526020018280546107b890613b97565b80156108055780601f106107da57610100808354040283529160200191610805565b820191906000526020600020905b8154815290600101906020018083116107e857829003601f168201915b5050505050815260200160048201805461081e90613b97565b80601f016020809104026020016040519081016040528092919081815260200182805461084a90613b97565b80156108975780601f1061086c57610100808354040283529160200191610897565b820191906000526020600020905b81548152906001019060200180831161087a57829003601f168201915b505050505081525050815260200190600101906106b3565b50505050905090565b813373ffffffffffffffffffffffffffffffffffffffff166006600083815260200190815260200160002060009054906101000a900473ffffffffffffffffffffffffffffffffffffffff1673ffffffffffffffffffffffffffffffffffffffff161461095a576040517f08c379a000000000000000000000000000000000000000000000000000000000815260040161095190613c3a565b60405180910390fd5b6000604051806060016040528060015481526020018581526020018481525090506000600d6000600154815260200190815260200160002060006101000a81548160ff0219169083151502179055506004819080600181540180825580915050600190039060005260206000209060030201600090919091909150600082015181600001556020820151816001015560408201518160020190816109fe9190613e06565b50505060016000815480929190610a1490613f07565b9190505550600a600085815260200190815260200160002081908060018154018082558091505060019003906000526020600020906003020160009091909190915060008201518160000155602082015181600101556040820151816002019081610a7f9190613e06565b50505083600760008360000151815260200190815260200160002081905550600860003373ffffffffffffffffffffffffffffffffffffffff1673ffffffffffffffffffffffffffffffffffffffff1681526020019081526020016000206000815480929190610aee90613f07565b9190505550600c60003373ffffffffffffffffffffffffffffffffffffffff1673ffffffffffffffffffffffffffffffffffffffff16815260200190815260200160002081908060018154018082558091505060019003906000526020600020906003020160009091909190915060008201518160000155602082015181600101556040820151816002019081610b859190613e06565b50505050505050565b600d6020528060005260406000206000915054906101000a900460ff1681565b60086020528060005260406000206000915090505481565b610bce612dc1565b60005b600480549050811015610cf8578260048281548110610bf357610bf2613f4f565b5b90600052602060002090600302016000015403610ce55760048181548110610c1e57610c1d613f4f565b5b90600052602060002090600302016040518060600160405290816000820154815260200160018201548152602001600282018054610c5b90613b97565b80601f0160208091040260200160405190810160405280929190818152602001828054610c8790613b97565b8015610cd45780601f10610ca957610100808354040283529160200191610cd4565b820191906000526020600020905b815481529060010190602001808311610cb757829003601f168201915b505050505081525050915050610d34565b8080610cf090613f07565b915050610bd1565b506040517f08c379a0000000000000000000000000000000000000000000000000000000008152600401610d2b90613fca565b60405180910390fd5b919050565b600a6020528160005260406000208181548110610d5557600080fd5b906000526020600020906003020160009150915050806000015490806001015490806002018054610d8590613b97565b80601f0160208091040260200160405190810160405280929190818152602001828054610db190613b97565b8015610dfe5780601f10610dd357610100808354040283529160200191610dfe565b820191906000526020600020905b815481529060010190602001808311610de157829003601f168201915b5050505050905083565b60048181548110610e1857600080fd5b9060005260206000209060030201600091509050806000015490806001015490806002018054610e4790613b97565b80601f0160208091040260200160405190810160405280929190818152602001828054610e7390613b97565b8015610ec05780601f10610e9557610100808354040283529160200191610ec0565b820191906000526020600020905b815481529060010190602001808311610ea357829003601f168201915b5050505050905083565b60606004805480602002602001604051908101604052809291908181526020016000905b82821015610fc657838290600052602060002090600302016040518060600160405290816000820154815260200160018201548152602001600282018054610f3590613b97565b80601f0160208091040260200160405190810160405280929190818152602001828054610f6190613b97565b8015610fae5780601f10610f8357610100808354040283529160200191610fae565b820191906000526020600020905b815481529060010190602001808311610f9157829003601f168201915b50505050508152505081526020019060010190610eee565b50505050905090565b610fd7612de2565b60005b60038054905081101561123b578260038281548110610ffc57610ffb613f4f565b5b90600052602060002090600502016000015403611228576003818154811061102757611026613f4f565b5b90600052602060002090600502016040518060a0016040529081600082015481526020016001820160009054906101000a900461ffff1661ffff1661ffff16815260200160028201805461107a90613b97565b80601f01602080910402602001604051908101604052809291908181526020018280546110a690613b97565b80156110f35780601f106110c8576101008083540402835291602001916110f3565b820191906000526020600020905b8154815290600101906020018083116110d657829003601f168201915b5050505050815260200160038201805461110c90613b97565b80601f016020809104026020016040519081016040528092919081815260200182805461113890613b97565b80156111855780601f1061115a57610100808354040283529160200191611185565b820191906000526020600020905b81548152906001019060200180831161116857829003601f168201915b5050505050815260200160048201805461119e90613b97565b80601f01602080910402602001604051908101604052809291908181526020018280546111ca90613b97565b80156112175780601f106111ec57610100808354040283529160200191611217565b820191906000526020600020905b8154815290600101906020018083116111fa57829003601f168201915b505050505081525050915050611277565b808061123390613f07565b915050610fda565b506040517f08c379a000000000000000000000000000000000000000000000000000000000815260040161126e90614036565b60405180910390fd5b919050565b60606000600960003373ffffffffffffffffffffffffffffffffffffffff1673ffffffffffffffffffffffffffffffffffffffff168152602001908152602001600020805480602002602001604051908101604052809291908181526020016000905b828210156114f157838290600052602060002090600502016040518060a0016040529081600082015481526020016001820160009054906101000a900461ffff1661ffff1661ffff16815260200160028201805461133c90613b97565b80601f016020809104026020016040519081016040528092919081815260200182805461136890613b97565b80156113b55780601f1061138a576101008083540402835291602001916113b5565b820191906000526020600020905b81548152906001019060200180831161139857829003601f168201915b505050505081526020016003820180546113ce90613b97565b80601f01602080910402602001604051908101604052809291908181526020018280546113fa90613b97565b80156114475780601f1061141c57610100808354040283529160200191611447565b820191906000526020600020905b81548152906001019060200180831161142a57829003601f168201915b5050505050815260200160048201805461146090613b97565b80601f016020809104026020016040519081016040528092919081815260200182805461148c90613b97565b80156114d95780601f106114ae576101008083540402835291602001916114d9565b820191906000526020600020905b8154815290600101906020018083116114bc57829003601f168201915b505050505081525050815260200190600101906112df565b5050505090506000805b82518110156115705760001515600e600085848151811061151f5761151e613f4f565b5b602002602001015160000151815260200190815260200160002060009054906101000a900460ff1615150361155d57818061155990613f07565b9250505b808061156890613f07565b9150506114fb565b5060008167ffffffffffffffff81111561158d5761158c61309f565b5b6040519080825280602002602001820160405280156115c657816020015b6115b3612de2565b8152602001906001900390816115ab5790505b5090506000805b845181101561167b5760001515600e60008784815181106115f1576115f0613f4f565b5b602002602001015160000151815260200190815260200160002060009054906101000a900460ff161515036116685784818151811061163357611632613f4f565b5b602002602001015183838151811061164e5761164d613f4f565b5b6020026020010181905250818061166490613f07565b9250505b808061167390613f07565b9150506115cd565b508194505050505090565b6060600c60003373ffffffffffffffffffffffffffffffffffffffff1673ffffffffffffffffffffffffffffffffffffffff168152602001908152602001600020805480602002602001604051908101604052809291908181526020016000905b828210156117bf5783829060005260206000209060030201604051806060016040529081600082015481526020016001820154815260200160028201805461172e90613b97565b80601f016020809104026020016040519081016040528092919081815260200182805461175a90613b97565b80156117a75780601f1061177c576101008083540402835291602001916117a7565b820191906000526020600020905b81548152906001019060200180831161178a57829003601f168201915b505050505081525050815260200190600101906116e7565b50505050905090565b600581815481106117d857600080fd5b906000526020600020906005020160009150905080600001549080600101549080600201805461180790613b97565b80601f016020809104026020016040519081016040528092919081815260200182805461183390613b97565b80156118805780601f1061185557610100808354040283529160200191611880565b820191906000526020600020905b81548152906001019060200180831161186357829003601f168201915b50505050509080600301805461189590613b97565b80601f01602080910402602001604051908101604052809291908181526020018280546118c190613b97565b801561190e5780601f106118e35761010080835404028352916020019161190e565b820191906000526020600020905b8154815290600101906020018083116118f157829003601f168201915b50505050509080600401805461192390613b97565b80601f016020809104026020016040519081016040528092919081815260200182805461194f90613b97565b801561199c5780601f106119715761010080835404028352916020019161199c565b820191906000526020600020905b81548152906001019060200180831161197f57829003601f168201915b5050505050905085565b60066020528060005260406000206000915054906101000a900473ffffffffffffffffffffffffffffffffffffffff1681565b60006040518060a0016040528060005481526020018661ffff16815260200185815260200184815260200183815250905060038190806001815401808255809150506001900390600052602060002090600502016000909190919091506000820151816000015560208201518160010160006101000a81548161ffff021916908361ffff1602179055506040820151816002019081611a789190613e06565b506060820151816003019081611a8e9190613e06565b506080820151816004019081611aa49190613e06565b505050600080815480929190611ab990613f07565b919050555033600660008360000151815260200190815260200160002060006101000a81548173ffffffffffffffffffffffffffffffffffffffff021916908373ffffffffffffffffffffffffffffffffffffffff160217905550600960003373ffffffffffffffffffffffffffffffffffffffff1673ffffffffffffffffffffffffffffffffffffffff1681526020019081526020016000208190806001815401808255809150506001900390600052602060002090600502016000909190919091506000820151816000015560208201518160010160006101000a81548161ffff021916908361ffff1602179055506040820151816002019081611bbf9190613e06565b506060820151816003019081611bd59190613e06565b506080820151816004019081611beb9190613e06565b5050505050505050565b60076020528060005260406000206000915090505481565b600b6020528160005260406000208181548110611c2957600080fd5b906000526020600020906005020160009150915050806000015490806001015490806002018054611c5990613b97565b80601f0160208091040260200160405190810160405280929190818152602001828054611c8590613b97565b8015611cd25780601f10611ca757610100808354040283529160200191611cd2565b820191906000526020600020905b815481529060010190602001808311611cb557829003601f168201915b505050505090806003018054611ce790613b97565b80601f0160208091040260200160405190810160405280929190818152602001828054611d1390613b97565b8015611d605780601f10611d3557610100808354040283529160200191611d60565b820191906000526020600020905b815481529060010190602001808311611d4357829003601f168201915b505050505090806004018054611d7590613b97565b80601f0160208091040260200160405190810160405280929190818152602001828054611da190613b97565b8015611dee5780601f10611dc357610100808354040283529160200191611dee565b820191906000526020600020905b815481529060010190602001808311611dd157829003601f168201915b5050505050905085565b60015481565b60606003805480602002602001604051908101604052809291908181526020016000905b8282101561203457838290600052602060002090600502016040518060a0016040529081600082015481526020016001820160009054906101000a900461ffff1661ffff1661ffff168152602001600282018054611e7f90613b97565b80601f0160208091040260200160405190810160405280929190818152602001828054611eab90613b97565b8015611ef85780601f10611ecd57610100808354040283529160200191611ef8565b820191906000526020600020905b815481529060010190602001808311611edb57829003601f168201915b50505050508152602001600382018054611f1190613b97565b80601f0160208091040260200160405190810160405280929190818152602001828054611f3d90613b97565b8015611f8a5780601f10611f5f57610100808354040283529160200191611f8a565b820191906000526020600020905b815481529060010190602001808311611f6d57829003601f168201915b50505050508152602001600482018054611fa390613b97565b80601f0160208091040260200160405190810160405280929190818152602001828054611fcf90613b97565b801561201c5780601f10611ff15761010080835404028352916020019161201c565b820191906000526020600020905b815481529060010190602001808311611fff57829003601f168201915b50505050508152505081526020019060010190611e22565b50505050905090565b600e6020528060005260406000206000915054906101000a900460ff1681565b6000600d600083815260200190815260200160002060009054906101000a900460ff169050919050565b803373ffffffffffffffffffffffffffffffffffffffff166006600083815260200190815260200160002060009054906101000a900473ffffffffffffffffffffffffffffffffffffffff1673ffffffffffffffffffffffffffffffffffffffff1614612129576040517f08c379a000000000000000000000000000000000000000000000000000000000815260040161212090613c3a565b60405180910390fd5b6001600e600084815260200190815260200160002060006101000a81548160ff0219169083151502179055505050565b6060600960003373ffffffffffffffffffffffffffffffffffffffff1673ffffffffffffffffffffffffffffffffffffffff168152602001908152602001600020805480602002602001604051908101604052809291908181526020016000905b828210156123cc57838290600052602060002090600502016040518060a0016040529081600082015481526020016001820160009054906101000a900461ffff1661ffff1661ffff16815260200160028201805461221790613b97565b80601f016020809104026020016040519081016040528092919081815260200182805461224390613b97565b80156122905780601f1061226557610100808354040283529160200191612290565b820191906000526020600020905b81548152906001019060200180831161227357829003601f168201915b505050505081526020016003820180546122a990613b97565b80601f01602080910402602001604051908101604052809291908181526020018280546122d590613b97565b80156123225780601f106122f757610100808354040283529160200191612322565b820191906000526020600020905b81548152906001019060200180831161230557829003601f168201915b5050505050815260200160048201805461233b90613b97565b80601f016020809104026020016040519081016040528092919081815260200182805461236790613b97565b80156123b45780601f10612389576101008083540402835291602001916123b4565b820191906000526020600020905b81548152906001019060200180831161239757829003601f168201915b505050505081525050815260200190600101906121ba565b50505050905090565b6123dd612e15565b60005b60058054905081101561262b57826005828154811061240257612401613f4f565b5b90600052602060002090600502016000015403612618576005818154811061242d5761242c613f4f565b5b90600052602060002090600502016040518060a0016040529081600082015481526020016001820154815260200160028201805461246a90613b97565b80601f016020809104026020016040519081016040528092919081815260200182805461249690613b97565b80156124e35780601f106124b8576101008083540402835291602001916124e3565b820191906000526020600020905b8154815290600101906020018083116124c657829003601f168201915b505050505081526020016003820180546124fc90613b97565b80601f016020809104026020016040519081016040528092919081815260200182805461252890613b97565b80156125755780601f1061254a57610100808354040283529160200191612575565b820191906000526020600020905b81548152906001019060200180831161255857829003601f168201915b5050505050815260200160048201805461258e90613b97565b80601f01602080910402602001604051908101604052809291908181526020018280546125ba90613b97565b80156126075780601f106125dc57610100808354040283529160200191612607565b820191906000526020600020905b8154815290600101906020018083116125ea57829003601f168201915b505050505081525050915050612667565b808061262390613f07565b9150506123e0565b506040517f08c379a000000000000000000000000000000000000000000000000000000000815260040161265e906140a2565b60405180910390fd5b919050565b600c602052816000526040600020818154811061268857600080fd5b9060005260206000209060030201600091509150508060000154908060010154908060020180546126b890613b97565b80601f01602080910402602001604051908101604052809291908181526020018280546126e490613b97565b80156127315780601f1061270657610100808354040283529160200191612731565b820191906000526020600020905b81548152906001019060200180831161271457829003601f168201915b5050505050905083565b6009602052816000526040600020818154811061275757600080fd5b9060005260206000209060050201600091509150508060000154908060010160009054906101000a900461ffff169080600201805461279590613b97565b80601f01602080910402602001604051908101604052809291908181526020018280546127c190613b97565b801561280e5780601f106127e35761010080835404028352916020019161280e565b820191906000526020600020905b8154815290600101906020018083116127f157829003601f168201915b50505050509080600301805461282390613b97565b80601f016020809104026020016040519081016040528092919081815260200182805461284f90613b97565b801561289c5780601f106128715761010080835404028352916020019161289c565b820191906000526020600020905b81548152906001019060200180831161287f57829003601f168201915b5050505050908060040180546128b190613b97565b80601f01602080910402602001604051908101604052809291908181526020018280546128dd90613b97565b801561292a5780601f106128ff5761010080835404028352916020019161292a565b820191906000526020600020905b81548152906001019060200180831161290d57829003601f168201915b5050505050905085565b60076000858152602001908152602001600020543373ffffffffffffffffffffffffffffffffffffffff166006600083815260200190815260200160002060009054906101000a900473ffffffffffffffffffffffffffffffffffffffff1673ffffffffffffffffffffffffffffffffffffffff16146129e9576040517f08c379a00000000000000000000000000000000000000000000000000000000081526004016129e090613c3a565b60405180910390fd5b60006040518060a001604052806002548152602001878152602001868152602001858152602001848152509050600581908060018154018082558091505060019003906000526020600020906005020160009091909190915060008201518160000155602082015181600101556040820151816002019081612a6b9190613e06565b506060820151816003019081612a819190613e06565b506080820151816004019081612a979190613e06565b505050600b600087815260200190815260200160002081908060018154018082558091505060019003906000526020600020906005020160009091909190915060008201518160000155602082015181600101556040820151816002019081612b009190613e06565b506060820151816003019081612b169190613e06565b506080820151816004019081612b2c9190613e06565b5050507f4fc9d5acc453e78e01b205af5788a1c62f195c4b5cdc8eb8f1c670863b7e736a600254604051612b609190613323565b60405180910390a160026000815480929190612b7b90613f07565b9190505550505050505050565b60038181548110612b9857600080fd5b90600052602060002090600502016000915090508060000154908060010160009054906101000a900461ffff1690806002018054612bd590613b97565b80601f0160208091040260200160405190810160405280929190818152602001828054612c0190613b97565b8015612c4e5780601f10612c2357610100808354040283529160200191612c4e565b820191906000526020600020905b815481529060010190602001808311612c3157829003601f168201915b505050505090806003018054612c6390613b97565b80601f0160208091040260200160405190810160405280929190818152602001828054612c8f90613b97565b8015612cdc5780601f10612cb157610100808354040283529160200191612cdc565b820191906000526020600020905b815481529060010190602001808311612cbf57829003601f168201915b505050505090806004018054612cf190613b97565b80601f0160208091040260200160405190810160405280929190818152602001828054612d1d90613b97565b8015612d6a5780601f10612d3f57610100808354040283529160200191612d6a565b820191906000526020600020905b815481529060010190602001808311612d4d57829003601f168201915b5050505050905085565b60025481565b60005481565b6000612d8b826123d5565b6020015190506001600d600083815260200190815260200160002060006101000a81548160ff0219169083151502179055505050565b60405180606001604052806000815260200160008152602001606081525090565b6040518060a0016040528060008152602001600061ffff1681526020016060815260200160608152602001606081525090565b6040518060a0016040528060008152602001600081526020016060815260200160608152602001606081525090565b600081519050919050565b600082825260208201905092915050565b6000819050602082019050919050565b6000819050919050565b612e8381612e70565b82525050565b600081519050919050565b600082825260208201905092915050565b60005b83811015612ec3578082015181840152602081019050612ea8565b60008484015250505050565b6000601f19601f8301169050919050565b6000612eeb82612e89565b612ef58185612e94565b9350612f05818560208601612ea5565b612f0e81612ecf565b840191505092915050565b600060a083016000830151612f316000860182612e7a565b506020830151612f446020860182612e7a565b5060408301518482036040860152612f5c8282612ee0565b91505060608301518482036060860152612f768282612ee0565b91505060808301518482036080860152612f908282612ee0565b9150508091505092915050565b6000612fa98383612f19565b905092915050565b6000602082019050919050565b6000612fc982612e44565b612fd38185612e4f565b935083602082028501612fe585612e60565b8060005b8581101561302157848403895281516130028582612f9d565b945061300d83612fb1565b925060208a01995050600181019050612fe9565b50829750879550505050505092915050565b6000602082019050818103600083015261304d8184612fbe565b905092915050565b6000604051905090565b600080fd5b600080fd5b61307281612e70565b811461307d57600080fd5b50565b60008135905061308f81613069565b92915050565b600080fd5b600080fd5b7f4e487b7100000000000000000000000000000000000000000000000000000000600052604160045260246000fd5b6130d782612ecf565b810181811067ffffffffffffffff821117156130f6576130f561309f565b5b80604052505050565b6000613109613055565b905061311582826130ce565b919050565b600067ffffffffffffffff8211156131355761313461309f565b5b61313e82612ecf565b9050602081019050919050565b82818337600083830152505050565b600061316d6131688461311a565b6130ff565b9050828152602081018484840111156131895761318861309a565b5b61319484828561314b565b509392505050565b600082601f8301126131b1576131b0613095565b5b81356131c184826020860161315a565b91505092915050565b600080604083850312156131e1576131e061305f565b5b60006131ef85828601613080565b925050602083013567ffffffffffffffff8111156132105761320f613064565b5b61321c8582860161319c565b9150509250929050565b60006020828403121561323c5761323b61305f565b5b600061324a84828501613080565b91505092915050565b60008115159050919050565b61326881613253565b82525050565b6000602082019050613283600083018461325f565b92915050565b600073ffffffffffffffffffffffffffffffffffffffff82169050919050565b60006132b482613289565b9050919050565b6132c4816132a9565b81146132cf57600080fd5b50565b6000813590506132e1816132bb565b92915050565b6000602082840312156132fd576132fc61305f565b5b600061330b848285016132d2565b91505092915050565b61331d81612e70565b82525050565b60006020820190506133386000830184613314565b92915050565b60006060830160008301516133566000860182612e7a565b5060208301516133696020860182612e7a565b50604083015184820360408601526133818282612ee0565b9150508091505092915050565b600060208201905081810360008301526133a8818461333e565b905092915050565b600080604083850312156133c7576133c661305f565b5b60006133d585828601613080565b92505060206133e685828601613080565b9150509250929050565b600082825260208201905092915050565b600061340c82612e89565b61341681856133f0565b9350613426818560208601612ea5565b61342f81612ecf565b840191505092915050565b600060608201905061344f6000830186613314565b61345c6020830185613314565b818103604083015261346e8184613401565b9050949350505050565b600081519050919050565b600082825260208201905092915050565b6000819050602082019050919050565b60006060830160008301516134bc6000860182612e7a565b5060208301516134cf6020860182612e7a565b50604083015184820360408601526134e78282612ee0565b9150508091505092915050565b600061350083836134a4565b905092915050565b6000602082019050919050565b600061352082613478565b61352a8185613483565b93508360208202850161353c85613494565b8060005b85811015613578578484038952815161355985826134f4565b945061356483613508565b925060208a01995050600181019050613540565b50829750879550505050505092915050565b600060208201905081810360008301526135a48184613515565b905092915050565b600061ffff82169050919050565b6135c3816135ac565b82525050565b600060a0830160008301516135e16000860182612e7a565b5060208301516135f460208601826135ba565b506040830151848203604086015261360c8282612ee0565b915050606083015184820360608601526136268282612ee0565b915050608083015184820360808601526136408282612ee0565b9150508091505092915050565b6000602082019050818103600083015261366781846135c9565b905092915050565b600081519050919050565b600082825260208201905092915050565b6000819050602082019050919050565b600060a0830160008301516136b36000860182612e7a565b5060208301516136c660208601826135ba565b50604083015184820360408601526136de8282612ee0565b915050606083015184820360608601526136f88282612ee0565b915050608083015184820360808601526137128282612ee0565b9150508091505092915050565b600061372b838361369b565b905092915050565b6000602082019050919050565b600061374b8261366f565b613755818561367a565b9350836020820285016137678561368b565b8060005b858110156137a35784840389528151613784858261371f565b945061378f83613733565b925060208a0199505060018101905061376b565b50829750879550505050505092915050565b600060208201905081810360008301526137cf8184613740565b905092915050565b600060a0820190506137ec6000830188613314565b6137f96020830187613314565b818103604083015261380b8186613401565b9050818103606083015261381f8185613401565b905081810360808301526138338184613401565b90509695505050505050565b613848816132a9565b82525050565b6000602082019050613863600083018461383f565b92915050565b613872816135ac565b811461387d57600080fd5b50565b60008135905061388f81613869565b92915050565b600080600080608085870312156138af576138ae61305f565b5b60006138bd87828801613880565b945050602085013567ffffffffffffffff8111156138de576138dd613064565b5b6138ea8782880161319c565b935050604085013567ffffffffffffffff81111561390b5761390a613064565b5b6139178782880161319c565b925050606085013567ffffffffffffffff81111561393857613937613064565b5b6139448782880161319c565b91505092959194509250565b600060a0830160008301516139686000860182612e7a565b50602083015161397b6020860182612e7a565b50604083015184820360408601526139938282612ee0565b915050606083015184820360608601526139ad8282612ee0565b915050608083015184820360808601526139c78282612ee0565b9150508091505092915050565b600060208201905081810360008301526139ee8184613950565b905092915050565b60008060408385031215613a0d57613a0c61305f565b5b6000613a1b858286016132d2565b9250506020613a2c85828601613080565b9150509250929050565b613a3f816135ac565b82525050565b600060a082019050613a5a6000830188613314565b613a676020830187613a36565b8181036040830152613a798186613401565b90508181036060830152613a8d8185613401565b90508181036080830152613aa18184613401565b90509695505050505050565b60008060008060808587031215613ac757613ac661305f565b5b6000613ad587828801613080565b945050602085013567ffffffffffffffff811115613af657613af5613064565b5b613b028782880161319c565b935050604085013567ffffffffffffffff811115613b2357613b22613064565b5b613b2f8782880161319c565b925050606085013567ffffffffffffffff811115613b5057613b4f613064565b5b613b5c8782880161319c565b91505092959194509250565b7f4e487b7100000000000000000000000000000000000000000000000000000000600052602260045260246000fd5b60006002820490506001821680613baf57607f821691505b602082108103613bc257613bc1613b68565b5b50919050565b7f596f7520617265206e6f7420746865206f776e6572206f66207468697320636f60008201527f7700000000000000000000000000000000000000000000000000000000000000602082015250565b6000613c246021836133f0565b9150613c2f82613bc8565b604082019050919050565b60006020820190508181036000830152613c5381613c17565b9050919050565b60008190508160005260206000209050919050565b60006020601f8301049050919050565b600082821b905092915050565b600060088302613cbc7fffffffffffffffffffffffffffffffffffffffffffffffffffffffffffffffff82613c7f565b613cc68683613c7f565b95508019841693508086168417925050509392505050565b6000819050919050565b6000613d03613cfe613cf984612e70565b613cde565b612e70565b9050919050565b6000819050919050565b613d1d83613ce8565b613d31613d2982613d0a565b848454613c8c565b825550505050565b600090565b613d46613d39565b613d51818484613d14565b505050565b5b81811015613d7557613d6a600082613d3e565b600181019050613d57565b5050565b601f821115613dba57613d8b81613c5a565b613d9484613c6f565b81016020851015613da3578190505b613db7613daf85613c6f565b830182613d56565b50505b505050565b600082821c905092915050565b6000613ddd60001984600802613dbf565b1980831691505092915050565b6000613df68383613dcc565b9150826002028217905092915050565b613e0f82612e89565b67ffffffffffffffff811115613e2857613e2761309f565b5b613e328254613b97565b613e3d828285613d79565b600060209050601f831160018114613e705760008415613e5e578287015190505b613e688582613dea565b865550613ed0565b601f198416613e7e86613c5a565b60005b82811015613ea657848901518255600182019150602085019450602081019050613e81565b86831015613ec35784890151613ebf601f891682613dcc565b8355505b6001600288020188555050505b505050505050565b7f4e487b7100000000000000000000000000000000000000000000000000000000600052601160045260246000fd5b6000613f1282612e70565b91507fffffffffffffffffffffffffffffffffffffffffffffffffffffffffffffffff8203613f4457613f43613ed8565b5b600182019050919050565b7f4e487b7100000000000000000000000000000000000000000000000000000000600052603260045260246000fd5b7f4d696c6b206e6f7420666f756e64210000000000000000000000000000000000600082015250565b6000613fb4600f836133f0565b9150613fbf82613f7e565b602082019050919050565b60006020820190508181036000830152613fe381613fa7565b9050919050565b7f436f77206e6f7420666f756e6421000000000000000000000000000000000000600082015250565b6000614020600e836133f0565b915061402b82613fea565b602082019050919050565b6000602082019050818103600083015261404f81614013565b9050919050565b7f50726f64756374206e6f7420666f756e64210000000000000000000000000000600082015250565b600061408c6012836133f0565b915061409782614056565b602082019050919050565b600060208201905081810360008301526140bb8161407f565b905091905056fea26469706673582212203af6600e6a0288f723765425e0db6484f0c8dc37a4ddc1479022470a8e2cab6364736f6c63430008130033",
  "immutableReferences": {},
  "source": "pragma solidity ^0.8.17;\r\n\r\ncontract MilkFactory {\r\n\r\n    struct Dairy {\r\n        address dairyAddress;\r\n        string dairyName;\r\n        string dairyPlace;\r\n    }\r\n\r\n    struct Cow {\r\n        uint256 id;\r\n        uint16 weight;\r\n        string breed;\r\n        string birthDate;\r\n        string residence;\r\n    }\r\n\r\n    struct Milk {\r\n        uint256 id;\r\n        uint256 cowId;\r\n        string dateOfProduction;\r\n    }\r\n\r\n    struct Product { //Should add more info about product \r\n        uint256 id;\r\n        uint256 milkId;\r\n        string dateOfProduction;\r\n        string productType;\r\n        string expiryDate;\r\n    }\r\n\r\n    //constructor() {\r\n    //    owner = msg.sender;\r\n    //}\r\n\r\n    modifier onlyOwnerOf(uint256 _cowId) {\r\n        require(cowToOwner[_cowId] == msg.sender, \"You are not the owner of this cow\");\r\n        _;\r\n    }\r\n    \r\n    uint256 public cowCount = 0;\r\n    uint256 public milkCount = 0;\r\n    uint256 public productCount = 0;\r\n\r\n    event ProductAdded(uint256 productId);\r\n    event SpoiledProduct(uint256 productId);\r\n    event LogMessage(string message);\r\n    \r\n    Cow[] public cowList;\r\n    Milk[] public milkList;\r\n    Product[] public productList;\r\n\r\n    mapping(uint256 => address) public cowToOwner;\r\n    mapping(uint256 => uint256) public milkToCow;\r\n    mapping(address => uint256) public ownerMilkCount;\r\n    mapping(address => Cow[]) public ownerToCowList;\r\n    mapping(uint256 => Milk[]) public cowToMilkList;\r\n    mapping(uint256 => Product[]) public milkToProductList;\r\n    mapping(address => Milk[]) public ownerToMilk;\r\n    mapping(uint256 => bool) public spoiledMilks;\r\n    mapping(uint256 => bool) public deathCows;\r\n   \r\n    //mapping(uint256 => uint256) public milkToCow;\r\n    \r\n\r\n    function addCow(uint16 _weight, string memory _breed, string memory _birthDate, string memory _residence) public {\r\n        Cow memory myCow = Cow(cowCount, _weight, _breed, _birthDate, _residence);\r\n        cowList.push(myCow);\r\n        //Increase cow count that is used as id\r\n        cowCount++;\r\n        cowToOwner[myCow.id] = msg.sender;\r\n        ownerToCowList[msg.sender].push(myCow);\r\n    }\r\n    \r\n    function addMilk(uint256 _cowId, string memory _dateOfProduction) public onlyOwnerOf(_cowId) {\r\n        //Check if cow exists\r\n        Milk memory myMilk = Milk(milkCount, _cowId, _dateOfProduction);\r\n        spoiledMilks[milkCount] = false;\r\n        milkList.push(myMilk);\r\n        milkCount++;\r\n        cowToMilkList[_cowId].push(myMilk);\r\n        milkToCow[myMilk.id] = _cowId;\r\n        ownerMilkCount[msg.sender]++; \r\n        ownerToMilk[msg.sender].push(myMilk);\r\n    }\r\n    \r\n    function addProduct(uint256 _milkId, string memory _dateOfProduction, string memory _productType, string memory _expiryDate) public  onlyOwnerOf(milkToCow[_milkId]) {\r\n        //Check if milk exists\r\n        Product memory  myProduct = Product( productCount, _milkId, _dateOfProduction, _productType, _expiryDate);\r\n        productList.push(myProduct);\r\n        milkToProductList[_milkId].push(myProduct);\r\n        emit ProductAdded(productCount);\r\n        productCount++;  \r\n    }\r\n\r\n    function killCow(uint256 _cowId) public onlyOwnerOf(_cowId) {\r\n        deathCows[_cowId] = true;\r\n    }\r\n\r\n    function getAllCows() public view returns(Cow[] memory) {\r\n        return cowList;\r\n    }\r\n\r\n    function getCowsOfOwner() public view returns(Cow[] memory) {\r\n        return ownerToCowList[msg.sender];\r\n    }\r\n\r\n    function getAliveCowsOfOwner() public view returns(Cow[] memory) {\r\n        Cow[] memory cows = ownerToCowList[msg.sender];\r\n        uint256 aliveCows = 0;\r\n        for(uint i=0; i < cows.length; i++) { \r\n            if(deathCows[cows[i].id] == false) {\r\n                aliveCows++;\r\n            }\r\n        }\r\n        Cow[] memory aliveCowList = new Cow[](aliveCows);\r\n        uint256 index = 0;\r\n        for(uint i=0; i < cows.length; i++) { \r\n            if(deathCows[cows[i].id] == false) {\r\n                aliveCowList[index] = cows[i];\r\n                index++;\r\n            }\r\n        }\r\n        return aliveCowList;\r\n    }\r\n    \r\n    function getAllMilks() public view returns(Milk[] memory) {\r\n        return milkList;\r\n    }\r\n\r\n    function getMilksOfOwner() public view returns (Milk[] memory) {\r\n        return ownerToMilk[msg.sender];    \r\n    }\r\n\r\n    function reportSpoiledProduct(uint256 _productId) public {\r\n        uint256 milkId = getProduct(_productId).milkId;\r\n        spoiledMilks[milkId] = true;\r\n    }\r\n\r\n    function getAllProducts() public view returns(Product[] memory) {\r\n        return productList;\r\n    }\r\n\r\n    function getProduct(uint256 _productId) public view returns(Product memory) {\r\n        for(uint i=0; i < productList.length; i++) { \r\n            if(productList[i].id == _productId) {\r\n                return productList[i];\r\n            }\r\n        }\r\n        revert(\"Product not found!\"); //Undo, return value, give back gas \r\n    }\r\n\r\n    function isMilkSpoiled(uint256 _milkId) public view returns(bool) {\r\n        return spoiledMilks[_milkId];\r\n    }\r\n\r\n    function getMilk(uint256 _milkId) public view returns(Milk memory) {\r\n        for(uint i=0; i < milkList.length; i++) { \r\n            if(milkList[i].id == _milkId) {\r\n                return milkList[i];\r\n            }\r\n        }\r\n        revert(\"Milk not found!\"); //Undo, return value, give back gas \r\n    }\r\n\r\n    function getCow(uint256 _cowId) public view returns(Cow memory) {\r\n        for(uint i=0; i < cowList.length; i++) { \r\n            if(cowList[i].id == _cowId) {\r\n                return cowList[i];\r\n            }\r\n        }\r\n        revert(\"Cow not found!\"); //Undo, return value, give back gas \r\n    }\r\n}",
  "sourcePath": "C:\\Users\\tomas\\Desktop\\Blockchain-Project\\blockchain\\contracts\\MilkFactory.sol",
  "compiler": {
    "name": "solc",
    "version": "0.8.19+commit.7dd6d404.Emscripten.clang"
  },
  "schemaVersion": "3.4.13",
  "updatedAt": "2023-07-10T09:19:14.944Z",
  "networkType": "ethereum",
  "devdoc": {
    "kind": "dev",
    "methods": {},
    "version": 1
  },
  "userdoc": {
    "kind": "user",
    "methods": {},
    "version": 1
  }
}