{
  "contractName": "MilkFactory",
  "abi": [
    {
      "anonymous": false,
      "inputs": [
        {
          "indexed": false,
          "internalType": "string",
          "name": "message",
          "type": "string"
        }
      ],
      "name": "LogMessage",
      "type": "event"
    },
    {
      "anonymous": false,
      "inputs": [
        {
          "indexed": false,
          "internalType": "uint256",
          "name": "productId",
          "type": "uint256"
        }
      ],
      "name": "ProductAdded",
      "type": "event"
    },
    {
      "anonymous": false,
      "inputs": [
        {
          "indexed": false,
          "internalType": "uint256",
          "name": "productId",
          "type": "uint256"
        }
      ],
      "name": "SpoiledProduct",
      "type": "event"
    },
    {
      "inputs": [],
      "name": "cowCount",
      "outputs": [
        {
          "internalType": "uint256",
          "name": "",
          "type": "uint256"
        }
      ],
      "stateMutability": "view",
      "type": "function",
      "constant": true
    },
    {
      "inputs": [
        {
          "internalType": "uint256",
          "name": "",
          "type": "uint256"
        }
      ],
      "name": "cowList",
      "outputs": [
        {
          "internalType": "uint256",
          "name": "id",
          "type": "uint256"
        },
        {
          "internalType": "uint16",
          "name": "weight",
          "type": "uint16"
        },
        {
          "internalType": "string",
          "name": "breed",
          "type": "string"
        },
        {
          "internalType": "string",
          "name": "birthDate",
          "type": "string"
        },
        {
          "internalType": "string",
          "name": "residence",
          "type": "string"
        }
      ],
      "stateMutability": "view",
      "type": "function",
      "constant": true
    },
    {
      "inputs": [
        {
          "internalType": "uint256",
          "name": "",
          "type": "uint256"
        },
        {
          "internalType": "uint256",
          "name": "",
          "type": "uint256"
        }
      ],
      "name": "cowToMilkList",
      "outputs": [
        {
          "internalType": "uint256",
          "name": "id",
          "type": "uint256"
        },
        {
          "internalType": "uint256",
          "name": "cowId",
          "type": "uint256"
        },
        {
          "internalType": "string",
          "name": "dateOfProduction",
          "type": "string"
        }
      ],
      "stateMutability": "view",
      "type": "function",
      "constant": true
    },
    {
      "inputs": [
        {
          "internalType": "uint256",
          "name": "",
          "type": "uint256"
        }
      ],
      "name": "cowToOwner",
      "outputs": [
        {
          "internalType": "address",
          "name": "",
          "type": "address"
        }
      ],
      "stateMutability": "view",
      "type": "function",
      "constant": true
    },
    {
      "inputs": [
        {
          "internalType": "uint256",
          "name": "",
          "type": "uint256"
        }
      ],
      "name": "deathCows",
      "outputs": [
        {
          "internalType": "bool",
          "name": "",
          "type": "bool"
        }
      ],
      "stateMutability": "view",
      "type": "function",
      "constant": true
    },
    {
      "inputs": [],
      "name": "milkCount",
      "outputs": [
        {
          "internalType": "uint256",
          "name": "",
          "type": "uint256"
        }
      ],
      "stateMutability": "view",
      "type": "function",
      "constant": true
    },
    {
      "inputs": [
        {
          "internalType": "uint256",
          "name": "",
          "type": "uint256"
        }
      ],
      "name": "milkList",
      "outputs": [
        {
          "internalType": "uint256",
          "name": "id",
          "type": "uint256"
        },
        {
          "internalType": "uint256",
          "name": "cowId",
          "type": "uint256"
        },
        {
          "internalType": "string",
          "name": "dateOfProduction",
          "type": "string"
        }
      ],
      "stateMutability": "view",
      "type": "function",
      "constant": true
    },
    {
      "inputs": [
        {
          "internalType": "uint256",
          "name": "",
          "type": "uint256"
        }
      ],
      "name": "milkToCow",
      "outputs": [
        {
          "internalType": "uint256",
          "name": "",
          "type": "uint256"
        }
      ],
      "stateMutability": "view",
      "type": "function",
      "constant": true
    },
    {
      "inputs": [
        {
          "internalType": "uint256",
          "name": "",
          "type": "uint256"
        },
        {
          "internalType": "uint256",
          "name": "",
          "type": "uint256"
        }
      ],
      "name": "milkToProductList",
      "outputs": [
        {
          "internalType": "uint256",
          "name": "id",
          "type": "uint256"
        },
        {
          "internalType": "uint256",
          "name": "milkId",
          "type": "uint256"
        },
        {
          "internalType": "string",
          "name": "dateOfProduction",
          "type": "string"
        },
        {
          "internalType": "string",
          "name": "productType",
          "type": "string"
        },
        {
          "internalType": "string",
          "name": "expiryDate",
          "type": "string"
        }
      ],
      "stateMutability": "view",
      "type": "function",
      "constant": true
    },
    {
      "inputs": [
        {
          "internalType": "address",
          "name": "",
          "type": "address"
        }
      ],
      "name": "ownerMilkCount",
      "outputs": [
        {
          "internalType": "uint256",
          "name": "",
          "type": "uint256"
        }
      ],
      "stateMutability": "view",
      "type": "function",
      "constant": true
    },
    {
      "inputs": [
        {
          "internalType": "address",
          "name": "",
          "type": "address"
        },
        {
          "internalType": "uint256",
          "name": "",
          "type": "uint256"
        }
      ],
      "name": "ownerToCowList",
      "outputs": [
        {
          "internalType": "uint256",
          "name": "id",
          "type": "uint256"
        },
        {
          "internalType": "uint16",
          "name": "weight",
          "type": "uint16"
        },
        {
          "internalType": "string",
          "name": "breed",
          "type": "string"
        },
        {
          "internalType": "string",
          "name": "birthDate",
          "type": "string"
        },
        {
          "internalType": "string",
          "name": "residence",
          "type": "string"
        }
      ],
      "stateMutability": "view",
      "type": "function",
      "constant": true
    },
    {
      "inputs": [
        {
          "internalType": "address",
          "name": "",
          "type": "address"
        },
        {
          "internalType": "uint256",
          "name": "",
          "type": "uint256"
        }
      ],
      "name": "ownerToMilk",
      "outputs": [
        {
          "internalType": "uint256",
          "name": "id",
          "type": "uint256"
        },
        {
          "internalType": "uint256",
          "name": "cowId",
          "type": "uint256"
        },
        {
          "internalType": "string",
          "name": "dateOfProduction",
          "type": "string"
        }
      ],
      "stateMutability": "view",
      "type": "function",
      "constant": true
    },
    {
      "inputs": [],
      "name": "productCount",
      "outputs": [
        {
          "internalType": "uint256",
          "name": "",
          "type": "uint256"
        }
      ],
      "stateMutability": "view",
      "type": "function",
      "constant": true
    },
    {
      "inputs": [
        {
          "internalType": "uint256",
          "name": "",
          "type": "uint256"
        }
      ],
      "name": "productList",
      "outputs": [
        {
          "internalType": "uint256",
          "name": "id",
          "type": "uint256"
        },
        {
          "internalType": "uint256",
          "name": "milkId",
          "type": "uint256"
        },
        {
          "internalType": "string",
          "name": "dateOfProduction",
          "type": "string"
        },
        {
          "internalType": "string",
          "name": "productType",
          "type": "string"
        },
        {
          "internalType": "string",
          "name": "expiryDate",
          "type": "string"
        }
      ],
      "stateMutability": "view",
      "type": "function",
      "constant": true
    },
    {
      "inputs": [
        {
          "internalType": "uint256",
          "name": "",
          "type": "uint256"
        }
      ],
      "name": "spoiledMilks",
      "outputs": [
        {
          "internalType": "bool",
          "name": "",
          "type": "bool"
        }
      ],
      "stateMutability": "view",
      "type": "function",
      "constant": true
    },
    {
      "inputs": [
        {
          "internalType": "uint256",
          "name": "_cowId",
          "type": "uint256"
        },
        {
          "internalType": "address",
          "name": "_newOwner",
          "type": "address"
        }
      ],
      "name": "transferCow",
      "outputs": [],
      "stateMutability": "nonpayable",
      "type": "function"
    },
    {
      "inputs": [
        {
          "internalType": "uint16",
          "name": "_weight",
          "type": "uint16"
        },
        {
          "internalType": "string",
          "name": "_breed",
          "type": "string"
        },
        {
          "internalType": "string",
          "name": "_birthDate",
          "type": "string"
        },
        {
          "internalType": "string",
          "name": "_residence",
          "type": "string"
        }
      ],
      "name": "addCow",
      "outputs": [],
      "stateMutability": "nonpayable",
      "type": "function"
    },
    {
      "inputs": [
        {
          "internalType": "uint256",
          "name": "_cowId",
          "type": "uint256"
        },
        {
          "internalType": "string",
          "name": "_dateOfProduction",
          "type": "string"
        }
      ],
      "name": "addMilk",
      "outputs": [],
      "stateMutability": "nonpayable",
      "type": "function"
    },
    {
      "inputs": [
        {
          "internalType": "uint256",
          "name": "_milkId",
          "type": "uint256"
        },
        {
          "internalType": "string",
          "name": "_dateOfProduction",
          "type": "string"
        },
        {
          "internalType": "string",
          "name": "_productType",
          "type": "string"
        },
        {
          "internalType": "string",
          "name": "_expiryDate",
          "type": "string"
        }
      ],
      "name": "addProduct",
      "outputs": [],
      "stateMutability": "nonpayable",
      "type": "function"
    },
    {
      "inputs": [
        {
          "internalType": "uint256",
          "name": "_cowId",
          "type": "uint256"
        }
      ],
      "name": "killCow",
      "outputs": [],
      "stateMutability": "nonpayable",
      "type": "function"
    },
    {
      "inputs": [],
      "name": "getAllCows",
      "outputs": [
        {
          "components": [
            {
              "internalType": "uint256",
              "name": "id",
              "type": "uint256"
            },
            {
              "internalType": "uint16",
              "name": "weight",
              "type": "uint16"
            },
            {
              "internalType": "string",
              "name": "breed",
              "type": "string"
            },
            {
              "internalType": "string",
              "name": "birthDate",
              "type": "string"
            },
            {
              "internalType": "string",
              "name": "residence",
              "type": "string"
            }
          ],
          "internalType": "struct MilkFactory.Cow[]",
          "name": "",
          "type": "tuple[]"
        }
      ],
      "stateMutability": "view",
      "type": "function",
      "constant": true
    },
    {
      "inputs": [],
      "name": "getCowsOfOwner",
      "outputs": [
        {
          "components": [
            {
              "internalType": "uint256",
              "name": "id",
              "type": "uint256"
            },
            {
              "internalType": "uint16",
              "name": "weight",
              "type": "uint16"
            },
            {
              "internalType": "string",
              "name": "breed",
              "type": "string"
            },
            {
              "internalType": "string",
              "name": "birthDate",
              "type": "string"
            },
            {
              "internalType": "string",
              "name": "residence",
              "type": "string"
            }
          ],
          "internalType": "struct MilkFactory.Cow[]",
          "name": "",
          "type": "tuple[]"
        }
      ],
      "stateMutability": "view",
      "type": "function",
      "constant": true
    },
    {
      "inputs": [],
      "name": "getAliveCowsOfOwner",
      "outputs": [
        {
          "components": [
            {
              "internalType": "uint256",
              "name": "id",
              "type": "uint256"
            },
            {
              "internalType": "uint16",
              "name": "weight",
              "type": "uint16"
            },
            {
              "internalType": "string",
              "name": "breed",
              "type": "string"
            },
            {
              "internalType": "string",
              "name": "birthDate",
              "type": "string"
            },
            {
              "internalType": "string",
              "name": "residence",
              "type": "string"
            }
          ],
          "internalType": "struct MilkFactory.Cow[]",
          "name": "",
          "type": "tuple[]"
        }
      ],
      "stateMutability": "view",
      "type": "function",
      "constant": true
    },
    {
      "inputs": [],
      "name": "getAllMilks",
      "outputs": [
        {
          "components": [
            {
              "internalType": "uint256",
              "name": "id",
              "type": "uint256"
            },
            {
              "internalType": "uint256",
              "name": "cowId",
              "type": "uint256"
            },
            {
              "internalType": "string",
              "name": "dateOfProduction",
              "type": "string"
            }
          ],
          "internalType": "struct MilkFactory.Milk[]",
          "name": "",
          "type": "tuple[]"
        }
      ],
      "stateMutability": "view",
      "type": "function",
      "constant": true
    },
    {
      "inputs": [],
      "name": "getMilksOfOwner",
      "outputs": [
        {
          "components": [
            {
              "internalType": "uint256",
              "name": "id",
              "type": "uint256"
            },
            {
              "internalType": "uint256",
              "name": "cowId",
              "type": "uint256"
            },
            {
              "internalType": "string",
              "name": "dateOfProduction",
              "type": "string"
            }
          ],
          "internalType": "struct MilkFactory.Milk[]",
          "name": "",
          "type": "tuple[]"
        }
      ],
      "stateMutability": "view",
      "type": "function",
      "constant": true
    },
    {
      "inputs": [
        {
          "internalType": "uint256",
          "name": "_productId",
          "type": "uint256"
        }
      ],
      "name": "reportSpoiledProduct",
      "outputs": [],
      "stateMutability": "nonpayable",
      "type": "function"
    },
    {
      "inputs": [],
      "name": "getAllProducts",
      "outputs": [
        {
          "components": [
            {
              "internalType": "uint256",
              "name": "id",
              "type": "uint256"
            },
            {
              "internalType": "uint256",
              "name": "milkId",
              "type": "uint256"
            },
            {
              "internalType": "string",
              "name": "dateOfProduction",
              "type": "string"
            },
            {
              "internalType": "string",
              "name": "productType",
              "type": "string"
            },
            {
              "internalType": "string",
              "name": "expiryDate",
              "type": "string"
            }
          ],
          "internalType": "struct MilkFactory.Product[]",
          "name": "",
          "type": "tuple[]"
        }
      ],
      "stateMutability": "view",
      "type": "function",
      "constant": true
    },
    {
      "inputs": [
        {
          "internalType": "uint256",
          "name": "_productId",
          "type": "uint256"
        }
      ],
      "name": "getProduct",
      "outputs": [
        {
          "components": [
            {
              "internalType": "uint256",
              "name": "id",
              "type": "uint256"
            },
            {
              "internalType": "uint256",
              "name": "milkId",
              "type": "uint256"
            },
            {
              "internalType": "string",
              "name": "dateOfProduction",
              "type": "string"
            },
            {
              "internalType": "string",
              "name": "productType",
              "type": "string"
            },
            {
              "internalType": "string",
              "name": "expiryDate",
              "type": "string"
            }
          ],
          "internalType": "struct MilkFactory.Product",
          "name": "",
          "type": "tuple"
        }
      ],
      "stateMutability": "view",
      "type": "function",
      "constant": true
    },
    {
      "inputs": [
        {
          "internalType": "uint256",
          "name": "_milkId",
          "type": "uint256"
        }
      ],
      "name": "isMilkSpoiled",
      "outputs": [
        {
          "internalType": "bool",
          "name": "",
          "type": "bool"
        }
      ],
      "stateMutability": "view",
      "type": "function",
      "constant": true
    },
    {
      "inputs": [
        {
          "internalType": "uint256",
          "name": "_milkId",
          "type": "uint256"
        }
      ],
      "name": "getMilk",
      "outputs": [
        {
          "components": [
            {
              "internalType": "uint256",
              "name": "id",
              "type": "uint256"
            },
            {
              "internalType": "uint256",
              "name": "cowId",
              "type": "uint256"
            },
            {
              "internalType": "string",
              "name": "dateOfProduction",
              "type": "string"
            }
          ],
          "internalType": "struct MilkFactory.Milk",
          "name": "",
          "type": "tuple"
        }
      ],
      "stateMutability": "view",
      "type": "function",
      "constant": true
    },
    {
      "inputs": [
        {
          "internalType": "uint256",
          "name": "_cowId",
          "type": "uint256"
        }
      ],
      "name": "getCow",
      "outputs": [
        {
          "components": [
            {
              "internalType": "uint256",
              "name": "id",
              "type": "uint256"
            },
            {
              "internalType": "uint16",
              "name": "weight",
              "type": "uint16"
            },
            {
              "internalType": "string",
              "name": "breed",
              "type": "string"
            },
            {
              "internalType": "string",
              "name": "birthDate",
              "type": "string"
            },
            {
              "internalType": "string",
              "name": "residence",
              "type": "string"
            }
          ],
          "internalType": "struct MilkFactory.Cow",
          "name": "",
          "type": "tuple"
        }
      ],
      "stateMutability": "view",
      "type": "function",
      "constant": true
    }
  ],
  "bytecode": "0x6080604052600080556000600155600060025534801561001e57600080fd5b506148dc8061002e6000396000f3fe608060405234801561001057600080fd5b50600436106101e55760003560e01c80637ba3372d1161010f578063b9db15b4116100a2578063cb7cdaad11610071578063cb7cdaad1461062a578063e0f6ef871461065e578063edb5a4571461067c578063ef2670f11461069a576101e5565b8063b9db15b414610578578063b9f9fbfe146105a8578063beda38f5146105da578063c1393d271461060e576101e5565b80639fd1fef4116100de5780639fd1fef4146104de578063ae81394c1461050e578063b3597a221461053e578063b6f7ea8a1461055a576101e5565b80637ba3372d146104525780638d15b01f146104865780638de6e5f1146104a2578063927fb4de146104c0576101e5565b8063329bcfa511610187578063528c87d211610156578063528c87d2146103a25780635515d0f6146103d657806365db2d58146104065780636c46f2a014610422576101e5565b8063329bcfa51461031857806334df9b6014610336578063449794dc146103665780634a71bd2a14610384576101e5565b80630f926aeb116101c35780630f926aeb14610254578063184e9c2d146102845780631dc2c408146102b45780632bd6ccc8146102e6576101e5565b806302ee3a52146101ea57806308f0eb531461020857806309e88f4514610224575b600080fd5b6101f26106b6565b6040516101ff919061360a565b60405180910390f35b610222600480360381019061021d91906137a1565b6108df565b005b61023e600480360381019061023991906137fd565b610bb5565b60405161024b9190613845565b60405180910390f35b61026e600480360381019061026991906138be565b610bd5565b60405161027b91906138fa565b60405180910390f35b61029e600480360381019061029991906137fd565b610bed565b6040516102ab9190613965565b60405180910390f35b6102ce60048036038101906102c99190613987565b610d60565b6040516102dd93929190613a11565b60405180910390f35b61030060048036038101906102fb91906137fd565b610e2f565b60405161030f93929190613a11565b60405180910390f35b610320610ef1565b60405161032d9190613b61565b60405180910390f35b610350600480360381019061034b91906137fd565b610ff6565b60405161035d9190613c24565b60405180910390f35b61036e6112a3565b60405161037b9190613d8c565b60405180910390f35b61038c6116ad565b6040516103999190613b61565b60405180910390f35b6103bc60048036038101906103b791906137fd565b6117ef565b6040516103cd959493929190613dae565b60405180910390f35b6103f060048036038101906103eb91906137fd565b6119cd565b6040516103fd9190613e25565b60405180910390f35b610420600480360381019061041b9190613e6c565b611a00565b005b61043c600480360381019061043791906137fd565b611c1c565b60405161044991906138fa565b60405180910390f35b61046c60048036038101906104679190613987565b611c34565b60405161047d959493929190613dae565b60405180910390f35b6104a0600480360381019061049b9190613f27565b611e1f565b005b6104aa612372565b6040516104b791906138fa565b60405180910390f35b6104c8612378565b6040516104d59190613d8c565b60405180910390f35b6104f860048036038101906104f391906137fd565b6125b7565b6040516105059190613845565b60405180910390f35b610528600480360381019061052391906137fd565b6125d7565b6040516105359190613845565b60405180910390f35b610558600480360381019061055391906137fd565b612601565b005b6105626126d3565b60405161056f9190613d8c565b60405180910390f35b610592600480360381019061058d91906137fd565b61294f565b60405161059f9190613feb565b60405180910390f35b6105c260048036038101906105bd919061400d565b612be6565b6040516105d193929190613a11565b60405180910390f35b6105f460048036038101906105ef919061400d565b612cb5565b60405161060595949392919061405c565b60405180910390f35b610628600480360381019061062391906140c4565b612eae565b005b610644600480360381019061063f91906137fd565b613102565b60405161065595949392919061405c565b60405180910390f35b6106666132ee565b60405161067391906138fa565b60405180910390f35b6106846132f4565b60405161069191906138fa565b60405180910390f35b6106b460048036038101906106af91906137fd565b6132fa565b005b60606005805480602002602001604051908101604052809291908181526020016000905b828210156108d657838290600052602060002090600502016040518060a00160405290816000820154815260200160018201548152602001600282018054610721906141ae565b80601f016020809104026020016040519081016040528092919081815260200182805461074d906141ae565b801561079a5780601f1061076f5761010080835404028352916020019161079a565b820191906000526020600020905b81548152906001019060200180831161077d57829003601f168201915b505050505081526020016003820180546107b3906141ae565b80601f01602080910402602001604051908101604052809291908181526020018280546107df906141ae565b801561082c5780601f106108015761010080835404028352916020019161082c565b820191906000526020600020905b81548152906001019060200180831161080f57829003601f168201915b50505050508152602001600482018054610845906141ae565b80601f0160208091040260200160405190810160405280929190818152602001828054610871906141ae565b80156108be5780601f10610893576101008083540402835291602001916108be565b820191906000526020600020905b8154815290600101906020018083116108a157829003601f168201915b505050505081525050815260200190600101906106da565b50505050905090565b813373ffffffffffffffffffffffffffffffffffffffff166006600083815260200190815260200160002060009054906101000a900473ffffffffffffffffffffffffffffffffffffffff1673ffffffffffffffffffffffffffffffffffffffff1614610981576040517f08c379a000000000000000000000000000000000000000000000000000000000815260040161097890614251565b60405180910390fd5b6000604051806060016040528060015481526020018581526020018481525090506000600d6000600154815260200190815260200160002060006101000a81548160ff021916908315150217905550600481908060018154018082558091505060019003906000526020600020906003020160009091909190915060008201518160000155602082015181600101556040820151816002019081610a25919061441d565b50505060016000815480929190610a3b9061451e565b9190505550600a600085815260200190815260200160002081908060018154018082558091505060019003906000526020600020906003020160009091909190915060008201518160000155602082015181600101556040820151816002019081610aa6919061441d565b50505083600760008360000151815260200190815260200160002081905550600860003373ffffffffffffffffffffffffffffffffffffffff1673ffffffffffffffffffffffffffffffffffffffff1681526020019081526020016000206000815480929190610b159061451e565b9190505550600c60003373ffffffffffffffffffffffffffffffffffffffff1673ffffffffffffffffffffffffffffffffffffffff16815260200190815260200160002081908060018154018082558091505060019003906000526020600020906003020160009091909190915060008201518160000155602082015181600101556040820151816002019081610bac919061441d565b50505050505050565b600d6020528060005260406000206000915054906101000a900460ff1681565b60086020528060005260406000206000915090505481565b610bf561333b565b60005b600480549050811015610d1f578260048281548110610c1a57610c19614566565b5b90600052602060002090600302016000015403610d0c5760048181548110610c4557610c44614566565b5b90600052602060002090600302016040518060600160405290816000820154815260200160018201548152602001600282018054610c82906141ae565b80601f0160208091040260200160405190810160405280929190818152602001828054610cae906141ae565b8015610cfb5780601f10610cd057610100808354040283529160200191610cfb565b820191906000526020600020905b815481529060010190602001808311610cde57829003601f168201915b505050505081525050915050610d5b565b8080610d179061451e565b915050610bf8565b506040517f08c379a0000000000000000000000000000000000000000000000000000000008152600401610d52906145e1565b60405180910390fd5b919050565b600a6020528160005260406000208181548110610d7c57600080fd5b906000526020600020906003020160009150915050806000015490806001015490806002018054610dac906141ae565b80601f0160208091040260200160405190810160405280929190818152602001828054610dd8906141ae565b8015610e255780601f10610dfa57610100808354040283529160200191610e25565b820191906000526020600020905b815481529060010190602001808311610e0857829003601f168201915b5050505050905083565b60048181548110610e3f57600080fd5b9060005260206000209060030201600091509050806000015490806001015490806002018054610e6e906141ae565b80601f0160208091040260200160405190810160405280929190818152602001828054610e9a906141ae565b8015610ee75780601f10610ebc57610100808354040283529160200191610ee7565b820191906000526020600020905b815481529060010190602001808311610eca57829003601f168201915b5050505050905083565b60606004805480602002602001604051908101604052809291908181526020016000905b82821015610fed57838290600052602060002090600302016040518060600160405290816000820154815260200160018201548152602001600282018054610f5c906141ae565b80601f0160208091040260200160405190810160405280929190818152602001828054610f88906141ae565b8015610fd55780601f10610faa57610100808354040283529160200191610fd5565b820191906000526020600020905b815481529060010190602001808311610fb857829003601f168201915b50505050508152505081526020019060010190610f15565b50505050905090565b610ffe61335c565b60005b60038054905081101561126257826003828154811061102357611022614566565b5b9060005260206000209060050201600001540361124f576003818154811061104e5761104d614566565b5b90600052602060002090600502016040518060a0016040529081600082015481526020016001820160009054906101000a900461ffff1661ffff1661ffff1681526020016002820180546110a1906141ae565b80601f01602080910402602001604051908101604052809291908181526020018280546110cd906141ae565b801561111a5780601f106110ef5761010080835404028352916020019161111a565b820191906000526020600020905b8154815290600101906020018083116110fd57829003601f168201915b50505050508152602001600382018054611133906141ae565b80601f016020809104026020016040519081016040528092919081815260200182805461115f906141ae565b80156111ac5780601f10611181576101008083540402835291602001916111ac565b820191906000526020600020905b81548152906001019060200180831161118f57829003601f168201915b505050505081526020016004820180546111c5906141ae565b80601f01602080910402602001604051908101604052809291908181526020018280546111f1906141ae565b801561123e5780601f106112135761010080835404028352916020019161123e565b820191906000526020600020905b81548152906001019060200180831161122157829003601f168201915b50505050508152505091505061129e565b808061125a9061451e565b915050611001565b506040517f08c379a00000000000000000000000000000000000000000000000000000000081526004016112959061464d565b60405180910390fd5b919050565b60606000600960003373ffffffffffffffffffffffffffffffffffffffff1673ffffffffffffffffffffffffffffffffffffffff168152602001908152602001600020805480602002602001604051908101604052809291908181526020016000905b8282101561151857838290600052602060002090600502016040518060a0016040529081600082015481526020016001820160009054906101000a900461ffff1661ffff1661ffff168152602001600282018054611363906141ae565b80601f016020809104026020016040519081016040528092919081815260200182805461138f906141ae565b80156113dc5780601f106113b1576101008083540402835291602001916113dc565b820191906000526020600020905b8154815290600101906020018083116113bf57829003601f168201915b505050505081526020016003820180546113f5906141ae565b80601f0160208091040260200160405190810160405280929190818152602001828054611421906141ae565b801561146e5780601f106114435761010080835404028352916020019161146e565b820191906000526020600020905b81548152906001019060200180831161145157829003601f168201915b50505050508152602001600482018054611487906141ae565b80601f01602080910402602001604051908101604052809291908181526020018280546114b3906141ae565b80156115005780601f106114d557610100808354040283529160200191611500565b820191906000526020600020905b8154815290600101906020018083116114e357829003601f168201915b50505050508152505081526020019060010190611306565b5050505090506000805b82518110156115975760001515600e600085848151811061154657611545614566565b5b602002602001015160000151815260200190815260200160002060009054906101000a900460ff161515036115845781806115809061451e565b9250505b808061158f9061451e565b915050611522565b5060008167ffffffffffffffff8111156115b4576115b3613676565b5b6040519080825280602002602001820160405280156115ed57816020015b6115da61335c565b8152602001906001900390816115d25790505b5090506000805b84518110156116a25760001515600e600087848151811061161857611617614566565b5b602002602001015160000151815260200190815260200160002060009054906101000a900460ff1615150361168f5784818151811061165a57611659614566565b5b602002602001015183838151811061167557611674614566565b5b6020026020010181905250818061168b9061451e565b9250505b808061169a9061451e565b9150506115f4565b508194505050505090565b6060600c60003373ffffffffffffffffffffffffffffffffffffffff1673ffffffffffffffffffffffffffffffffffffffff168152602001908152602001600020805480602002602001604051908101604052809291908181526020016000905b828210156117e657838290600052602060002090600302016040518060600160405290816000820154815260200160018201548152602001600282018054611755906141ae565b80601f0160208091040260200160405190810160405280929190818152602001828054611781906141ae565b80156117ce5780601f106117a3576101008083540402835291602001916117ce565b820191906000526020600020905b8154815290600101906020018083116117b157829003601f168201915b5050505050815250508152602001906001019061170e565b50505050905090565b600581815481106117ff57600080fd5b906000526020600020906005020160009150905080600001549080600101549080600201805461182e906141ae565b80601f016020809104026020016040519081016040528092919081815260200182805461185a906141ae565b80156118a75780601f1061187c576101008083540402835291602001916118a7565b820191906000526020600020905b81548152906001019060200180831161188a57829003601f168201915b5050505050908060030180546118bc906141ae565b80601f01602080910402602001604051908101604052809291908181526020018280546118e8906141ae565b80156119355780601f1061190a57610100808354040283529160200191611935565b820191906000526020600020905b81548152906001019060200180831161191857829003601f168201915b50505050509080600401805461194a906141ae565b80601f0160208091040260200160405190810160405280929190818152602001828054611976906141ae565b80156119c35780601f10611998576101008083540402835291602001916119c3565b820191906000526020600020905b8154815290600101906020018083116119a657829003601f168201915b5050505050905085565b60066020528060005260406000206000915054906101000a900473ffffffffffffffffffffffffffffffffffffffff1681565b60006040518060a0016040528060005481526020018661ffff16815260200185815260200184815260200183815250905060038190806001815401808255809150506001900390600052602060002090600502016000909190919091506000820151816000015560208201518160010160006101000a81548161ffff021916908361ffff1602179055506040820151816002019081611a9f919061441d565b506060820151816003019081611ab5919061441d565b506080820151816004019081611acb919061441d565b505050600080815480929190611ae09061451e565b919050555033600660008360000151815260200190815260200160002060006101000a81548173ffffffffffffffffffffffffffffffffffffffff021916908373ffffffffffffffffffffffffffffffffffffffff160217905550600960003373ffffffffffffffffffffffffffffffffffffffff1673ffffffffffffffffffffffffffffffffffffffff1681526020019081526020016000208190806001815401808255809150506001900390600052602060002090600502016000909190919091506000820151816000015560208201518160010160006101000a81548161ffff021916908361ffff1602179055506040820151816002019081611be6919061441d565b506060820151816003019081611bfc919061441d565b506080820151816004019081611c12919061441d565b5050505050505050565b60076020528060005260406000206000915090505481565b600b6020528160005260406000208181548110611c5057600080fd5b906000526020600020906005020160009150915050806000015490806001015490806002018054611c80906141ae565b80601f0160208091040260200160405190810160405280929190818152602001828054611cac906141ae565b8015611cf95780601f10611cce57610100808354040283529160200191611cf9565b820191906000526020600020905b815481529060010190602001808311611cdc57829003601f168201915b505050505090806003018054611d0e906141ae565b80601f0160208091040260200160405190810160405280929190818152602001828054611d3a906141ae565b8015611d875780601f10611d5c57610100808354040283529160200191611d87565b820191906000526020600020905b815481529060010190602001808311611d6a57829003601f168201915b505050505090806004018054611d9c906141ae565b80601f0160208091040260200160405190810160405280929190818152602001828054611dc8906141ae565b8015611e155780601f10611dea57610100808354040283529160200191611e15565b820191906000526020600020905b815481529060010190602001808311611df857829003601f168201915b5050505050905085565b813373ffffffffffffffffffffffffffffffffffffffff166006600083815260200190815260200160002060009054906101000a900473ffffffffffffffffffffffffffffffffffffffff1673ffffffffffffffffffffffffffffffffffffffff1614611ec1576040517f08c379a0000000000000000000000000000000000000000000000000000000008152600401611eb890614251565b60405180910390fd5b600073ffffffffffffffffffffffffffffffffffffffff168273ffffffffffffffffffffffffffffffffffffffff1603611f30576040517f08c379a0000000000000000000000000000000000000000000000000000000008152600401611f27906146b9565b60405180910390fd5b60005b600960003373ffffffffffffffffffffffffffffffffffffffff1673ffffffffffffffffffffffffffffffffffffffff168152602001908152602001600020805490508110156121835783600960003373ffffffffffffffffffffffffffffffffffffffff1673ffffffffffffffffffffffffffffffffffffffff1681526020019081526020016000208281548110611fcf57611fce614566565b5b9060005260206000209060050201600001540361217057600960003373ffffffffffffffffffffffffffffffffffffffff1673ffffffffffffffffffffffffffffffffffffffff1681526020019081526020016000206001600960003373ffffffffffffffffffffffffffffffffffffffff1673ffffffffffffffffffffffffffffffffffffffff1681526020019081526020016000208054905061207491906146d9565b8154811061208557612084614566565b5b9060005260206000209060050201600960003373ffffffffffffffffffffffffffffffffffffffff1673ffffffffffffffffffffffffffffffffffffffff16815260200190815260200160002082815481106120e4576120e3614566565b5b9060005260206000209060050201600082015481600001556001820160009054906101000a900461ffff168160010160006101000a81548161ffff021916908361ffff160217905550600282018160020190816121419190614723565b50600382018160030190816121569190614723565b506004820181600401908161216b9190614723565b509050505b808061217b9061451e565b915050611f33565b50600960003373ffffffffffffffffffffffffffffffffffffffff1673ffffffffffffffffffffffffffffffffffffffff1681526020019081526020016000208054806121d3576121d261480b565b5b60019003818190600052602060002090600502016000808201600090556001820160006101000a81549061ffff0219169055600282016000612215919061338f565b600382016000612225919061338f565b600482016000612235919061338f565b50509055600960008373ffffffffffffffffffffffffffffffffffffffff1673ffffffffffffffffffffffffffffffffffffffff16815260200190815260200160002061228184610ff6565b90806001815401808255809150506001900390600052602060002090600502016000909190919091506000820151816000015560208201518160010160006101000a81548161ffff021916908361ffff16021790555060408201518160020190816122ec919061441d565b506060820151816003019081612302919061441d565b506080820151816004019081612318919061441d565b505050816006600085815260200190815260200160002060006101000a81548173ffffffffffffffffffffffffffffffffffffffff021916908373ffffffffffffffffffffffffffffffffffffffff160217905550505050565b60015481565b60606003805480602002602001604051908101604052809291908181526020016000905b828210156125ae57838290600052602060002090600502016040518060a0016040529081600082015481526020016001820160009054906101000a900461ffff1661ffff1661ffff1681526020016002820180546123f9906141ae565b80601f0160208091040260200160405190810160405280929190818152602001828054612425906141ae565b80156124725780601f1061244757610100808354040283529160200191612472565b820191906000526020600020905b81548152906001019060200180831161245557829003601f168201915b5050505050815260200160038201805461248b906141ae565b80601f01602080910402602001604051908101604052809291908181526020018280546124b7906141ae565b80156125045780601f106124d957610100808354040283529160200191612504565b820191906000526020600020905b8154815290600101906020018083116124e757829003601f168201915b5050505050815260200160048201805461251d906141ae565b80601f0160208091040260200160405190810160405280929190818152602001828054612549906141ae565b80156125965780601f1061256b57610100808354040283529160200191612596565b820191906000526020600020905b81548152906001019060200180831161257957829003601f168201915b5050505050815250508152602001906001019061239c565b50505050905090565b600e6020528060005260406000206000915054906101000a900460ff1681565b6000600d600083815260200190815260200160002060009054906101000a900460ff169050919050565b803373ffffffffffffffffffffffffffffffffffffffff166006600083815260200190815260200160002060009054906101000a900473ffffffffffffffffffffffffffffffffffffffff1673ffffffffffffffffffffffffffffffffffffffff16146126a3576040517f08c379a000000000000000000000000000000000000000000000000000000000815260040161269a90614251565b60405180910390fd5b6001600e600084815260200190815260200160002060006101000a81548160ff0219169083151502179055505050565b6060600960003373ffffffffffffffffffffffffffffffffffffffff1673ffffffffffffffffffffffffffffffffffffffff168152602001908152602001600020805480602002602001604051908101604052809291908181526020016000905b8282101561294657838290600052602060002090600502016040518060a0016040529081600082015481526020016001820160009054906101000a900461ffff1661ffff1661ffff168152602001600282018054612791906141ae565b80601f01602080910402602001604051908101604052809291908181526020018280546127bd906141ae565b801561280a5780601f106127df5761010080835404028352916020019161280a565b820191906000526020600020905b8154815290600101906020018083116127ed57829003601f168201915b50505050508152602001600382018054612823906141ae565b80601f016020809104026020016040519081016040528092919081815260200182805461284f906141ae565b801561289c5780601f106128715761010080835404028352916020019161289c565b820191906000526020600020905b81548152906001019060200180831161287f57829003601f168201915b505050505081526020016004820180546128b5906141ae565b80601f01602080910402602001604051908101604052809291908181526020018280546128e1906141ae565b801561292e5780601f106129035761010080835404028352916020019161292e565b820191906000526020600020905b81548152906001019060200180831161291157829003601f168201915b50505050508152505081526020019060010190612734565b50505050905090565b6129576133cf565b60005b600580549050811015612ba557826005828154811061297c5761297b614566565b5b90600052602060002090600502016000015403612b9257600581815481106129a7576129a6614566565b5b90600052602060002090600502016040518060a001604052908160008201548152602001600182015481526020016002820180546129e4906141ae565b80601f0160208091040260200160405190810160405280929190818152602001828054612a10906141ae565b8015612a5d5780601f10612a3257610100808354040283529160200191612a5d565b820191906000526020600020905b815481529060010190602001808311612a4057829003601f168201915b50505050508152602001600382018054612a76906141ae565b80601f0160208091040260200160405190810160405280929190818152602001828054612aa2906141ae565b8015612aef5780601f10612ac457610100808354040283529160200191612aef565b820191906000526020600020905b815481529060010190602001808311612ad257829003601f168201915b50505050508152602001600482018054612b08906141ae565b80601f0160208091040260200160405190810160405280929190818152602001828054612b34906141ae565b8015612b815780601f10612b5657610100808354040283529160200191612b81565b820191906000526020600020905b815481529060010190602001808311612b6457829003601f168201915b505050505081525050915050612be1565b8080612b9d9061451e565b91505061295a565b506040517f08c379a0000000000000000000000000000000000000000000000000000000008152600401612bd890614886565b60405180910390fd5b919050565b600c6020528160005260406000208181548110612c0257600080fd5b906000526020600020906003020160009150915050806000015490806001015490806002018054612c32906141ae565b80601f0160208091040260200160405190810160405280929190818152602001828054612c5e906141ae565b8015612cab5780601f10612c8057610100808354040283529160200191612cab565b820191906000526020600020905b815481529060010190602001808311612c8e57829003601f168201915b5050505050905083565b60096020528160005260406000208181548110612cd157600080fd5b9060005260206000209060050201600091509150508060000154908060010160009054906101000a900461ffff1690806002018054612d0f906141ae565b80601f0160208091040260200160405190810160405280929190818152602001828054612d3b906141ae565b8015612d885780601f10612d5d57610100808354040283529160200191612d88565b820191906000526020600020905b815481529060010190602001808311612d6b57829003601f168201915b505050505090806003018054612d9d906141ae565b80601f0160208091040260200160405190810160405280929190818152602001828054612dc9906141ae565b8015612e165780601f10612deb57610100808354040283529160200191612e16565b820191906000526020600020905b815481529060010190602001808311612df957829003601f168201915b505050505090806004018054612e2b906141ae565b80601f0160208091040260200160405190810160405280929190818152602001828054612e57906141ae565b8015612ea45780601f10612e7957610100808354040283529160200191612ea4565b820191906000526020600020905b815481529060010190602001808311612e8757829003601f168201915b5050505050905085565b60076000858152602001908152602001600020543373ffffffffffffffffffffffffffffffffffffffff166006600083815260200190815260200160002060009054906101000a900473ffffffffffffffffffffffffffffffffffffffff1673ffffffffffffffffffffffffffffffffffffffff1614612f63576040517f08c379a0000000000000000000000000000000000000000000000000000000008152600401612f5a90614251565b60405180910390fd5b60006040518060a001604052806002548152602001878152602001868152602001858152602001848152509050600581908060018154018082558091505060019003906000526020600020906005020160009091909190915060008201518160000155602082015181600101556040820151816002019081612fe5919061441d565b506060820151816003019081612ffb919061441d565b506080820151816004019081613011919061441d565b505050600b60008781526020019081526020016000208190806001815401808255809150506001900390600052602060002090600502016000909190919091506000820151816000015560208201518160010155604082015181600201908161307a919061441d565b506060820151816003019081613090919061441d565b5060808201518160040190816130a6919061441d565b5050507f4fc9d5acc453e78e01b205af5788a1c62f195c4b5cdc8eb8f1c670863b7e736a6002546040516130da91906138fa565b60405180910390a1600260008154809291906130f59061451e565b9190505550505050505050565b6003818154811061311257600080fd5b90600052602060002090600502016000915090508060000154908060010160009054906101000a900461ffff169080600201805461314f906141ae565b80601f016020809104026020016040519081016040528092919081815260200182805461317b906141ae565b80156131c85780601f1061319d576101008083540402835291602001916131c8565b820191906000526020600020905b8154815290600101906020018083116131ab57829003601f168201915b5050505050908060030180546131dd906141ae565b80601f0160208091040260200160405190810160405280929190818152602001828054613209906141ae565b80156132565780601f1061322b57610100808354040283529160200191613256565b820191906000526020600020905b81548152906001019060200180831161323957829003601f168201915b50505050509080600401805461326b906141ae565b80601f0160208091040260200160405190810160405280929190818152602001828054613297906141ae565b80156132e45780601f106132b9576101008083540402835291602001916132e4565b820191906000526020600020905b8154815290600101906020018083116132c757829003601f168201915b5050505050905085565b60025481565b60005481565b60006133058261294f565b6020015190506001600d600083815260200190815260200160002060006101000a81548160ff0219169083151502179055505050565b60405180606001604052806000815260200160008152602001606081525090565b6040518060a0016040528060008152602001600061ffff1681526020016060815260200160608152602001606081525090565b50805461339b906141ae565b6000825580601f106133ad57506133cc565b601f0160209004906000526020600020908101906133cb91906133fe565b5b50565b6040518060a0016040528060008152602001600081526020016060815260200160608152602001606081525090565b5b808211156134175760008160009055506001016133ff565b5090565b600081519050919050565b600082825260208201905092915050565b6000819050602082019050919050565b6000819050919050565b61345a81613447565b82525050565b600081519050919050565b600082825260208201905092915050565b60005b8381101561349a57808201518184015260208101905061347f565b60008484015250505050565b6000601f19601f8301169050919050565b60006134c282613460565b6134cc818561346b565b93506134dc81856020860161347c565b6134e5816134a6565b840191505092915050565b600060a0830160008301516135086000860182613451565b50602083015161351b6020860182613451565b506040830151848203604086015261353382826134b7565b9150506060830151848203606086015261354d82826134b7565b9150506080830151848203608086015261356782826134b7565b9150508091505092915050565b600061358083836134f0565b905092915050565b6000602082019050919050565b60006135a08261341b565b6135aa8185613426565b9350836020820285016135bc85613437565b8060005b858110156135f857848403895281516135d98582613574565b94506135e483613588565b925060208a019950506001810190506135c0565b50829750879550505050505092915050565b600060208201905081810360008301526136248184613595565b905092915050565b6000604051905090565b600080fd5b600080fd5b61364981613447565b811461365457600080fd5b50565b60008135905061366681613640565b92915050565b600080fd5b600080fd5b7f4e487b7100000000000000000000000000000000000000000000000000000000600052604160045260246000fd5b6136ae826134a6565b810181811067ffffffffffffffff821117156136cd576136cc613676565b5b80604052505050565b60006136e061362c565b90506136ec82826136a5565b919050565b600067ffffffffffffffff82111561370c5761370b613676565b5b613715826134a6565b9050602081019050919050565b82818337600083830152505050565b600061374461373f846136f1565b6136d6565b9050828152602081018484840111156137605761375f613671565b5b61376b848285613722565b509392505050565b600082601f8301126137885761378761366c565b5b8135613798848260208601613731565b91505092915050565b600080604083850312156137b8576137b7613636565b5b60006137c685828601613657565b925050602083013567ffffffffffffffff8111156137e7576137e661363b565b5b6137f385828601613773565b9150509250929050565b60006020828403121561381357613812613636565b5b600061382184828501613657565b91505092915050565b60008115159050919050565b61383f8161382a565b82525050565b600060208201905061385a6000830184613836565b92915050565b600073ffffffffffffffffffffffffffffffffffffffff82169050919050565b600061388b82613860565b9050919050565b61389b81613880565b81146138a657600080fd5b50565b6000813590506138b881613892565b92915050565b6000602082840312156138d4576138d3613636565b5b60006138e2848285016138a9565b91505092915050565b6138f481613447565b82525050565b600060208201905061390f60008301846138eb565b92915050565b600060608301600083015161392d6000860182613451565b5060208301516139406020860182613451565b506040830151848203604086015261395882826134b7565b9150508091505092915050565b6000602082019050818103600083015261397f8184613915565b905092915050565b6000806040838503121561399e5761399d613636565b5b60006139ac85828601613657565b92505060206139bd85828601613657565b9150509250929050565b600082825260208201905092915050565b60006139e382613460565b6139ed81856139c7565b93506139fd81856020860161347c565b613a06816134a6565b840191505092915050565b6000606082019050613a2660008301866138eb565b613a3360208301856138eb565b8181036040830152613a4581846139d8565b9050949350505050565b600081519050919050565b600082825260208201905092915050565b6000819050602082019050919050565b6000606083016000830151613a936000860182613451565b506020830151613aa66020860182613451565b5060408301518482036040860152613abe82826134b7565b9150508091505092915050565b6000613ad78383613a7b565b905092915050565b6000602082019050919050565b6000613af782613a4f565b613b018185613a5a565b935083602082028501613b1385613a6b565b8060005b85811015613b4f5784840389528151613b308582613acb565b9450613b3b83613adf565b925060208a01995050600181019050613b17565b50829750879550505050505092915050565b60006020820190508181036000830152613b7b8184613aec565b905092915050565b600061ffff82169050919050565b613b9a81613b83565b82525050565b600060a083016000830151613bb86000860182613451565b506020830151613bcb6020860182613b91565b5060408301518482036040860152613be382826134b7565b91505060608301518482036060860152613bfd82826134b7565b91505060808301518482036080860152613c1782826134b7565b9150508091505092915050565b60006020820190508181036000830152613c3e8184613ba0565b905092915050565b600081519050919050565b600082825260208201905092915050565b6000819050602082019050919050565b600060a083016000830151613c8a6000860182613451565b506020830151613c9d6020860182613b91565b5060408301518482036040860152613cb582826134b7565b91505060608301518482036060860152613ccf82826134b7565b91505060808301518482036080860152613ce982826134b7565b9150508091505092915050565b6000613d028383613c72565b905092915050565b6000602082019050919050565b6000613d2282613c46565b613d2c8185613c51565b935083602082028501613d3e85613c62565b8060005b85811015613d7a5784840389528151613d5b8582613cf6565b9450613d6683613d0a565b925060208a01995050600181019050613d42565b50829750879550505050505092915050565b60006020820190508181036000830152613da68184613d17565b905092915050565b600060a082019050613dc360008301886138eb565b613dd060208301876138eb565b8181036040830152613de281866139d8565b90508181036060830152613df681856139d8565b90508181036080830152613e0a81846139d8565b90509695505050505050565b613e1f81613880565b82525050565b6000602082019050613e3a6000830184613e16565b92915050565b613e4981613b83565b8114613e5457600080fd5b50565b600081359050613e6681613e40565b92915050565b60008060008060808587031215613e8657613e85613636565b5b6000613e9487828801613e57565b945050602085013567ffffffffffffffff811115613eb557613eb461363b565b5b613ec187828801613773565b935050604085013567ffffffffffffffff811115613ee257613ee161363b565b5b613eee87828801613773565b925050606085013567ffffffffffffffff811115613f0f57613f0e61363b565b5b613f1b87828801613773565b91505092959194509250565b60008060408385031215613f3e57613f3d613636565b5b6000613f4c85828601613657565b9250506020613f5d858286016138a9565b9150509250929050565b600060a083016000830151613f7f6000860182613451565b506020830151613f926020860182613451565b5060408301518482036040860152613faa82826134b7565b91505060608301518482036060860152613fc482826134b7565b91505060808301518482036080860152613fde82826134b7565b9150508091505092915050565b600060208201905081810360008301526140058184613f67565b905092915050565b6000806040838503121561402457614023613636565b5b6000614032858286016138a9565b925050602061404385828601613657565b9150509250929050565b61405681613b83565b82525050565b600060a08201905061407160008301886138eb565b61407e602083018761404d565b818103604083015261409081866139d8565b905081810360608301526140a481856139d8565b905081810360808301526140b881846139d8565b90509695505050505050565b600080600080608085870312156140de576140dd613636565b5b60006140ec87828801613657565b945050602085013567ffffffffffffffff81111561410d5761410c61363b565b5b61411987828801613773565b935050604085013567ffffffffffffffff81111561413a5761413961363b565b5b61414687828801613773565b925050606085013567ffffffffffffffff8111156141675761416661363b565b5b61417387828801613773565b91505092959194509250565b7f4e487b7100000000000000000000000000000000000000000000000000000000600052602260045260246000fd5b600060028204905060018216806141c657607f821691505b6020821081036141d9576141d861417f565b5b50919050565b7f596f7520617265206e6f7420746865206f776e6572206f66207468697320636f60008201527f7700000000000000000000000000000000000000000000000000000000000000602082015250565b600061423b6021836139c7565b9150614246826141df565b604082019050919050565b6000602082019050818103600083015261426a8161422e565b9050919050565b60008190508160005260206000209050919050565b60006020601f8301049050919050565b600082821b905092915050565b6000600883026142d37fffffffffffffffffffffffffffffffffffffffffffffffffffffffffffffffff82614296565b6142dd8683614296565b95508019841693508086168417925050509392505050565b6000819050919050565b600061431a61431561431084613447565b6142f5565b613447565b9050919050565b6000819050919050565b614334836142ff565b61434861434082614321565b8484546142a3565b825550505050565b600090565b61435d614350565b61436881848461432b565b505050565b5b8181101561438c57614381600082614355565b60018101905061436e565b5050565b601f8211156143d1576143a281614271565b6143ab84614286565b810160208510156143ba578190505b6143ce6143c685614286565b83018261436d565b50505b505050565b600082821c905092915050565b60006143f4600019846008026143d6565b1980831691505092915050565b600061440d83836143e3565b9150826002028217905092915050565b61442682613460565b67ffffffffffffffff81111561443f5761443e613676565b5b61444982546141ae565b614454828285614390565b600060209050601f8311600181146144875760008415614475578287015190505b61447f8582614401565b8655506144e7565b601f19841661449586614271565b60005b828110156144bd57848901518255600182019150602085019450602081019050614498565b868310156144da57848901516144d6601f8916826143e3565b8355505b6001600288020188555050505b505050505050565b7f4e487b7100000000000000000000000000000000000000000000000000000000600052601160045260246000fd5b600061452982613447565b91507fffffffffffffffffffffffffffffffffffffffffffffffffffffffffffffffff820361455b5761455a6144ef565b5b600182019050919050565b7f4e487b7100000000000000000000000000000000000000000000000000000000600052603260045260246000fd5b7f4d696c6b206e6f7420666f756e64210000000000000000000000000000000000600082015250565b60006145cb600f836139c7565b91506145d682614595565b602082019050919050565b600060208201905081810360008301526145fa816145be565b9050919050565b7f436f77206e6f7420666f756e6421000000000000000000000000000000000000600082015250565b6000614637600e836139c7565b915061464282614601565b602082019050919050565b600060208201905081810360008301526146668161462a565b9050919050565b7f496e76616c6964206e6577206f776e6572206164647265737300000000000000600082015250565b60006146a36019836139c7565b91506146ae8261466d565b602082019050919050565b600060208201905081810360008301526146d281614696565b9050919050565b60006146e482613447565b91506146ef83613447565b9250828203905081811115614707576147066144ef565b5b92915050565b60008154905061471c816141ae565b9050919050565b818103614731575050614809565b61473a8261470d565b67ffffffffffffffff81111561475357614752613676565b5b61475d82546141ae565b614768828285614390565b6000601f8311600181146147975760008415614785578287015490505b61478f8582614401565b865550614802565b601f1984166147a587614271565b96506147b086614271565b60005b828110156147d8578489015482556001820191506001850194506020810190506147b3565b868310156147f557848901546147f1601f8916826143e3565b8355505b6001600288020188555050505b5050505050505b565b7f4e487b7100000000000000000000000000000000000000000000000000000000600052603160045260246000fd5b7f50726f64756374206e6f7420666f756e64210000000000000000000000000000600082015250565b60006148706012836139c7565b915061487b8261483a565b602082019050919050565b6000602082019050818103600083015261489f81614863565b905091905056fea2646970667358221220620dfbd437e87caf414c67a3affa6f4aae3ea78d251adfcfe82357eea15dddfc64736f6c63430008130033",
  "immutableReferences": {},
  "source": "pragma solidity ^0.8.17;\r\n\r\ncontract MilkFactory {\r\n\r\n    struct Dairy {\r\n        address dairyAddress;\r\n        string dairyName;\r\n        string dairyPlace;\r\n    }\r\n\r\n    struct Cow {\r\n        uint256 id;\r\n        uint16 weight;\r\n        string breed;\r\n        string birthDate;\r\n        string residence;\r\n    }\r\n\r\n    struct Milk {\r\n        uint256 id;\r\n        uint256 cowId;\r\n        string dateOfProduction;\r\n    }\r\n\r\n    struct Product { //Should add more info about product \r\n        uint256 id;\r\n        uint256 milkId;\r\n        string dateOfProduction;\r\n        string productType;\r\n        string expiryDate;\r\n    }\r\n\r\n    //constructor() {\r\n    //    owner = msg.sender;\r\n    //}\r\n\r\n    modifier onlyOwnerOf(uint256 _cowId) {\r\n        require(cowToOwner[_cowId] == msg.sender, \"You are not the owner of this cow\");\r\n        _;\r\n    }\r\n    \r\n    uint256 public cowCount = 0;\r\n    uint256 public milkCount = 0;\r\n    uint256 public productCount = 0;\r\n\r\n    event ProductAdded(uint256 productId);\r\n    event SpoiledProduct(uint256 productId);\r\n    event LogMessage(string message);\r\n    \r\n    Cow[] public cowList;\r\n    Milk[] public milkList;\r\n    Product[] public productList;\r\n\r\n    mapping(uint256 => address) public cowToOwner;\r\n    mapping(uint256 => uint256) public milkToCow;\r\n    mapping(address => uint256) public ownerMilkCount;\r\n    mapping(address => Cow[]) public ownerToCowList;\r\n    mapping(uint256 => Milk[]) public cowToMilkList;\r\n    mapping(uint256 => Product[]) public milkToProductList;\r\n    mapping(address => Milk[]) public ownerToMilk;\r\n    mapping(uint256 => bool) public spoiledMilks;\r\n    mapping(uint256 => bool) public deathCows;\r\n   \r\n    //mapping(uint256 => uint256) public milkToCow;\r\n    \r\n    function transferCow(uint256 _cowId, address _newOwner) public onlyOwnerOf(_cowId) {\r\n        require(_newOwner != address(0), \"Invalid new owner address\");\r\n        \r\n        //Delete cow from old owner mapping \r\n        for(uint i=0; i < ownerToCowList[msg.sender].length; i++) { \r\n            if(ownerToCowList[msg.sender][i].id == _cowId) {\r\n                ownerToCowList[msg.sender][i] = ownerToCowList[msg.sender][(ownerToCowList[msg.sender].length-1)];\r\n            }\r\n        }\r\n\r\n        ownerToCowList[msg.sender].pop();\r\n\r\n        //Add cow to new owner mapping\r\n        ownerToCowList[_newOwner].push(getCow(_cowId));\r\n        cowToOwner[_cowId] = _newOwner;\r\n    }\r\n\r\n\r\n    function addCow(uint16 _weight, string memory _breed, string memory _birthDate, string memory _residence) public {\r\n        Cow memory myCow = Cow(cowCount, _weight, _breed, _birthDate, _residence);\r\n        cowList.push(myCow);\r\n        //Increase cow count that is used as id\r\n        cowCount++;\r\n        cowToOwner[myCow.id] = msg.sender;\r\n        ownerToCowList[msg.sender].push(myCow);\r\n    }\r\n    \r\n    function addMilk(uint256 _cowId, string memory _dateOfProduction) public onlyOwnerOf(_cowId) {\r\n        //Check if cow exists\r\n        Milk memory myMilk = Milk(milkCount, _cowId, _dateOfProduction);\r\n        spoiledMilks[milkCount] = false;\r\n        milkList.push(myMilk);\r\n        milkCount++;\r\n        cowToMilkList[_cowId].push(myMilk);\r\n        milkToCow[myMilk.id] = _cowId;\r\n        ownerMilkCount[msg.sender]++; \r\n        ownerToMilk[msg.sender].push(myMilk);\r\n    }\r\n    \r\n    function addProduct(uint256 _milkId, string memory _dateOfProduction, string memory _productType, string memory _expiryDate) public  onlyOwnerOf(milkToCow[_milkId]) {\r\n        //Check if milk exists\r\n        Product memory  myProduct = Product( productCount, _milkId, _dateOfProduction, _productType, _expiryDate);\r\n        productList.push(myProduct);\r\n        milkToProductList[_milkId].push(myProduct);\r\n        emit ProductAdded(productCount);\r\n        productCount++;  \r\n    }\r\n\r\n    function killCow(uint256 _cowId) public onlyOwnerOf(_cowId) {\r\n        deathCows[_cowId] = true;\r\n    }\r\n\r\n    function getAllCows() public view returns(Cow[] memory) {\r\n        return cowList;\r\n    }\r\n\r\n    function getCowsOfOwner() public view returns(Cow[] memory) {\r\n        return ownerToCowList[msg.sender];\r\n    }\r\n\r\n    function getAliveCowsOfOwner() public view returns(Cow[] memory) {\r\n        Cow[] memory cows = ownerToCowList[msg.sender];\r\n        uint256 aliveCows = 0;\r\n        for(uint i=0; i < cows.length; i++) { \r\n            if(deathCows[cows[i].id] == false) {\r\n                aliveCows++;\r\n            }\r\n        }\r\n        Cow[] memory aliveCowList = new Cow[](aliveCows);\r\n        uint256 index = 0;\r\n        for(uint i=0; i < cows.length; i++) { \r\n            if(deathCows[cows[i].id] == false) {\r\n                aliveCowList[index] = cows[i];\r\n                index++;\r\n            }\r\n        }\r\n        return aliveCowList;\r\n    }\r\n    \r\n    function getAllMilks() public view returns(Milk[] memory) {\r\n        return milkList;\r\n    }\r\n\r\n    function getMilksOfOwner() public view returns (Milk[] memory) {\r\n        return ownerToMilk[msg.sender];    \r\n    }\r\n\r\n    function reportSpoiledProduct(uint256 _productId) public {\r\n        uint256 milkId = getProduct(_productId).milkId;\r\n        spoiledMilks[milkId] = true;\r\n    }\r\n\r\n    function getAllProducts() public view returns(Product[] memory) {\r\n        return productList;\r\n    }\r\n\r\n    function getProduct(uint256 _productId) public view returns(Product memory) {\r\n        for(uint i=0; i < productList.length; i++) { \r\n            if(productList[i].id == _productId) {\r\n                return productList[i];\r\n            }\r\n        }\r\n        revert(\"Product not found!\"); //Undo, return value, give back gas \r\n    }\r\n\r\n    function isMilkSpoiled(uint256 _milkId) public view returns(bool) {\r\n        return spoiledMilks[_milkId];\r\n    }\r\n\r\n    function getMilk(uint256 _milkId) public view returns(Milk memory) {\r\n        for(uint i=0; i < milkList.length; i++) { \r\n            if(milkList[i].id == _milkId) {\r\n                return milkList[i];\r\n            }\r\n        }\r\n        revert(\"Milk not found!\"); //Undo, return value, give back gas \r\n    }\r\n\r\n    function getCow(uint256 _cowId) public view returns(Cow memory) {\r\n        for(uint i=0; i < cowList.length; i++) { \r\n            if(cowList[i].id == _cowId) {\r\n                return cowList[i];\r\n            }\r\n        }\r\n        revert(\"Cow not found!\"); //Undo, return value, give back gas \r\n    }\r\n}",
  "sourcePath": "C:\\Users\\tomas\\Desktop\\Blockchain-Project\\blockchain\\contracts\\MilkFactory.sol",
  "compiler": {
    "name": "solc",
    "version": "0.8.19+commit.7dd6d404.Emscripten.clang"
  },
  "schemaVersion": "3.4.13",
  "updatedAt": "2023-07-11T08:02:35.659Z",
  "networkType": "ethereum",
  "devdoc": {
    "kind": "dev",
    "methods": {},
    "version": 1
  },
  "userdoc": {
    "kind": "user",
    "methods": {},
    "version": 1
  }
}