{
  "contractName": "MilkFactory",
  "abi": [
    {
      "inputs": [],
      "name": "cowCount",
      "outputs": [
        {
          "internalType": "uint256",
          "name": "",
          "type": "uint256"
        }
      ],
      "stateMutability": "view",
      "type": "function",
      "constant": true
    },
    {
      "inputs": [
        {
          "internalType": "uint256",
          "name": "",
          "type": "uint256"
        }
      ],
      "name": "cowList",
      "outputs": [
        {
          "internalType": "uint256",
          "name": "id",
          "type": "uint256"
        },
        {
          "internalType": "uint256",
          "name": "weight",
          "type": "uint256"
        },
        {
          "internalType": "string",
          "name": "breed",
          "type": "string"
        },
        {
          "internalType": "string",
          "name": "birthDate",
          "type": "string"
        },
        {
          "internalType": "string",
          "name": "residence",
          "type": "string"
        }
      ],
      "stateMutability": "view",
      "type": "function",
      "constant": true
    },
    {
      "inputs": [
        {
          "internalType": "uint256",
          "name": "",
          "type": "uint256"
        },
        {
          "internalType": "uint256",
          "name": "",
          "type": "uint256"
        }
      ],
      "name": "cowToMilkList",
      "outputs": [
        {
          "internalType": "uint256",
          "name": "id",
          "type": "uint256"
        },
        {
          "internalType": "uint256",
          "name": "cowId",
          "type": "uint256"
        },
        {
          "internalType": "string",
          "name": "dateOfProduction",
          "type": "string"
        }
      ],
      "stateMutability": "view",
      "type": "function",
      "constant": true
    },
    {
      "inputs": [
        {
          "internalType": "uint256",
          "name": "",
          "type": "uint256"
        }
      ],
      "name": "cowToOwner",
      "outputs": [
        {
          "internalType": "address",
          "name": "",
          "type": "address"
        }
      ],
      "stateMutability": "view",
      "type": "function",
      "constant": true
    },
    {
      "inputs": [],
      "name": "milkCount",
      "outputs": [
        {
          "internalType": "uint256",
          "name": "",
          "type": "uint256"
        }
      ],
      "stateMutability": "view",
      "type": "function",
      "constant": true
    },
    {
      "inputs": [
        {
          "internalType": "uint256",
          "name": "",
          "type": "uint256"
        }
      ],
      "name": "milkList",
      "outputs": [
        {
          "internalType": "uint256",
          "name": "id",
          "type": "uint256"
        },
        {
          "internalType": "uint256",
          "name": "cowId",
          "type": "uint256"
        },
        {
          "internalType": "string",
          "name": "dateOfProduction",
          "type": "string"
        }
      ],
      "stateMutability": "view",
      "type": "function",
      "constant": true
    },
    {
      "inputs": [
        {
          "internalType": "uint256",
          "name": "",
          "type": "uint256"
        },
        {
          "internalType": "uint256",
          "name": "",
          "type": "uint256"
        }
      ],
      "name": "milkToProductList",
      "outputs": [
        {
          "internalType": "uint256",
          "name": "id",
          "type": "uint256"
        },
        {
          "internalType": "uint256",
          "name": "milkId",
          "type": "uint256"
        },
        {
          "internalType": "string",
          "name": "dateOfProduction",
          "type": "string"
        },
        {
          "internalType": "string",
          "name": "productType",
          "type": "string"
        },
        {
          "internalType": "string",
          "name": "expiryDate",
          "type": "string"
        }
      ],
      "stateMutability": "view",
      "type": "function",
      "constant": true
    },
    {
      "inputs": [
        {
          "internalType": "address",
          "name": "",
          "type": "address"
        },
        {
          "internalType": "uint256",
          "name": "",
          "type": "uint256"
        }
      ],
      "name": "ownerToCowList",
      "outputs": [
        {
          "internalType": "uint256",
          "name": "id",
          "type": "uint256"
        },
        {
          "internalType": "uint256",
          "name": "weight",
          "type": "uint256"
        },
        {
          "internalType": "string",
          "name": "breed",
          "type": "string"
        },
        {
          "internalType": "string",
          "name": "birthDate",
          "type": "string"
        },
        {
          "internalType": "string",
          "name": "residence",
          "type": "string"
        }
      ],
      "stateMutability": "view",
      "type": "function",
      "constant": true
    },
    {
      "inputs": [],
      "name": "productCount",
      "outputs": [
        {
          "internalType": "uint256",
          "name": "",
          "type": "uint256"
        }
      ],
      "stateMutability": "view",
      "type": "function",
      "constant": true
    },
    {
      "inputs": [
        {
          "internalType": "uint256",
          "name": "",
          "type": "uint256"
        }
      ],
      "name": "productList",
      "outputs": [
        {
          "internalType": "uint256",
          "name": "id",
          "type": "uint256"
        },
        {
          "internalType": "uint256",
          "name": "milkId",
          "type": "uint256"
        },
        {
          "internalType": "string",
          "name": "dateOfProduction",
          "type": "string"
        },
        {
          "internalType": "string",
          "name": "productType",
          "type": "string"
        },
        {
          "internalType": "string",
          "name": "expiryDate",
          "type": "string"
        }
      ],
      "stateMutability": "view",
      "type": "function",
      "constant": true
    },
    {
      "inputs": [
        {
          "internalType": "uint256",
          "name": "_weight",
          "type": "uint256"
        },
        {
          "internalType": "string",
          "name": "_breed",
          "type": "string"
        },
        {
          "internalType": "string",
          "name": "_birthDate",
          "type": "string"
        },
        {
          "internalType": "string",
          "name": "_residence",
          "type": "string"
        }
      ],
      "name": "addCow",
      "outputs": [],
      "stateMutability": "nonpayable",
      "type": "function"
    },
    {
      "inputs": [
        {
          "internalType": "uint256",
          "name": "_cowId",
          "type": "uint256"
        },
        {
          "internalType": "string",
          "name": "_dateOfProduction",
          "type": "string"
        }
      ],
      "name": "addMilk",
      "outputs": [],
      "stateMutability": "nonpayable",
      "type": "function"
    },
    {
      "inputs": [],
      "name": "getAllCows",
      "outputs": [
        {
          "components": [
            {
              "internalType": "uint256",
              "name": "id",
              "type": "uint256"
            },
            {
              "internalType": "uint256",
              "name": "weight",
              "type": "uint256"
            },
            {
              "internalType": "string",
              "name": "breed",
              "type": "string"
            },
            {
              "internalType": "string",
              "name": "birthDate",
              "type": "string"
            },
            {
              "internalType": "string",
              "name": "residence",
              "type": "string"
            }
          ],
          "internalType": "struct MilkFactory.Cow[]",
          "name": "",
          "type": "tuple[]"
        }
      ],
      "stateMutability": "view",
      "type": "function",
      "constant": true
    },
    {
      "inputs": [],
      "name": "getCowsOfOwner",
      "outputs": [
        {
          "components": [
            {
              "internalType": "uint256",
              "name": "id",
              "type": "uint256"
            },
            {
              "internalType": "uint256",
              "name": "weight",
              "type": "uint256"
            },
            {
              "internalType": "string",
              "name": "breed",
              "type": "string"
            },
            {
              "internalType": "string",
              "name": "birthDate",
              "type": "string"
            },
            {
              "internalType": "string",
              "name": "residence",
              "type": "string"
            }
          ],
          "internalType": "struct MilkFactory.Cow[]",
          "name": "",
          "type": "tuple[]"
        }
      ],
      "stateMutability": "view",
      "type": "function",
      "constant": true
    },
    {
      "inputs": [],
      "name": "getAllProducts",
      "outputs": [
        {
          "components": [
            {
              "internalType": "uint256",
              "name": "id",
              "type": "uint256"
            },
            {
              "internalType": "uint256",
              "name": "milkId",
              "type": "uint256"
            },
            {
              "internalType": "string",
              "name": "dateOfProduction",
              "type": "string"
            },
            {
              "internalType": "string",
              "name": "productType",
              "type": "string"
            },
            {
              "internalType": "string",
              "name": "expiryDate",
              "type": "string"
            }
          ],
          "internalType": "struct MilkFactory.Product[]",
          "name": "",
          "type": "tuple[]"
        }
      ],
      "stateMutability": "view",
      "type": "function",
      "constant": true
    },
    {
      "inputs": [
        {
          "internalType": "uint256",
          "name": "_productId",
          "type": "uint256"
        }
      ],
      "name": "getProduct",
      "outputs": [
        {
          "components": [
            {
              "internalType": "uint256",
              "name": "id",
              "type": "uint256"
            },
            {
              "internalType": "uint256",
              "name": "milkId",
              "type": "uint256"
            },
            {
              "internalType": "string",
              "name": "dateOfProduction",
              "type": "string"
            },
            {
              "internalType": "string",
              "name": "productType",
              "type": "string"
            },
            {
              "internalType": "string",
              "name": "expiryDate",
              "type": "string"
            }
          ],
          "internalType": "struct MilkFactory.Product",
          "name": "",
          "type": "tuple"
        }
      ],
      "stateMutability": "view",
      "type": "function",
      "constant": true
    }
  ],
  "bytecode": "0x6080604052600080556000600155600060025534801561001e57600080fd5b506127a58061002e6000396000f3fe608060405234801561001057600080fd5b50600436106101005760003560e01c8063927fb4de11610097578063cb7cdaad11610066578063cb7cdaad146102f9578063e0f6ef871461032d578063e749303a1461034b578063edb5a4571461036757610100565b8063927fb4de14610259578063b6f7ea8a14610277578063b9db15b414610295578063beda38f5146102c557610100565b8063528c87d2116100d3578063528c87d2146101a35780635515d0f6146101d75780637ba3372d146102075780638de6e5f11461023b57610100565b806302ee3a521461010557806308f0eb53146101235780631dc2c4081461013f5780632bd6ccc814610171575b600080fd5b61010d610385565b60405161011a9190611be2565b60405180910390f35b61013d60048036038101906101389190611d79565b6105ae565b005b61015960048036038101906101549190611dd5565b610750565b60405161016893929190611e6e565b60405180910390f35b61018b60048036038101906101869190611eac565b61081f565b60405161019a93929190611e6e565b60405180910390f35b6101bd60048036038101906101b89190611eac565b6108e1565b6040516101ce959493929190611ed9565b60405180910390f35b6101f160048036038101906101ec9190611eac565b610abf565b6040516101fe9190611f82565b60405180910390f35b610221600480360381019061021c9190611dd5565b610af2565b604051610232959493929190611ed9565b60405180910390f35b610243610cdd565b6040516102509190611f9d565b60405180910390f35b610261610ce3565b60405161026e91906120fe565b60405180910390f35b61027f610f0c565b60405161028c91906120fe565b60405180910390f35b6102af60048036038101906102aa9190611eac565b611172565b6040516102bc91906121a4565b60405180910390f35b6102df60048036038101906102da91906121f2565b611409565b6040516102f0959493929190611ed9565b60405180910390f35b610313600480360381019061030e9190611eac565b6115f4565b604051610324959493929190611ed9565b60405180910390f35b6103356117d2565b6040516103429190611f9d565b60405180910390f35b61036560048036038101906103609190612232565b6117d8565b005b61036f6119be565b60405161037c9190611f9d565b60405180910390f35b60606005805480602002602001604051908101604052809291908181526020016000905b828210156105a557838290600052602060002090600502016040518060a001604052908160008201548152602001600182015481526020016002820180546103f09061231c565b80601f016020809104026020016040519081016040528092919081815260200182805461041c9061231c565b80156104695780601f1061043e57610100808354040283529160200191610469565b820191906000526020600020905b81548152906001019060200180831161044c57829003601f168201915b505050505081526020016003820180546104829061231c565b80601f01602080910402602001604051908101604052809291908181526020018280546104ae9061231c565b80156104fb5780601f106104d0576101008083540402835291602001916104fb565b820191906000526020600020905b8154815290600101906020018083116104de57829003601f168201915b505050505081526020016004820180546105149061231c565b80601f01602080910402602001604051908101604052809291908181526020018280546105409061231c565b801561058d5780601f106105625761010080835404028352916020019161058d565b820191906000526020600020905b81548152906001019060200180831161057057829003601f168201915b505050505081525050815260200190600101906103a9565b50505050905090565b813373ffffffffffffffffffffffffffffffffffffffff166006600083815260200190815260200160002060009054906101000a900473ffffffffffffffffffffffffffffffffffffffff1673ffffffffffffffffffffffffffffffffffffffff1614610650576040517f08c379a0000000000000000000000000000000000000000000000000000000008152600401610647906123bf565b60405180910390fd5b6000604051806060016040528060015481526020018581526020018481525090506004819080600181540180825580915050600190039060005260206000209060030201600090919091909150600082015181600001556020820151816001015560408201518160020190816106c6919061258b565b505050600860008581526020019081526020016000208190806001815401808255809150506001900390600052602060002090600302016000909190919091506000820151816000015560208201518160010155604082015181600201908161072f919061258b565b505050600160008154809291906107459061268c565b919050555050505050565b6008602052816000526040600020818154811061076c57600080fd5b90600052602060002090600302016000915091505080600001549080600101549080600201805461079c9061231c565b80601f01602080910402602001604051908101604052809291908181526020018280546107c89061231c565b80156108155780601f106107ea57610100808354040283529160200191610815565b820191906000526020600020905b8154815290600101906020018083116107f857829003601f168201915b5050505050905083565b6004818154811061082f57600080fd5b906000526020600020906003020160009150905080600001549080600101549080600201805461085e9061231c565b80601f016020809104026020016040519081016040528092919081815260200182805461088a9061231c565b80156108d75780601f106108ac576101008083540402835291602001916108d7565b820191906000526020600020905b8154815290600101906020018083116108ba57829003601f168201915b5050505050905083565b600581815481106108f157600080fd5b90600052602060002090600502016000915090508060000154908060010154908060020180546109209061231c565b80601f016020809104026020016040519081016040528092919081815260200182805461094c9061231c565b80156109995780601f1061096e57610100808354040283529160200191610999565b820191906000526020600020905b81548152906001019060200180831161097c57829003601f168201915b5050505050908060030180546109ae9061231c565b80601f01602080910402602001604051908101604052809291908181526020018280546109da9061231c565b8015610a275780601f106109fc57610100808354040283529160200191610a27565b820191906000526020600020905b815481529060010190602001808311610a0a57829003601f168201915b505050505090806004018054610a3c9061231c565b80601f0160208091040260200160405190810160405280929190818152602001828054610a689061231c565b8015610ab55780601f10610a8a57610100808354040283529160200191610ab5565b820191906000526020600020905b815481529060010190602001808311610a9857829003601f168201915b5050505050905085565b60066020528060005260406000206000915054906101000a900473ffffffffffffffffffffffffffffffffffffffff1681565b60096020528160005260406000208181548110610b0e57600080fd5b906000526020600020906005020160009150915050806000015490806001015490806002018054610b3e9061231c565b80601f0160208091040260200160405190810160405280929190818152602001828054610b6a9061231c565b8015610bb75780601f10610b8c57610100808354040283529160200191610bb7565b820191906000526020600020905b815481529060010190602001808311610b9a57829003601f168201915b505050505090806003018054610bcc9061231c565b80601f0160208091040260200160405190810160405280929190818152602001828054610bf89061231c565b8015610c455780601f10610c1a57610100808354040283529160200191610c45565b820191906000526020600020905b815481529060010190602001808311610c2857829003601f168201915b505050505090806004018054610c5a9061231c565b80601f0160208091040260200160405190810160405280929190818152602001828054610c869061231c565b8015610cd35780601f10610ca857610100808354040283529160200191610cd3565b820191906000526020600020905b815481529060010190602001808311610cb657829003601f168201915b5050505050905085565b60015481565b60606003805480602002602001604051908101604052809291908181526020016000905b82821015610f0357838290600052602060002090600502016040518060a00160405290816000820154815260200160018201548152602001600282018054610d4e9061231c565b80601f0160208091040260200160405190810160405280929190818152602001828054610d7a9061231c565b8015610dc75780601f10610d9c57610100808354040283529160200191610dc7565b820191906000526020600020905b815481529060010190602001808311610daa57829003601f168201915b50505050508152602001600382018054610de09061231c565b80601f0160208091040260200160405190810160405280929190818152602001828054610e0c9061231c565b8015610e595780601f10610e2e57610100808354040283529160200191610e59565b820191906000526020600020905b815481529060010190602001808311610e3c57829003601f168201915b50505050508152602001600482018054610e729061231c565b80601f0160208091040260200160405190810160405280929190818152602001828054610e9e9061231c565b8015610eeb5780601f10610ec057610100808354040283529160200191610eeb565b820191906000526020600020905b815481529060010190602001808311610ece57829003601f168201915b50505050508152505081526020019060010190610d07565b50505050905090565b6060600760003373ffffffffffffffffffffffffffffffffffffffff1673ffffffffffffffffffffffffffffffffffffffff168152602001908152602001600020805480602002602001604051908101604052809291908181526020016000905b8282101561116957838290600052602060002090600502016040518060a00160405290816000820154815260200160018201548152602001600282018054610fb49061231c565b80601f0160208091040260200160405190810160405280929190818152602001828054610fe09061231c565b801561102d5780601f106110025761010080835404028352916020019161102d565b820191906000526020600020905b81548152906001019060200180831161101057829003601f168201915b505050505081526020016003820180546110469061231c565b80601f01602080910402602001604051908101604052809291908181526020018280546110729061231c565b80156110bf5780601f10611094576101008083540402835291602001916110bf565b820191906000526020600020905b8154815290600101906020018083116110a257829003601f168201915b505050505081526020016004820180546110d89061231c565b80601f01602080910402602001604051908101604052809291908181526020018280546111049061231c565b80156111515780601f1061112657610100808354040283529160200191611151565b820191906000526020600020905b81548152906001019060200180831161113457829003601f168201915b50505050508152505081526020019060010190610f6d565b50505050905090565b61117a6119c4565b60005b6005805490508110156113c857826005828154811061119f5761119e6126d4565b5b906000526020600020906005020160000154036113b557600581815481106111ca576111c96126d4565b5b90600052602060002090600502016040518060a001604052908160008201548152602001600182015481526020016002820180546112079061231c565b80601f01602080910402602001604051908101604052809291908181526020018280546112339061231c565b80156112805780601f1061125557610100808354040283529160200191611280565b820191906000526020600020905b81548152906001019060200180831161126357829003601f168201915b505050505081526020016003820180546112999061231c565b80601f01602080910402602001604051908101604052809291908181526020018280546112c59061231c565b80156113125780601f106112e757610100808354040283529160200191611312565b820191906000526020600020905b8154815290600101906020018083116112f557829003601f168201915b5050505050815260200160048201805461132b9061231c565b80601f01602080910402602001604051908101604052809291908181526020018280546113579061231c565b80156113a45780601f10611379576101008083540402835291602001916113a4565b820191906000526020600020905b81548152906001019060200180831161138757829003601f168201915b505050505081525050915050611404565b80806113c09061268c565b91505061117d565b506040517f08c379a00000000000000000000000000000000000000000000000000000000081526004016113fb9061274f565b60405180910390fd5b919050565b6007602052816000526040600020818154811061142557600080fd5b9060005260206000209060050201600091509150508060000154908060010154908060020180546114559061231c565b80601f01602080910402602001604051908101604052809291908181526020018280546114819061231c565b80156114ce5780601f106114a3576101008083540402835291602001916114ce565b820191906000526020600020905b8154815290600101906020018083116114b157829003601f168201915b5050505050908060030180546114e39061231c565b80601f016020809104026020016040519081016040528092919081815260200182805461150f9061231c565b801561155c5780601f106115315761010080835404028352916020019161155c565b820191906000526020600020905b81548152906001019060200180831161153f57829003601f168201915b5050505050908060040180546115719061231c565b80601f016020809104026020016040519081016040528092919081815260200182805461159d9061231c565b80156115ea5780601f106115bf576101008083540402835291602001916115ea565b820191906000526020600020905b8154815290600101906020018083116115cd57829003601f168201915b5050505050905085565b6003818154811061160457600080fd5b90600052602060002090600502016000915090508060000154908060010154908060020180546116339061231c565b80601f016020809104026020016040519081016040528092919081815260200182805461165f9061231c565b80156116ac5780601f10611681576101008083540402835291602001916116ac565b820191906000526020600020905b81548152906001019060200180831161168f57829003601f168201915b5050505050908060030180546116c19061231c565b80601f01602080910402602001604051908101604052809291908181526020018280546116ed9061231c565b801561173a5780601f1061170f5761010080835404028352916020019161173a565b820191906000526020600020905b81548152906001019060200180831161171d57829003601f168201915b50505050509080600401805461174f9061231c565b80601f016020809104026020016040519081016040528092919081815260200182805461177b9061231c565b80156117c85780601f1061179d576101008083540402835291602001916117c8565b820191906000526020600020905b8154815290600101906020018083116117ab57829003601f168201915b5050505050905085565b60025481565b60006040518060a00160405280600054815260200186815260200185815260200184815260200183815250905060038190806001815401808255809150506001900390600052602060002090600502016000909190919091506000820151816000015560208201518160010155604082015181600201908161185a919061258b565b506060820151816003019081611870919061258b565b506080820151816004019081611886919061258b565b50505060008081548092919061189b9061268c565b919050555033600660008360000151815260200190815260200160002060006101000a81548173ffffffffffffffffffffffffffffffffffffffff021916908373ffffffffffffffffffffffffffffffffffffffff160217905550600760003373ffffffffffffffffffffffffffffffffffffffff1673ffffffffffffffffffffffffffffffffffffffff16815260200190815260200160002081908060018154018082558091505060019003906000526020600020906005020160009091909190915060008201518160000155602082015181600101556040820151816002019081611988919061258b565b50606082015181600301908161199e919061258b565b5060808201518160040190816119b4919061258b565b5050505050505050565b60005481565b6040518060a0016040528060008152602001600081526020016060815260200160608152602001606081525090565b600081519050919050565b600082825260208201905092915050565b6000819050602082019050919050565b6000819050919050565b611a3281611a1f565b82525050565b600081519050919050565b600082825260208201905092915050565b60005b83811015611a72578082015181840152602081019050611a57565b60008484015250505050565b6000601f19601f8301169050919050565b6000611a9a82611a38565b611aa48185611a43565b9350611ab4818560208601611a54565b611abd81611a7e565b840191505092915050565b600060a083016000830151611ae06000860182611a29565b506020830151611af36020860182611a29565b5060408301518482036040860152611b0b8282611a8f565b91505060608301518482036060860152611b258282611a8f565b91505060808301518482036080860152611b3f8282611a8f565b9150508091505092915050565b6000611b588383611ac8565b905092915050565b6000602082019050919050565b6000611b78826119f3565b611b8281856119fe565b935083602082028501611b9485611a0f565b8060005b85811015611bd05784840389528151611bb18582611b4c565b9450611bbc83611b60565b925060208a01995050600181019050611b98565b50829750879550505050505092915050565b60006020820190508181036000830152611bfc8184611b6d565b905092915050565b6000604051905090565b600080fd5b600080fd5b611c2181611a1f565b8114611c2c57600080fd5b50565b600081359050611c3e81611c18565b92915050565b600080fd5b600080fd5b7f4e487b7100000000000000000000000000000000000000000000000000000000600052604160045260246000fd5b611c8682611a7e565b810181811067ffffffffffffffff82111715611ca557611ca4611c4e565b5b80604052505050565b6000611cb8611c04565b9050611cc48282611c7d565b919050565b600067ffffffffffffffff821115611ce457611ce3611c4e565b5b611ced82611a7e565b9050602081019050919050565b82818337600083830152505050565b6000611d1c611d1784611cc9565b611cae565b905082815260208101848484011115611d3857611d37611c49565b5b611d43848285611cfa565b509392505050565b600082601f830112611d6057611d5f611c44565b5b8135611d70848260208601611d09565b91505092915050565b60008060408385031215611d9057611d8f611c0e565b5b6000611d9e85828601611c2f565b925050602083013567ffffffffffffffff811115611dbf57611dbe611c13565b5b611dcb85828601611d4b565b9150509250929050565b60008060408385031215611dec57611deb611c0e565b5b6000611dfa85828601611c2f565b9250506020611e0b85828601611c2f565b9150509250929050565b611e1e81611a1f565b82525050565b600082825260208201905092915050565b6000611e4082611a38565b611e4a8185611e24565b9350611e5a818560208601611a54565b611e6381611a7e565b840191505092915050565b6000606082019050611e836000830186611e15565b611e906020830185611e15565b8181036040830152611ea28184611e35565b9050949350505050565b600060208284031215611ec257611ec1611c0e565b5b6000611ed084828501611c2f565b91505092915050565b600060a082019050611eee6000830188611e15565b611efb6020830187611e15565b8181036040830152611f0d8186611e35565b90508181036060830152611f218185611e35565b90508181036080830152611f358184611e35565b90509695505050505050565b600073ffffffffffffffffffffffffffffffffffffffff82169050919050565b6000611f6c82611f41565b9050919050565b611f7c81611f61565b82525050565b6000602082019050611f976000830184611f73565b92915050565b6000602082019050611fb26000830184611e15565b92915050565b600081519050919050565b600082825260208201905092915050565b6000819050602082019050919050565b600060a083016000830151611ffc6000860182611a29565b50602083015161200f6020860182611a29565b50604083015184820360408601526120278282611a8f565b915050606083015184820360608601526120418282611a8f565b9150506080830151848203608086015261205b8282611a8f565b9150508091505092915050565b60006120748383611fe4565b905092915050565b6000602082019050919050565b600061209482611fb8565b61209e8185611fc3565b9350836020820285016120b085611fd4565b8060005b858110156120ec57848403895281516120cd8582612068565b94506120d88361207c565b925060208a019950506001810190506120b4565b50829750879550505050505092915050565b600060208201905081810360008301526121188184612089565b905092915050565b600060a0830160008301516121386000860182611a29565b50602083015161214b6020860182611a29565b50604083015184820360408601526121638282611a8f565b9150506060830151848203606086015261217d8282611a8f565b915050608083015184820360808601526121978282611a8f565b9150508091505092915050565b600060208201905081810360008301526121be8184612120565b905092915050565b6121cf81611f61565b81146121da57600080fd5b50565b6000813590506121ec816121c6565b92915050565b6000806040838503121561220957612208611c0e565b5b6000612217858286016121dd565b925050602061222885828601611c2f565b9150509250929050565b6000806000806080858703121561224c5761224b611c0e565b5b600061225a87828801611c2f565b945050602085013567ffffffffffffffff81111561227b5761227a611c13565b5b61228787828801611d4b565b935050604085013567ffffffffffffffff8111156122a8576122a7611c13565b5b6122b487828801611d4b565b925050606085013567ffffffffffffffff8111156122d5576122d4611c13565b5b6122e187828801611d4b565b91505092959194509250565b7f4e487b7100000000000000000000000000000000000000000000000000000000600052602260045260246000fd5b6000600282049050600182168061233457607f821691505b602082108103612347576123466122ed565b5b50919050565b7f596f7520617265206e6f7420746865206f776e6572206f66207468697320636f60008201527f7700000000000000000000000000000000000000000000000000000000000000602082015250565b60006123a9602183611e24565b91506123b48261234d565b604082019050919050565b600060208201905081810360008301526123d88161239c565b9050919050565b60008190508160005260206000209050919050565b60006020601f8301049050919050565b600082821b905092915050565b6000600883026124417fffffffffffffffffffffffffffffffffffffffffffffffffffffffffffffffff82612404565b61244b8683612404565b95508019841693508086168417925050509392505050565b6000819050919050565b600061248861248361247e84611a1f565b612463565b611a1f565b9050919050565b6000819050919050565b6124a28361246d565b6124b66124ae8261248f565b848454612411565b825550505050565b600090565b6124cb6124be565b6124d6818484612499565b505050565b5b818110156124fa576124ef6000826124c3565b6001810190506124dc565b5050565b601f82111561253f57612510816123df565b612519846123f4565b81016020851015612528578190505b61253c612534856123f4565b8301826124db565b50505b505050565b600082821c905092915050565b600061256260001984600802612544565b1980831691505092915050565b600061257b8383612551565b9150826002028217905092915050565b61259482611a38565b67ffffffffffffffff8111156125ad576125ac611c4e565b5b6125b7825461231c565b6125c28282856124fe565b600060209050601f8311600181146125f557600084156125e3578287015190505b6125ed858261256f565b865550612655565b601f198416612603866123df565b60005b8281101561262b57848901518255600182019150602085019450602081019050612606565b868310156126485784890151612644601f891682612551565b8355505b6001600288020188555050505b505050505050565b7f4e487b7100000000000000000000000000000000000000000000000000000000600052601160045260246000fd5b600061269782611a1f565b91507fffffffffffffffffffffffffffffffffffffffffffffffffffffffffffffffff82036126c9576126c861265d565b5b600182019050919050565b7f4e487b7100000000000000000000000000000000000000000000000000000000600052603260045260246000fd5b7f50726f64756374206e6f7420666f756e64210000000000000000000000000000600082015250565b6000612739601283611e24565b915061274482612703565b602082019050919050565b600060208201905081810360008301526127688161272c565b905091905056fea264697066735822122046591c10d0bdb586c710c196d494f2652f076f6eecc1d49fa36008c56259954164736f6c63430008130033",
  "immutableReferences": {},
  "source": "pragma solidity ^0.8.17;\r\n\r\ncontract MilkFactory {\r\n\r\n    struct Dairy {\r\n        address dairyAddress;\r\n        string dairyName;\r\n        string dairyPlace;\r\n    }\r\n\r\n    struct Cow {\r\n        uint256 id;\r\n        uint256 weight;\r\n        string breed;\r\n        string birthDate;\r\n        string residence;\r\n    }\r\n\r\n    struct Milk {\r\n        uint256 id;\r\n        uint256 cowId;\r\n        string dateOfProduction;\r\n    }\r\n\r\n    struct Product { //Should add more info about product \r\n        uint256 id;\r\n        uint256 milkId;\r\n        string dateOfProduction;\r\n        string productType;\r\n        string expiryDate;\r\n    }\r\n\r\n    //constructor() {\r\n    //    owner = msg.sender;\r\n    //}\r\n\r\n    modifier onlyOwnerOf(uint256 _cowId) {\r\n        require(cowToOwner[_cowId] == msg.sender, \"You are not the owner of this cow\");\r\n        _;\r\n    }\r\n    \r\n    uint256 public cowCount = 0;\r\n    uint256 public milkCount = 0;\r\n    uint256 public productCount = 0;\r\n\r\n    Cow[] public cowList;\r\n    Milk[] public milkList;\r\n    Product[] public productList;\r\n\r\n    mapping(uint256 => address) public cowToOwner;\r\n    mapping(address => Cow[]) public ownerToCowList;\r\n    mapping(uint256 => Milk[]) public cowToMilkList;\r\n    mapping(uint256 => Product[]) public milkToProductList;\r\n    //mapping(uint256 => uint256) public milkToCow;\r\n\r\n\r\n    function addCow(uint256 _weight, string memory _breed, string memory _birthDate, string memory _residence) public {\r\n        Cow memory myCow = Cow(cowCount, _weight, _breed, _birthDate, _residence);\r\n        cowList.push(myCow);\r\n        //Increase cow count that is used as id\r\n        cowCount++;\r\n        cowToOwner[myCow.id] = msg.sender;\r\n        ownerToCowList[msg.sender].push(myCow);\r\n    }\r\n    \r\n    function addMilk(uint256 _cowId, string memory _dateOfProduction) public onlyOwnerOf(_cowId) {\r\n        //Check if cow exists\r\n        Milk memory myMilk = Milk(milkCount, _cowId, _dateOfProduction);\r\n        milkList.push(myMilk);\r\n        cowToMilkList[_cowId].push(myMilk);\r\n        milkCount++;\r\n        //milkToCow[_milkId] = _cowId;\r\n    }\r\n    /*\r\n    function addProduct(uint256 _productId, uint256 _milkId, string memory _dateOfProduction, string memory _productType, string memory _expiryDate) public onlyOwnerOf(milkToCow[_milkId]) {\r\n        //Check if milk exists\r\n        Product memory  myProduct = Product(_productId, _milkId, _dateOfProduction, _productType, _expiryDate);\r\n        milkToProductList[_milkId].push(myProduct);\r\n        productList.push(myProduct);\r\n    }*/\r\n\r\n    function getAllCows() public view returns(Cow[] memory) {\r\n        return cowList;\r\n    }\r\n\r\n    function getCowsOfOwner() public view returns(Cow[] memory) {\r\n        return ownerToCowList[msg.sender];\r\n    }\r\n    \r\n\r\n    function getAllProducts() public view returns(Product[] memory) {\r\n        return productList;\r\n    }\r\n\r\n    function getProduct(uint256 _productId) public view returns(Product memory) {\r\n        for(uint i=0; i < productList.length; i++) { \r\n            if(productList[i].id == _productId) {\r\n                return productList[i];\r\n            }\r\n        }\r\n        revert(\"Product not found!\"); //Undo, return value, give back gas \r\n    }\r\n}",
  "sourcePath": "C:\\Users\\tomas\\Desktop\\Blockchain-Project\\blockchain\\contracts\\MilkFactory.sol",
  "compiler": {
    "name": "solc",
    "version": "0.8.19+commit.7dd6d404.Emscripten.clang"
  },
  "schemaVersion": "3.4.13",
  "updatedAt": "2023-05-25T15:09:36.936Z",
  "networkType": "ethereum",
  "devdoc": {
    "kind": "dev",
    "methods": {},
    "version": 1
  },
  "userdoc": {
    "kind": "user",
    "methods": {},
    "version": 1
  }
}