{
  "contractName": "MilkFactory",
  "abi": [
    {
      "anonymous": false,
      "inputs": [
        {
          "indexed": false,
          "internalType": "string",
          "name": "message",
          "type": "string"
        }
      ],
      "name": "LogMessage",
      "type": "event"
    },
    {
      "anonymous": false,
      "inputs": [
        {
          "indexed": false,
          "internalType": "uint256",
          "name": "productId",
          "type": "uint256"
        }
      ],
      "name": "ProductAdded",
      "type": "event"
    },
    {
      "anonymous": false,
      "inputs": [
        {
          "indexed": false,
          "internalType": "uint256",
          "name": "productId",
          "type": "uint256"
        }
      ],
      "name": "SpoiledProduct",
      "type": "event"
    },
    {
      "inputs": [],
      "name": "cowCount",
      "outputs": [
        {
          "internalType": "uint256",
          "name": "",
          "type": "uint256"
        }
      ],
      "stateMutability": "view",
      "type": "function",
      "constant": true
    },
    {
      "inputs": [
        {
          "internalType": "uint256",
          "name": "",
          "type": "uint256"
        }
      ],
      "name": "cowList",
      "outputs": [
        {
          "internalType": "uint256",
          "name": "id",
          "type": "uint256"
        },
        {
          "internalType": "uint16",
          "name": "weight",
          "type": "uint16"
        },
        {
          "internalType": "string",
          "name": "breed",
          "type": "string"
        },
        {
          "internalType": "string",
          "name": "birthDate",
          "type": "string"
        },
        {
          "internalType": "string",
          "name": "residence",
          "type": "string"
        }
      ],
      "stateMutability": "view",
      "type": "function",
      "constant": true
    },
    {
      "inputs": [
        {
          "internalType": "uint256",
          "name": "",
          "type": "uint256"
        },
        {
          "internalType": "uint256",
          "name": "",
          "type": "uint256"
        }
      ],
      "name": "cowToMilkList",
      "outputs": [
        {
          "internalType": "uint256",
          "name": "id",
          "type": "uint256"
        },
        {
          "internalType": "uint256",
          "name": "cowId",
          "type": "uint256"
        },
        {
          "internalType": "string",
          "name": "dateOfProduction",
          "type": "string"
        }
      ],
      "stateMutability": "view",
      "type": "function",
      "constant": true
    },
    {
      "inputs": [
        {
          "internalType": "uint256",
          "name": "",
          "type": "uint256"
        }
      ],
      "name": "cowToOwner",
      "outputs": [
        {
          "internalType": "address",
          "name": "",
          "type": "address"
        }
      ],
      "stateMutability": "view",
      "type": "function",
      "constant": true
    },
    {
      "inputs": [
        {
          "internalType": "uint256",
          "name": "",
          "type": "uint256"
        }
      ],
      "name": "dairyList",
      "outputs": [
        {
          "internalType": "address",
          "name": "dairyAddress",
          "type": "address"
        },
        {
          "internalType": "string",
          "name": "dairyName",
          "type": "string"
        },
        {
          "internalType": "string",
          "name": "dairyPlace",
          "type": "string"
        }
      ],
      "stateMutability": "view",
      "type": "function",
      "constant": true
    },
    {
      "inputs": [
        {
          "internalType": "uint256",
          "name": "",
          "type": "uint256"
        }
      ],
      "name": "deathCows",
      "outputs": [
        {
          "internalType": "bool",
          "name": "",
          "type": "bool"
        }
      ],
      "stateMutability": "view",
      "type": "function",
      "constant": true
    },
    {
      "inputs": [],
      "name": "milkCount",
      "outputs": [
        {
          "internalType": "uint256",
          "name": "",
          "type": "uint256"
        }
      ],
      "stateMutability": "view",
      "type": "function",
      "constant": true
    },
    {
      "inputs": [
        {
          "internalType": "uint256",
          "name": "",
          "type": "uint256"
        }
      ],
      "name": "milkList",
      "outputs": [
        {
          "internalType": "uint256",
          "name": "id",
          "type": "uint256"
        },
        {
          "internalType": "uint256",
          "name": "cowId",
          "type": "uint256"
        },
        {
          "internalType": "string",
          "name": "dateOfProduction",
          "type": "string"
        }
      ],
      "stateMutability": "view",
      "type": "function",
      "constant": true
    },
    {
      "inputs": [
        {
          "internalType": "uint256",
          "name": "",
          "type": "uint256"
        }
      ],
      "name": "milkToCow",
      "outputs": [
        {
          "internalType": "uint256",
          "name": "",
          "type": "uint256"
        }
      ],
      "stateMutability": "view",
      "type": "function",
      "constant": true
    },
    {
      "inputs": [
        {
          "internalType": "uint256",
          "name": "",
          "type": "uint256"
        },
        {
          "internalType": "uint256",
          "name": "",
          "type": "uint256"
        }
      ],
      "name": "milkToProductList",
      "outputs": [
        {
          "internalType": "uint256",
          "name": "id",
          "type": "uint256"
        },
        {
          "internalType": "uint256",
          "name": "milkId",
          "type": "uint256"
        },
        {
          "internalType": "string",
          "name": "dateOfProduction",
          "type": "string"
        },
        {
          "internalType": "string",
          "name": "productType",
          "type": "string"
        },
        {
          "internalType": "string",
          "name": "expiryDate",
          "type": "string"
        }
      ],
      "stateMutability": "view",
      "type": "function",
      "constant": true
    },
    {
      "inputs": [
        {
          "internalType": "address",
          "name": "",
          "type": "address"
        }
      ],
      "name": "ownerMilkCount",
      "outputs": [
        {
          "internalType": "uint256",
          "name": "",
          "type": "uint256"
        }
      ],
      "stateMutability": "view",
      "type": "function",
      "constant": true
    },
    {
      "inputs": [
        {
          "internalType": "address",
          "name": "",
          "type": "address"
        },
        {
          "internalType": "uint256",
          "name": "",
          "type": "uint256"
        }
      ],
      "name": "ownerToCowList",
      "outputs": [
        {
          "internalType": "uint256",
          "name": "id",
          "type": "uint256"
        },
        {
          "internalType": "uint16",
          "name": "weight",
          "type": "uint16"
        },
        {
          "internalType": "string",
          "name": "breed",
          "type": "string"
        },
        {
          "internalType": "string",
          "name": "birthDate",
          "type": "string"
        },
        {
          "internalType": "string",
          "name": "residence",
          "type": "string"
        }
      ],
      "stateMutability": "view",
      "type": "function",
      "constant": true
    },
    {
      "inputs": [
        {
          "internalType": "address",
          "name": "",
          "type": "address"
        },
        {
          "internalType": "uint256",
          "name": "",
          "type": "uint256"
        }
      ],
      "name": "ownerToMilk",
      "outputs": [
        {
          "internalType": "uint256",
          "name": "id",
          "type": "uint256"
        },
        {
          "internalType": "uint256",
          "name": "cowId",
          "type": "uint256"
        },
        {
          "internalType": "string",
          "name": "dateOfProduction",
          "type": "string"
        }
      ],
      "stateMutability": "view",
      "type": "function",
      "constant": true
    },
    {
      "inputs": [],
      "name": "productCount",
      "outputs": [
        {
          "internalType": "uint256",
          "name": "",
          "type": "uint256"
        }
      ],
      "stateMutability": "view",
      "type": "function",
      "constant": true
    },
    {
      "inputs": [
        {
          "internalType": "uint256",
          "name": "",
          "type": "uint256"
        }
      ],
      "name": "productList",
      "outputs": [
        {
          "internalType": "uint256",
          "name": "id",
          "type": "uint256"
        },
        {
          "internalType": "uint256",
          "name": "milkId",
          "type": "uint256"
        },
        {
          "internalType": "string",
          "name": "dateOfProduction",
          "type": "string"
        },
        {
          "internalType": "string",
          "name": "productType",
          "type": "string"
        },
        {
          "internalType": "string",
          "name": "expiryDate",
          "type": "string"
        }
      ],
      "stateMutability": "view",
      "type": "function",
      "constant": true
    },
    {
      "inputs": [
        {
          "internalType": "uint256",
          "name": "",
          "type": "uint256"
        }
      ],
      "name": "spoiledMilks",
      "outputs": [
        {
          "internalType": "bool",
          "name": "",
          "type": "bool"
        }
      ],
      "stateMutability": "view",
      "type": "function",
      "constant": true
    },
    {
      "inputs": [
        {
          "internalType": "string",
          "name": "_dairyName",
          "type": "string"
        },
        {
          "internalType": "string",
          "name": "_dairyPlace",
          "type": "string"
        }
      ],
      "name": "addDairy",
      "outputs": [],
      "stateMutability": "nonpayable",
      "type": "function"
    },
    {
      "inputs": [],
      "name": "checkDairyIsRegistered",
      "outputs": [
        {
          "internalType": "bool",
          "name": "",
          "type": "bool"
        }
      ],
      "stateMutability": "view",
      "type": "function",
      "constant": true
    },
    {
      "inputs": [
        {
          "internalType": "uint256",
          "name": "_cowId",
          "type": "uint256"
        },
        {
          "internalType": "address",
          "name": "_newOwner",
          "type": "address"
        }
      ],
      "name": "transferCow",
      "outputs": [],
      "stateMutability": "nonpayable",
      "type": "function"
    },
    {
      "inputs": [
        {
          "internalType": "uint16",
          "name": "_weight",
          "type": "uint16"
        },
        {
          "internalType": "string",
          "name": "_breed",
          "type": "string"
        },
        {
          "internalType": "string",
          "name": "_birthDate",
          "type": "string"
        },
        {
          "internalType": "string",
          "name": "_residence",
          "type": "string"
        }
      ],
      "name": "addCow",
      "outputs": [],
      "stateMutability": "nonpayable",
      "type": "function"
    },
    {
      "inputs": [
        {
          "internalType": "uint256",
          "name": "_cowId",
          "type": "uint256"
        },
        {
          "internalType": "string",
          "name": "_dateOfProduction",
          "type": "string"
        }
      ],
      "name": "addMilk",
      "outputs": [],
      "stateMutability": "nonpayable",
      "type": "function"
    },
    {
      "inputs": [
        {
          "internalType": "uint256",
          "name": "_milkId",
          "type": "uint256"
        },
        {
          "internalType": "string",
          "name": "_dateOfProduction",
          "type": "string"
        },
        {
          "internalType": "string",
          "name": "_productType",
          "type": "string"
        },
        {
          "internalType": "string",
          "name": "_expiryDate",
          "type": "string"
        }
      ],
      "name": "addProduct",
      "outputs": [],
      "stateMutability": "nonpayable",
      "type": "function"
    },
    {
      "inputs": [
        {
          "internalType": "uint256",
          "name": "_cowId",
          "type": "uint256"
        }
      ],
      "name": "killCow",
      "outputs": [],
      "stateMutability": "nonpayable",
      "type": "function"
    },
    {
      "inputs": [],
      "name": "getAllCows",
      "outputs": [
        {
          "components": [
            {
              "internalType": "uint256",
              "name": "id",
              "type": "uint256"
            },
            {
              "internalType": "uint16",
              "name": "weight",
              "type": "uint16"
            },
            {
              "internalType": "string",
              "name": "breed",
              "type": "string"
            },
            {
              "internalType": "string",
              "name": "birthDate",
              "type": "string"
            },
            {
              "internalType": "string",
              "name": "residence",
              "type": "string"
            }
          ],
          "internalType": "struct MilkFactory.Cow[]",
          "name": "",
          "type": "tuple[]"
        }
      ],
      "stateMutability": "view",
      "type": "function",
      "constant": true
    },
    {
      "inputs": [],
      "name": "getCowsOfOwner",
      "outputs": [
        {
          "components": [
            {
              "internalType": "uint256",
              "name": "id",
              "type": "uint256"
            },
            {
              "internalType": "uint16",
              "name": "weight",
              "type": "uint16"
            },
            {
              "internalType": "string",
              "name": "breed",
              "type": "string"
            },
            {
              "internalType": "string",
              "name": "birthDate",
              "type": "string"
            },
            {
              "internalType": "string",
              "name": "residence",
              "type": "string"
            }
          ],
          "internalType": "struct MilkFactory.Cow[]",
          "name": "",
          "type": "tuple[]"
        }
      ],
      "stateMutability": "view",
      "type": "function",
      "constant": true
    },
    {
      "inputs": [],
      "name": "getAliveCowsOfOwner",
      "outputs": [
        {
          "components": [
            {
              "internalType": "uint256",
              "name": "id",
              "type": "uint256"
            },
            {
              "internalType": "uint16",
              "name": "weight",
              "type": "uint16"
            },
            {
              "internalType": "string",
              "name": "breed",
              "type": "string"
            },
            {
              "internalType": "string",
              "name": "birthDate",
              "type": "string"
            },
            {
              "internalType": "string",
              "name": "residence",
              "type": "string"
            }
          ],
          "internalType": "struct MilkFactory.Cow[]",
          "name": "",
          "type": "tuple[]"
        }
      ],
      "stateMutability": "view",
      "type": "function",
      "constant": true
    },
    {
      "inputs": [],
      "name": "getAllMilks",
      "outputs": [
        {
          "components": [
            {
              "internalType": "uint256",
              "name": "id",
              "type": "uint256"
            },
            {
              "internalType": "uint256",
              "name": "cowId",
              "type": "uint256"
            },
            {
              "internalType": "string",
              "name": "dateOfProduction",
              "type": "string"
            }
          ],
          "internalType": "struct MilkFactory.Milk[]",
          "name": "",
          "type": "tuple[]"
        }
      ],
      "stateMutability": "view",
      "type": "function",
      "constant": true
    },
    {
      "inputs": [],
      "name": "getMilksOfOwner",
      "outputs": [
        {
          "components": [
            {
              "internalType": "uint256",
              "name": "id",
              "type": "uint256"
            },
            {
              "internalType": "uint256",
              "name": "cowId",
              "type": "uint256"
            },
            {
              "internalType": "string",
              "name": "dateOfProduction",
              "type": "string"
            }
          ],
          "internalType": "struct MilkFactory.Milk[]",
          "name": "",
          "type": "tuple[]"
        }
      ],
      "stateMutability": "view",
      "type": "function",
      "constant": true
    },
    {
      "inputs": [
        {
          "internalType": "uint256",
          "name": "_productId",
          "type": "uint256"
        }
      ],
      "name": "reportSpoiledProduct",
      "outputs": [],
      "stateMutability": "nonpayable",
      "type": "function"
    },
    {
      "inputs": [],
      "name": "getAllProducts",
      "outputs": [
        {
          "components": [
            {
              "internalType": "uint256",
              "name": "id",
              "type": "uint256"
            },
            {
              "internalType": "uint256",
              "name": "milkId",
              "type": "uint256"
            },
            {
              "internalType": "string",
              "name": "dateOfProduction",
              "type": "string"
            },
            {
              "internalType": "string",
              "name": "productType",
              "type": "string"
            },
            {
              "internalType": "string",
              "name": "expiryDate",
              "type": "string"
            }
          ],
          "internalType": "struct MilkFactory.Product[]",
          "name": "",
          "type": "tuple[]"
        }
      ],
      "stateMutability": "view",
      "type": "function",
      "constant": true
    },
    {
      "inputs": [
        {
          "internalType": "uint256",
          "name": "_productId",
          "type": "uint256"
        }
      ],
      "name": "getProduct",
      "outputs": [
        {
          "components": [
            {
              "internalType": "uint256",
              "name": "id",
              "type": "uint256"
            },
            {
              "internalType": "uint256",
              "name": "milkId",
              "type": "uint256"
            },
            {
              "internalType": "string",
              "name": "dateOfProduction",
              "type": "string"
            },
            {
              "internalType": "string",
              "name": "productType",
              "type": "string"
            },
            {
              "internalType": "string",
              "name": "expiryDate",
              "type": "string"
            }
          ],
          "internalType": "struct MilkFactory.Product",
          "name": "",
          "type": "tuple"
        }
      ],
      "stateMutability": "view",
      "type": "function",
      "constant": true
    },
    {
      "inputs": [
        {
          "internalType": "uint256",
          "name": "_milkId",
          "type": "uint256"
        }
      ],
      "name": "isMilkSpoiled",
      "outputs": [
        {
          "internalType": "bool",
          "name": "",
          "type": "bool"
        }
      ],
      "stateMutability": "view",
      "type": "function",
      "constant": true
    },
    {
      "inputs": [
        {
          "internalType": "uint256",
          "name": "_milkId",
          "type": "uint256"
        }
      ],
      "name": "getMilk",
      "outputs": [
        {
          "components": [
            {
              "internalType": "uint256",
              "name": "id",
              "type": "uint256"
            },
            {
              "internalType": "uint256",
              "name": "cowId",
              "type": "uint256"
            },
            {
              "internalType": "string",
              "name": "dateOfProduction",
              "type": "string"
            }
          ],
          "internalType": "struct MilkFactory.Milk",
          "name": "",
          "type": "tuple"
        }
      ],
      "stateMutability": "view",
      "type": "function",
      "constant": true
    },
    {
      "inputs": [
        {
          "internalType": "uint256",
          "name": "_cowId",
          "type": "uint256"
        }
      ],
      "name": "getCow",
      "outputs": [
        {
          "components": [
            {
              "internalType": "uint256",
              "name": "id",
              "type": "uint256"
            },
            {
              "internalType": "uint16",
              "name": "weight",
              "type": "uint16"
            },
            {
              "internalType": "string",
              "name": "breed",
              "type": "string"
            },
            {
              "internalType": "string",
              "name": "birthDate",
              "type": "string"
            },
            {
              "internalType": "string",
              "name": "residence",
              "type": "string"
            }
          ],
          "internalType": "struct MilkFactory.Cow",
          "name": "",
          "type": "tuple"
        }
      ],
      "stateMutability": "view",
      "type": "function",
      "constant": true
    }
  ],
  "bytecode": "0x6080604052600080556000600155600060025534801561001e57600080fd5b50614d1e8061002e6000396000f3fe608060405234801561001057600080fd5b50600436106102065760003560e01c80638d15b01f1161011a578063b9db15b4116100ad578063cb7cdaad1161007c578063cb7cdaad14610685578063e0f6ef87146106b9578063edb5a457146106d7578063ef2670f1146106f5578063fe47b4fb1461071157610206565b8063b9db15b4146105d3578063b9f9fbfe14610603578063beda38f514610635578063c1393d271461066957610206565b80639fd1fef4116100e95780639fd1fef414610539578063ae81394c14610569578063b3597a2214610599578063b6f7ea8a146105b557610206565b80638d15b01f146104c55780638de6e5f1146104e1578063927fb4de146104ff5780639e0289d21461051d57610206565b806334df9b601161019d578063528c87d21161016c578063528c87d2146103e15780635515d0f61461041557806365db2d58146104455780636c46f2a0146104615780637ba3372d1461049157610206565b806334df9b6014610357578063449794dc146103875780634a71bd2a146103a557806352183933146103c357610206565b8063184e9c2d116101d9578063184e9c2d146102a55780631dc2c408146102d55780632bd6ccc814610307578063329bcfa51461033957610206565b806302ee3a521461020b57806308f0eb531461022957806309e88f45146102455780630f926aeb14610275575b600080fd5b610213610743565b604051610220919061398f565b60405180910390f35b610243600480360381019061023e9190613b26565b61096c565b005b61025f600480360381019061025a9190613b82565b610c42565b60405161026c9190613bca565b60405180910390f35b61028f600480360381019061028a9190613c43565b610c62565b60405161029c9190613c7f565b60405180910390f35b6102bf60048036038101906102ba9190613b82565b610c7a565b6040516102cc9190613cea565b60405180910390f35b6102ef60048036038101906102ea9190613d0c565b610ded565b6040516102fe93929190613d96565b60405180910390f35b610321600480360381019061031c9190613b82565b610ebc565b60405161033093929190613d96565b60405180910390f35b610341610f7e565b60405161034e9190613ee6565b60405180910390f35b610371600480360381019061036c9190613b82565b611083565b60405161037e9190613fa9565b60405180910390f35b61038f611330565b60405161039c9190614111565b60405180910390f35b6103ad61173a565b6040516103ba9190613ee6565b60405180910390f35b6103cb61187c565b6040516103d89190613bca565b60405180910390f35b6103fb60048036038101906103f69190613b82565b61192f565b60405161040c959493929190614133565b60405180910390f35b61042f600480360381019061042a9190613b82565b611b0d565b60405161043c91906141aa565b60405180910390f35b61045f600480360381019061045a91906141f1565b611b40565b005b61047b60048036038101906104769190613b82565b611d5c565b6040516104889190613c7f565b60405180910390f35b6104ab60048036038101906104a69190613d0c565b611d74565b6040516104bc959493929190614133565b60405180910390f35b6104df60048036038101906104da91906142ac565b611f5f565b005b6104e96124b2565b6040516104f69190613c7f565b60405180910390f35b6105076124b8565b6040516105149190614111565b60405180910390f35b610537600480360381019061053291906142ec565b6126f7565b005b610553600480360381019061054e9190613b82565b6127d2565b6040516105609190613bca565b60405180910390f35b610583600480360381019061057e9190613b82565b6127f2565b6040516105909190613bca565b60405180910390f35b6105b360048036038101906105ae9190613b82565b61281c565b005b6105bd6128ee565b6040516105ca9190614111565b60405180910390f35b6105ed60048036038101906105e89190613b82565b612b6a565b6040516105fa91906143e8565b60405180910390f35b61061d6004803603810190610618919061440a565b612e01565b60405161062c93929190613d96565b60405180910390f35b61064f600480360381019061064a919061440a565b612ed0565b604051610660959493929190614459565b60405180910390f35b610683600480360381019061067e91906144c1565b6130c9565b005b61069f600480360381019061069a9190613b82565b61331d565b6040516106b0959493929190614459565b60405180910390f35b6106c1613509565b6040516106ce9190613c7f565b60405180910390f35b6106df61350f565b6040516106ec9190613c7f565b60405180910390f35b61070f600480360381019061070a9190613b82565b613515565b005b61072b60048036038101906107269190613b82565b613556565b60405161073a9392919061457c565b60405180910390f35b60606006805480602002602001604051908101604052809291908181526020016000905b8282101561096357838290600052602060002090600502016040518060a001604052908160008201548152602001600182015481526020016002820180546107ae906145f0565b80601f01602080910402602001604051908101604052809291908181526020018280546107da906145f0565b80156108275780601f106107fc57610100808354040283529160200191610827565b820191906000526020600020905b81548152906001019060200180831161080a57829003601f168201915b50505050508152602001600382018054610840906145f0565b80601f016020809104026020016040519081016040528092919081815260200182805461086c906145f0565b80156108b95780601f1061088e576101008083540402835291602001916108b9565b820191906000526020600020905b81548152906001019060200180831161089c57829003601f168201915b505050505081526020016004820180546108d2906145f0565b80601f01602080910402602001604051908101604052809291908181526020018280546108fe906145f0565b801561094b5780601f106109205761010080835404028352916020019161094b565b820191906000526020600020905b81548152906001019060200180831161092e57829003601f168201915b50505050508152505081526020019060010190610767565b50505050905090565b813373ffffffffffffffffffffffffffffffffffffffff166007600083815260200190815260200160002060009054906101000a900473ffffffffffffffffffffffffffffffffffffffff1673ffffffffffffffffffffffffffffffffffffffff1614610a0e576040517f08c379a0000000000000000000000000000000000000000000000000000000008152600401610a0590614693565b60405180910390fd5b6000604051806060016040528060015481526020018581526020018481525090506000600e6000600154815260200190815260200160002060006101000a81548160ff021916908315150217905550600581908060018154018082558091505060019003906000526020600020906003020160009091909190915060008201518160000155602082015181600101556040820151816002019081610ab2919061485f565b50505060016000815480929190610ac890614960565b9190505550600b600085815260200190815260200160002081908060018154018082558091505060019003906000526020600020906003020160009091909190915060008201518160000155602082015181600101556040820151816002019081610b33919061485f565b50505083600860008360000151815260200190815260200160002081905550600960003373ffffffffffffffffffffffffffffffffffffffff1673ffffffffffffffffffffffffffffffffffffffff1681526020019081526020016000206000815480929190610ba290614960565b9190505550600d60003373ffffffffffffffffffffffffffffffffffffffff1673ffffffffffffffffffffffffffffffffffffffff16815260200190815260200160002081908060018154018082558091505060019003906000526020600020906003020160009091909190915060008201518160000155602082015181600101556040820151816002019081610c39919061485f565b50505050505050565b600e6020528060005260406000206000915054906101000a900460ff1681565b60096020528060005260406000206000915090505481565b610c826136c0565b60005b600580549050811015610dac578260058281548110610ca757610ca66149a8565b5b90600052602060002090600302016000015403610d995760058181548110610cd257610cd16149a8565b5b90600052602060002090600302016040518060600160405290816000820154815260200160018201548152602001600282018054610d0f906145f0565b80601f0160208091040260200160405190810160405280929190818152602001828054610d3b906145f0565b8015610d885780601f10610d5d57610100808354040283529160200191610d88565b820191906000526020600020905b815481529060010190602001808311610d6b57829003601f168201915b505050505081525050915050610de8565b8080610da490614960565b915050610c85565b506040517f08c379a0000000000000000000000000000000000000000000000000000000008152600401610ddf90614a23565b60405180910390fd5b919050565b600b6020528160005260406000208181548110610e0957600080fd5b906000526020600020906003020160009150915050806000015490806001015490806002018054610e39906145f0565b80601f0160208091040260200160405190810160405280929190818152602001828054610e65906145f0565b8015610eb25780601f10610e8757610100808354040283529160200191610eb2565b820191906000526020600020905b815481529060010190602001808311610e9557829003601f168201915b5050505050905083565b60058181548110610ecc57600080fd5b9060005260206000209060030201600091509050806000015490806001015490806002018054610efb906145f0565b80601f0160208091040260200160405190810160405280929190818152602001828054610f27906145f0565b8015610f745780601f10610f4957610100808354040283529160200191610f74565b820191906000526020600020905b815481529060010190602001808311610f5757829003601f168201915b5050505050905083565b60606005805480602002602001604051908101604052809291908181526020016000905b8282101561107a57838290600052602060002090600302016040518060600160405290816000820154815260200160018201548152602001600282018054610fe9906145f0565b80601f0160208091040260200160405190810160405280929190818152602001828054611015906145f0565b80156110625780601f1061103757610100808354040283529160200191611062565b820191906000526020600020905b81548152906001019060200180831161104557829003601f168201915b50505050508152505081526020019060010190610fa2565b50505050905090565b61108b6136e1565b60005b6004805490508110156112ef5782600482815481106110b0576110af6149a8565b5b906000526020600020906005020160000154036112dc57600481815481106110db576110da6149a8565b5b90600052602060002090600502016040518060a0016040529081600082015481526020016001820160009054906101000a900461ffff1661ffff1661ffff16815260200160028201805461112e906145f0565b80601f016020809104026020016040519081016040528092919081815260200182805461115a906145f0565b80156111a75780601f1061117c576101008083540402835291602001916111a7565b820191906000526020600020905b81548152906001019060200180831161118a57829003601f168201915b505050505081526020016003820180546111c0906145f0565b80601f01602080910402602001604051908101604052809291908181526020018280546111ec906145f0565b80156112395780601f1061120e57610100808354040283529160200191611239565b820191906000526020600020905b81548152906001019060200180831161121c57829003601f168201915b50505050508152602001600482018054611252906145f0565b80601f016020809104026020016040519081016040528092919081815260200182805461127e906145f0565b80156112cb5780601f106112a0576101008083540402835291602001916112cb565b820191906000526020600020905b8154815290600101906020018083116112ae57829003601f168201915b50505050508152505091505061132b565b80806112e790614960565b91505061108e565b506040517f08c379a000000000000000000000000000000000000000000000000000000000815260040161132290614a8f565b60405180910390fd5b919050565b60606000600a60003373ffffffffffffffffffffffffffffffffffffffff1673ffffffffffffffffffffffffffffffffffffffff168152602001908152602001600020805480602002602001604051908101604052809291908181526020016000905b828210156115a557838290600052602060002090600502016040518060a0016040529081600082015481526020016001820160009054906101000a900461ffff1661ffff1661ffff1681526020016002820180546113f0906145f0565b80601f016020809104026020016040519081016040528092919081815260200182805461141c906145f0565b80156114695780601f1061143e57610100808354040283529160200191611469565b820191906000526020600020905b81548152906001019060200180831161144c57829003601f168201915b50505050508152602001600382018054611482906145f0565b80601f01602080910402602001604051908101604052809291908181526020018280546114ae906145f0565b80156114fb5780601f106114d0576101008083540402835291602001916114fb565b820191906000526020600020905b8154815290600101906020018083116114de57829003601f168201915b50505050508152602001600482018054611514906145f0565b80601f0160208091040260200160405190810160405280929190818152602001828054611540906145f0565b801561158d5780601f106115625761010080835404028352916020019161158d565b820191906000526020600020905b81548152906001019060200180831161157057829003601f168201915b50505050508152505081526020019060010190611393565b5050505090506000805b82518110156116245760001515600f60008584815181106115d3576115d26149a8565b5b602002602001015160000151815260200190815260200160002060009054906101000a900460ff1615150361161157818061160d90614960565b9250505b808061161c90614960565b9150506115af565b5060008167ffffffffffffffff811115611641576116406139fb565b5b60405190808252806020026020018201604052801561167a57816020015b6116676136e1565b81526020019060019003908161165f5790505b5090506000805b845181101561172f5760001515600f60008784815181106116a5576116a46149a8565b5b602002602001015160000151815260200190815260200160002060009054906101000a900460ff1615150361171c578481815181106116e7576116e66149a8565b5b6020026020010151838381518110611702576117016149a8565b5b6020026020010181905250818061171890614960565b9250505b808061172790614960565b915050611681565b508194505050505090565b6060600d60003373ffffffffffffffffffffffffffffffffffffffff1673ffffffffffffffffffffffffffffffffffffffff168152602001908152602001600020805480602002602001604051908101604052809291908181526020016000905b82821015611873578382906000526020600020906003020160405180606001604052908160008201548152602001600182015481526020016002820180546117e2906145f0565b80601f016020809104026020016040519081016040528092919081815260200182805461180e906145f0565b801561185b5780601f106118305761010080835404028352916020019161185b565b820191906000526020600020905b81548152906001019060200180831161183e57829003601f168201915b5050505050815250508152602001906001019061179b565b50505050905090565b600080600090505b600380549050811015611926573373ffffffffffffffffffffffffffffffffffffffff16600382815481106118bc576118bb6149a8565b5b906000526020600020906003020160000160009054906101000a900473ffffffffffffffffffffffffffffffffffffffff1673ffffffffffffffffffffffffffffffffffffffff160361191357600191505061192c565b808061191e90614960565b915050611884565b50600090505b90565b6006818154811061193f57600080fd5b906000526020600020906005020160009150905080600001549080600101549080600201805461196e906145f0565b80601f016020809104026020016040519081016040528092919081815260200182805461199a906145f0565b80156119e75780601f106119bc576101008083540402835291602001916119e7565b820191906000526020600020905b8154815290600101906020018083116119ca57829003601f168201915b5050505050908060030180546119fc906145f0565b80601f0160208091040260200160405190810160405280929190818152602001828054611a28906145f0565b8015611a755780601f10611a4a57610100808354040283529160200191611a75565b820191906000526020600020905b815481529060010190602001808311611a5857829003601f168201915b505050505090806004018054611a8a906145f0565b80601f0160208091040260200160405190810160405280929190818152602001828054611ab6906145f0565b8015611b035780601f10611ad857610100808354040283529160200191611b03565b820191906000526020600020905b815481529060010190602001808311611ae657829003601f168201915b5050505050905085565b60076020528060005260406000206000915054906101000a900473ffffffffffffffffffffffffffffffffffffffff1681565b60006040518060a0016040528060005481526020018661ffff16815260200185815260200184815260200183815250905060048190806001815401808255809150506001900390600052602060002090600502016000909190919091506000820151816000015560208201518160010160006101000a81548161ffff021916908361ffff1602179055506040820151816002019081611bdf919061485f565b506060820151816003019081611bf5919061485f565b506080820151816004019081611c0b919061485f565b505050600080815480929190611c2090614960565b919050555033600760008360000151815260200190815260200160002060006101000a81548173ffffffffffffffffffffffffffffffffffffffff021916908373ffffffffffffffffffffffffffffffffffffffff160217905550600a60003373ffffffffffffffffffffffffffffffffffffffff1673ffffffffffffffffffffffffffffffffffffffff1681526020019081526020016000208190806001815401808255809150506001900390600052602060002090600502016000909190919091506000820151816000015560208201518160010160006101000a81548161ffff021916908361ffff1602179055506040820151816002019081611d26919061485f565b506060820151816003019081611d3c919061485f565b506080820151816004019081611d52919061485f565b5050505050505050565b60086020528060005260406000206000915090505481565b600c6020528160005260406000208181548110611d9057600080fd5b906000526020600020906005020160009150915050806000015490806001015490806002018054611dc0906145f0565b80601f0160208091040260200160405190810160405280929190818152602001828054611dec906145f0565b8015611e395780601f10611e0e57610100808354040283529160200191611e39565b820191906000526020600020905b815481529060010190602001808311611e1c57829003601f168201915b505050505090806003018054611e4e906145f0565b80601f0160208091040260200160405190810160405280929190818152602001828054611e7a906145f0565b8015611ec75780601f10611e9c57610100808354040283529160200191611ec7565b820191906000526020600020905b815481529060010190602001808311611eaa57829003601f168201915b505050505090806004018054611edc906145f0565b80601f0160208091040260200160405190810160405280929190818152602001828054611f08906145f0565b8015611f555780601f10611f2a57610100808354040283529160200191611f55565b820191906000526020600020905b815481529060010190602001808311611f3857829003601f168201915b5050505050905085565b813373ffffffffffffffffffffffffffffffffffffffff166007600083815260200190815260200160002060009054906101000a900473ffffffffffffffffffffffffffffffffffffffff1673ffffffffffffffffffffffffffffffffffffffff1614612001576040517f08c379a0000000000000000000000000000000000000000000000000000000008152600401611ff890614693565b60405180910390fd5b600073ffffffffffffffffffffffffffffffffffffffff168273ffffffffffffffffffffffffffffffffffffffff1603612070576040517f08c379a000000000000000000000000000000000000000000000000000000000815260040161206790614afb565b60405180910390fd5b60005b600a60003373ffffffffffffffffffffffffffffffffffffffff1673ffffffffffffffffffffffffffffffffffffffff168152602001908152602001600020805490508110156122c35783600a60003373ffffffffffffffffffffffffffffffffffffffff1673ffffffffffffffffffffffffffffffffffffffff168152602001908152602001600020828154811061210f5761210e6149a8565b5b906000526020600020906005020160000154036122b057600a60003373ffffffffffffffffffffffffffffffffffffffff1673ffffffffffffffffffffffffffffffffffffffff1681526020019081526020016000206001600a60003373ffffffffffffffffffffffffffffffffffffffff1673ffffffffffffffffffffffffffffffffffffffff168152602001908152602001600020805490506121b49190614b1b565b815481106121c5576121c46149a8565b5b9060005260206000209060050201600a60003373ffffffffffffffffffffffffffffffffffffffff1673ffffffffffffffffffffffffffffffffffffffff1681526020019081526020016000208281548110612224576122236149a8565b5b9060005260206000209060050201600082015481600001556001820160009054906101000a900461ffff168160010160006101000a81548161ffff021916908361ffff160217905550600282018160020190816122819190614b65565b50600382018160030190816122969190614b65565b50600482018160040190816122ab9190614b65565b509050505b80806122bb90614960565b915050612073565b50600a60003373ffffffffffffffffffffffffffffffffffffffff1673ffffffffffffffffffffffffffffffffffffffff16815260200190815260200160002080548061231357612312614c4d565b5b60019003818190600052602060002090600502016000808201600090556001820160006101000a81549061ffff02191690556002820160006123559190613714565b6003820160006123659190613714565b6004820160006123759190613714565b50509055600a60008373ffffffffffffffffffffffffffffffffffffffff1673ffffffffffffffffffffffffffffffffffffffff1681526020019081526020016000206123c184611083565b90806001815401808255809150506001900390600052602060002090600502016000909190919091506000820151816000015560208201518160010160006101000a81548161ffff021916908361ffff160217905550604082015181600201908161242c919061485f565b506060820151816003019081612442919061485f565b506080820151816004019081612458919061485f565b505050816007600085815260200190815260200160002060006101000a81548173ffffffffffffffffffffffffffffffffffffffff021916908373ffffffffffffffffffffffffffffffffffffffff160217905550505050565b60015481565b60606004805480602002602001604051908101604052809291908181526020016000905b828210156126ee57838290600052602060002090600502016040518060a0016040529081600082015481526020016001820160009054906101000a900461ffff1661ffff1661ffff168152602001600282018054612539906145f0565b80601f0160208091040260200160405190810160405280929190818152602001828054612565906145f0565b80156125b25780601f10612587576101008083540402835291602001916125b2565b820191906000526020600020905b81548152906001019060200180831161259557829003601f168201915b505050505081526020016003820180546125cb906145f0565b80601f01602080910402602001604051908101604052809291908181526020018280546125f7906145f0565b80156126445780601f1061261957610100808354040283529160200191612644565b820191906000526020600020905b81548152906001019060200180831161262757829003601f168201915b5050505050815260200160048201805461265d906145f0565b80601f0160208091040260200160405190810160405280929190818152602001828054612689906145f0565b80156126d65780601f106126ab576101008083540402835291602001916126d6565b820191906000526020600020905b8154815290600101906020018083116126b957829003601f168201915b505050505081525050815260200190600101906124dc565b50505050905090565b600060405180606001604052803373ffffffffffffffffffffffffffffffffffffffff168152602001848152602001838152509050600381908060018154018082558091505060019003906000526020600020906003020160009091909190915060008201518160000160006101000a81548173ffffffffffffffffffffffffffffffffffffffff021916908373ffffffffffffffffffffffffffffffffffffffff16021790555060208201518160010190816127b4919061485f565b5060408201518160020190816127ca919061485f565b505050505050565b600f6020528060005260406000206000915054906101000a900460ff1681565b6000600e600083815260200190815260200160002060009054906101000a900460ff169050919050565b803373ffffffffffffffffffffffffffffffffffffffff166007600083815260200190815260200160002060009054906101000a900473ffffffffffffffffffffffffffffffffffffffff1673ffffffffffffffffffffffffffffffffffffffff16146128be576040517f08c379a00000000000000000000000000000000000000000000000000000000081526004016128b590614693565b60405180910390fd5b6001600f600084815260200190815260200160002060006101000a81548160ff0219169083151502179055505050565b6060600a60003373ffffffffffffffffffffffffffffffffffffffff1673ffffffffffffffffffffffffffffffffffffffff168152602001908152602001600020805480602002602001604051908101604052809291908181526020016000905b82821015612b6157838290600052602060002090600502016040518060a0016040529081600082015481526020016001820160009054906101000a900461ffff1661ffff1661ffff1681526020016002820180546129ac906145f0565b80601f01602080910402602001604051908101604052809291908181526020018280546129d8906145f0565b8015612a255780601f106129fa57610100808354040283529160200191612a25565b820191906000526020600020905b815481529060010190602001808311612a0857829003601f168201915b50505050508152602001600382018054612a3e906145f0565b80601f0160208091040260200160405190810160405280929190818152602001828054612a6a906145f0565b8015612ab75780601f10612a8c57610100808354040283529160200191612ab7565b820191906000526020600020905b815481529060010190602001808311612a9a57829003601f168201915b50505050508152602001600482018054612ad0906145f0565b80601f0160208091040260200160405190810160405280929190818152602001828054612afc906145f0565b8015612b495780601f10612b1e57610100808354040283529160200191612b49565b820191906000526020600020905b815481529060010190602001808311612b2c57829003601f168201915b5050505050815250508152602001906001019061294f565b50505050905090565b612b72613754565b60005b600680549050811015612dc0578260068281548110612b9757612b966149a8565b5b90600052602060002090600502016000015403612dad5760068181548110612bc257612bc16149a8565b5b90600052602060002090600502016040518060a00160405290816000820154815260200160018201548152602001600282018054612bff906145f0565b80601f0160208091040260200160405190810160405280929190818152602001828054612c2b906145f0565b8015612c785780601f10612c4d57610100808354040283529160200191612c78565b820191906000526020600020905b815481529060010190602001808311612c5b57829003601f168201915b50505050508152602001600382018054612c91906145f0565b80601f0160208091040260200160405190810160405280929190818152602001828054612cbd906145f0565b8015612d0a5780601f10612cdf57610100808354040283529160200191612d0a565b820191906000526020600020905b815481529060010190602001808311612ced57829003601f168201915b50505050508152602001600482018054612d23906145f0565b80601f0160208091040260200160405190810160405280929190818152602001828054612d4f906145f0565b8015612d9c5780601f10612d7157610100808354040283529160200191612d9c565b820191906000526020600020905b815481529060010190602001808311612d7f57829003601f168201915b505050505081525050915050612dfc565b8080612db890614960565b915050612b75565b506040517f08c379a0000000000000000000000000000000000000000000000000000000008152600401612df390614cc8565b60405180910390fd5b919050565b600d6020528160005260406000208181548110612e1d57600080fd5b906000526020600020906003020160009150915050806000015490806001015490806002018054612e4d906145f0565b80601f0160208091040260200160405190810160405280929190818152602001828054612e79906145f0565b8015612ec65780601f10612e9b57610100808354040283529160200191612ec6565b820191906000526020600020905b815481529060010190602001808311612ea957829003601f168201915b5050505050905083565b600a6020528160005260406000208181548110612eec57600080fd5b9060005260206000209060050201600091509150508060000154908060010160009054906101000a900461ffff1690806002018054612f2a906145f0565b80601f0160208091040260200160405190810160405280929190818152602001828054612f56906145f0565b8015612fa35780601f10612f7857610100808354040283529160200191612fa3565b820191906000526020600020905b815481529060010190602001808311612f8657829003601f168201915b505050505090806003018054612fb8906145f0565b80601f0160208091040260200160405190810160405280929190818152602001828054612fe4906145f0565b80156130315780601f1061300657610100808354040283529160200191613031565b820191906000526020600020905b81548152906001019060200180831161301457829003601f168201915b505050505090806004018054613046906145f0565b80601f0160208091040260200160405190810160405280929190818152602001828054613072906145f0565b80156130bf5780601f10613094576101008083540402835291602001916130bf565b820191906000526020600020905b8154815290600101906020018083116130a257829003601f168201915b5050505050905085565b60086000858152602001908152602001600020543373ffffffffffffffffffffffffffffffffffffffff166007600083815260200190815260200160002060009054906101000a900473ffffffffffffffffffffffffffffffffffffffff1673ffffffffffffffffffffffffffffffffffffffff161461317e576040517f08c379a000000000000000000000000000000000000000000000000000000000815260040161317590614693565b60405180910390fd5b60006040518060a001604052806002548152602001878152602001868152602001858152602001848152509050600681908060018154018082558091505060019003906000526020600020906005020160009091909190915060008201518160000155602082015181600101556040820151816002019081613200919061485f565b506060820151816003019081613216919061485f565b50608082015181600401908161322c919061485f565b505050600c600087815260200190815260200160002081908060018154018082558091505060019003906000526020600020906005020160009091909190915060008201518160000155602082015181600101556040820151816002019081613295919061485f565b5060608201518160030190816132ab919061485f565b5060808201518160040190816132c1919061485f565b5050507f4fc9d5acc453e78e01b205af5788a1c62f195c4b5cdc8eb8f1c670863b7e736a6002546040516132f59190613c7f565b60405180910390a16002600081548092919061331090614960565b9190505550505050505050565b6004818154811061332d57600080fd5b90600052602060002090600502016000915090508060000154908060010160009054906101000a900461ffff169080600201805461336a906145f0565b80601f0160208091040260200160405190810160405280929190818152602001828054613396906145f0565b80156133e35780601f106133b8576101008083540402835291602001916133e3565b820191906000526020600020905b8154815290600101906020018083116133c657829003601f168201915b5050505050908060030180546133f8906145f0565b80601f0160208091040260200160405190810160405280929190818152602001828054613424906145f0565b80156134715780601f1061344657610100808354040283529160200191613471565b820191906000526020600020905b81548152906001019060200180831161345457829003601f168201915b505050505090806004018054613486906145f0565b80601f01602080910402602001604051908101604052809291908181526020018280546134b2906145f0565b80156134ff5780601f106134d4576101008083540402835291602001916134ff565b820191906000526020600020905b8154815290600101906020018083116134e257829003601f168201915b5050505050905085565b60025481565b60005481565b600061352082612b6a565b6020015190506001600e600083815260200190815260200160002060006101000a81548160ff0219169083151502179055505050565b6003818154811061356657600080fd5b90600052602060002090600302016000915090508060000160009054906101000a900473ffffffffffffffffffffffffffffffffffffffff16908060010180546135af906145f0565b80601f01602080910402602001604051908101604052809291908181526020018280546135db906145f0565b80156136285780601f106135fd57610100808354040283529160200191613628565b820191906000526020600020905b81548152906001019060200180831161360b57829003601f168201915b50505050509080600201805461363d906145f0565b80601f0160208091040260200160405190810160405280929190818152602001828054613669906145f0565b80156136b65780601f1061368b576101008083540402835291602001916136b6565b820191906000526020600020905b81548152906001019060200180831161369957829003601f168201915b5050505050905083565b60405180606001604052806000815260200160008152602001606081525090565b6040518060a0016040528060008152602001600061ffff1681526020016060815260200160608152602001606081525090565b508054613720906145f0565b6000825580601f106137325750613751565b601f0160209004906000526020600020908101906137509190613783565b5b50565b6040518060a0016040528060008152602001600081526020016060815260200160608152602001606081525090565b5b8082111561379c576000816000905550600101613784565b5090565b600081519050919050565b600082825260208201905092915050565b6000819050602082019050919050565b6000819050919050565b6137df816137cc565b82525050565b600081519050919050565b600082825260208201905092915050565b60005b8381101561381f578082015181840152602081019050613804565b60008484015250505050565b6000601f19601f8301169050919050565b6000613847826137e5565b61385181856137f0565b9350613861818560208601613801565b61386a8161382b565b840191505092915050565b600060a08301600083015161388d60008601826137d6565b5060208301516138a060208601826137d6565b50604083015184820360408601526138b8828261383c565b915050606083015184820360608601526138d2828261383c565b915050608083015184820360808601526138ec828261383c565b9150508091505092915050565b60006139058383613875565b905092915050565b6000602082019050919050565b6000613925826137a0565b61392f81856137ab565b935083602082028501613941856137bc565b8060005b8581101561397d578484038952815161395e85826138f9565b94506139698361390d565b925060208a01995050600181019050613945565b50829750879550505050505092915050565b600060208201905081810360008301526139a9818461391a565b905092915050565b6000604051905090565b600080fd5b600080fd5b6139ce816137cc565b81146139d957600080fd5b50565b6000813590506139eb816139c5565b92915050565b600080fd5b600080fd5b7f4e487b7100000000000000000000000000000000000000000000000000000000600052604160045260246000fd5b613a338261382b565b810181811067ffffffffffffffff82111715613a5257613a516139fb565b5b80604052505050565b6000613a656139b1565b9050613a718282613a2a565b919050565b600067ffffffffffffffff821115613a9157613a906139fb565b5b613a9a8261382b565b9050602081019050919050565b82818337600083830152505050565b6000613ac9613ac484613a76565b613a5b565b905082815260208101848484011115613ae557613ae46139f6565b5b613af0848285613aa7565b509392505050565b600082601f830112613b0d57613b0c6139f1565b5b8135613b1d848260208601613ab6565b91505092915050565b60008060408385031215613b3d57613b3c6139bb565b5b6000613b4b858286016139dc565b925050602083013567ffffffffffffffff811115613b6c57613b6b6139c0565b5b613b7885828601613af8565b9150509250929050565b600060208284031215613b9857613b976139bb565b5b6000613ba6848285016139dc565b91505092915050565b60008115159050919050565b613bc481613baf565b82525050565b6000602082019050613bdf6000830184613bbb565b92915050565b600073ffffffffffffffffffffffffffffffffffffffff82169050919050565b6000613c1082613be5565b9050919050565b613c2081613c05565b8114613c2b57600080fd5b50565b600081359050613c3d81613c17565b92915050565b600060208284031215613c5957613c586139bb565b5b6000613c6784828501613c2e565b91505092915050565b613c79816137cc565b82525050565b6000602082019050613c946000830184613c70565b92915050565b6000606083016000830151613cb260008601826137d6565b506020830151613cc560208601826137d6565b5060408301518482036040860152613cdd828261383c565b9150508091505092915050565b60006020820190508181036000830152613d048184613c9a565b905092915050565b60008060408385031215613d2357613d226139bb565b5b6000613d31858286016139dc565b9250506020613d42858286016139dc565b9150509250929050565b600082825260208201905092915050565b6000613d68826137e5565b613d728185613d4c565b9350613d82818560208601613801565b613d8b8161382b565b840191505092915050565b6000606082019050613dab6000830186613c70565b613db86020830185613c70565b8181036040830152613dca8184613d5d565b9050949350505050565b600081519050919050565b600082825260208201905092915050565b6000819050602082019050919050565b6000606083016000830151613e1860008601826137d6565b506020830151613e2b60208601826137d6565b5060408301518482036040860152613e43828261383c565b9150508091505092915050565b6000613e5c8383613e00565b905092915050565b6000602082019050919050565b6000613e7c82613dd4565b613e868185613ddf565b935083602082028501613e9885613df0565b8060005b85811015613ed45784840389528151613eb58582613e50565b9450613ec083613e64565b925060208a01995050600181019050613e9c565b50829750879550505050505092915050565b60006020820190508181036000830152613f008184613e71565b905092915050565b600061ffff82169050919050565b613f1f81613f08565b82525050565b600060a083016000830151613f3d60008601826137d6565b506020830151613f506020860182613f16565b5060408301518482036040860152613f68828261383c565b91505060608301518482036060860152613f82828261383c565b91505060808301518482036080860152613f9c828261383c565b9150508091505092915050565b60006020820190508181036000830152613fc38184613f25565b905092915050565b600081519050919050565b600082825260208201905092915050565b6000819050602082019050919050565b600060a08301600083015161400f60008601826137d6565b5060208301516140226020860182613f16565b506040830151848203604086015261403a828261383c565b91505060608301518482036060860152614054828261383c565b9150506080830151848203608086015261406e828261383c565b9150508091505092915050565b60006140878383613ff7565b905092915050565b6000602082019050919050565b60006140a782613fcb565b6140b18185613fd6565b9350836020820285016140c385613fe7565b8060005b858110156140ff57848403895281516140e0858261407b565b94506140eb8361408f565b925060208a019950506001810190506140c7565b50829750879550505050505092915050565b6000602082019050818103600083015261412b818461409c565b905092915050565b600060a0820190506141486000830188613c70565b6141556020830187613c70565b81810360408301526141678186613d5d565b9050818103606083015261417b8185613d5d565b9050818103608083015261418f8184613d5d565b90509695505050505050565b6141a481613c05565b82525050565b60006020820190506141bf600083018461419b565b92915050565b6141ce81613f08565b81146141d957600080fd5b50565b6000813590506141eb816141c5565b92915050565b6000806000806080858703121561420b5761420a6139bb565b5b6000614219878288016141dc565b945050602085013567ffffffffffffffff81111561423a576142396139c0565b5b61424687828801613af8565b935050604085013567ffffffffffffffff811115614267576142666139c0565b5b61427387828801613af8565b925050606085013567ffffffffffffffff811115614294576142936139c0565b5b6142a087828801613af8565b91505092959194509250565b600080604083850312156142c3576142c26139bb565b5b60006142d1858286016139dc565b92505060206142e285828601613c2e565b9150509250929050565b60008060408385031215614303576143026139bb565b5b600083013567ffffffffffffffff811115614321576143206139c0565b5b61432d85828601613af8565b925050602083013567ffffffffffffffff81111561434e5761434d6139c0565b5b61435a85828601613af8565b9150509250929050565b600060a08301600083015161437c60008601826137d6565b50602083015161438f60208601826137d6565b50604083015184820360408601526143a7828261383c565b915050606083015184820360608601526143c1828261383c565b915050608083015184820360808601526143db828261383c565b9150508091505092915050565b600060208201905081810360008301526144028184614364565b905092915050565b60008060408385031215614421576144206139bb565b5b600061442f85828601613c2e565b9250506020614440858286016139dc565b9150509250929050565b61445381613f08565b82525050565b600060a08201905061446e6000830188613c70565b61447b602083018761444a565b818103604083015261448d8186613d5d565b905081810360608301526144a18185613d5d565b905081810360808301526144b58184613d5d565b90509695505050505050565b600080600080608085870312156144db576144da6139bb565b5b60006144e9878288016139dc565b945050602085013567ffffffffffffffff81111561450a576145096139c0565b5b61451687828801613af8565b935050604085013567ffffffffffffffff811115614537576145366139c0565b5b61454387828801613af8565b925050606085013567ffffffffffffffff811115614564576145636139c0565b5b61457087828801613af8565b91505092959194509250565b6000606082019050614591600083018661419b565b81810360208301526145a38185613d5d565b905081810360408301526145b78184613d5d565b9050949350505050565b7f4e487b7100000000000000000000000000000000000000000000000000000000600052602260045260246000fd5b6000600282049050600182168061460857607f821691505b60208210810361461b5761461a6145c1565b5b50919050565b7f596f7520617265206e6f7420746865206f776e6572206f66207468697320636f60008201527f7700000000000000000000000000000000000000000000000000000000000000602082015250565b600061467d602183613d4c565b915061468882614621565b604082019050919050565b600060208201905081810360008301526146ac81614670565b9050919050565b60008190508160005260206000209050919050565b60006020601f8301049050919050565b600082821b905092915050565b6000600883026147157fffffffffffffffffffffffffffffffffffffffffffffffffffffffffffffffff826146d8565b61471f86836146d8565b95508019841693508086168417925050509392505050565b6000819050919050565b600061475c614757614752846137cc565b614737565b6137cc565b9050919050565b6000819050919050565b61477683614741565b61478a61478282614763565b8484546146e5565b825550505050565b600090565b61479f614792565b6147aa81848461476d565b505050565b5b818110156147ce576147c3600082614797565b6001810190506147b0565b5050565b601f821115614813576147e4816146b3565b6147ed846146c8565b810160208510156147fc578190505b614810614808856146c8565b8301826147af565b50505b505050565b600082821c905092915050565b600061483660001984600802614818565b1980831691505092915050565b600061484f8383614825565b9150826002028217905092915050565b614868826137e5565b67ffffffffffffffff811115614881576148806139fb565b5b61488b82546145f0565b6148968282856147d2565b600060209050601f8311600181146148c957600084156148b7578287015190505b6148c18582614843565b865550614929565b601f1984166148d7866146b3565b60005b828110156148ff578489015182556001820191506020850194506020810190506148da565b8683101561491c5784890151614918601f891682614825565b8355505b6001600288020188555050505b505050505050565b7f4e487b7100000000000000000000000000000000000000000000000000000000600052601160045260246000fd5b600061496b826137cc565b91507fffffffffffffffffffffffffffffffffffffffffffffffffffffffffffffffff820361499d5761499c614931565b5b600182019050919050565b7f4e487b7100000000000000000000000000000000000000000000000000000000600052603260045260246000fd5b7f4d696c6b206e6f7420666f756e64210000000000000000000000000000000000600082015250565b6000614a0d600f83613d4c565b9150614a18826149d7565b602082019050919050565b60006020820190508181036000830152614a3c81614a00565b9050919050565b7f436f77206e6f7420666f756e6421000000000000000000000000000000000000600082015250565b6000614a79600e83613d4c565b9150614a8482614a43565b602082019050919050565b60006020820190508181036000830152614aa881614a6c565b9050919050565b7f496e76616c6964206e6577206f776e6572206164647265737300000000000000600082015250565b6000614ae5601983613d4c565b9150614af082614aaf565b602082019050919050565b60006020820190508181036000830152614b1481614ad8565b9050919050565b6000614b26826137cc565b9150614b31836137cc565b9250828203905081811115614b4957614b48614931565b5b92915050565b600081549050614b5e816145f0565b9050919050565b818103614b73575050614c4b565b614b7c82614b4f565b67ffffffffffffffff811115614b9557614b946139fb565b5b614b9f82546145f0565b614baa8282856147d2565b6000601f831160018114614bd95760008415614bc7578287015490505b614bd18582614843565b865550614c44565b601f198416614be7876146b3565b9650614bf2866146b3565b60005b82811015614c1a57848901548255600182019150600185019450602081019050614bf5565b86831015614c375784890154614c33601f891682614825565b8355505b6001600288020188555050505b5050505050505b565b7f4e487b7100000000000000000000000000000000000000000000000000000000600052603160045260246000fd5b7f50726f64756374206e6f7420666f756e64210000000000000000000000000000600082015250565b6000614cb2601283613d4c565b9150614cbd82614c7c565b602082019050919050565b60006020820190508181036000830152614ce181614ca5565b905091905056fea264697066735822122061a58d88dbe0ab54de4e1c915f3e11be81f41bdd30785f3443d9959081d03e9b64736f6c63430008130033",
  "immutableReferences": {},
  "source": "pragma solidity ^0.8.17;\r\n\r\ncontract MilkFactory {\r\n\r\n    struct Dairy {\r\n        address dairyAddress;\r\n        string dairyName;\r\n        string dairyPlace;\r\n    }\r\n\r\n    struct Cow {\r\n        uint256 id;\r\n        uint16 weight;\r\n        string breed;\r\n        string birthDate;\r\n        string residence;\r\n    }\r\n\r\n    struct Milk {\r\n        uint256 id;\r\n        uint256 cowId;\r\n        string dateOfProduction;\r\n    }\r\n\r\n    struct Product { //Should add more info about product \r\n        uint256 id;\r\n        uint256 milkId;\r\n        string dateOfProduction;\r\n        string productType;\r\n        string expiryDate;\r\n    }\r\n\r\n    //constructor() {\r\n    //    owner = msg.sender;\r\n    //}\r\n\r\n    modifier onlyOwnerOf(uint256 _cowId) {\r\n        require(cowToOwner[_cowId] == msg.sender, \"You are not the owner of this cow\");\r\n        _;\r\n    }\r\n    \r\n    uint256 public cowCount = 0;\r\n    uint256 public milkCount = 0;\r\n    uint256 public productCount = 0;\r\n\r\n    event ProductAdded(uint256 productId);\r\n    event SpoiledProduct(uint256 productId);\r\n    event LogMessage(string message);\r\n    \r\n    Dairy[] public dairyList;\r\n    Cow[] public cowList;\r\n    Milk[] public milkList;\r\n    Product[] public productList;\r\n\r\n    mapping(uint256 => address) public cowToOwner;\r\n    mapping(uint256 => uint256) public milkToCow;\r\n    mapping(address => uint256) public ownerMilkCount;\r\n    mapping(address => Cow[]) public ownerToCowList;\r\n    mapping(uint256 => Milk[]) public cowToMilkList;\r\n    mapping(uint256 => Product[]) public milkToProductList;\r\n    mapping(address => Milk[]) public ownerToMilk;\r\n    mapping(uint256 => bool) public spoiledMilks;\r\n    mapping(uint256 => bool) public deathCows;\r\n   \r\n   \r\n    function addDairy(string memory _dairyName, string memory _dairyPlace) public {\r\n        Dairy memory myDairy = Dairy(msg.sender, _dairyName, _dairyPlace);\r\n        dairyList.push(myDairy);\r\n    }\r\n\r\n    function checkDairyIsRegistered() public view returns (bool) {\r\n        for(uint i=0; i < dairyList.length; i++) { \r\n            if(dairyList[i].dairyAddress == msg.sender) {\r\n                return true;\r\n            }\r\n        }\r\n        return false;\r\n    }\r\n\r\n    function transferCow(uint256 _cowId, address _newOwner) public onlyOwnerOf(_cowId) {\r\n        require(_newOwner != address(0), \"Invalid new owner address\");\r\n        \r\n        //Delete cow from old owner mapping \r\n        for(uint i=0; i < ownerToCowList[msg.sender].length; i++) { \r\n            if(ownerToCowList[msg.sender][i].id == _cowId) {\r\n                ownerToCowList[msg.sender][i] = ownerToCowList[msg.sender][(ownerToCowList[msg.sender].length-1)];\r\n            }\r\n        }\r\n\r\n        ownerToCowList[msg.sender].pop();\r\n\r\n        //Add cow to new owner mapping\r\n        ownerToCowList[_newOwner].push(getCow(_cowId));\r\n        cowToOwner[_cowId] = _newOwner;\r\n    }\r\n\r\n\r\n    function addCow(uint16 _weight, string memory _breed, string memory _birthDate, string memory _residence) public {\r\n        Cow memory myCow = Cow(cowCount, _weight, _breed, _birthDate, _residence);\r\n        cowList.push(myCow);\r\n        //Increase cow count that is used as id\r\n        cowCount++;\r\n        cowToOwner[myCow.id] = msg.sender;\r\n        ownerToCowList[msg.sender].push(myCow);\r\n    }\r\n    \r\n    function addMilk(uint256 _cowId, string memory _dateOfProduction) public onlyOwnerOf(_cowId) {\r\n        //Check if cow exists\r\n        Milk memory myMilk = Milk(milkCount, _cowId, _dateOfProduction);\r\n        spoiledMilks[milkCount] = false;\r\n        milkList.push(myMilk);\r\n        milkCount++;\r\n        cowToMilkList[_cowId].push(myMilk);\r\n        milkToCow[myMilk.id] = _cowId;\r\n        ownerMilkCount[msg.sender]++; \r\n        ownerToMilk[msg.sender].push(myMilk);\r\n    }\r\n    \r\n    function addProduct(uint256 _milkId, string memory _dateOfProduction, string memory _productType, string memory _expiryDate) public  onlyOwnerOf(milkToCow[_milkId]) {\r\n        //Check if milk exists\r\n        Product memory  myProduct = Product( productCount, _milkId, _dateOfProduction, _productType, _expiryDate);\r\n        productList.push(myProduct);\r\n        milkToProductList[_milkId].push(myProduct);\r\n        emit ProductAdded(productCount);\r\n        productCount++;  \r\n    }\r\n\r\n    function killCow(uint256 _cowId) public onlyOwnerOf(_cowId) {\r\n        deathCows[_cowId] = true;\r\n    }\r\n\r\n    function getAllCows() public view returns(Cow[] memory) {\r\n        return cowList;\r\n    }\r\n\r\n    function getCowsOfOwner() public view returns(Cow[] memory) {\r\n        return ownerToCowList[msg.sender];\r\n    }\r\n\r\n    function getAliveCowsOfOwner() public view returns(Cow[] memory) {\r\n        Cow[] memory cows = ownerToCowList[msg.sender];\r\n        uint256 aliveCows = 0;\r\n        for(uint i=0; i < cows.length; i++) { \r\n            if(deathCows[cows[i].id] == false) {\r\n                aliveCows++;\r\n            }\r\n        }\r\n        Cow[] memory aliveCowList = new Cow[](aliveCows);\r\n        uint256 index = 0;\r\n        for(uint i=0; i < cows.length; i++) { \r\n            if(deathCows[cows[i].id] == false) {\r\n                aliveCowList[index] = cows[i];\r\n                index++;\r\n            }\r\n        }\r\n        return aliveCowList;\r\n    }\r\n    \r\n    function getAllMilks() public view returns(Milk[] memory) {\r\n        return milkList;\r\n    }\r\n\r\n    function getMilksOfOwner() public view returns (Milk[] memory) {\r\n        return ownerToMilk[msg.sender];    \r\n    }\r\n\r\n    function reportSpoiledProduct(uint256 _productId) public {\r\n        uint256 milkId = getProduct(_productId).milkId;\r\n        spoiledMilks[milkId] = true;\r\n    }\r\n\r\n    function getAllProducts() public view returns(Product[] memory) {\r\n        return productList;\r\n    }\r\n\r\n    function getProduct(uint256 _productId) public view returns(Product memory) {\r\n        for(uint i=0; i < productList.length; i++) { \r\n            if(productList[i].id == _productId) {\r\n                return productList[i];\r\n            }\r\n        }\r\n        revert(\"Product not found!\"); //Undo, return value, give back gas \r\n    }\r\n\r\n    function isMilkSpoiled(uint256 _milkId) public view returns(bool) {\r\n        return spoiledMilks[_milkId];\r\n    }\r\n\r\n    function getMilk(uint256 _milkId) public view returns(Milk memory) {\r\n        for(uint i=0; i < milkList.length; i++) { \r\n            if(milkList[i].id == _milkId) {\r\n                return milkList[i];\r\n            }\r\n        }\r\n        revert(\"Milk not found!\"); //Undo, return value, give back gas \r\n    }\r\n\r\n    function getCow(uint256 _cowId) public view returns(Cow memory) {\r\n        for(uint i=0; i < cowList.length; i++) { \r\n            if(cowList[i].id == _cowId) {\r\n                return cowList[i];\r\n            }\r\n        }\r\n        revert(\"Cow not found!\"); //Undo, return value, give back gas \r\n    }\r\n}",
  "sourcePath": "C:\\Users\\tomas\\Desktop\\Blockchain-Project\\blockchain\\contracts\\MilkFactory.sol",
  "compiler": {
    "name": "solc",
    "version": "0.8.19+commit.7dd6d404.Emscripten.clang"
  },
  "schemaVersion": "3.4.13",
  "updatedAt": "2023-07-11T09:31:55.300Z",
  "networkType": "ethereum",
  "devdoc": {
    "kind": "dev",
    "methods": {},
    "version": 1
  },
  "userdoc": {
    "kind": "user",
    "methods": {},
    "version": 1
  }
}