{
  "contractName": "MilkTracker",
  "abi": [
    {
      "anonymous": false,
      "inputs": [
        {
          "indexed": false,
          "internalType": "uint256",
          "name": "productId",
          "type": "uint256"
        }
      ],
      "name": "ProductAdded",
      "type": "event"
    },
    {
      "anonymous": false,
      "inputs": [
        {
          "indexed": false,
          "internalType": "uint256",
          "name": "productId",
          "type": "uint256"
        }
      ],
      "name": "SpoiledProduct",
      "type": "event"
    },
    {
      "inputs": [
        {
          "internalType": "uint256",
          "name": "",
          "type": "uint256"
        }
      ],
      "name": "cowList",
      "outputs": [
        {
          "internalType": "uint256",
          "name": "id",
          "type": "uint256"
        },
        {
          "internalType": "uint16",
          "name": "weight",
          "type": "uint16"
        },
        {
          "internalType": "string",
          "name": "breed",
          "type": "string"
        },
        {
          "internalType": "string",
          "name": "birthDate",
          "type": "string"
        },
        {
          "internalType": "string",
          "name": "residence",
          "type": "string"
        }
      ],
      "stateMutability": "view",
      "type": "function",
      "constant": true
    },
    {
      "inputs": [
        {
          "internalType": "uint256",
          "name": "",
          "type": "uint256"
        }
      ],
      "name": "cowToOwner",
      "outputs": [
        {
          "internalType": "address",
          "name": "",
          "type": "address"
        }
      ],
      "stateMutability": "view",
      "type": "function",
      "constant": true
    },
    {
      "inputs": [
        {
          "internalType": "uint256",
          "name": "",
          "type": "uint256"
        }
      ],
      "name": "dairyList",
      "outputs": [
        {
          "internalType": "address",
          "name": "dairyAddress",
          "type": "address"
        },
        {
          "internalType": "string",
          "name": "dairyName",
          "type": "string"
        },
        {
          "internalType": "string",
          "name": "dairyPlace",
          "type": "string"
        }
      ],
      "stateMutability": "view",
      "type": "function",
      "constant": true
    },
    {
      "inputs": [
        {
          "internalType": "uint256",
          "name": "",
          "type": "uint256"
        }
      ],
      "name": "deathCows",
      "outputs": [
        {
          "internalType": "bool",
          "name": "",
          "type": "bool"
        }
      ],
      "stateMutability": "view",
      "type": "function",
      "constant": true
    },
    {
      "inputs": [
        {
          "internalType": "uint256",
          "name": "",
          "type": "uint256"
        }
      ],
      "name": "milkList",
      "outputs": [
        {
          "internalType": "uint256",
          "name": "id",
          "type": "uint256"
        },
        {
          "internalType": "uint256",
          "name": "cowId",
          "type": "uint256"
        },
        {
          "internalType": "string",
          "name": "dateOfProduction",
          "type": "string"
        }
      ],
      "stateMutability": "view",
      "type": "function",
      "constant": true
    },
    {
      "inputs": [
        {
          "internalType": "uint256",
          "name": "",
          "type": "uint256"
        }
      ],
      "name": "milkToOwner",
      "outputs": [
        {
          "internalType": "address",
          "name": "",
          "type": "address"
        }
      ],
      "stateMutability": "view",
      "type": "function",
      "constant": true
    },
    {
      "inputs": [
        {
          "internalType": "address",
          "name": "",
          "type": "address"
        },
        {
          "internalType": "uint256",
          "name": "",
          "type": "uint256"
        }
      ],
      "name": "ownerToCowList",
      "outputs": [
        {
          "internalType": "uint256",
          "name": "id",
          "type": "uint256"
        },
        {
          "internalType": "uint16",
          "name": "weight",
          "type": "uint16"
        },
        {
          "internalType": "string",
          "name": "breed",
          "type": "string"
        },
        {
          "internalType": "string",
          "name": "birthDate",
          "type": "string"
        },
        {
          "internalType": "string",
          "name": "residence",
          "type": "string"
        }
      ],
      "stateMutability": "view",
      "type": "function",
      "constant": true
    },
    {
      "inputs": [
        {
          "internalType": "address",
          "name": "",
          "type": "address"
        },
        {
          "internalType": "uint256",
          "name": "",
          "type": "uint256"
        }
      ],
      "name": "ownerToMilk",
      "outputs": [
        {
          "internalType": "uint256",
          "name": "id",
          "type": "uint256"
        },
        {
          "internalType": "uint256",
          "name": "cowId",
          "type": "uint256"
        },
        {
          "internalType": "string",
          "name": "dateOfProduction",
          "type": "string"
        }
      ],
      "stateMutability": "view",
      "type": "function",
      "constant": true
    },
    {
      "inputs": [
        {
          "internalType": "uint256",
          "name": "",
          "type": "uint256"
        }
      ],
      "name": "productList",
      "outputs": [
        {
          "internalType": "uint256",
          "name": "id",
          "type": "uint256"
        },
        {
          "internalType": "uint256",
          "name": "milkId",
          "type": "uint256"
        },
        {
          "internalType": "string",
          "name": "dateOfProduction",
          "type": "string"
        },
        {
          "internalType": "string",
          "name": "productType",
          "type": "string"
        },
        {
          "internalType": "string",
          "name": "expiryDate",
          "type": "string"
        }
      ],
      "stateMutability": "view",
      "type": "function",
      "constant": true
    },
    {
      "inputs": [
        {
          "internalType": "uint256",
          "name": "",
          "type": "uint256"
        }
      ],
      "name": "spoiledMilks",
      "outputs": [
        {
          "internalType": "bool",
          "name": "",
          "type": "bool"
        }
      ],
      "stateMutability": "view",
      "type": "function",
      "constant": true
    },
    {
      "inputs": [
        {
          "internalType": "string",
          "name": "_dairyName",
          "type": "string"
        },
        {
          "internalType": "string",
          "name": "_dairyPlace",
          "type": "string"
        }
      ],
      "name": "addDairy",
      "outputs": [],
      "stateMutability": "nonpayable",
      "type": "function"
    },
    {
      "inputs": [],
      "name": "checkDairyIsRegistered",
      "outputs": [
        {
          "internalType": "bool",
          "name": "",
          "type": "bool"
        }
      ],
      "stateMutability": "view",
      "type": "function",
      "constant": true
    },
    {
      "inputs": [],
      "name": "getAllDairyExceptSelf",
      "outputs": [
        {
          "components": [
            {
              "internalType": "address",
              "name": "dairyAddress",
              "type": "address"
            },
            {
              "internalType": "string",
              "name": "dairyName",
              "type": "string"
            },
            {
              "internalType": "string",
              "name": "dairyPlace",
              "type": "string"
            }
          ],
          "internalType": "struct MilkTracker.Dairy[]",
          "name": "",
          "type": "tuple[]"
        }
      ],
      "stateMutability": "view",
      "type": "function",
      "constant": true
    },
    {
      "inputs": [
        {
          "internalType": "uint256",
          "name": "_cowId",
          "type": "uint256"
        },
        {
          "internalType": "address",
          "name": "_newOwner",
          "type": "address"
        }
      ],
      "name": "transferCow",
      "outputs": [],
      "stateMutability": "nonpayable",
      "type": "function"
    },
    {
      "inputs": [
        {
          "internalType": "uint256",
          "name": "_milkId",
          "type": "uint256"
        },
        {
          "internalType": "address",
          "name": "_newOwner",
          "type": "address"
        }
      ],
      "name": "transferMilk",
      "outputs": [],
      "stateMutability": "nonpayable",
      "type": "function"
    },
    {
      "inputs": [
        {
          "internalType": "uint16",
          "name": "_weight",
          "type": "uint16"
        },
        {
          "internalType": "string",
          "name": "_breed",
          "type": "string"
        },
        {
          "internalType": "string",
          "name": "_birthDate",
          "type": "string"
        },
        {
          "internalType": "string",
          "name": "_residence",
          "type": "string"
        }
      ],
      "name": "addCow",
      "outputs": [],
      "stateMutability": "nonpayable",
      "type": "function"
    },
    {
      "inputs": [
        {
          "internalType": "uint256",
          "name": "_cowId",
          "type": "uint256"
        },
        {
          "internalType": "string",
          "name": "_dateOfProduction",
          "type": "string"
        }
      ],
      "name": "addMilk",
      "outputs": [],
      "stateMutability": "nonpayable",
      "type": "function"
    },
    {
      "inputs": [
        {
          "internalType": "uint256",
          "name": "_milkId",
          "type": "uint256"
        },
        {
          "internalType": "string",
          "name": "_dateOfProduction",
          "type": "string"
        },
        {
          "internalType": "string",
          "name": "_productType",
          "type": "string"
        },
        {
          "internalType": "string",
          "name": "_expiryDate",
          "type": "string"
        }
      ],
      "name": "addProduct",
      "outputs": [],
      "stateMutability": "nonpayable",
      "type": "function"
    },
    {
      "inputs": [
        {
          "internalType": "uint256",
          "name": "_cowId",
          "type": "uint256"
        }
      ],
      "name": "killCow",
      "outputs": [],
      "stateMutability": "nonpayable",
      "type": "function"
    },
    {
      "inputs": [],
      "name": "getAllCows",
      "outputs": [
        {
          "components": [
            {
              "internalType": "uint256",
              "name": "id",
              "type": "uint256"
            },
            {
              "internalType": "uint16",
              "name": "weight",
              "type": "uint16"
            },
            {
              "internalType": "string",
              "name": "breed",
              "type": "string"
            },
            {
              "internalType": "string",
              "name": "birthDate",
              "type": "string"
            },
            {
              "internalType": "string",
              "name": "residence",
              "type": "string"
            }
          ],
          "internalType": "struct MilkTracker.Cow[]",
          "name": "",
          "type": "tuple[]"
        }
      ],
      "stateMutability": "view",
      "type": "function",
      "constant": true
    },
    {
      "inputs": [],
      "name": "getCowsOfOwner",
      "outputs": [
        {
          "components": [
            {
              "internalType": "uint256",
              "name": "id",
              "type": "uint256"
            },
            {
              "internalType": "uint16",
              "name": "weight",
              "type": "uint16"
            },
            {
              "internalType": "string",
              "name": "breed",
              "type": "string"
            },
            {
              "internalType": "string",
              "name": "birthDate",
              "type": "string"
            },
            {
              "internalType": "string",
              "name": "residence",
              "type": "string"
            }
          ],
          "internalType": "struct MilkTracker.Cow[]",
          "name": "",
          "type": "tuple[]"
        }
      ],
      "stateMutability": "view",
      "type": "function",
      "constant": true
    },
    {
      "inputs": [],
      "name": "getAliveCowsOfOwner",
      "outputs": [
        {
          "components": [
            {
              "internalType": "uint256",
              "name": "id",
              "type": "uint256"
            },
            {
              "internalType": "uint16",
              "name": "weight",
              "type": "uint16"
            },
            {
              "internalType": "string",
              "name": "breed",
              "type": "string"
            },
            {
              "internalType": "string",
              "name": "birthDate",
              "type": "string"
            },
            {
              "internalType": "string",
              "name": "residence",
              "type": "string"
            }
          ],
          "internalType": "struct MilkTracker.Cow[]",
          "name": "",
          "type": "tuple[]"
        }
      ],
      "stateMutability": "view",
      "type": "function",
      "constant": true
    },
    {
      "inputs": [],
      "name": "getAllMilks",
      "outputs": [
        {
          "components": [
            {
              "internalType": "uint256",
              "name": "id",
              "type": "uint256"
            },
            {
              "internalType": "uint256",
              "name": "cowId",
              "type": "uint256"
            },
            {
              "internalType": "string",
              "name": "dateOfProduction",
              "type": "string"
            }
          ],
          "internalType": "struct MilkTracker.Milk[]",
          "name": "",
          "type": "tuple[]"
        }
      ],
      "stateMutability": "view",
      "type": "function",
      "constant": true
    },
    {
      "inputs": [],
      "name": "getMilksOfOwner",
      "outputs": [
        {
          "components": [
            {
              "internalType": "uint256",
              "name": "id",
              "type": "uint256"
            },
            {
              "internalType": "uint256",
              "name": "cowId",
              "type": "uint256"
            },
            {
              "internalType": "string",
              "name": "dateOfProduction",
              "type": "string"
            }
          ],
          "internalType": "struct MilkTracker.Milk[]",
          "name": "",
          "type": "tuple[]"
        }
      ],
      "stateMutability": "view",
      "type": "function",
      "constant": true
    },
    {
      "inputs": [
        {
          "internalType": "uint256",
          "name": "_productId",
          "type": "uint256"
        }
      ],
      "name": "reportSpoiledProduct",
      "outputs": [],
      "stateMutability": "nonpayable",
      "type": "function"
    },
    {
      "inputs": [],
      "name": "getAllProducts",
      "outputs": [
        {
          "components": [
            {
              "internalType": "uint256",
              "name": "id",
              "type": "uint256"
            },
            {
              "internalType": "uint256",
              "name": "milkId",
              "type": "uint256"
            },
            {
              "internalType": "string",
              "name": "dateOfProduction",
              "type": "string"
            },
            {
              "internalType": "string",
              "name": "productType",
              "type": "string"
            },
            {
              "internalType": "string",
              "name": "expiryDate",
              "type": "string"
            }
          ],
          "internalType": "struct MilkTracker.Product[]",
          "name": "",
          "type": "tuple[]"
        }
      ],
      "stateMutability": "view",
      "type": "function",
      "constant": true
    },
    {
      "inputs": [
        {
          "internalType": "uint256",
          "name": "_productId",
          "type": "uint256"
        }
      ],
      "name": "getProduct",
      "outputs": [
        {
          "components": [
            {
              "internalType": "uint256",
              "name": "id",
              "type": "uint256"
            },
            {
              "internalType": "uint256",
              "name": "milkId",
              "type": "uint256"
            },
            {
              "internalType": "string",
              "name": "dateOfProduction",
              "type": "string"
            },
            {
              "internalType": "string",
              "name": "productType",
              "type": "string"
            },
            {
              "internalType": "string",
              "name": "expiryDate",
              "type": "string"
            }
          ],
          "internalType": "struct MilkTracker.Product",
          "name": "",
          "type": "tuple"
        }
      ],
      "stateMutability": "view",
      "type": "function",
      "constant": true
    },
    {
      "inputs": [
        {
          "internalType": "uint256",
          "name": "_milkId",
          "type": "uint256"
        }
      ],
      "name": "isMilkSpoiled",
      "outputs": [
        {
          "internalType": "bool",
          "name": "",
          "type": "bool"
        }
      ],
      "stateMutability": "view",
      "type": "function",
      "constant": true
    },
    {
      "inputs": [
        {
          "internalType": "uint256",
          "name": "_milkId",
          "type": "uint256"
        }
      ],
      "name": "getMilk",
      "outputs": [
        {
          "components": [
            {
              "internalType": "uint256",
              "name": "id",
              "type": "uint256"
            },
            {
              "internalType": "uint256",
              "name": "cowId",
              "type": "uint256"
            },
            {
              "internalType": "string",
              "name": "dateOfProduction",
              "type": "string"
            }
          ],
          "internalType": "struct MilkTracker.Milk",
          "name": "",
          "type": "tuple"
        }
      ],
      "stateMutability": "view",
      "type": "function",
      "constant": true
    },
    {
      "inputs": [
        {
          "internalType": "uint256",
          "name": "_cowId",
          "type": "uint256"
        }
      ],
      "name": "getCow",
      "outputs": [
        {
          "components": [
            {
              "internalType": "uint256",
              "name": "id",
              "type": "uint256"
            },
            {
              "internalType": "uint16",
              "name": "weight",
              "type": "uint16"
            },
            {
              "internalType": "string",
              "name": "breed",
              "type": "string"
            },
            {
              "internalType": "string",
              "name": "birthDate",
              "type": "string"
            },
            {
              "internalType": "string",
              "name": "residence",
              "type": "string"
            }
          ],
          "internalType": "struct MilkTracker.Cow",
          "name": "",
          "type": "tuple"
        }
      ],
      "stateMutability": "view",
      "type": "function",
      "constant": true
    }
  ],
  "bytecode": "0x608060405234801561001057600080fd5b50615129806100206000396000f3fe608060405234801561001057600080fd5b50600436106101da5760003560e01c8063927fb4de11610104578063b6fa700c116100a2578063c1393d2711610071578063c1393d27146105c3578063cb7cdaad146105df578063ef2670f114610613578063fe47b4fb1461062f576101da565b8063b6fa700c146104fd578063b9db15b41461052d578063b9f9fbfe1461055d578063beda38f51461058f576101da565b80639fd1fef4116100de5780639fd1fef414610463578063ae81394c14610493578063b3597a22146104c3578063b6f7ea8a146104df576101da565b8063927fb4de1461040d5780639318c3351461042b5780639e0289d214610447576101da565b806334df9b601161017c578063528c87d21161014b578063528c87d2146103715780635515d0f6146103a557806365db2d58146103d55780638d15b01f146103f1576101da565b806334df9b60146102e7578063449794dc146103175780634a71bd2a146103355780635218393314610353576101da565b8063103b99d7116101b8578063103b99d714610249578063184e9c2d146102675780632bd6ccc814610297578063329bcfa5146102c9576101da565b806302ee3a52146101df57806308f0eb53146101fd57806309e88f4514610219575b600080fd5b6101e7610661565b6040516101f49190613c2b565b60405180910390f35b61021760048036038101906102129190613dc2565b61088a565b005b610233600480360381019061022e9190613e1e565b610aca565b6040516102409190613e66565b60405180910390f35b610251610aea565b60405161025e9190613fdb565b60405180910390f35b610281600480360381019061027c9190613e1e565b610dce565b60405161028e919061404d565b60405180910390f35b6102b160048036038101906102ac9190613e1e565b610f41565b6040516102c0939291906140c8565b60405180910390f35b6102d1611003565b6040516102de9190614218565b60405180910390f35b61030160048036038101906102fc9190613e1e565b611108565b60405161030e91906142db565b60405180910390f35b61031f6113b5565b60405161032c9190614443565b60405180910390f35b61033d6117bf565b60405161034a9190614218565b60405180910390f35b61035b611901565b6040516103689190613e66565b60405180910390f35b61038b60048036038101906103869190613e1e565b6119b4565b60405161039c959493929190614465565b60405180910390f35b6103bf60048036038101906103ba9190613e1e565b611b92565b6040516103cc91906144dc565b60405180910390f35b6103ef60048036038101906103ea9190614523565b611bc5565b005b61040b6004803603810190610406919061460a565b611dcd565b005b610415612320565b6040516104229190614443565b60405180910390f35b6104456004803603810190610440919061460a565b61255f565b005b610461600480360381019061045c919061464a565b6129ef565b005b61047d60048036038101906104789190613e1e565b612aca565b60405161048a9190613e66565b60405180910390f35b6104ad60048036038101906104a89190613e1e565b612aea565b6040516104ba9190613e66565b60405180910390f35b6104dd60048036038101906104d89190613e1e565b612b14565b005b6104e7612be6565b6040516104f49190614443565b60405180910390f35b61051760048036038101906105129190613e1e565b612e62565b60405161052491906144dc565b60405180910390f35b61054760048036038101906105429190613e1e565b612e95565b6040516105549190614746565b60405180910390f35b61057760048036038101906105729190614768565b61312c565b604051610586939291906140c8565b60405180910390f35b6105a960048036038101906105a49190614768565b6131fb565b6040516105ba9594939291906147b7565b60405180910390f35b6105dd60048036038101906105d8919061481f565b6133f4565b005b6105f960048036038101906105f49190613e1e565b61358e565b60405161060a9594939291906147b7565b60405180910390f35b61062d60048036038101906106289190613e1e565b61377a565b005b61064960048036038101906106449190613e1e565b6137bb565b604051610658939291906148da565b60405180910390f35b60606003805480602002602001604051908101604052809291908181526020016000905b8282101561088157838290600052602060002090600502016040518060a001604052908160008201548152602001600182015481526020016002820180546106cc9061494e565b80601f01602080910402602001604051908101604052809291908181526020018280546106f89061494e565b80156107455780601f1061071a57610100808354040283529160200191610745565b820191906000526020600020905b81548152906001019060200180831161072857829003601f168201915b5050505050815260200160038201805461075e9061494e565b80601f016020809104026020016040519081016040528092919081815260200182805461078a9061494e565b80156107d75780601f106107ac576101008083540402835291602001916107d7565b820191906000526020600020905b8154815290600101906020018083116107ba57829003601f168201915b505050505081526020016004820180546107f09061494e565b80601f016020809104026020016040519081016040528092919081815260200182805461081c9061494e565b80156108695780601f1061083e57610100808354040283529160200191610869565b820191906000526020600020905b81548152906001019060200180831161084c57829003601f168201915b50505050508152505081526020019060010190610685565b50505050905090565b813373ffffffffffffffffffffffffffffffffffffffff166004600083815260200190815260200160002060009054906101000a900473ffffffffffffffffffffffffffffffffffffffff1673ffffffffffffffffffffffffffffffffffffffff161461092c576040517f08c379a0000000000000000000000000000000000000000000000000000000008152600401610923906149f1565b60405180910390fd5b600060405180606001604052806002805490508152602001858152602001848152509050600060086000600280549050815260200190815260200160002060006101000a81548160ff0219169083151502179055506002819080600181540180825580915050600190039060005260206000209060030201600090919091909150600082015181600001556020820151816001015560408201518160020190816109d69190614bbd565b505050600760003373ffffffffffffffffffffffffffffffffffffffff1673ffffffffffffffffffffffffffffffffffffffff16815260200190815260200160002081908060018154018082558091505060019003906000526020600020906003020160009091909190915060008201518160000155602082015181600101556040820151816002019081610a6b9190614bbd565b50505033600560008360000151815260200190815260200160002060006101000a81548173ffffffffffffffffffffffffffffffffffffffff021916908373ffffffffffffffffffffffffffffffffffffffff16021790555050505050565b60086020528060005260406000206000915054906101000a900460ff1681565b606060006001600080549050610b009190614cbe565b67ffffffffffffffff811115610b1957610b18613c97565b5b604051908082528060200260200182016040528015610b5257816020015b610b3f613925565b815260200190600190039081610b375790505b5090506000805b600080549050811015610dc5573373ffffffffffffffffffffffffffffffffffffffff1660008281548110610b9157610b90614cf2565b5b906000526020600020906003020160000160009054906101000a900473ffffffffffffffffffffffffffffffffffffffff1673ffffffffffffffffffffffffffffffffffffffff1614610db25760008181548110610bf257610bf1614cf2565b5b90600052602060002090600302016040518060600160405290816000820160009054906101000a900473ffffffffffffffffffffffffffffffffffffffff1673ffffffffffffffffffffffffffffffffffffffff1673ffffffffffffffffffffffffffffffffffffffff168152602001600182018054610c719061494e565b80601f0160208091040260200160405190810160405280929190818152602001828054610c9d9061494e565b8015610cea5780601f10610cbf57610100808354040283529160200191610cea565b820191906000526020600020905b815481529060010190602001808311610ccd57829003601f168201915b50505050508152602001600282018054610d039061494e565b80601f0160208091040260200160405190810160405280929190818152602001828054610d2f9061494e565b8015610d7c5780601f10610d5157610100808354040283529160200191610d7c565b820191906000526020600020905b815481529060010190602001808311610d5f57829003601f168201915b505050505081525050838381518110610d9857610d97614cf2565b5b60200260200101819052508180610dae90614d21565b9250505b8080610dbd90614d21565b915050610b59565b50819250505090565b610dd661395c565b60005b600280549050811015610f00578260028281548110610dfb57610dfa614cf2565b5b90600052602060002090600302016000015403610eed5760028181548110610e2657610e25614cf2565b5b90600052602060002090600302016040518060600160405290816000820154815260200160018201548152602001600282018054610e639061494e565b80601f0160208091040260200160405190810160405280929190818152602001828054610e8f9061494e565b8015610edc5780601f10610eb157610100808354040283529160200191610edc565b820191906000526020600020905b815481529060010190602001808311610ebf57829003601f168201915b505050505081525050915050610f3c565b8080610ef890614d21565b915050610dd9565b506040517f08c379a0000000000000000000000000000000000000000000000000000000008152600401610f3390614db5565b60405180910390fd5b919050565b60028181548110610f5157600080fd5b9060005260206000209060030201600091509050806000015490806001015490806002018054610f809061494e565b80601f0160208091040260200160405190810160405280929190818152602001828054610fac9061494e565b8015610ff95780601f10610fce57610100808354040283529160200191610ff9565b820191906000526020600020905b815481529060010190602001808311610fdc57829003601f168201915b5050505050905083565b60606002805480602002602001604051908101604052809291908181526020016000905b828210156110ff5783829060005260206000209060030201604051806060016040529081600082015481526020016001820154815260200160028201805461106e9061494e565b80601f016020809104026020016040519081016040528092919081815260200182805461109a9061494e565b80156110e75780601f106110bc576101008083540402835291602001916110e7565b820191906000526020600020905b8154815290600101906020018083116110ca57829003601f168201915b50505050508152505081526020019060010190611027565b50505050905090565b61111061397d565b60005b60018054905081101561137457826001828154811061113557611134614cf2565b5b9060005260206000209060050201600001540361136157600181815481106111605761115f614cf2565b5b90600052602060002090600502016040518060a0016040529081600082015481526020016001820160009054906101000a900461ffff1661ffff1661ffff1681526020016002820180546111b39061494e565b80601f01602080910402602001604051908101604052809291908181526020018280546111df9061494e565b801561122c5780601f106112015761010080835404028352916020019161122c565b820191906000526020600020905b81548152906001019060200180831161120f57829003601f168201915b505050505081526020016003820180546112459061494e565b80601f01602080910402602001604051908101604052809291908181526020018280546112719061494e565b80156112be5780601f10611293576101008083540402835291602001916112be565b820191906000526020600020905b8154815290600101906020018083116112a157829003601f168201915b505050505081526020016004820180546112d79061494e565b80601f01602080910402602001604051908101604052809291908181526020018280546113039061494e565b80156113505780601f1061132557610100808354040283529160200191611350565b820191906000526020600020905b81548152906001019060200180831161133357829003601f168201915b5050505050815250509150506113b0565b808061136c90614d21565b915050611113565b506040517f08c379a00000000000000000000000000000000000000000000000000000000081526004016113a790614e21565b60405180910390fd5b919050565b60606000600660003373ffffffffffffffffffffffffffffffffffffffff1673ffffffffffffffffffffffffffffffffffffffff168152602001908152602001600020805480602002602001604051908101604052809291908181526020016000905b8282101561162a57838290600052602060002090600502016040518060a0016040529081600082015481526020016001820160009054906101000a900461ffff1661ffff1661ffff1681526020016002820180546114759061494e565b80601f01602080910402602001604051908101604052809291908181526020018280546114a19061494e565b80156114ee5780601f106114c3576101008083540402835291602001916114ee565b820191906000526020600020905b8154815290600101906020018083116114d157829003601f168201915b505050505081526020016003820180546115079061494e565b80601f01602080910402602001604051908101604052809291908181526020018280546115339061494e565b80156115805780601f1061155557610100808354040283529160200191611580565b820191906000526020600020905b81548152906001019060200180831161156357829003601f168201915b505050505081526020016004820180546115999061494e565b80601f01602080910402602001604051908101604052809291908181526020018280546115c59061494e565b80156116125780601f106115e757610100808354040283529160200191611612565b820191906000526020600020905b8154815290600101906020018083116115f557829003601f168201915b50505050508152505081526020019060010190611418565b5050505090506000805b82518110156116a957600015156009600085848151811061165857611657614cf2565b5b602002602001015160000151815260200190815260200160002060009054906101000a900460ff1615150361169657818061169290614d21565b9250505b80806116a190614d21565b915050611634565b5060008167ffffffffffffffff8111156116c6576116c5613c97565b5b6040519080825280602002602001820160405280156116ff57816020015b6116ec61397d565b8152602001906001900390816116e45790505b5090506000805b84518110156117b457600015156009600087848151811061172a57611729614cf2565b5b602002602001015160000151815260200190815260200160002060009054906101000a900460ff161515036117a15784818151811061176c5761176b614cf2565b5b602002602001015183838151811061178757611786614cf2565b5b6020026020010181905250818061179d90614d21565b9250505b80806117ac90614d21565b915050611706565b508194505050505090565b6060600760003373ffffffffffffffffffffffffffffffffffffffff1673ffffffffffffffffffffffffffffffffffffffff168152602001908152602001600020805480602002602001604051908101604052809291908181526020016000905b828210156118f8578382906000526020600020906003020160405180606001604052908160008201548152602001600182015481526020016002820180546118679061494e565b80601f01602080910402602001604051908101604052809291908181526020018280546118939061494e565b80156118e05780601f106118b5576101008083540402835291602001916118e0565b820191906000526020600020905b8154815290600101906020018083116118c357829003601f168201915b50505050508152505081526020019060010190611820565b50505050905090565b600080600090505b6000805490508110156119ab573373ffffffffffffffffffffffffffffffffffffffff166000828154811061194157611940614cf2565b5b906000526020600020906003020160000160009054906101000a900473ffffffffffffffffffffffffffffffffffffffff1673ffffffffffffffffffffffffffffffffffffffff16036119985760019150506119b1565b80806119a390614d21565b915050611909565b50600090505b90565b600381815481106119c457600080fd5b90600052602060002090600502016000915090508060000154908060010154908060020180546119f39061494e565b80601f0160208091040260200160405190810160405280929190818152602001828054611a1f9061494e565b8015611a6c5780601f10611a4157610100808354040283529160200191611a6c565b820191906000526020600020905b815481529060010190602001808311611a4f57829003601f168201915b505050505090806003018054611a819061494e565b80601f0160208091040260200160405190810160405280929190818152602001828054611aad9061494e565b8015611afa5780601f10611acf57610100808354040283529160200191611afa565b820191906000526020600020905b815481529060010190602001808311611add57829003601f168201915b505050505090806004018054611b0f9061494e565b80601f0160208091040260200160405190810160405280929190818152602001828054611b3b9061494e565b8015611b885780601f10611b5d57610100808354040283529160200191611b88565b820191906000526020600020905b815481529060010190602001808311611b6b57829003601f168201915b5050505050905085565b60046020528060005260406000206000915054906101000a900473ffffffffffffffffffffffffffffffffffffffff1681565b60006040518060a0016040528060018054905081526020018661ffff16815260200185815260200184815260200183815250905060018190806001815401808255809150506001900390600052602060002090600502016000909190919091506000820151816000015560208201518160010160006101000a81548161ffff021916908361ffff1602179055506040820151816002019081611c679190614bbd565b506060820151816003019081611c7d9190614bbd565b506080820151816004019081611c939190614bbd565b50505033600460008360000151815260200190815260200160002060006101000a81548173ffffffffffffffffffffffffffffffffffffffff021916908373ffffffffffffffffffffffffffffffffffffffff160217905550600660003373ffffffffffffffffffffffffffffffffffffffff1673ffffffffffffffffffffffffffffffffffffffff1681526020019081526020016000208190806001815401808255809150506001900390600052602060002090600502016000909190919091506000820151816000015560208201518160010160006101000a81548161ffff021916908361ffff1602179055506040820151816002019081611d979190614bbd565b506060820151816003019081611dad9190614bbd565b506080820151816004019081611dc39190614bbd565b5050505050505050565b813373ffffffffffffffffffffffffffffffffffffffff166004600083815260200190815260200160002060009054906101000a900473ffffffffffffffffffffffffffffffffffffffff1673ffffffffffffffffffffffffffffffffffffffff1614611e6f576040517f08c379a0000000000000000000000000000000000000000000000000000000008152600401611e66906149f1565b60405180910390fd5b600073ffffffffffffffffffffffffffffffffffffffff168273ffffffffffffffffffffffffffffffffffffffff1603611ede576040517f08c379a0000000000000000000000000000000000000000000000000000000008152600401611ed590614e8d565b60405180910390fd5b60005b600660003373ffffffffffffffffffffffffffffffffffffffff1673ffffffffffffffffffffffffffffffffffffffff168152602001908152602001600020805490508110156121315783600660003373ffffffffffffffffffffffffffffffffffffffff1673ffffffffffffffffffffffffffffffffffffffff1681526020019081526020016000208281548110611f7d57611f7c614cf2565b5b9060005260206000209060050201600001540361211e57600660003373ffffffffffffffffffffffffffffffffffffffff1673ffffffffffffffffffffffffffffffffffffffff1681526020019081526020016000206001600660003373ffffffffffffffffffffffffffffffffffffffff1673ffffffffffffffffffffffffffffffffffffffff168152602001908152602001600020805490506120229190614cbe565b8154811061203357612032614cf2565b5b9060005260206000209060050201600660003373ffffffffffffffffffffffffffffffffffffffff1673ffffffffffffffffffffffffffffffffffffffff168152602001908152602001600020828154811061209257612091614cf2565b5b9060005260206000209060050201600082015481600001556001820160009054906101000a900461ffff168160010160006101000a81548161ffff021916908361ffff160217905550600282018160020190816120ef9190614ec3565b50600382018160030190816121049190614ec3565b50600482018160040190816121199190614ec3565b509050505b808061212990614d21565b915050611ee1565b50600660003373ffffffffffffffffffffffffffffffffffffffff1673ffffffffffffffffffffffffffffffffffffffff16815260200190815260200160002080548061218157612180614fab565b5b60019003818190600052602060002090600502016000808201600090556001820160006101000a81549061ffff02191690556002820160006121c391906139b0565b6003820160006121d391906139b0565b6004820160006121e391906139b0565b50509055600660008373ffffffffffffffffffffffffffffffffffffffff1673ffffffffffffffffffffffffffffffffffffffff16815260200190815260200160002061222f84611108565b90806001815401808255809150506001900390600052602060002090600502016000909190919091506000820151816000015560208201518160010160006101000a81548161ffff021916908361ffff160217905550604082015181600201908161229a9190614bbd565b5060608201518160030190816122b09190614bbd565b5060808201518160040190816122c69190614bbd565b505050816004600085815260200190815260200160002060006101000a81548173ffffffffffffffffffffffffffffffffffffffff021916908373ffffffffffffffffffffffffffffffffffffffff160217905550505050565b60606001805480602002602001604051908101604052809291908181526020016000905b8282101561255657838290600052602060002090600502016040518060a0016040529081600082015481526020016001820160009054906101000a900461ffff1661ffff1661ffff1681526020016002820180546123a19061494e565b80601f01602080910402602001604051908101604052809291908181526020018280546123cd9061494e565b801561241a5780601f106123ef5761010080835404028352916020019161241a565b820191906000526020600020905b8154815290600101906020018083116123fd57829003601f168201915b505050505081526020016003820180546124339061494e565b80601f016020809104026020016040519081016040528092919081815260200182805461245f9061494e565b80156124ac5780601f10612481576101008083540402835291602001916124ac565b820191906000526020600020905b81548152906001019060200180831161248f57829003601f168201915b505050505081526020016004820180546124c59061494e565b80601f01602080910402602001604051908101604052809291908181526020018280546124f19061494e565b801561253e5780601f106125135761010080835404028352916020019161253e565b820191906000526020600020905b81548152906001019060200180831161252157829003601f168201915b50505050508152505081526020019060010190612344565b50505050905090565b813373ffffffffffffffffffffffffffffffffffffffff166005600083815260200190815260200160002060009054906101000a900473ffffffffffffffffffffffffffffffffffffffff1673ffffffffffffffffffffffffffffffffffffffff1614612601576040517f08c379a00000000000000000000000000000000000000000000000000000000081526004016125f89061504c565b60405180910390fd5b600073ffffffffffffffffffffffffffffffffffffffff168273ffffffffffffffffffffffffffffffffffffffff1603612670576040517f08c379a000000000000000000000000000000000000000000000000000000000815260040161266790614e8d565b60405180910390fd5b60005b600760003373ffffffffffffffffffffffffffffffffffffffff1673ffffffffffffffffffffffffffffffffffffffff168152602001908152602001600020805490508110156128725783600760003373ffffffffffffffffffffffffffffffffffffffff1673ffffffffffffffffffffffffffffffffffffffff168152602001908152602001600020828154811061270f5761270e614cf2565b5b9060005260206000209060030201600001540361285f57600760003373ffffffffffffffffffffffffffffffffffffffff1673ffffffffffffffffffffffffffffffffffffffff1681526020019081526020016000206001600760003373ffffffffffffffffffffffffffffffffffffffff1673ffffffffffffffffffffffffffffffffffffffff168152602001908152602001600020805490506127b49190614cbe565b815481106127c5576127c4614cf2565b5b9060005260206000209060030201600760003373ffffffffffffffffffffffffffffffffffffffff1673ffffffffffffffffffffffffffffffffffffffff168152602001908152602001600020828154811061282457612823614cf2565b5b906000526020600020906003020160008201548160000155600182015481600101556002820181600201908161285a9190614ec3565b509050505b808061286a90614d21565b915050612673565b50600760003373ffffffffffffffffffffffffffffffffffffffff1673ffffffffffffffffffffffffffffffffffffffff1681526020019081526020016000208054806128c2576128c1614fab565b5b600190038181906000526020600020906003020160008082016000905560018201600090556002820160006128f791906139b0565b50509055600760008373ffffffffffffffffffffffffffffffffffffffff1673ffffffffffffffffffffffffffffffffffffffff16815260200190815260200160002061294384610dce565b9080600181540180825580915050600190039060005260206000209060030201600090919091909150600082015181600001556020820151816001015560408201518160020190816129959190614bbd565b505050816005600085815260200190815260200160002060006101000a81548173ffffffffffffffffffffffffffffffffffffffff021916908373ffffffffffffffffffffffffffffffffffffffff160217905550505050565b600060405180606001604052803373ffffffffffffffffffffffffffffffffffffffff168152602001848152602001838152509050600081908060018154018082558091505060019003906000526020600020906003020160009091909190915060008201518160000160006101000a81548173ffffffffffffffffffffffffffffffffffffffff021916908373ffffffffffffffffffffffffffffffffffffffff1602179055506020820151816001019081612aac9190614bbd565b506040820151816002019081612ac29190614bbd565b505050505050565b60096020528060005260406000206000915054906101000a900460ff1681565b60006008600083815260200190815260200160002060009054906101000a900460ff169050919050565b803373ffffffffffffffffffffffffffffffffffffffff166004600083815260200190815260200160002060009054906101000a900473ffffffffffffffffffffffffffffffffffffffff1673ffffffffffffffffffffffffffffffffffffffff1614612bb6576040517f08c379a0000000000000000000000000000000000000000000000000000000008152600401612bad906149f1565b60405180910390fd5b60016009600084815260200190815260200160002060006101000a81548160ff0219169083151502179055505050565b6060600660003373ffffffffffffffffffffffffffffffffffffffff1673ffffffffffffffffffffffffffffffffffffffff168152602001908152602001600020805480602002602001604051908101604052809291908181526020016000905b82821015612e5957838290600052602060002090600502016040518060a0016040529081600082015481526020016001820160009054906101000a900461ffff1661ffff1661ffff168152602001600282018054612ca49061494e565b80601f0160208091040260200160405190810160405280929190818152602001828054612cd09061494e565b8015612d1d5780601f10612cf257610100808354040283529160200191612d1d565b820191906000526020600020905b815481529060010190602001808311612d0057829003601f168201915b50505050508152602001600382018054612d369061494e565b80601f0160208091040260200160405190810160405280929190818152602001828054612d629061494e565b8015612daf5780601f10612d8457610100808354040283529160200191612daf565b820191906000526020600020905b815481529060010190602001808311612d9257829003601f168201915b50505050508152602001600482018054612dc89061494e565b80601f0160208091040260200160405190810160405280929190818152602001828054612df49061494e565b8015612e415780601f10612e1657610100808354040283529160200191612e41565b820191906000526020600020905b815481529060010190602001808311612e2457829003601f168201915b50505050508152505081526020019060010190612c47565b50505050905090565b60056020528060005260406000206000915054906101000a900473ffffffffffffffffffffffffffffffffffffffff1681565b612e9d6139f0565b60005b6003805490508110156130eb578260038281548110612ec257612ec1614cf2565b5b906000526020600020906005020160000154036130d85760038181548110612eed57612eec614cf2565b5b90600052602060002090600502016040518060a00160405290816000820154815260200160018201548152602001600282018054612f2a9061494e565b80601f0160208091040260200160405190810160405280929190818152602001828054612f569061494e565b8015612fa35780601f10612f7857610100808354040283529160200191612fa3565b820191906000526020600020905b815481529060010190602001808311612f8657829003601f168201915b50505050508152602001600382018054612fbc9061494e565b80601f0160208091040260200160405190810160405280929190818152602001828054612fe89061494e565b80156130355780601f1061300a57610100808354040283529160200191613035565b820191906000526020600020905b81548152906001019060200180831161301857829003601f168201915b5050505050815260200160048201805461304e9061494e565b80601f016020809104026020016040519081016040528092919081815260200182805461307a9061494e565b80156130c75780601f1061309c576101008083540402835291602001916130c7565b820191906000526020600020905b8154815290600101906020018083116130aa57829003601f168201915b505050505081525050915050613127565b80806130e390614d21565b915050612ea0565b506040517f08c379a000000000000000000000000000000000000000000000000000000000815260040161311e906150b8565b60405180910390fd5b919050565b6007602052816000526040600020818154811061314857600080fd5b9060005260206000209060030201600091509150508060000154908060010154908060020180546131789061494e565b80601f01602080910402602001604051908101604052809291908181526020018280546131a49061494e565b80156131f15780601f106131c6576101008083540402835291602001916131f1565b820191906000526020600020905b8154815290600101906020018083116131d457829003601f168201915b5050505050905083565b6006602052816000526040600020818154811061321757600080fd5b9060005260206000209060050201600091509150508060000154908060010160009054906101000a900461ffff16908060020180546132559061494e565b80601f01602080910402602001604051908101604052809291908181526020018280546132819061494e565b80156132ce5780601f106132a3576101008083540402835291602001916132ce565b820191906000526020600020905b8154815290600101906020018083116132b157829003601f168201915b5050505050908060030180546132e39061494e565b80601f016020809104026020016040519081016040528092919081815260200182805461330f9061494e565b801561335c5780601f106133315761010080835404028352916020019161335c565b820191906000526020600020905b81548152906001019060200180831161333f57829003601f168201915b5050505050908060040180546133719061494e565b80601f016020809104026020016040519081016040528092919081815260200182805461339d9061494e565b80156133ea5780601f106133bf576101008083540402835291602001916133ea565b820191906000526020600020905b8154815290600101906020018083116133cd57829003601f168201915b5050505050905085565b833373ffffffffffffffffffffffffffffffffffffffff166005600083815260200190815260200160002060009054906101000a900473ffffffffffffffffffffffffffffffffffffffff1673ffffffffffffffffffffffffffffffffffffffff1614613496576040517f08c379a000000000000000000000000000000000000000000000000000000000815260040161348d9061504c565b60405180910390fd5b60006040518060a0016040528060038054905081526020018781526020018681526020018581526020018481525090507f4fc9d5acc453e78e01b205af5788a1c62f195c4b5cdc8eb8f1c670863b7e736a6003805490506040516134fa91906150d8565b60405180910390a16003819080600181540180825580915050600190039060005260206000209060050201600090919091909150600082015181600001556020820151816001015560408201518160020190816135579190614bbd565b50606082015181600301908161356d9190614bbd565b5060808201518160040190816135839190614bbd565b505050505050505050565b6001818154811061359e57600080fd5b90600052602060002090600502016000915090508060000154908060010160009054906101000a900461ffff16908060020180546135db9061494e565b80601f01602080910402602001604051908101604052809291908181526020018280546136079061494e565b80156136545780601f1061362957610100808354040283529160200191613654565b820191906000526020600020905b81548152906001019060200180831161363757829003601f168201915b5050505050908060030180546136699061494e565b80601f01602080910402602001604051908101604052809291908181526020018280546136959061494e565b80156136e25780601f106136b7576101008083540402835291602001916136e2565b820191906000526020600020905b8154815290600101906020018083116136c557829003601f168201915b5050505050908060040180546136f79061494e565b80601f01602080910402602001604051908101604052809291908181526020018280546137239061494e565b80156137705780601f1061374557610100808354040283529160200191613770565b820191906000526020600020905b81548152906001019060200180831161375357829003601f168201915b5050505050905085565b600061378582612e95565b60200151905060016008600083815260200190815260200160002060006101000a81548160ff0219169083151502179055505050565b600081815481106137cb57600080fd5b90600052602060002090600302016000915090508060000160009054906101000a900473ffffffffffffffffffffffffffffffffffffffff16908060010180546138149061494e565b80601f01602080910402602001604051908101604052809291908181526020018280546138409061494e565b801561388d5780601f106138625761010080835404028352916020019161388d565b820191906000526020600020905b81548152906001019060200180831161387057829003601f168201915b5050505050908060020180546138a29061494e565b80601f01602080910402602001604051908101604052809291908181526020018280546138ce9061494e565b801561391b5780601f106138f05761010080835404028352916020019161391b565b820191906000526020600020905b8154815290600101906020018083116138fe57829003601f168201915b5050505050905083565b6040518060600160405280600073ffffffffffffffffffffffffffffffffffffffff16815260200160608152602001606081525090565b60405180606001604052806000815260200160008152602001606081525090565b6040518060a0016040528060008152602001600061ffff1681526020016060815260200160608152602001606081525090565b5080546139bc9061494e565b6000825580601f106139ce57506139ed565b601f0160209004906000526020600020908101906139ec9190613a1f565b5b50565b6040518060a0016040528060008152602001600081526020016060815260200160608152602001606081525090565b5b80821115613a38576000816000905550600101613a20565b5090565b600081519050919050565b600082825260208201905092915050565b6000819050602082019050919050565b6000819050919050565b613a7b81613a68565b82525050565b600081519050919050565b600082825260208201905092915050565b60005b83811015613abb578082015181840152602081019050613aa0565b60008484015250505050565b6000601f19601f8301169050919050565b6000613ae382613a81565b613aed8185613a8c565b9350613afd818560208601613a9d565b613b0681613ac7565b840191505092915050565b600060a083016000830151613b296000860182613a72565b506020830151613b3c6020860182613a72565b5060408301518482036040860152613b548282613ad8565b91505060608301518482036060860152613b6e8282613ad8565b91505060808301518482036080860152613b888282613ad8565b9150508091505092915050565b6000613ba18383613b11565b905092915050565b6000602082019050919050565b6000613bc182613a3c565b613bcb8185613a47565b935083602082028501613bdd85613a58565b8060005b85811015613c195784840389528151613bfa8582613b95565b9450613c0583613ba9565b925060208a01995050600181019050613be1565b50829750879550505050505092915050565b60006020820190508181036000830152613c458184613bb6565b905092915050565b6000604051905090565b600080fd5b600080fd5b613c6a81613a68565b8114613c7557600080fd5b50565b600081359050613c8781613c61565b92915050565b600080fd5b600080fd5b7f4e487b7100000000000000000000000000000000000000000000000000000000600052604160045260246000fd5b613ccf82613ac7565b810181811067ffffffffffffffff82111715613cee57613ced613c97565b5b80604052505050565b6000613d01613c4d565b9050613d0d8282613cc6565b919050565b600067ffffffffffffffff821115613d2d57613d2c613c97565b5b613d3682613ac7565b9050602081019050919050565b82818337600083830152505050565b6000613d65613d6084613d12565b613cf7565b905082815260208101848484011115613d8157613d80613c92565b5b613d8c848285613d43565b509392505050565b600082601f830112613da957613da8613c8d565b5b8135613db9848260208601613d52565b91505092915050565b60008060408385031215613dd957613dd8613c57565b5b6000613de785828601613c78565b925050602083013567ffffffffffffffff811115613e0857613e07613c5c565b5b613e1485828601613d94565b9150509250929050565b600060208284031215613e3457613e33613c57565b5b6000613e4284828501613c78565b91505092915050565b60008115159050919050565b613e6081613e4b565b82525050565b6000602082019050613e7b6000830184613e57565b92915050565b600081519050919050565b600082825260208201905092915050565b6000819050602082019050919050565b600073ffffffffffffffffffffffffffffffffffffffff82169050919050565b6000613ed882613ead565b9050919050565b613ee881613ecd565b82525050565b6000606083016000830151613f066000860182613edf565b5060208301518482036020860152613f1e8282613ad8565b91505060408301518482036040860152613f388282613ad8565b9150508091505092915050565b6000613f518383613eee565b905092915050565b6000602082019050919050565b6000613f7182613e81565b613f7b8185613e8c565b935083602082028501613f8d85613e9d565b8060005b85811015613fc95784840389528151613faa8582613f45565b9450613fb583613f59565b925060208a01995050600181019050613f91565b50829750879550505050505092915050565b60006020820190508181036000830152613ff58184613f66565b905092915050565b60006060830160008301516140156000860182613a72565b5060208301516140286020860182613a72565b50604083015184820360408601526140408282613ad8565b9150508091505092915050565b600060208201905081810360008301526140678184613ffd565b905092915050565b61407881613a68565b82525050565b600082825260208201905092915050565b600061409a82613a81565b6140a4818561407e565b93506140b4818560208601613a9d565b6140bd81613ac7565b840191505092915050565b60006060820190506140dd600083018661406f565b6140ea602083018561406f565b81810360408301526140fc818461408f565b9050949350505050565b600081519050919050565b600082825260208201905092915050565b6000819050602082019050919050565b600060608301600083015161414a6000860182613a72565b50602083015161415d6020860182613a72565b50604083015184820360408601526141758282613ad8565b9150508091505092915050565b600061418e8383614132565b905092915050565b6000602082019050919050565b60006141ae82614106565b6141b88185614111565b9350836020820285016141ca85614122565b8060005b8581101561420657848403895281516141e78582614182565b94506141f283614196565b925060208a019950506001810190506141ce565b50829750879550505050505092915050565b6000602082019050818103600083015261423281846141a3565b905092915050565b600061ffff82169050919050565b6142518161423a565b82525050565b600060a08301600083015161426f6000860182613a72565b5060208301516142826020860182614248565b506040830151848203604086015261429a8282613ad8565b915050606083015184820360608601526142b48282613ad8565b915050608083015184820360808601526142ce8282613ad8565b9150508091505092915050565b600060208201905081810360008301526142f58184614257565b905092915050565b600081519050919050565b600082825260208201905092915050565b6000819050602082019050919050565b600060a0830160008301516143416000860182613a72565b5060208301516143546020860182614248565b506040830151848203604086015261436c8282613ad8565b915050606083015184820360608601526143868282613ad8565b915050608083015184820360808601526143a08282613ad8565b9150508091505092915050565b60006143b98383614329565b905092915050565b6000602082019050919050565b60006143d9826142fd565b6143e38185614308565b9350836020820285016143f585614319565b8060005b85811015614431578484038952815161441285826143ad565b945061441d836143c1565b925060208a019950506001810190506143f9565b50829750879550505050505092915050565b6000602082019050818103600083015261445d81846143ce565b905092915050565b600060a08201905061447a600083018861406f565b614487602083018761406f565b8181036040830152614499818661408f565b905081810360608301526144ad818561408f565b905081810360808301526144c1818461408f565b90509695505050505050565b6144d681613ecd565b82525050565b60006020820190506144f160008301846144cd565b92915050565b6145008161423a565b811461450b57600080fd5b50565b60008135905061451d816144f7565b92915050565b6000806000806080858703121561453d5761453c613c57565b5b600061454b8782880161450e565b945050602085013567ffffffffffffffff81111561456c5761456b613c5c565b5b61457887828801613d94565b935050604085013567ffffffffffffffff81111561459957614598613c5c565b5b6145a587828801613d94565b925050606085013567ffffffffffffffff8111156145c6576145c5613c5c565b5b6145d287828801613d94565b91505092959194509250565b6145e781613ecd565b81146145f257600080fd5b50565b600081359050614604816145de565b92915050565b6000806040838503121561462157614620613c57565b5b600061462f85828601613c78565b9250506020614640858286016145f5565b9150509250929050565b6000806040838503121561466157614660613c57565b5b600083013567ffffffffffffffff81111561467f5761467e613c5c565b5b61468b85828601613d94565b925050602083013567ffffffffffffffff8111156146ac576146ab613c5c565b5b6146b885828601613d94565b9150509250929050565b600060a0830160008301516146da6000860182613a72565b5060208301516146ed6020860182613a72565b50604083015184820360408601526147058282613ad8565b9150506060830151848203606086015261471f8282613ad8565b915050608083015184820360808601526147398282613ad8565b9150508091505092915050565b6000602082019050818103600083015261476081846146c2565b905092915050565b6000806040838503121561477f5761477e613c57565b5b600061478d858286016145f5565b925050602061479e85828601613c78565b9150509250929050565b6147b18161423a565b82525050565b600060a0820190506147cc600083018861406f565b6147d960208301876147a8565b81810360408301526147eb818661408f565b905081810360608301526147ff818561408f565b90508181036080830152614813818461408f565b90509695505050505050565b6000806000806080858703121561483957614838613c57565b5b600061484787828801613c78565b945050602085013567ffffffffffffffff81111561486857614867613c5c565b5b61487487828801613d94565b935050604085013567ffffffffffffffff81111561489557614894613c5c565b5b6148a187828801613d94565b925050606085013567ffffffffffffffff8111156148c2576148c1613c5c565b5b6148ce87828801613d94565b91505092959194509250565b60006060820190506148ef60008301866144cd565b8181036020830152614901818561408f565b90508181036040830152614915818461408f565b9050949350505050565b7f4e487b7100000000000000000000000000000000000000000000000000000000600052602260045260246000fd5b6000600282049050600182168061496657607f821691505b6020821081036149795761497861491f565b5b50919050565b7f596f7520617265206e6f7420746865206f776e6572206f66207468697320636f60008201527f7700000000000000000000000000000000000000000000000000000000000000602082015250565b60006149db60218361407e565b91506149e68261497f565b604082019050919050565b60006020820190508181036000830152614a0a816149ce565b9050919050565b60008190508160005260206000209050919050565b60006020601f8301049050919050565b600082821b905092915050565b600060088302614a737fffffffffffffffffffffffffffffffffffffffffffffffffffffffffffffffff82614a36565b614a7d8683614a36565b95508019841693508086168417925050509392505050565b6000819050919050565b6000614aba614ab5614ab084613a68565b614a95565b613a68565b9050919050565b6000819050919050565b614ad483614a9f565b614ae8614ae082614ac1565b848454614a43565b825550505050565b600090565b614afd614af0565b614b08818484614acb565b505050565b5b81811015614b2c57614b21600082614af5565b600181019050614b0e565b5050565b601f821115614b7157614b4281614a11565b614b4b84614a26565b81016020851015614b5a578190505b614b6e614b6685614a26565b830182614b0d565b50505b505050565b600082821c905092915050565b6000614b9460001984600802614b76565b1980831691505092915050565b6000614bad8383614b83565b9150826002028217905092915050565b614bc682613a81565b67ffffffffffffffff811115614bdf57614bde613c97565b5b614be9825461494e565b614bf4828285614b30565b600060209050601f831160018114614c275760008415614c15578287015190505b614c1f8582614ba1565b865550614c87565b601f198416614c3586614a11565b60005b82811015614c5d57848901518255600182019150602085019450602081019050614c38565b86831015614c7a5784890151614c76601f891682614b83565b8355505b6001600288020188555050505b505050505050565b7f4e487b7100000000000000000000000000000000000000000000000000000000600052601160045260246000fd5b6000614cc982613a68565b9150614cd483613a68565b9250828203905081811115614cec57614ceb614c8f565b5b92915050565b7f4e487b7100000000000000000000000000000000000000000000000000000000600052603260045260246000fd5b6000614d2c82613a68565b91507fffffffffffffffffffffffffffffffffffffffffffffffffffffffffffffffff8203614d5e57614d5d614c8f565b5b600182019050919050565b7f4d696c6b206e6f7420666f756e64210000000000000000000000000000000000600082015250565b6000614d9f600f8361407e565b9150614daa82614d69565b602082019050919050565b60006020820190508181036000830152614dce81614d92565b9050919050565b7f436f77206e6f7420666f756e6421000000000000000000000000000000000000600082015250565b6000614e0b600e8361407e565b9150614e1682614dd5565b602082019050919050565b60006020820190508181036000830152614e3a81614dfe565b9050919050565b7f496e76616c6964206e6577206f776e6572206164647265737300000000000000600082015250565b6000614e7760198361407e565b9150614e8282614e41565b602082019050919050565b60006020820190508181036000830152614ea681614e6a565b9050919050565b600081549050614ebc8161494e565b9050919050565b818103614ed1575050614fa9565b614eda82614ead565b67ffffffffffffffff811115614ef357614ef2613c97565b5b614efd825461494e565b614f08828285614b30565b6000601f831160018114614f375760008415614f25578287015490505b614f2f8582614ba1565b865550614fa2565b601f198416614f4587614a11565b9650614f5086614a11565b60005b82811015614f7857848901548255600182019150600185019450602081019050614f53565b86831015614f955784890154614f91601f891682614b83565b8355505b6001600288020188555050505b5050505050505b565b7f4e487b7100000000000000000000000000000000000000000000000000000000600052603160045260246000fd5b7f596f7520617265206e6f7420746865206f776e6572206f662074686973206d6960008201527f6c6b000000000000000000000000000000000000000000000000000000000000602082015250565b600061503660228361407e565b915061504182614fda565b604082019050919050565b6000602082019050818103600083015261506581615029565b9050919050565b7f50726f64756374206e6f7420666f756e64210000000000000000000000000000600082015250565b60006150a260128361407e565b91506150ad8261506c565b602082019050919050565b600060208201905081810360008301526150d181615095565b9050919050565b60006020820190506150ed600083018461406f565b9291505056fea2646970667358221220f595d4533990aa50c3f74d3991b0ae9fe1c04d36f3330bbaf14bcd9bc1422f3f64736f6c63430008130033",
  "immutableReferences": {},
  "source": "pragma solidity ^0.8.17;\r\n\r\ncontract MilkTracker {\r\n\r\n    struct Dairy {\r\n        address dairyAddress;\r\n        string dairyName;\r\n        string dairyPlace;\r\n    }\r\n\r\n    struct Cow {\r\n        uint256 id;\r\n        uint16 weight;\r\n        string breed;\r\n        string birthDate;\r\n        string residence;\r\n    }\r\n\r\n    struct Milk {\r\n        uint256 id;\r\n        uint256 cowId;\r\n        string dateOfProduction;\r\n    }\r\n\r\n    struct Product { \r\n        uint256 id;\r\n        uint256 milkId;\r\n        string dateOfProduction;\r\n        string productType;\r\n        string expiryDate;\r\n    }\r\n\r\n    \r\n    modifier onlyOwnerOfCow(uint256 _cowId) {\r\n        require(cowToOwner[_cowId] == msg.sender, \"You are not the owner of this cow\");\r\n        _;\r\n    }\r\n\r\n     modifier onlyOwnerOfMilk(uint256 _milkId) {\r\n        require(milkToOwner[_milkId] == msg.sender, \"You are not the owner of this milk\");\r\n        _;\r\n    }\r\n\r\n    event ProductAdded(uint256 productId);\r\n    event SpoiledProduct(uint256 productId);\r\n    \r\n    Dairy[] public dairyList;\r\n    Cow[] public cowList;\r\n    Milk[] public milkList;\r\n    Product[] public productList;\r\n\r\n    mapping(uint256 => address) public cowToOwner;\r\n    mapping(uint256 => address) public milkToOwner; \r\n    mapping(address => Cow[]) public ownerToCowList;\r\n    mapping(address => Milk[]) public ownerToMilk;\r\n    mapping(uint256 => bool) public spoiledMilks;\r\n    mapping(uint256 => bool) public deathCows;\r\n   \r\n   \r\n    function addDairy(string memory _dairyName, string memory _dairyPlace) public {\r\n        Dairy memory myDairy = Dairy(msg.sender, _dairyName, _dairyPlace);\r\n        dairyList.push(myDairy);\r\n    }\r\n\r\n    function checkDairyIsRegistered() public view returns (bool) {\r\n        for(uint i=0; i < dairyList.length; i++) { \r\n            if(dairyList[i].dairyAddress == msg.sender) {\r\n                return true;\r\n            }\r\n        }\r\n        return false;\r\n    }\r\n\r\n    function getAllDairyExceptSelf() public view returns (Dairy[] memory) {\r\n        Dairy[] memory result = new Dairy[](dairyList.length - 1);\r\n        uint256 resultIndex = 0;\r\n        for (uint256 i = 0; i < dairyList.length; i++) {\r\n            if (dairyList[i].dairyAddress != msg.sender) {\r\n                result[resultIndex] = dairyList[i];\r\n                resultIndex++;\r\n            }\r\n        }\r\n        return result;\r\n    }\r\n\r\n    function transferCow(uint256 _cowId, address _newOwner) public onlyOwnerOfCow(_cowId) {\r\n        require(_newOwner != address(0), \"Invalid new owner address\");\r\n        //Delete cow from old owner mapping \r\n        for(uint i=0; i < ownerToCowList[msg.sender].length; i++) { \r\n            if(ownerToCowList[msg.sender][i].id == _cowId) {\r\n                ownerToCowList[msg.sender][i] = ownerToCowList[msg.sender][(ownerToCowList[msg.sender].length-1)];\r\n            }\r\n        }\r\n        ownerToCowList[msg.sender].pop();\r\n        //Add cow to new owner mapping\r\n        ownerToCowList[_newOwner].push(getCow(_cowId));\r\n        cowToOwner[_cowId] = _newOwner;\r\n    }\r\n\r\n    function transferMilk(uint256 _milkId, address _newOwner) public onlyOwnerOfMilk(_milkId) {\r\n        require(_newOwner != address(0), \"Invalid new owner address\");\r\n        \r\n        //Delete milk from old owner mapping \r\n        for(uint i=0; i < ownerToMilk[msg.sender].length; i++) { \r\n            if(ownerToMilk[msg.sender][i].id == _milkId) {\r\n                ownerToMilk[msg.sender][i] = ownerToMilk[msg.sender][(ownerToMilk[msg.sender].length-1)];\r\n            }\r\n        }\r\n        ownerToMilk[msg.sender].pop();\r\n        //Add milk to new owner mapping\r\n        ownerToMilk[_newOwner].push(getMilk(_milkId));\r\n        milkToOwner[_milkId] = _newOwner;\r\n    }\r\n\r\n\r\n    function addCow(uint16 _weight, string memory _breed, string memory _birthDate, string memory _residence) public {\r\n        Cow memory myCow = Cow(cowList.length, _weight, _breed, _birthDate, _residence);\r\n        cowList.push(myCow);\r\n        //Increase cow count that is used as id\r\n        cowToOwner[myCow.id] = msg.sender;\r\n        ownerToCowList[msg.sender].push(myCow);\r\n    }\r\n    \r\n    function addMilk(uint256 _cowId, string memory _dateOfProduction) public onlyOwnerOfCow(_cowId) {\r\n        //Check if cow exists\r\n        Milk memory myMilk = Milk(milkList.length, _cowId, _dateOfProduction);\r\n        spoiledMilks[milkList.length] = false;\r\n        milkList.push(myMilk);\r\n        ownerToMilk[msg.sender].push(myMilk);\r\n        milkToOwner[myMilk.id] = msg.sender;\r\n    }\r\n    \r\n    function addProduct(uint256 _milkId, string memory _dateOfProduction, string memory _productType, string memory _expiryDate) public  onlyOwnerOfMilk(_milkId) {\r\n        //Check if milk exists\r\n        Product memory  myProduct = Product( productList.length, _milkId, _dateOfProduction, _productType, _expiryDate);\r\n        emit ProductAdded(productList.length); \r\n        productList.push(myProduct);\r\n    }\r\n\r\n    function killCow(uint256 _cowId) public onlyOwnerOfCow(_cowId) {\r\n        deathCows[_cowId] = true;\r\n    }\r\n\r\n    function getAllCows() public view returns(Cow[] memory) {\r\n        return cowList;\r\n    }\r\n\r\n    function getCowsOfOwner() public view returns(Cow[] memory) {\r\n        return ownerToCowList[msg.sender];\r\n    }\r\n\r\n    function getAliveCowsOfOwner() public view returns(Cow[] memory) {\r\n        Cow[] memory cows = ownerToCowList[msg.sender];\r\n        uint256 aliveCows = 0;\r\n        for(uint i=0; i < cows.length; i++) { \r\n            if(deathCows[cows[i].id] == false) {\r\n                aliveCows++;\r\n            }\r\n        }\r\n        Cow[] memory aliveCowList = new Cow[](aliveCows);\r\n        uint256 index = 0;\r\n        for(uint i=0; i < cows.length; i++) { \r\n            if(deathCows[cows[i].id] == false) {\r\n                aliveCowList[index] = cows[i];\r\n                index++;\r\n            }\r\n        }\r\n        return aliveCowList;\r\n    }\r\n    \r\n    function getAllMilks() public view returns(Milk[] memory) {\r\n        return milkList;\r\n    }\r\n\r\n    function getMilksOfOwner() public view returns (Milk[] memory) {\r\n        return ownerToMilk[msg.sender];    \r\n    }\r\n\r\n    function reportSpoiledProduct(uint256 _productId) public {\r\n        uint256 milkId = getProduct(_productId).milkId;\r\n        spoiledMilks[milkId] = true;\r\n    }\r\n\r\n    function getAllProducts() public view returns(Product[] memory) {\r\n        return productList;\r\n    }\r\n\r\n    function getProduct(uint256 _productId) public view returns(Product memory) {\r\n        for(uint i=0; i < productList.length; i++) { \r\n            if(productList[i].id == _productId) {\r\n                return productList[i];\r\n            }\r\n        }\r\n        revert(\"Product not found!\"); //Undo, return value, give back gas \r\n    }\r\n\r\n    function isMilkSpoiled(uint256 _milkId) public view returns(bool) {\r\n        return spoiledMilks[_milkId];\r\n    }\r\n\r\n    function getMilk(uint256 _milkId) public view returns(Milk memory) {\r\n        for(uint i=0; i < milkList.length; i++) { \r\n            if(milkList[i].id == _milkId) {\r\n                return milkList[i];\r\n            }\r\n        }\r\n        revert(\"Milk not found!\"); //Undo, return value, give back gas \r\n    }\r\n\r\n    function getCow(uint256 _cowId) public view returns(Cow memory) {\r\n        for(uint i=0; i < cowList.length; i++) { \r\n            if(cowList[i].id == _cowId) {\r\n                return cowList[i];\r\n            }\r\n        }\r\n        revert(\"Cow not found!\"); //Undo, return value, give back gas \r\n    }\r\n}",
  "sourcePath": "C:\\Users\\tomas\\Desktop\\Blockchain-Project\\blockchain\\contracts\\MilkTracker.sol",
  "compiler": {
    "name": "solc",
    "version": "0.8.19+commit.7dd6d404.Emscripten.clang"
  },
  "schemaVersion": "3.4.13",
  "updatedAt": "2023-08-03T07:45:53.880Z",
  "networkType": "ethereum",
  "devdoc": {
    "kind": "dev",
    "methods": {},
    "version": 1
  },
  "userdoc": {
    "kind": "user",
    "methods": {},
    "version": 1
  }
}